S00B00006173702E73726563D5
S3150800800020BB0020D98100082D8200082D82000897
S315080080102D8200082D8200082D8200082D82000876
S315080080200000000000000000000000001D8300089A
S315080080302D820008000000006B820008C9FD0008B8
S31508008040C9FD0008C9FD0008C9FD0008C9FD0008EA
S31508008050C9FD0008C9FD0008C9FD0008C9FD0008DA
S31508008060C9FD0008C9FD0008C9FD0008C9FD0008CA
S31508008070C9FD0008C9FD0008C9FD0008C9FD0008BA
S31508008080C9FD0008C9FD0008C9FD0008C9FD0008AA
S31508008090C9FD0008C9FD0008C9FD0008C9FD00089A
S315080080A0C9FD0008C9FD0008C9FD0008C9FD00088A
S315080080B0C9FD0008C9FD0008C9FD0008C9FD00087A
S315080080C0C9FD0008C9FD0008C9FD0008C9FD00086A
S315080080D0C9FD0008C9FD0008C9FD0008C9FD00085A
S315080080E0C9FD0008C9FD0008C9FD0008C9FD00084A
S315080080F0C9FD0008C9FD0008C9FD0008C9FD00083A
S31508008100C9FD0008C9FD0008C9FD0008C9FD000829
S31508008110C9FD0008C9FD0008C9FD0008C9FD000819
S31508008120C9FD0008C9FD0008C9FD0008C9FD000809
S31508008130C9FD0008C9FD0008C9FD0008C9FD0008F9
S31508008140C9FD0008C9FD0008C9FD0008C9FD0008E9
S31508008150C9FD0008C9FD0008C9FD0008C9FD0008D9
S31508008160C9FD0008C9FD0008C9FD0008C9FD0008C9
S31508008170C9FD0008C9FD0008C9FD0008C9FD0008B9
S31508008180C9FD0008C9FD0008C9FD0008C9FD0008A9
S31508008190C9FD0008C9FD0008C9FD0008C9FD000899
S315080081A0C9FD0008C9FD0008C9FD0008C9FD000889
S315080081B0C9FD0008C9FD0008C9FD0008C9FD000879
S315080081C0C9FD0008C9FD0008C9FD0008C9FD000869
S315080081D0C9FD0008C9FD000871B605F069FD002053
S315080081E00D490E4A914203D2086004319142FBD3ED
S315080081F00B490C4A914206D20B4B086818600431A9
S3150800820004339142F9D300F005F807F081FEFEE742
S31508008210704700BF7047000000100020DC5901209D
S31508008220D47203087A7C030800000020EFF311815A
S31508008230EFF3108251EA02211EF0040F05D0EFF386
S31508008240098020E9024002B501E002B56846744A91
S3150800825013680CB4EFF30583724951F8232090474D
S315080082600FBC016082F311881847102080F311882B
S315080082706D49086858B1EFF309821EF0100F01D155
S3150800828022ED108A22E9F00F8261C0F81CE06748E7
S3150800829000680860A0B1C16911F07F42B2F17F4F52
S315080082A01AD18269B2E8F00F11F0100F01D1B2ECC1
S315080082B0108A82F30988002071B680F3118808476E
S315080082C0EFF309805A495FF0807220E906001838F2
S315080082D080F30988DFF840F0426A4AB1554A5FF0F0
S315080082E080738069B0E8F00F20E90E00143807E0C3
S315080082F08069B0E8F00F5FF0807220E90600183850
S3150800830080F30988464801210160BFF34F8FDFF8E3
S3150800831008F0BDEC108A7047FDFFFFFF40480021BA
S315080083200160002080F31188A0692900B0E8F00FE9
S3150800833011F0100F01D1B0EC108A80F309880847B4
S315080083403D48016881F30888022080F31488BFF34A
S315080083506F8F3A49D1F814D034490968324A61B660
S315080083601BE0022383F31488BFF36F8F2F49096834
S315080083702D4A12E0EFF3148313F0040306D02DED13
S31508008380108A022383F31488BFF36F8F43622DE9A3
S31508008390F00FC0F81CE0C0F818D0116089B1CA699E
S315080083A012F07F40B0F17F4F02D10C00150000DFBC
S315080083B0D1F818D0BDE8F00F4B6A0BB1BDEC108AA6
S315080083C01047174800210160BFF34F8F002080F344
S315080083D01188BFF34F8F30BFFBE700BF104800215D
S315080083E00160BFF34F8F002080F311880E480168A3
S315080083F08A685068DFF848E0D2F808F0002181F36F
S315080084001488BFF36F8F07F0AFBD00BFA0F153000C
S31508008410002800DC7047A0F131000028FBDC70471B
S315080084201CFD0020202A030830FD002034FD002012
S31508008430C2830008128300081C2D03089C2D03081C
S315080084404904010881F0004102E000BF83F00043BF
S3150800845030B54FEA41044FEA430594EA050F08BFD1
S3150800846090EA020F1FBF54EA000C55EA020C7FEA95
S31508008470645C7FEA655C00F0E2804FEA5454D4EB12
S315080084805555B8BF6D420CDD2C4480EA020281EADC
S31508008490030382EA000083EA010180EA020281EA14
S315080084A00303362D88BF30BD11F0004F4FEA013166
S315080084B04FF4801C4CEA113102D0404261EB410175
S315080084C013F0004F4FEA03334CEA133302D05242FB
S315080084D063EB430394EA050F00F0A780A4F10104B7
S315080084E0D5F1200E0DDB02FA0EFC22FA05F28018F1
S315080084F041F1000103FA0EF2801843FA05F35941D7
S315080085000EE0A5F120050EF1200E012A03FA0EFC55
S3150800851028BF4CF0020C43FA05F3C01851EBE3717F
S3150800852001F0004507D54FF0000EDCF1000C7EEB9C
S3150800853000006EEB0101B1F5801F1BD3B1F5001FDA
S315080085400CD349085FEA30004FEA3C0C04F10104F9
S315080085504FEA445212F5800F80F09A80BCF1004F22
S3150800856008BF5FEA500C50F1000041EB045141EAA4
S31508008570050130BD5FEA4C0C404141EB0101013C6D
S3150800858028BFB1F5801FE9D291F0000F04BF01465C
S315080085900020B1FA81F308BF2033A3F10B03B3F12E
S315080085A020020CDA0C3208DD02F1140CC2F10C02BE
S315080085B001FA0CF021FA02F10CE002F11402D8BF1C
S315080085C0C2F1200C01FA02F120FA0CFCDCBF41EAE8
S315080085D00C019040E41AA2BF01EB0451294330BDB7
S315080085E06FEA04041F3C1CDA0C340EDC04F1140494
S315080085F0C4F1200220FA04F001FA02F340EA03006B
S3150800860021FA04F345EA030130BDC4F10C04C4F1B0
S31508008610200220FA02F001FA04F340EA0300294690
S3150800862030BD21FA04F0294630BD94F0000F83F4DA
S31508008630801306BF81F480110134013D4EE77FEABD
S31508008640645C18BF7FEA655C29D094EA050F08BF09
S3150800865090EA020F05D054EA000C04BF19461046EA
S3150800866030BD91EA030F1EBF0021002030BD5FEA2E
S31508008670545C05D14000494128BF41F0004130BD56
S3150800868014F580043CBF01F5801130BD01F00045AA
S3150800869045F0FE4141F470014FF0000030BD7FEA1D
S315080086A0645C1ABF194610467FEA655C1CBF0B4618
S315080086B0024650EA013406BF52EA033591EA030F2F
S315080086C041F4002130BD00BF90F0000F04BF002127
S315080086D0704730B54FF4806404F132044FF000055A
S315080086E04FF0000150E700BF90F0000F04BF0021D3
S315080086F0704730B54FF4806404F1320410F0004539
S3150800870048BF40424FF000013EE700BF42004FEA33
S31508008710E2014FEA31014FEA02701FBF12F07F43B0
S3150800872093F07F4F81F06051704732F07F4208BF67
S31508008730704793F07F4F04BF41F40021704730B56E
S315080087404FF4607401F0004521F000411CE700BFBA
S3150800875050EA010208BF704730B54FF000050AE03D
S3150800876050EA010208BF704730B511F0004502D53E
S31508008770404261EB41014FF4806404F132045FEA40
S31508008780915C3FF4D8AE4FF003025FEADC0C18BFE9
S3150800879003325FEADC0C18BF033202EBDC02C2F1DB
S315080087A0200300FA03FC20FA02F001FA03FE40EA6D
S315080087B00E0021FA02F11444BDE600BF70B54FF071
S315080087C0FF0C4CF4E06C1CEA11541DBF1CEA13554F
S315080087D094EA0C0F95EA0C0F00F0DEF82C4481EAB7
S315080087E0030621EA4C5123EA4C5350EA013518BFD7
S315080087F052EA033541F4801143F4801338D0A0FBC4
S3150800880002CE4FF00005E1FB02E506F00042E0FB70
S3150800881003E54FF00006E1FB03569CF0000F18BF76
S315080088204EF0010EA4F1FF04B6F5007F64F540741E
S3150800883004D25FEA4E0E6D4146EB060642EAC621B1
S3150800884041EA55514FEAC52040EA5E504FEACE2E1E
S31508008850B4F1FD0C88BFBCF5E06F1ED8BEF1004F21
S3150800886008BF5FEA500E50F1000041EB045170BD9D
S3150800887006F0004646EA010140EA020081EA0301E1
S31508008880B4EB5C04C2BFD4EB0C0541EA045170BDDD
S3150800889041F480114FF0000E013C00F3AB8014F157
S315080088A0360FDEBF002001F0004170BDC4F10004A0
S315080088B0203C35DA0C341BDC04F11404C4F1200521
S315080088C000FA05F320FA04F001FA05F240EA02007C
S315080088D001F0004221F0004110EBD37021FA04F6B2
S315080088E042EB06015EEA430E08BF20EAD37070BD6C
S315080088F0C4F10C04C4F1200500FA04F320FA05F0CB
S3150800890001FA04F240EA020001F0004110EBD370CC
S3150800891041F100015EEA430E08BF20EAD37070BD3C
S31508008920C4F1200500FA05F24EEA020E20FA04F315
S3150800893001FA05F243EA020321FA04F001F00041C4
S3150800894021FA04F220EA020000EBD3705EEA430E35
S3150800895008BF20EAD37070BD94F0000F0FD101F064
S315080089600046400041EB010111F4801F08BF013C9D
S31508008970F7D041EA060195F0000F18BF704703F0DB
S315080089800046520043EB030313F4801F08BF013D62
S31508008990F7D043EA0603704794EA0C0F0CEA13551E
S315080089A018BF95EA0C0F0CD050EA410618BF52EAD8
S315080089B04306D1D181EA030101F000414FF00000DE
S315080089C070BD50EA410606BF1046194652EA4306EC
S315080089D019D094EA0C0F02D150EA013613D195EA60
S315080089E00C0F05D152EA03361CBF104619460AD1A8
S315080089F081EA030101F0004141F0FE4141F47001B2
S31508008A004FF0000070BD41F0FE4141F4780170BDA1
S31508008A1070B54FF0FF0C4CF4E06C1CEA11541DBF06
S31508008A201CEA135594EA0C0F95EA0C0F00F0A7F808
S31508008A30A4EB050481EA030E52EA03354FEA013135
S31508008A4000F088804FEA03334FF0805545EA131348
S31508008A5043EA12634FEA022245EA111545EA106510
S31508008A604FEA00260EF000419D4208BF964244F1A7
S31508008A70FD0404F5407402D25B084FEA3202B61AC6
S31508008A8065EB03055B084FEA32024FF480104FF49A
S31508008A90002CB6EB020E75EB030E22BFB61A75460E
S31508008AA040EA0C005B084FEA3202B6EB020E75EBA1
S31508008AB0030E22BFB61A754640EA5C005B084FEA09
S31508008AC03202B6EB020E75EB030E22BFB61A7546D6
S31508008AD040EA9C005B084FEA3202B6EB020E75EBE1
S31508008AE0030E22BFB61A754640EADC0055EA060EA2
S31508008AF018D04FEA051545EA16754FEA06164FEAE5
S31508008B00C30343EA52734FEAC2025FEA1C1CC0D190
S31508008B1011F4801F0BD141EA00014FF000004FF01D
S31508008B20004CB6E711F4801F04BF01430020B4F1DE
S31508008B30FD0C88BFBCF5E06F3FF6AFAEB5EB030C96
S31508008B4004BFB6EB020C5FEA500C50F1000041EB93
S31508008B50045170BD0EF0004E4EEA113114EB5C0460
S31508008B60C2BFD4EB0C0541EA045170BD41F4801133
S31508008B704FF0000E013C90E645EA060E8DE60CEA3B
S31508008B80135594EA0C0F08BF95EA0C0F3FF43BAF58
S31508008B9094EA0C0F0AD150EA01347FF434AF95EA0F
S31508008BA00C0F7FF425AF104619462CE795EA0C0FF3
S31508008BB006D152EA03353FF4FDAE1046194622E7C0
S31508008BC050EA410618BF52EA43067FF4C5AE50EA9A
S31508008BD041047FF40DAF52EA43057FF4EBAE12E78A
S31508008BE04FF0FF3C06E000BF4FF0010C02E000BF6B
S31508008BF04FF0010C4DF804CD4FEA410C7FEA6C5C4E
S31508008C004FEA430C18BF7FEA6C5C1BD001B050EAF0
S31508008C10410C0CBF52EA430C91EA030F02BF90EADB
S31508008C20020F0020704710F1000F91EA030F58BF9A
S31508008C30994208BF90422CBFD8176FEAE37040F0FC
S31508008C40010070474FEA410C7FEA6C5C02D150EA9A
S31508008C50013C07D14FEA430C7FEA6C5CD6D152EA55
S31508008C60033CD3D05DF8040B704700BF844610461A
S31508008C7062468C461946634600E000BF01B5FFF719
S31508008C80B7FF002848BF10F1000F01BD4DF808EDE9
S31508008C90FFF7F4FF0CBF012000205DF808FB00BFBA
S31508008CA04DF808EDFFF7EAFF34BF012000205DF814
S31508008CB008FB00BF4DF808EDFFF7E0FF94BF012061
S31508008CC000205DF808FB00BF4DF808EDFFF7CEFF62
S31508008CD094BF012000205DF808FB00BF4DF808EDA1
S31508008CE0FFF7C4FF34BF012000205DF808FB00BF72
S31508008CF04FEA410C7FEA6C5C02D150EA013C0AD18A
S31508008D004FEA430C7FEA6C5C02D152EA033C02D17B
S31508008D104FF0000070474FF0010070474A0011D22B
S31508008D2012F5001211D20DD56FF47873B3EB6252B7
S31508008D300ED44FEAC12343F0004343EA505323FAC3
S31508008D4002F070474FF00000704750EA013002D138
S31508008D504FF0FF3070474FF0000070474FEA41026E
S31508008D60B2F1E04324BFB3F5001CDCF1FE5C0DD97B
S31508008D7001F0004C4FEAC0024CEA5070B2F1004FC5
S31508008D8040EB830008BF20F00100704711F0804FC8
S31508008D9021D113F13872BCBF01F00040704741F48D
S31508008DA080114FEA5252C2F11802C2F1200C10FA91
S31508008DB00CF320FA02F018BF40F001004FEAC12375
S31508008DC04FEAD32303FA0CFC40EA0C0023FA02F319
S31508008DD04FEA4303CCE77FEA625307D150EA0133EF
S31508008DE01EBF4FF0FE4040F44000704701F00040BF
S31508008DF040F0FE4040F40000704700BF7BB972B9EE
S31508008E000029BEBF00204FF0004106E008BF002839
S31508008E101CBF6FF000414FF0FF3000F0A7B9ADF16D
S31508008E20080C6DE904CE002909DB002B1ADB00F0DB
S31508008E3035F8DDF804E0DDE9022304B07047404266
S31508008E4061EB4101002B1BDB00F028F8DDF804E09C
S31508008E50DDE9022304B0404261EB4101524263EB73
S31508008E6043037047524263EB430300F017F8DDF8FB
S31508008E7004E0DDE9022304B0404261EB410170479A
S31508008E80524263EB430300F009F8DDF804E0DDE93C
S31508008E90022304B0524263EB430370472DE9F047BF
S31508008EA0089D04468E46002B4DD18A42944669D9C0
S31508008EB0B2FA82F252B101FA02F3C2F1200120FAA3
S31508008EC001F10CFA02FC41EA030E94404FEA1C48F1
S31508008ED0210CBEFBF8F61FFA8CF708FB16E341EAED
S31508008EE0034306FB07F199420AD91CEB030306F173
S31508008EF0FF3080F01F81994240F21C81023E634494
S31508008F005B1AA4B2B3FBF8F008FB103344EA034437
S31508008F1000FB07F7A7420AD91CEB040400F1FF334C
S31508008F2080F00A81A74240F207816444023840EA89
S31508008F300640E41B00261DB1D4400023C5E90043C2
S31508008F403146BDE8F0878B4209D9002D00F0EF8045
S31508008F500026C5E9000130463146BDE8F087B3FA78
S31508008F6083F6002E4AD18B4202D3824200F2F98060
S31508008F70841A61EB030301209E46002DE0D0C5E963
S31508008F80004EDDE702B9FFDEB2FA82F2002A40F0AF
S31508008F909280A1EB0C014FEA1C471FFA8CFE0126B2
S31508008FA0200CB1FBF7F307FB131140EA01410EFB56
S31508008FB003F0884208D91CEB010103F1FF3802D2FD
S31508008FC0884200F2CB804346091AA4B2B1FBF7F0F7
S31508008FD007FB101144EA01440EFB00FEA64508D91A
S31508008FE01CEB040400F1FF3102D2A64500F2BB8057
S31508008FF00846A4EB0E0440EA03409CE7C6F12007A6
S31508009000B34022FA07FC4CEA030C20FA07F401FAEB
S3150800901006F31C43F9404FEA1C4900FA06F3B1FB74
S31508009020F9F8200C1FFA8CFE09FB181140EA0141D9
S3150800903008FB0EF0884202FA06F20BD91CEB010176
S3150800904008F1FF3A80F08880884240F28580A8F1CE
S3150800905002086144091AA4B2B1FBF9F009FB101120
S3150800906044EA014100FB0EFE8E4508D91CEB0101BE
S3150800907000F1FF346CD28E456AD90238614440EA61
S315080090800840A0FB0294A1EB0E01A142C846A646E1
S3150800909056D353D05DB1B3EB080261EB0E0101FA6A
S315080090A007F722FA06F3F1401F43C5E900710026C7
S315080090B03146BDE8F087C2F12003D8400CFA02FC1D
S315080090C021FA03F3914001434FEA1C471FFA8CFE2D
S315080090D0B3FBF7F007FB10360B0C43EA064300FB1D
S315080090E00EF69E4204FA02F408D91CEB030300F1BB
S315080090F0FF382FD29E422DD9023863449B1B89B272
S31508009100B3FBF7F607FB163341EA034106FB0EF3FA
S315080091108B4208D91CEB010106F1FF3816D28B42A7
S3150800912014D9023E6144C91A46EA004638E72E4673
S31508009130284605E70646E3E61846F8E64B45A9D26B
S31508009140B9EB020864EB0C0E0138A3E74646EAE7DA
S31508009150204694E74046D1E7D0467BE7023B614488
S3150800916032E7304609E76444023842E7704700BFF1
S31508009170844641EA000313F003036DD1403A41D314
S3150800918051F8043B40F8043B51F8043B40F8043BD3
S3150800919051F8043B40F8043B51F8043B40F8043BC3
S315080091A051F8043B40F8043B51F8043B40F8043BB3
S315080091B051F8043B40F8043B51F8043B40F8043BA3
S315080091C051F8043B40F8043B51F8043B40F8043B93
S315080091D051F8043B40F8043B51F8043B40F8043B83
S315080091E051F8043B40F8043B51F8043B40F8043B73
S315080091F051F8043B40F8043B51F8043B40F8043B63
S31508009200403ABDD2303211D351F8043B40F8043B02
S3150800921051F8043B40F8043B51F8043B40F8043B42
S3150800922051F8043B40F8043B103AEDD20C3205D312
S3150800923051F8043B40F8043B043AF9D2043208D00A
S31508009240D2071CBF11F8013B00F8013B01D30B887C
S3150800925003806046704700BF082A13D38B078DD05A
S3150800926010F003038AD0C3F10403D21ADB071CBF2C
S3150800927011F8013B00F8013B80D331F8023B20F896
S31508009280023B7BE7043AD9D3013A11F8013B00F8CF
S31508009290013BF9D20B7803704B7843708B78837057
S315080092A06046704700000000000000000000000053
S315080092B000000000000000000000000000000000A0
S315080092C0A2EB0300704700BF02780B78012A28BF7B
S315080092D09A42F5D16DE9044540EA0104CDE90267F1
S315080092E06FF0000C4FEA447212B380EA010414F0DE
S315080092F0070F6AD100F0070420F0070004F0030501
S3150800930021F007014FEAC505F0E8042314F0040F1D
S31508009310F1E804670CFA05F462EA040266EA040650
S315080093200AD063EA0403624667EA0407664603E06E
S31508009330F0E80423F1E8046782FA4CF582EA0604A9
S31508009340A4FA8CF46CBB83FA4CF583EA0705A5FAF4
S315080093508CF595B950E9022351E9026782FA4CF572
S3150800936082EA0604A4FA8CF483FA4CF583EA070524
S31508009370A5FA8CF52543DBD09CB92DBAB5FA85F448
S3150800938024F0070427FA04F1DDE9026723FA04F357
S3150800939003F0FF0001F0FF01FDE80445A0EB010022
S315080093A0704724BAB4FA84F424F0070426FA04F1C0
S315080093B0DDE9026722FA04F202F0FF0001F0FF017C
S315080093C0FDE80445A0EB0100704714F0030F3CD1FB
S315080093D010F0030428D150F8082B51F8083B82FAFC
S315080093E04CF582EA0305A5FA8CF55DB950F8042C0C
S315080093F051F8043C82FA4CF582EA0305A5FA8CF585
S31508009400002DE8D02DBAB5FA85F424F0070423FA1E
S3150800941004F122FA04F202F0FF0001F0FF01FDE870
S315080094200445A0EB010070474FEAC40420F003008E
S3150800943050F8082B21F0030151F8083B0CFA04F404
S3150800944062EA040263EA0403C9E710F003041AD0C7
S31508009450A1EB040120F00300E40750F8042B06D022
S315080094600FD28B785FFAA2F4E41A06D12BB1CB7827
S315080094705FFAB2F4E41A00D11BB920465DF8104B26
S31508009480704701F1040150F8042BCC0721F00301C1
S3150800949051F8043B48D824D222F07F4482FA4CF58E
S315080094A094EA1325A5FA8CF50AD165B951F8043B57
S315080094B084EA0204B4EB036F0ED150F8042BEBE7F1
S315080094C04FEA132355E035F07F454DD10878FDE87E
S315080094D00445C0F1000070474FEA126203F0FF032B
S315080094E047E002EA1C4482FA4CF594EA1345A5FAC9
S315080094F08CF50AD165B951F8043B84EA0204B4EB49
S31508009500034F0CD150F8042BEBE74FEA134330E036
S3150800951015EA1C4528D10B884FEA124229E04FEA82
S31508009520124203EA1C4324E002F0FF0482FA4CF5D7
S3150800953094EA1365A5FA8CF50AD165B951F8043B86
S3150800954084EA0204B4EB032F09D150F8042BEBE7A5
S315080095504FEA13630DE015F0FF0F05D10B684FEACC
S31508009560122223F07F4304E04FF00000FDE8044593
S31508009570704712BA1BBA82FA4CF482EA0304A4FAB8
S315080095808CF5B5FA85F402FA04F203FA04F34FEA05
S315080095901260FDE80445A0EB136070470000000068
S315080095A000000000000000000000000000000000AD
S315080095B0000000000000000000000000000000009D
S315080095C090F800F06DE9024520F007016FF0000CF5
S315080095D010F0070491F820F040F049804FF000049D
S315080095E06FF00700D1E9002391F840F000F1080078
S315080095F082FA4CF2A4FA8CF283FA4CF3A2FA8CF3B0
S315080096004BBBD1E9022382FA4CF200F10800A4FA16
S315080096108CF283FA4CF3A2FA8CF3E3B9D1E904236A
S3150800962082FA4CF200F10800A4FA8CF283FA4CF3A1
S31508009630A2FA8CF37BB9D1E9062301F1200182FA5B
S315080096404CF200F10800A4FA8CF283FA4CF3A2FA61
S315080096508CF3002BC6D0002A04BF04301A4612BA6F
S31508009660B2FA82F2FDE8024500EBD2007047D1E972
S31508009670002304F00305C4F100004FEAC50514F001
S31508009680040F91F840F00CFA05F562EA05021CBFD2
S3150800969063EA050362464FF00004A9E700000000EC
S315080096A001F0FF01102A2BDB10F0070F08D010F885
S315080096B0013B013A8B422DD010F0070F42B3F6D189
S315080096C0F0B441EA012141EA014122F007047FF0A2
S315080096D000070023F0E80256083C85EA010586EAF9
S315080096E0010685FA47F5A3FA87F586FA47F6A5FA35
S315080096F087F68EB9EED1F0BC01F0FF0102F0070241
S3150800970032B110F8013B013A83EA010313B1F8D1EB
S315080097100020704701387047002D06BF35460338CC
S31508009720073815F0010F07D1013015F4807F02BF05
S31508009730013015F4C03F0130F0BC0138704700BF56
S315080097404FEA410212F5001215D211D56FF478735B
S31508009750B3EB625212D94FEAC12343F0004343EAFE
S31508009760505311F0004F23FA02F018BF40427047D9
S315080097704FF00000704750EA013005D111F0004063
S3150800978008BF6FF0004070474FF00000704700BFF9
S3150800979053B94AB9002908BF00281CBF4FF0FF314A
S315080097A04FF0FF30FFF7E2BCADF1080C6DE904CECF
S315080097B0FFF774FBDDF804E0DDE9022304B0704727
S315080097C038B50022002304460D46FFF769FA28B982
S315080097D020462946BDE8384000F00AB8204605F17B
S315080097E0004100F005F8404261EB410138BD00BF79
S315080097F0D0B50C4B002206460F46FEF7DFFFFFF7F3
S315080098008DFA0446FEF760FF074B0022FEF7D6FFE7
S3150800981002460B4630463946FEF718FEFFF77EFA33
S315080098202146D0BD0000F03D0000F04108B501F02A
S3150800983023FC02F059F901F039FD02F0E1FE02F0CD
S3150800984055FF01F0EBFD01F0E5FE01F0B1FF02F076
S31508009850AFF801F0F5FF02F09DFE02F0BFFB02F043
S315080098601DFDBDE8084002F0F5B900BF10B5094B6B
S3150800987093E8030082B06C4684E80300064806F0C5
S315080098808BFD064A2146022001F00AFA04F080FB05
S3150800989002B010BD98130308C0C62D002D98000805
S315080098A02DE9F04FB0FBF1FC1D4601FB1C0385B00A
S315080098B0D35CDDF838808DF8043001AFDDE90F960A
S315080098C0BE46012400E09C46814260460AD8BCFB9D
S315080098D0F1F301FB13CC013412F80CC00EF801CFDA
S315080098E00B2CF0D1B8F1000F2AD005B1013DB9F122
S315080098F0000F01D02D20B047AC421BD2B9F1000FA2
S3150800990014BF4FF0300B4FF0200BA24658460AF111
S31508009910010AB047AA45F9D3B8F1000F0AD1013CAC
S315080099203C442078B047BC4204F1FF34F9D105B075
S31508009930BDE8F08FB9F1000FF1D12D20B047EEE761
S31508009940AC42DBD3EBE700BF2DE9F04F83468246F6
S315080099501BF8010B85B0002859D0DFF88091DFF895
S3150800996080815D4F0E461446002507E0A047DA467B
S315080099700BF1010B9AF80000002848D02528F5D1EC
S31508009980042DF3D89AF80120302A46D00AF1020AA3
S315080099900020A2F13003092B4FF000030BD803EB8C
S315080099A0830302EB43031AF8012BA2F130010929BC
S315080099B0A3F13003F3D96C2A2CD002F0DF01542925
S315080099C028D0782A1DD8572A15D9583A202A18D8BF
S315080099D0DFE802F056171717171717171717176420
S315080099E06B17171717171717171717172917173773
S315080099F0174817172900002A6AD0252A01D11046C8
S31508009A00A0470AF1010B9AF800000028B6D105B064
S31508009A10BDE8F08F1AF8012BD3E79AF80220012047
S31508009A200AF1030AB5E7CDE901040022009256F8C7
S31508009A30250042461021FFF733FF01350AF1010BD5
S31508009A4098E756F825B01BF8010B01350028D8D041
S31508009A50A0479BF800000BF1010B0028F8D10AF18A
S31508009A60010BD0E7CDE901040022009256F8250043
S31508009A703A460A21FFF714FF01350AF1010B79E787
S31508009A80CDE901040022009256F825004A46102125
S31508009A90FFF706FF01350AF1010B6BE716F82500FB
S31508009AA0A04701350AF1010B64E756F82520002A7C
S31508009AB0CDE90104ABBF10465042002201220092B4
S31508009AC00A213A46FFF7ECFE01350AF1010B9AE73F
S31508009AD0D3460AF1FF3A4DE75C1403084814030815
S31508009AE0681403080268012A10B503460C4602D01A
S31508009AF0022A0BD010BD80680A4603F10C01FFF755
S31508009B0023FF23460A20BDE8104018470A460248A4
S31508009B1003F10801F3E700BF1014030810B582B07B
S31508009B2003460A460C460448019301A9FFF70CFFB1
S31508009B300A20A04702B010BD3014030830B501232F
S31508009B40036081600C789E4644B1BEF1050F05D8C6
S31508009B50252C04D011F8014F002CF6D130BD4B78D6
S31508009B6001F1020CA3F13001092905D81CF8013BC3
S31508009B70A3F130010929F9D96C2B5BD003F0DF0179
S31508009B8054291DD0002B00F0B480583BD9B22029A7
S31508009B9000F2B580202B00F2B280DFE803F040B077
S31508009BA0B0B0B0B0B0B0B0B0B04040B0B0B0B0B087
S31508009BB0B0B0B0B0B0B030B0B030B040B0B0400027
S31508009BC0614611F8014B002C00F09780583CE5B22D
S31508009BD0202D7FD8202C7DD8DFE804F01C7C7C7CE7
S31508009BE07C7C7C7C7C7C7C227F7C7C7C7C7C7C7CFE
S31508009BF07C7C7C7C127C7C127C1C7C7C1C006146F8
S31508009C000EF1020352F8044B40F823400EF1010E00
S31508009C100C7899E7742B03D0542B64D08C46614694
S31508009C2052F8044B0EF102030EF1010E40F82340E0
S31508009C300C7889E7614611F8014B002C5DD0583C39
S31508009C40E3B2202B46D8202C44D801A353F824F09D
S31508009C50219C0008D59C0008D59C0008D59C0008C6
S31508009C60D59C0008D59C0008D59C0008D59C000802
S31508009C70D59C0008D59C0008D59C0008219C0008A6
S31508009C80219C0008D59C0008D59C0008D59C000896
S31508009C90D59C0008D59C0008D59C0008D59C0008D2
S31508009CA0D59C0008D59C0008D59C0008D59C0008C2
S31508009CB0019C0008D59C0008D59C0008019C00085A
S31508009CC0D59C0008219C0008D59C0008D59C000856
S31508009CD0219C00089CF8014036E76C2BA0D0742B19
S31508009CE09ED0542B9CD1073222F0070252F8084B1B
S31508009CF098E71CF8014C0CF1FF3C614624E79CF8F8
S31508009D000040614620E700BF10B504460078A0F180
S31508009D1020035E2B19D90D2828D00A284FF05C009D
S31508009D2017D003F067FB782003F064FB24789F2C98
S31508009D304FEA14108CBF3730303004F00F0403F0AC
S31508009D4059FB092C0CD804F13000BDE8104003F08B
S31508009D5051BB03F04FFBBDE810406E2003F04ABB31
S31508009D6004F13700BDE8104003F044BB5C2003F063
S31508009D7041FBBDE81040722003F03CBB03782BB3CF
S31508009D8070B504461B2B02D163785B2B07D020469F
S31508009D90FFF7BAFF01342378002BF3D170BD207882
S31508009DA0012560B12646002506E003F023FB16F8D8
S31508009DB0010F6B1C40B11D466D28F6D101356D208B
S31508009DC003F018FB2C44E6E70235F8E7704700BFB6
S31508009DD038B50F4D04460F48FFF7D0FFAB6893B16F
S31508009DE00D48FFF7CBFFA86808B1FFF7C7FFEB6878
S31508009DF033B10A48FFF7C2FFE86808B1FFF7BEFFAC
S31508009E000448FFF7BBFF2046BDE83840FFF7B6BF5A
S31508009E100010002074150308AC140308B8140308CE
S31508009E2070B50D4608B1FFF7A9FF3A2003F0E2FA2C
S31508009E30002D2BDB092D2FD9012404EB84046400A3
S31508009E40B5FBF4F3092BF8D8164EB5FBF4F0A6FBD0
S31508009E500023DB0803EB8303A0EB43003030C0B2DA
S31508009E6003F0C8FA2346092BA6FB04244FEAD404B8
S31508009E70EBD83A2003F0BEFA0B4B586808B1FFF747
S31508009E807DFFBDE870403A2003F0B4BA2D206D423C
S31508009E9003F0B0FA092DCFD805F13000C0B203F0AF
S31508009EA0A9FAE6E7CDCCCCCC0010002008B1FFF724
S31508009EB065BF704770B50C46C906054625D5912C71
S31508009EC068D0002DC0F28D80092D40F293800124C0
S31508009ED004EB84046400B5FBF4F3092BF8D8514E5F
S31508009EE0B5FBF4F0A6FB0023DB0803EB8303A0EB2A
S31508009EF043003030C0B203F07DFA2346092BA6FB97
S31508009F0004244FEAD404EBD870BDA2061FD509284D
S31508009F107CD9012404EB84046400B5FBF4F3092B13
S31508009F20F8D8404EB5FBF4F0A6FB0023DB0803EB9C
S31508009F308303A0EB43003030C0B203F05BFA23463C
S31508009F40092BA6FB04244FEAD404EBD870BD3020B5
S31508009F5003F050FA782003F04DFA04F00F01490097
S31508009F6008290C4628BF08240029CDD0013CE4B2B4
S31508009F70A40025FA04F303F00F03092B03F13000BC
S31508009F80A4F10404C8BF03F1370003F033FA231D14
S31508009F90EFD170BD272003F02DFAA5F120035E2B23
S31508009FA024D90D2D4FF05C0036D00A2D28D003F0A9
S31508009FB021FA782003F01EFAC5F303100928CCBF4E
S31508009FC03730303003F016FA05F00F000928CCBFF9
S31508009FD03730303003F00EFABDE87040272003F022
S31508009FE009BA2D2003F006FA6D426DE7E8B203F0D0
S31508009FF001FAF1E73035E8B2BDE8704003F0FAB986
S3150800A00003F0F8F96E2003F0F5F9E5E73030BDE81E
S3150800A0107040C0B203F0EEB903F0ECF9722003F019
S3150800A020E9F9D9E7CDCCCCCC70B5051E20DB092DD6
S3150800A03024D9012404EB84046400B5FBF4F3092B4A
S3150800A040F8D8124EB5FBF4F3A6FB0320C00800EBC4
S3150800A0508000A3EB400303F13000C0B203F0CAF955
S3150800A0602346092BA6FB04244FEAD404EAD870BD7C
S3150800A0702D206D4203F0BEF9092DDAD805F130001E
S3150800A080C0B2BDE8704003F0B5B900BFCDCCCCCCAA
S3150800A090092870B505461DD9012404EB840464001B
S3150800A0A0B5FBF4F3092BF8D80D4EB5FBF4F3A6FB74
S3150800A0B00312D20802EB8202A3EB42033033D8B272
S3150800A0C003F098F92346092BA6FB04244FEAD40487
S3150800A0D0EBD870BD3030BDE87040C0B203F08AB925
S3150800A0E0CDCCCCCC2DE9F0432DED028BB5EEC00AD4
S3150800A0F0F1EE10FA85B0B0EE408A00F1CE80B5EEEA
S3150800A100408AF1EE10FA00F0C080B4EE488AF1EE0B
S3150800A11010FA40F0B28078EE487AF4EE677AF1EEFB
S3150800A12010FA40F0F280B7EE007AB4EEC78A00263D
S3150800A130F1EE10FACDE90066CDE9026600F1B380CA
S3150800A140DFED9C7AB4EEE78AF1EE10FA40F30C8163
S3150800A150DFED997AB4EEE78AF1EE10FA11DD9FED9C
S3150800A160977A88EE078A0A36B4EEE78AF1EE10FA8D
S3150800A170F7DCDFED907AB4EEE78AF1EE10FA40F3F9
S3150800A18016819FED8C6AB7EE007AF2EE046A27EE26
S3150800A190267A0136C8EE077AF4EEC67AF1EE10FA98
S3150800A1A0F5DC002337EEA77ABDEEC77A17EE102A3C
S3150800A1B0013202EBD272511092070ED507EE101A31
S3150800A1C0B8EEC77AF6EE006A77EE677AF4EE667A44
S3150800A1D0F1EE10FA08BF01F1FF31794A0B449342B8
S3150800A1E0A8BF013606F10A02A8BF764B0A2A40F232
S3150800A1F087800636062774497448754C01FB0302A6
S3150800A200B4EB720F0DD9734D02E0B4EB720F08D997
S3150800A21085FB03C2DB17C3EBA203013F01FB030265
S3150800A220F3D16D46DFF8ACC12846002404E030318E
S3150800A23000F8011B013413468CFB0321DA17C2EB25
S3150800A240A10202EB8201A3EB4101002BEFD1BC4234
S3150800A250EDDD04F1FF3805EB080901E008F1FF38E8
S3150800A260444619F8010903F0C5F8002C42D0B84550
S3150800A270F4D12E2003F0BEF8F0E7574805B0BDEC40
S3150800A280028BBDE8F043FFF779BD544805B0BDEC35
S3150800A290028BBDE8F043FFF771BD2D2003F0AAF845
S3150800A2A0B1EE488A2BE7DFED4E7AB4EEE78AF1EE97
S3150800A2B010FA09D59FED417A28EE078A0A3EB4EED0
S3150800A2C0E78AF1EE10FAF7D4DFED466AB4EEE68ACD
S3150800A2D0F1EE10FA6BD5B7EE007AB2EE046A27EE05
S3150800A2E0067A013E68EE077AF4EEE67AF1EE10FA9F
S3150800A2F0F5D456E78EB905B0BDEC028BBDE8F08300
S3150800A3007742002E51D0002675E7374805B0BDECD8
S3150800A310028BBDE8F043FFF731BD652003F06AF80C
S3150800A320002E3DDB2B2003F065F82748294604E07C
S3150800A330303201F8012B01341E46A0FB0623DB0848
S3150800A34003EB8302A6EB4202002EF1D1012CEFDDCE
S3150800A350013C2C44C5F1010514F8010903F04AF83B
S3150800A3602B19002BF8DCC6E7FDEEC87A1F4917EE55
S3150800A370903AF8EEE77A8B4278EE677A3FF712AFB3
S3150800A380F2EE046A03EB8302B1EB420F27EE267A5C
S3150800A3904FEA420306F1FF36F4DA67EE877A01E7F9
S3150800A3A02D2003F027F87642BFE7374639E7F0EE67
S3150800A3B0487AF6E68096184BCA1B0E5AF9021550CB
S3150800A3C08096980040420F00CDCCCCCC989999192C
S3150800A3D09999991967666666801403087C140308B8
S3150800A3E06F12833A00247449841403083F420F000D
S3150800A3F02DE9F041164E9DF818800C461746D6E909
S3150800A40008120A4302D1A042054601D1BDE8F081EF
S3150800A41019463068FFF704FD0E48FFF7AFFC3A20EF
S3150800A42002F0E8FF0C48FFF7A9FC41462846FFF76B
S3150800A43041FD0A48FFF7A2FC41462046FFF73AFDD0
S3150800A44017B13846FFF7C4FC01233362BDE8F08133
S3150800A45000100020D0140308C41403087815030854
S3150800A4602DE9F047434D9DF8248014461E46D5E94C
S3150800A4700832134358D188420746894627D018F030
S3150800A480100F53D088426FDA600704F0040A4BD5E0
S3150800A49008992868FFF7C4FC3748FFF76FFC3A208D
S3150800A4A002F0A8FF3548FFF769FC48464146FFF722
S3150800A4B001FDA20704F0010958D43148FFF75EFCF4
S3150800A4C0B9F1000F26D02F48FFF758FC22E0E30722
S3150800A4D004F0010928D408992868FFF7A1FC264842
S3150800A4E0FFF74CFC3A2002F085FF2448FFF746FCAC
S3150800A4F041463846FFF7DEFCA30704F0040A35D4C4
S3150800A500BAF1000FD9D1B9F1000FDCD114B91E4840
S3150800A510FFF734FC41463846FFF7CCFC16B1304607
S3150800A520FFF756FC01232B62BDE8F0878142ABD8C2
S3150800A530FAD2A107F8D508992868FFF771FC0E48E2
S3150800A540FFF71CFC3A2002F055FF0C48FFF716FCF3
S3150800A55048464146FFF7AEFC04F0040A04F0010938
S3150800A5600A48FFF70BFCCBE7E3DCDDE75FFA8AFA7C
S3150800A570F6E700BF00100020D0140308C41403082F
S3150800A580F8140308341503080C150308E014030827
S3150800A5900EB42DE9F043844B82B00146099C186835
S3150800A5A0FFF73EFC8148FFF7E9FB002C49D08048BD
S3150800A5B0FFF7E4FB25780AAE0096002D41D07D4FC3
S3150800A5C00CE01B2D48D00A2D49D10D2002F012FFB0
S3150800A5D0284602F00FFF0134257895B3252DF0D1D2
S3150800A5E06378253B0134532B3DD8DFE803F0383C2C
S3150800A5F03C3C3C3C3C3C3C3C3C3C3C3C3C3C3C3C8D
S3150800A6003C3C3C3C3C3C3C3C3C3C3C3C3C3C3C3C7C
S3150800A6103C3C3C3C3C3C3C3C3C3C3C3C3C3C3C3C6C
S3150800A6203C5A3C3C3C3C3C3C3C3C3CB685803C74FF
S3150800A630743C803C3C3C3C3C3C5A3C3CAE3C8C3CF0
S3150800A6403C5A0D2002F0D6FE0A2002F0D3FE02B0D4
S3150800A650BDE8F04303B0704763785B2B0AD0204609
S3150800A660FFF752FBB7E7252002F0C4FE2046FFF7A6
S3150800A6704BFBB0E72078012570B1A046002508E01D
S3150800A68002F0B8FE18F8010F6B1C002800F0848051
S3150800A6901D466D28F4D101356D2002F0ABFE2C4421
S3150800A6A09AE7302056F8048B02F0A4FE782002F0D0
S3150800A6B0A1FE1C2528FA05F303F00F03092B03F165
S3150800A6C03000A5F10405C8BF03F1370002F092FE79
S3150800A6D02B1DEFD17FE7073626F00706F6E80201BD
S3150800A6E0FEF73CFB00EE100AFFF7FCFC73E756F892
S3150800A6F0040BFFF799FC6EE756F8043B019301A893
S3150800A700FFF702FB67E756F8048BB8F1090F45D93E
S3150800A710012505EB85056D00B8FBF5F3092BF8D87F
S3150800A720B8FBF5F0A7FB0023DB0803EB8303A0EBDC
S3150800A73043003030C0B202F05DFE2B46092BA7FB62
S3150800A74005254FEAD505EBD845E756F8040B00284A
S3150800A7503FF441AFFFF712FB3DE7B146302059F809
S3150800A760048B02F047FE622002F044FE20264FF0DA
S3150800A77000456DB118EA050F4FF0310009D13020B8
S3150800A78002F038FE013E4FEA5505F2D14E4622E761
S3150800A790582002F02FFEF5E702357DE708F1300074
S3150800A7A0C0B202F027FE16E700100020881403083E
S3150800A7B090140308CDCCCCCC38B5194CD4E9082371
S3150800A7C0134300D038BD05462068FFF729FB154816
S3150800A7D0FFF7D4FA05B33A2002F00CFEA36893B14A
S3150800A7E01148FFF7CBFAA06808B1FFF7C7FAE36884
S3150800A7F033B10E48FFF7C2FAE06808B1FFF7BEFAB0
S3150800A8000B48FFF7BBFA2B78202B02D0202002F04A
S3150800A810F1FD2846FFF7B2FA0123236238BD00BFCF
S3150800A82000100020D0140308AC140308B814030859
S3150800A830741503080D4B10B504461868FFF7F0FAAF
S3150800A8400B48FFF79BFA44B13A2002F0D3FD2020CB
S3150800A85002F0D0FD2046FFF791FA0D2002F0CAFD5E
S3150800A860BDE810400A2002F0C5BD00BF0010002058
S3150800A87088140308064B0022C3E90002C3E9042230
S3150800A880C3E90622C3E90822C3E90222704700BFCA
S3150800A89000100020F8B50D2002F0ACFD0A2002F0E9
S3150800A8A0A9FD6048604DFFF769FA0D2002F0A2FD88
S3150800A8B00A2002F09FFD6E69002EC0F28480092EE0
S3150800A8C040F28880012404EB84046400B6FBF4F3A8
S3150800A8D0092BF8D8554FB6FBF4F0A7FB0023DB0885
S3150800A8E003EB8303A0EB43003030C0B202F082FDD5
S3150800A8F02346092BA7FB04244FEAD404EBD84C487B
S3150800A900FFF73CFAAE69002E6FDB092E73D90124D6
S3150800A91004EB84046400B6FBF4F3092BF8D8434F20
S3150800A920B6FBF4F0A7FB0023DB0803EB8303A0EBDD
S3150800A93043003030C0B202F05DFD2346092BA7FB69
S3150800A94004244FEAD404EBD83A48FFF717FAEE691D
S3150800A950002E5BDB092E5FD9012404EB8404640016
S3150800A960B6FBF4F3092BF8D8304FB6FBF4F0A7FB87
S3150800A9700023DB0803EB8303A0EB43003030C0B2AF
S3150800A98002F038FD2346092BA7FB04244FEAD4041A
S3150800A990EBD82948FFF7F2F90D2002F02BFD0A2023
S3150800A9A002F028FDAB6953B92448FFF7E7F90D20F3
S3150800A9B002F020FD0A2002F01DFDA869F8BD204816
S3150800A9C0FFF7DCF9F3E72D20764202F013FD092E96
S3150800A9D03FF678AF06F13000C0B202F00BFD14481E
S3150800A9E0FFF7CCF9AE69002E8FDA2D20764202F0F9
S3150800A9F001FD092E8BD806F13000C0B202F0FAFC30
S3150800AA000C48FFF7BBF9EE69002EA3DA2D20764233
S3150800AA1002F0F0FC092E9FD806F13000C0B202F011
S3150800AA20E9FCB6E79414030800100020CDCCCCCC82
S3150800AA306C15030854150308601503082415030844
S3150800AA40D0140308012840F310812DE9F84FDFF8E8
S3150800AA5048B2DFF8489207468846012458F8245039
S3150800AA6095F800A0BAF12D0F4FEA840605D16A7849
S3150800AA70682A02D1AA78002A5FD059462846FEF7E6
S3150800AA8023FC002859D0BAF12D0F05D00134A7426E
S3150800AA90E4DC0020BDE8F88F6A78762A2AD0BAF175
S3150800AAA02D0FF3D16A78732A2ED0BAF12D0FEDD176
S3150800AAB06A78672A32D0BAF12D0FE7D16A786E2AFA
S3150800AAC000F0AA80BAF12D0FE0D16B78722BDDD198
S3150800AAD0AB78002BDAD1601C02228742C9F808201D
S3150800AAE0D7DD464472681578303D092D40F2A680B8
S3150800AAF00446B3E7AA78002AD1D101231C44A74209
S3150800AB00C9F80030AADCC4E7AA78002ACDD1012307
S3150800AB101C44A742C9F80430A0DCBAE7AA78002A80
S3150800AB20C9D1631CBB4280F28780464402347368ED
S3150800AB30C9F81030A74291DCABE74D48FFF7B6F9E4
S3150800AB400D2002F057FC0A2002F054FC0D2002F0FA
S3150800AB5051FC0A2002F04EFC4648FFF7A7F90D20E3
S3150800AB6002F048FC0A2002F045FC0D2002F042FCE7
S3150800AB700A2002F03FFC4048FFF798F90D2002F042
S3150800AB8039FC0A2002F036FC3C48FFF78FF90D2005
S3150800AB9002F030FC0A2002F02DFC3948FFF786F94E
S3150800ABA00D2002F027FC0A2002F024FC3548FFF7A6
S3150800ABB07DF90D2002F01EFC0A2002F01BFC32482B
S3150800ABC0FFF774F90D2002F015FC0A2002F012FCBA
S3150800ABD02E48FFF76BF90D2002F00CFC0A2002F054
S3150800ABE009FC2B48FFF762F90D2002F003FC0A2046
S3150800ABF002F000FC0D2002F0FDFB0A2002F0FAFB31
S3150800AC002448FFF753F90D2002F0F4FB0A2002F05E
S3150800AC10F1FB0120BDE8F88FAA78002A7FF452AF2D
S3150800AC20631C9F4208DD464402347368C9F80C3039
S3150800AC30A7423FF713AF2CE70120EBE7C9F8083026
S3150800AC401078303809280ED803EB83035B00C9F85F
S3150800AC5008301078303B0344C9F8083012F8010F61
S3150800AC6030380928F0D9023411E70020704700BFB0
S3150800AC7088150308A8150308D8150308E815030856
S3150800AC803016030878160308BC16030800170308CD
S3150800AC90341703085C1703088015030828100020DA
S3150800ACA02DE9F843224C0023C4E90033C4E90333F1
S3150800ACB0012398420E461746A36004D0FFF7C2FE4A
S3150800ACC098BBA3687BB3DFF87090DFF87080002527
S3150800ACD004E0FFF7DFFDA368AB4224D93068FFF72D
S3150800ACE0C9FD01354846FFF7E1F82846FFF7D0F9D0
S3150800ACF04046FFF7DBF8A068FFF7CAF90D2002F017
S3150800AD0079FB0A2002F076FBB8472368002BE0D1CE
S3150800AD100D2002F06FFB0A2002F06CFBFFF7BAFD6C
S3150800AD20A368AB42DAD8034B9869BDE8F88300BF3D
S3150800AD302810002000100020A0170308B0170308E9
S3150800AD4010B51B4C636AABB9236A33B9194B1B6838
S3150800AD50EBB90023C4E9083310BDA3690D200133FC
S3150800AD60A36102F047FB0A2002F044FB0023C4E972
S3150800AD70083310BDE3690D200133E36102F03AFBA5
S3150800AD800A2002F037FB0023C4E9083310BD0A483D
S3150800AD90FFF78CF80948FFF789F80D2002F02AFB1F
S3150800ADA00A2002F027FB0023C4E9083310BD00BFC0
S3150800ADB00010002028100020B817030844150308BF
S3150800ADC02DE9F04F244C83B08846E1680C9F019228
S3150800ADD08146DDE90EBA0D981E4629B11CF0C8FB5E
S3150800ADE010B903B0BDE8F08F216921B138461CF0CF
S3150800ADF0BFFB0028F5D0194D2368C5F800B0C5F883
S3150800AE0010A06E60F3B9636813B36B69144C013311
S3150800AE106B6100232360C847C047019B9847236896
S3150800AE20002B0ADD0F4800EBC30353E90221083B58
S3150800AE3098421160F9D10023236003B0BDE8F04FB2
S3150800AE40FFF77EBF3046FFF731F800236B60DCE77B
S3150800AE502E2002F0CFFAD8E7281000200010002094
S3150800AE603C1000204010002038B5124C2368002BF7
S3150800AE7010DC02F0B9FE002800DC38BD0E4C0F4885
S3150800AE802368184402F0B6FE0028F6DD2368184445
S3150800AE90206038BD0A4B0B4D1A682B68D05C02F04F
S3150800AEA0AFFE0028E5DD22682B68121A18442260D6
S3150800AEB02860DEE7701000205C1400207410002063
S3150800AEC06C10002068100020704700BF10B5144CA5
S3150800AED00FCC8AB00DF10C0CACE80F0094E8070013
S3150800AEE0104CACE803002046ACF8002005F054FAF4
S3150800AEF0012002F0EBF803A91A22012002F026F934
S3150800AF00002301462E221420CDE9002018460322EC
S3150800AF10FFF7A6FA204605F03FFA0AB010BD00BFB3
S3150800AF20BC17030840420F0070B5154D0FCD8EB003
S3150800AF300DF1080CACE80F000FCDACE80F0095E852
S3150800AF400F00ACE8070001200A2414268CF800300C
S3150800AF5002F0BCF82D2202A9012002F0F7F83E22E1
S3150800AF600023CDE90026014603221846FFF778FAA2
S3150800AF70013CEFD1034805F00FFA0EB070BD00BFD3
S3150800AF80D817030840420F0070B5374E374C8EB0BD
S3150800AF90304605F001FA012002F098F80FCC0DF1C1
S3150800AFA0200CACE80F0094E803004CF8040B1622BA
S3150800AFB0ACF80010012008A902F0C8F814254F23A0
S3150800AFC0CDE900350023014603221846FFF748FA63
S3150800AFD00DEB05010A22012002F096F85223CDE96D
S3150800AFE000350023014603221846FFF739FA204B9D
S3150800AFF093E80300ADF81010090C03908DF81210B1
S3150800B000072203A9012002F0A1F85623CDE900354D
S3150800B0100023014603221846FFF722FA0DEB050125
S3150800B0200A22012002F092F800235822CDE90025D1
S3150800B030014603221846FFF713FA02A90A23022239
S3150800B0400120ADF8083002F081F800235C220146A1
S3150800B050CDE9002518460322FFF702FA304605F027
S3150800B0609BF90EB070BD00BF40420F0008180308D8
S3150800B07020180308704700BF30B5144D144C154B03
S3150800B080154A164885B02321CDE902510193144982
S3150800B090144B0094FFF794FE33230393124B134982
S3150800B0A00D4A0E480094CDE90135114BFFF788FE8D
S3150800B0B0432303930F4B1049074A08480094CDE9E8
S3150800B0C001350E4BFFF77CFE05B030BD401803086E
S3150800B0D07C1803087418030875B00008C9AE000880
S3150800B0E0CDAE000828180308B018030829AF0008D1
S3150800B0F088180308E018030889AF0008C818030869
S3150800B100704700BF10B5134C0FCC8AB00DF1080C70
S3150800B110ACE80F0094E80F008CE80F002A210E48CF
S3150800B120FFF788FB022001F0D1FF02A920220220A6
S3150800B13002F00CF81424002330220146CDE900243D
S3150800B14018460322FFF78CF9044805F025F90AB0DA
S3150800B15010BD00BF04190308E818030840420F0091
S3150800B16070B5164D0FCD90B00DF10C0CACE80F0074
S3150800B1700FCDACE80F000FCDACE80F002B682CF80C
S3150800B180023B02201B0C0A2414268CF8003001F01E
S3150800B1909DFF332203A9022001F0D8FF4022002395
S3150800B1A0CDE90026014603221846FFF759F9013C66
S3150800B1B0EFD1034805F0F0F810B070BD2419030864
S3150800B1C040420F0030B5354C8FB0022001F07EFFAB
S3150800B1D00FCC0DF1200CACE80F0094E803004CF8F6
S3150800B1E0040B1622ACF80010022008A901F0AEFFE5
S3150800B1F0142400234F25CDE900540146032218469E
S3150800B200FFF72EF90DEB04010A22022001F07CFF5C
S3150800B21000235222CDE90024014603221846FFF7EF
S3150800B2201FF91F4B93E80300ADF81010090C0390A3
S3150800B2308DF81210072203A9022001F087FF0023C8
S3150800B2405622CDE90024014603221846FFF708F9DD
S3150800B2500DEB04010A22022001F078FF582500238D
S3150800B2600146CDE9005418460322FFF7F9F802A96A
S3150800B2700A2302220120ADF8083001F067FF0023F7
S3150800B2805C220146CDE9002418460322FFF7E8F8B8
S3150800B290044805F081F80FB030BD00BF0818030850
S3150800B2A02018030840420F00704700BF70B5164CBF
S3150800B2B0164E174D84B003F0B3F8164B01932521AB
S3150800B2C0CDE902612046144B1449154A0095FFF74B
S3150800B2D077FD35230393134B1349114A0095CDE99E
S3150800B2E001362046114BFFF76BFD45230393104BA0
S3150800B2F010490B4A0095CDE9013620460E4BFFF75B
S3150800B3005FFD04B070BD00BF01B1000878190308DD
S3150800B310B4190308741803085819030805B1000876
S3150800B320A9B20008B018030861B10008C4190308D7
S3150800B330E0180308C5B10008F4190308704700BFF0
S3150800B34070B5124B124D1B6884B002A814260293DE
S3150800B35002F022FE0022114627230096FFF748F83E
S3150800B360284605F019F8002403A8ADF80C40ADF8F6
S3150800B3700E4002F011FE2D23224621460096FFF7C5
S3150800B38037F8284605F008F804B070BDA01303087E
S3150800B39040420F0030B5262083B002F005FE0D4C62
S3150800B3A000221425114638230095FFF721F8204678
S3150800B3B004F0F2FF302002F0F7FD002200953E234C
S3150800B3C01146FFF715F8204603B0BDE8304004F0F3
S3150800B3D0E3BF00BF40420F0030B5262083B002F01D
S3150800B3E0E3FD0C4C00221425114649230095FEF76F
S3150800B3F0FFFF204604F0D0FF02F0DEFD0022009594
S3150800B4004E231146FEF7F4FF204603B0BDE8304050
S3150800B41004F0C2BF40420F00704700BF30B5144D5C
S3150800B420144C154B154A164885B02221CDE9025110
S3150800B43001931449144B0094FFF7C2FC332303937A
S3150800B440124B13490D4A0E480094CDE90135114BAC
S3150800B450FFF7B6FC442303930F4B1049074A0848E5
S3150800B4600094CDE901350E4BFFF7AAFC05B030BDB7
S3150800B470241A0308581A0308501A030819B40008AE
S3150800B4803DB3000841B30008101A0308781A0308E8
S3150800B49095B30008601A0308981A0308D9B3000878
S3150800B4A0841A0308704700BF014804F075BF00BF3F
S3150800B4B0404B4C0000B583B002F08EFD00221423E9
S3150800B4C0009311462C23FEF793FF03B05DF804FBA7
S3150800B4D000B5002083B002F075FD00221423009306
S3150800B4E011463123FEF784FF03B05DF804FB00BF65
S3150800B4F0F0B50D4F83B0322400251426E9B2224652
S3150800B500084602F077FD0022382311460096FEF71A
S3150800B5106FFF0135384604F03FFF0A34062DE4B2C2
S3150800B520ECD103B0F0BD00BF40420F0010B50C4C83
S3150800B5300FCC8AB00DF10C0CACE80F0094E80700AC
S3150800B540ACE8030003A88CF8002002F06DFD002289
S3150800B5501423009311464723FEF74AFF0AB010BD8D
S3150800B560A413030800B56FF00B0083B002F070FD5A
S3150800B57000221423009311464C23FEF739FF03B02B
S3150800B5805DF804FB00B5612083B002F0D3FD00220C
S3150800B5901423009311465123FEF72AFF03B05DF8E2
S3150800B5A004FB00BF00B55A2083B002F0C3FD002299
S3150800B5B01423009311465623FEF71AFF03B05DF8CD
S3150800B5C004FB00BF00B54FF4FA7283B04FF47A71EA
S3150800B5D0064802F0C9FD00221423009311465B2396
S3150800B5E0FEF706FF03B05DF804FB00BF9C1A0308CC
S3150800B5F000B5502183B0064802F02CFE0022142321
S3150800B600009311466023FEF7F3FE03B05DF804FBD2
S3150800B6109C1A0308F0B5394D394C3A4F3A4E3B4B14
S3150800B6203B4985B02A22CDE9027201932A46204673
S3150800B630384B0096FFF7C4FB2F230393364B374945
S3150800B6400096CDE901372A462046354BFFF7B8FB69
S3150800B65034230393334B34490096CDE901372A4600
S3150800B6602046324BFFF7ACFB3D230393304B314961
S3150800B6700096CDE901372A4620462F4BFFF7A0FB57
S3150800B6804A2303932D4B2E490096CDE901372A46C6
S3150800B69020462C4BFFF794FB4F2303932A4B2B4949
S3150800B6A00096CDE901372A462046294BFFF788FB45
S3150800B6B054230393274B28490096CDE901372A4698
S3150800B6C02046264BFFF77CFB59230393244B254939
S3150800B6D00096CDE901372A462046234BFFF770FB33
S3150800B6E05E230393214B22490096CDE901372A466A
S3150800B6F0204B2046FFF764FB05B0F0BDA9B400084F
S3150800B700A5B40008B81A0308E81A0308981A030823
S3150800B710B5B40008A41A03080C1B0308D1B4000822
S3150800B720F01A0308301B0308F1B40008181B0308B5
S3150800B730501B03082DB50008381B0308701B0308A7
S3150800B74065B50008581B0308901B030885B5000853
S3150800B750781B0308B01B0308A5B50008981B030847
S3150800B760CC1B0308C5B50008B81B0308F01B030863
S3150800B770F1B50008D41B0308704700BF10B584B0A4
S3150800B7800DF10E0002F0EEFD1424002211462523C9
S3150800B7900094FEF72DFEBDF80E1000942723002214
S3150800B7A01020FEF725FE04B010BD00BF704700BF8D
S3150800B7B010B5084A084C0948094B84B02221CDE93E
S3150800B7C00221CDE90004074A07490848FFF7F8FAB5
S3150800B7D004B010BD1C1C03084C1C0308601C03089D
S3150800B7E0FC1B0308ADB700087DB7000879B7000849
S3150800B7F0704700BF00B583B002F0CAFD00230146BA
S3150800B80027221420CDE9002002221846FEF728FE3A
S3150800B81003B05DF804FB00BF00B583B002F0CEFDAF
S3150800B820002301462E221420CDE9002002221846C4
S3150800B830FEF716FE03B05DF804FB00BF704700BFB5
S3150800B84030B50E4D0E4C0F4B0F4A104885B02321CC
S3150800B850CDE9025101930E490E4B0094FFF7B0FA59
S3150800B8602A2303930C4B0D49074A08480094CDE94F
S3150800B87001350B4BFFF7A4FA05B030BD841C03084D
S3150800B880C01C0308B41C03083DB80008F1B700083B
S3150800B890F5B70008681C0308E41C030819B8000873
S3150800B8A0C81C0308704700BF00B583B002F09CFDB2
S3150800B8B000221423009311462523FEF799FD03B0B1
S3150800B8C05DF804FB30B58BB002F08EFD142400221F
S3150800B8D02C2311460094FEF78BFD07A802F08AFD7B
S3150800B8E00798FCF713FF02460B460998CDE904238F
S3150800B8F0FCF70CFF04460D460898CDE90245FCF70F
S3150800B90005FFDDE90423CDE9000103492F20FEF7F1
S3150800B9103FFE0BB030BD00BFF01C030830B58BB03E
S3150800B92002F062FD14240022362311460094FEF725
S3150800B9305FFD07A802F066FD0798FCF7E7FE0246DA
S3150800B9400B460998CDE90423FCF7E0FE04460D46AC
S3150800B9500898CDE90245FCF7D9FEDDE90423CDE9CF
S3150800B960000103493920FEF713FE0BB030BD00BFB6
S3150800B970181D030810B582B002F036FD1424002203
S3150800B980412311460094FEF733FD02F043FD10EE05
S3150800B990100AFCF7BBFE0B4603490246442002B0D8
S3150800B9A0BDE81040FEF7F4BD441D0308704700BF0C
S3150800B9B030B51A4D1A4C1B4B1B4A1C4885B023211F
S3150800B9C0CDE9025101931A491A4B0094FFF7F8F989
S3150800B9D028230393184B1949134A14480094CDE9B0
S3150800B9E00135174BFFF7ECF932230393154B16492C
S3150800B9F00D4A0E480094CDE90135144BFFF7E0F9DE
S3150800BA003D230393124B1349074A08480094CDE98E
S3150800BA100135114BFFF7D4F905B030BD6C1D03088D
S3150800BA20A01D0308981D0308ADB90008A5B80008AD
S3150800BA30A9B800085C1D0308C01D0308C5B800089E
S3150800BA40A41D0308F41D03081DB90008D41D030826
S3150800BA50281E030875B900080C1E0308704700BFA6
S3150800BA6000B583B002F0DCFC0022142301460093E3
S3150800BA7010462423FEF7BCFC024803B05DF804EB2D
S3150800BA8004F08ABC8096980000B583B002F0DAFC10
S3150800BA90002214230146009310462E23FEF7A8FC25
S3150800BAA0024803B05DF804EB04F076BC8096980073
S3150800BAB000B585B00DF10F0002F0D6FC0022142364
S3150800BAC00146009310463923FEF792FC9DF80F2095
S3150800BAD003493A20FEF75CFD05B05DF804FB00BF9C
S3150800BAE0381E0308704700BF30B5144D144C154B6B
S3150800BAF0154A164885B02021CDE90251019314490B
S3150800BB00144B0094FFF75CF92A230393124B13494D
S3150800BB100D4A0E480094CDE90135114BFFF750F94F
S3150800BB20342303930F4B1049074A08480094CDE97C
S3150800BB3001350E4BFFF744F905B030BD7C1E0308EE
S3150800BB40C01E0308AC1E0308E5BA00085DBA000863
S3150800BB5061BA0008581E0308F41E030889BA0008CB
S3150800BB60CC1E0308281F0308B1BA0008081F0308DB
S3150800BB70704700BF10B5432082B002F011FE04469C
S3150800BB8070B1204602F010FE00230146342214202C
S3150800BB90CDE9002002221846FEF762FC02B010BD6D
S3150800BBA002483021FEF708FEEBE700BF381F0308FE
S3150800BBB030B5432083B002F0F3FD0446B8B1204601
S3150800BBC002F01EFE1425002211464D230095FEF7AD
S3150800BBD00FFC094804F0E0FB204602F01FFE002295
S3150800BBE0009553231146FEF703FC03B030BD034806
S3150800BBF04A21FEF7E1FDE2E740420F00381F03083D
S3150800BC0008B5432002F0CCFD00B108BDBDE80840E8
S3150800BC1001482721FEF7D0BD381F030810B5432079
S3150800BC2002F0BEFD044650B1204602F0D1FD00B92F
S3150800BC3010BDBDE8104004484121FEF7BDBD0348CC
S3150800BC403D21FEF7B9FDEFE74C1F0308381F03082F
S3150800BC50704700BF30B51A4D1A4C1B4B1B4A1C487F
S3150800BC6085B02221CDE9025101931A491A4B009455
S3150800BC70FFF7A6F82A230393184B1949134A1448C1
S3150800BC800094CDE90135174BFFF79AF8372303934C
S3150800BC90154B16490D4A0E480094CDE90135144B4B
S3150800BCA0FFF78EF844230393124B1349074A0848B3
S3150800BCB00094CDE90135114BFFF782F805B030BD88
S3150800BCC08C1F0308D01F0308C41F030851BC0008B3
S3150800BCD071BB000801BC0008681F03080820030898
S3150800BCE075BB0008E41F0308382003081DBC0008BC
S3150800BCF01420030864200308B1BB00084420030885
S3150800BD00704700BF70B5442084B002F093FE044625
S3150800BD10B0B1214602A802F06BFEBDF80840BDF896
S3150800BD200A60BDF80C500C4900953346224635206A
S3150800BD303443FEF72DFC55EA040306D004B070BD63
S3150800BD4006483221FEF738FDE3E70548362104B0F8
S3150800BD50BDE87040FEF730BD6C200308381F0308A5
S3150800BD604C1F030810B5442082B002F063FE044657
S3150800BD7088B10121204602F079FE40EA10439BB2C1
S3150800BD8073B10021204602F071FE40EA104080B2ED
S3150800BD9058B102B010BD08483F21FEF70DFDE8E78F
S3150800BDA006484321FEF708FDEBE70448472102B0A1
S3150800BDB0BDE81040FEF700BD381F03084C1F0308F6
S3150800BDC030B5442085B002F035FE044638B301216B
S3150800BDD0204602F06FFE85B2030E00930390C0F36F
S3150800BDE0074317492A465320FEF7D2FBBDF80E3003
S3150800BDF02B4319D00021204602F05CFE84B2030EC4
S3150800BE0000930390C0F307430E4922465920FEF7D4
S3150800BE10BFFBBDF80E3023430BD005B030BD0A4832
S3150800BE205021FEF7C9FCD2E708485621FEF7C4FCA4
S3150800BE30E0E706485A2105B0BDE83040FEF7BCBC2D
S3150800BE408C200308B8200308381F03084C1F030872
S3150800BE5010B5442082B002F0EDFD044670B12046CC
S3150800BE6002F0A6FE0023014669221420CDE900202F
S3150800BE7002221846FEF7F4FA02B010BD0248652100
S3150800BE80FEF79AFCEBE700BF381F030810B54420FD
S3150800BE9082B002F0CFFD044670B1204602F0AEFE35
S3150800BEA00023014676221420CDE9002002221846F6
S3150800BEB0FEF7D6FA02B010BD02487221FEF77CFCE6
S3150800BEC0EBE700BF381F030830B5442083B002F003
S3150800BED0B1FD0446B8B1204602F0AEFE1425002294
S3150800BEE0114683230095FEF783FA094804F054FAAD
S3150800BEF0204602F0AFFE0022009589231146FEF780
S3150800BF0077FA03B030BD03488021FEF755FCE2E717
S3150800BF1040420F00381F030810B5234C0FCC88B0D9
S3150800BF200DF10C0CACE80F002368CCF80030442067
S3150800BF3002F080FD044610B30021084602F098FE80
S3150800BF4038B303A9052002F093FE18B11748A421B7
S3150800BF50FEF732FC0121204602F0ACFD84B2030E46
S3150800BF6000930290C0F3074311492246A720FEF723
S3150800BF700FFBBDF80A30234310D008B010BD0D489A
S3150800BF809C21FEF719FC0021084602F071FE0028E4
S3150800BF90D7D10848A021FEF70FFCD2E70648A8210A
S3150800BFA0FEF70AFC08B010BDC0130308E02003081A
S3150800BFB0F0200308381F03084C1F030808B544205F
S3150800BFC002F038FD00B108BDBDE8084001482B2144
S3150800BFD0FEF7F2BB381F0308704700BFF0B5334DB4
S3150800BFE0334C344F344E354B354985B02622CDE98E
S3150800BFF0027201932A462046324B0096FEF7E0FE6F
S3150800C0002E230393304B31490096CDE901372A4652
S3150800C01020462F4BFEF7D4FE392303932D4B2E498A
S3150800C0200096CDE901372A4620462C4BFEF7C8FE76
S3150800C0304A2303932A4B2B490096CDE901372A4612
S3150800C0402046294BFEF7BCFE5F230393274B28495E
S3150800C0500096CDE901372A462046264BFEF7B0FE64
S3150800C0606C230393244B25490096CDE901372A46CC
S3150800C0702046234BFEF7A4FE8C230393214B22492B
S3150800C0800096CDE901372A462046204BFEF798FE52
S3150800C0907A2303931E4B1F490096CDE901372A469A
S3150800C0A01D4B2046FEF78CFE05B0F0BDD9BF000833
S3150800C0B001BD0008482103087C210308C41F0308A2
S3150800C0C0BDBF000828210308A021030805BD0008F4
S3150800C0D088210308BC21030865BD0008A4210308BC
S3150800C0E0DC210308C1BD0008C02103080422030897
S3150800C0F051BE0008E42103082C2203088DBE00085F
S3150800C100102203085C22030819BF0008342203081A
S3150800C11064200308C9BE000870220308704700BFE0
S3150800C12001482221FEF786BB8C22030810B52DEDA7
S3150800C130028B422082B002F0C9FD0446F8B12046BF
S3150800C14002F0F0FD10EE100AB0EE408AFCF7DEFAB7
S3150800C15002460B463A200C49FEF71AFAFDEEC87A53
S3150800C160002314203B22CDE9002017EE901A022264
S3150800C1701846FEF775F902B0BDEC028B10BD0348F0
S3150800C1803721FEF719FBDAE7B0220308381F030840
S3150800C19010B52DED028B422082B002F097FD0446C1
S3150800C1A0F8B1204602F0ECFD10EE100AB0EE408A17
S3150800C1B0FCF7ACFA02460B4647200C49FEF7E8F9AD
S3150800C1C0FDEEC87A002314204822CDE9002017EE98
S3150800C1D0901A02221846FEF743F902B0BDEC028B0C
S3150800C1E010BD03484421FEF7E7FADAE7C022030840
S3150800C1F0381F030808B5422002F068FD00B108BDE3
S3150800C200BDE8084001482E21FEF7D6BA381F0308B4
S3150800C21010B5422002F05AFD044690B12046B0EE11
S3150800C220080A02F0D9FD0949044602465420FEF7D9
S3150800C230AFF904B110BDBDE8104005485521FEF719
S3150800C240BBBA04485121FEF7B7FAE7E7D422030838
S3150800C250E4220308381F030810B5422002F036FD11
S3150800C260044680B1204602F0E9FD09490446024623
S3150800C2706120FEF78DF904B110BDBDE810400548F0
S3150800C2806221FEF799BA04485E21FEF795FAE9E7B6
S3150800C29000230308E4220308381F030830B5204D9D
S3150800C2A0204C214B214A224885B02921CDE902514B
S3150800C2B001932049204B0094FEF782FD3123039316
S3150800C2C01E4B1F49194A1A480094CDE901351D4BE2
S3150800C2D0FEF776FD3E2303931B4B1C49134A14486D
S3150800C2E00094CDE901351A4BFEF76AFD4B230393FB
S3150800C2F0184B19490D4A0E480094CDE90135174BDC
S3150800C300FEF75EFD58230393154B1649074A08485E
S3150800C3100094CDE90135144BFEF752FD05B030BD4A
S3150800C3203023030864230308C41F03081DC100083B
S3150800C33021C10008F5C10008102303088C2303084F
S3150800C3402DC10008702303080820030891C10008BE
S3150800C35094230308CC23030811C20008B02303085A
S3150800C360F023030859C20008D4230308704700BF06
S3150800C370012008F03CB900BF2DE9F043794885B0A3
S3150800C38004F00AF8412002F089FD0446002800F06E
S3150800C390E380012200212046142502F0AFFD002289
S3150800C3A0342311460095FEF723F86F4A6F49DFF8E4
S3150800C3B0CC816F4F3620FEF7EBF84FF4FA71204622
S3150800C3C002F094FE00220146372310460095FEF738
S3150800C3D00FF8644803F0E0FF0021204602F086FECD
S3150800C3E000223923014600951046FEF701F86048F9
S3150800C3F003F0D2FF5F4A5D493C20FEF7C9F83221B7
S3150800C400204602F055FE002201463D2310460095BF
S3150800C410FDF7EEFF534803F0BFFF0021204602F068
S3150800C42047FE00223F23014600951046FDF7E0FF30
S3150800C4304F4803F0B1FF504A4C494220FEF7A8F88E
S3150800C4401E21204602F07CFE4FF4FA7181462046F2
S3150800C45002F04CFE00220146009545231046FDF7E2
S3150800C460C7FF0A254626204602F0A8FD02462046B2
S3150800C470039202F083FD03462046029302F054FE1F
S3150800C480DDE9023200285CD0542100914B203B495B
S3150800C490FEF77EF84946204602F066FE384A3349DA
S3150800C4A05220FEF775F8204602F0C6FD1425002234
S3150800C4B05323014600951046FDF79AFF294803F0D5
S3150800C4C06BFF304A29495620FEF762F8204602F0EB
S3150800C4D0D1FD00220146572310460095FDF788FF37
S3150800C4E0204803F059FF204602F028FD00220146A5
S3150800C4F05A2310460095FDF77BFF204602F03EFDC5
S3150800C50000225B23014600951046FDF771FF1E4A7F
S3150800C51016495D20FEF73CF8204602F06FFD002222
S3150800C52001465E2310460095FDF762FF0D4803F0AD
S3150800C53033FF164A0D49612005B0BDE8F043FEF702
S3150800C54027B84B2041460096FEF722F8384603F0F6
S3150800C55023FF013D87D19DE70D482F21FEF72CF9D2
S3150800C56017E700BFC0C62D00F8230308FC230308FD
S3150800C57040420F0000240308082403083C2403084B
S3150800C5801C240308242403082C2403083424030841
S3150800C590381F030810B5084A084C0948094B84B0E7
S3150800C5A02621CDE90221CDE90004074A07490848B2
S3150800C5B0FEF706FC04B010BD78240308A42403087B
S3150800C5C0A82403086424030871C3000879C3000873
S3150800C5D06DC30008704700BF10B50A201AF074FC36
S3150800C5E0044620B12046BDE810401AF075BC024842
S3150800C5F02821FEF7E1F8F5E7381F0308704700BF62
S3150800C60010B5084A084C0948094B84B02321CDE9DE
S3150800C6100221CDE90004074A07490848FEF7D0FB7E
S3150800C62004B010BDCC240308FC2403080425030821
S3150800C630B0240308FDC50008D9C50008D5C50008FB
S3150800C640704700BF10B5114882B003F0A5FE04205C
S3150800C65000F0A6F8044698B10D4920461AF0C0FB2A
S3150800C660142400233422CDE9002401460222184668
S3150800C670FDF7F6FE054802B0BDE8104003F08CBE93
S3150800C68004483221FEF798F8E6E700BF40420F005B
S3150800C69014250308381F030830B5104D85B0284601
S3150800C6A003F07AFE042000F07BF8432104460C4888
S3150800C6B0FEF7C0F803AA0B4920461AF0A5FB00238B
S3150800C6C0014645221420CDE9002018460222FDF72E
S3150800C6D0C7FE284603F060FE05B030BD40420F0095
S3150800C6E03025030840250308704700BF70B50420AD
S3150800C6F084B00F4C0F4E104D00F0E8FC0F4B019321
S3150800C7002A21CDE9026120460D4B0E490E4A0095B5
S3150800C710FEF756FB392303930C4B0D490A4A00953D
S3150800C720CDE9013620460B4BFEF74AFB04B070BD37
S3150800C73041C6000868250308A825030898250308A4
S3150800C7404425030845C60008E9C60008D825030895
S3150800C75099C60008B42503084FF0FF30704700BF9C
S3150800C7600338042804D84FF400534B600020704760
S3150800C770024B09221A604FF0FF307047D859012042
S3150800C780002070470338042805D9044B09221A608B
S3150800C7904FF0FF3070470120704700BFD85901207D
S3150800C7A00138042810B50ED8084B53F82000002885
S3150800C7B009DD07491AF0CAF9044628B100211AF01A
S3150800C7C017FC204610BD0024204610BD3426030859
S3150800C7D0E825030808B5C31E042B05D8023800F05F
S3150800C7E0B5FC40EAE07008BD024B09221A604FF01A
S3150800C7F0FF3008BDD859012008B5C31E042B05D83B
S3150800C800023800F081FC40EAE07008BD024B0922BC
S3150800C8101A604FF0FF3008BDD859012010B50C48F2
S3150800C82088B04FF4004102F0A9FF0A4A106008B127
S3150800C83008B010BD0849094B0291C0220224694676
S3150800C840CDE90323009400F03FFD01F057FAFEE717
S3150800C8500020002000A00020EC250308202603085D
S3150800C86010B582B00120019103F0BEFE054B019977
S3150800C870186802F091FF0446012003F041FE2046A5
S3150800C88002B010BD00A0002010B5012082B0CDE98D
S3150800C890002103F0A9FE064BDDE90021186803F024
S3150800C8A06BF80446012003F02BFE204602B010BDAB
S3150800C8B000A0002000B583B00120019103F094FE8A
S3150800C8C0054B0199186802F0C1FF012003B05DF815
S3150800C8D004EB03F015BE00BF00A000200EB410B58F
S3150800C8E08BB00DAA044652F8041B019202A8FDF764
S3150800C8F025F902A9204600F0E7FC0BB0BDE8104078
S3150800C90003B0704708B504490620FFF7E7FF07F0AC
S3150800C910A1FA04F064FCFEE74826030803F08ABC83
S3150800C920012003F0D1BC00BF10B582B00C461A46F0
S3150800C9300449009403460020FFF7D0FF01F0DEF912
S3150800C940FEE700BF64260308704700BF704700BFB4
S3150800C950704700BF704700BF704700BF704700BFF1
S3150800C960406800F003B900BF406800F047B900BF4F
S3150800C970406800F0DFB900BF406800F089B900BF21
S3150800C980406800F099BA00BF406800F0ABBA00BF33
S3150800C990024B03490022C3E90012704704A0002095
S3150800C9A0C0260308704700BF10B4074B074C002287
S3150800C9B03F201F21C3E90042C3E90222C3E904203C
S3150800C9C05DF8044B9961704738A2002000270308D8
S3150800C9D0704700BF704700BF704700BF704700BF71
S3150800C9E0704700BF704700BF406800F029BE00BF0F
S3150800C9F0406800F06DBE00BF406800F049BF00BF48
S3150800CA00406800F0A9BE00BF406800F0F1BF00BF53
S3150800CA10406801F003B800BF0849094B10B400226A
S3150800CA2001F11C0401F13800C3E90A42C3E9001206
S3150800CA30C3E914025DF8044B704700BF7427030866
S3150800CA4054A6002001F060B801F060B801F060B8A3
S3150800CA50084601F05FB800BF084601F05DB800BFA0
S3150800CA60704700BF01F06CB801F07CB801F07CB8E3
S3150800CA70084601F07BB800BF084601F087B800BF3A
S3150800CA80704700BF01F0A6B801F0A6B801F0A6B835
S3150800CA90084601F0A5B800BF084601F0A3B800BFD4
S3150800CAA0704700BF00F024BC014800F03FBD00BF3E
S3150800CAB05427030800F082BC00F048BC0A2970B568
S3150800CAC00E46044602D1C368DB062ED403F08CFE5C
S3150800CAD0002841DBE36AD3B12268A36AD268D65438
S3150800CAE02268A36AE06A556801330130AB42A5EBB8
S3150800CAF00005A362B5FA85F504BF0023A362E062C8
S3150800CB006D0903F085FE002826DB284670BD256BD7
S3150800CB10002DE1D11348314600F0D2FC0028F0D1AF
S3150800CB201048012100F0DEFCD6E70D21FFF7C6FF0D
S3150800CB30051EEADBCAD00C4B586803F055FD051EE6
S3150800CB40C4DA05F13503DBB2042B05D8012202FA53
S3150800CB5003F313F0150FD8D10123A3606FF0040572
S3150800CB60D3E700BF542703089026030870B5044688
S3150800CB7003F0D8FEB0BB03F05DFE002835DB656820
S3150800CB803DB16FF0280503F081FE00282DDB28460D
S3150800CB9070BD40F21153C4E90335C4E90555C4E92B
S3150800CBA00855C4E90A552577256303F01DFE0028B4
S3150800CBB015DB104800F034FC0F4B186803F03CFFF7
S3150800CBC001260C48022100F08DFCC4E9016503F03A
S3150800CBD01FFE0028D7DAA6606FF00405D3E76FF0CA
S3150800CBE00405D0E76FF01805D1E70123A3606FF0BD
S3150800CBF00405CCE754270308B026030870B5044695
S3150800CC0003F090FE002835D1054603F013FE0028F0
S3150800CC1033DB63683BB96FF0280503F037FE00285D
S3150800CC202BDB284670BD03F0DFFD0646154800F0ED
S3150800CC3041FC154B186803F09DFE656003F0E8FD9E
S3150800CC400028A8BFF50F114E7068B8BF012503F07C
S3150800CC5025FD0028306806DB03F020FD002804DBEC
S3150800CC60002DDAD001E003F019FD0123A3606FF06F
S3150800CC700405D2E76FF01805D3E70123A3606FF028
S3150800CC800405CEE754270308B026030890260308B0
S3150800CC902DE9F04106460D46174603F043FE0028E7
S3150800CCA03CD17368002B3FD0B068002839D1B7B1A2
S3150800CCB0DFF87C800446012028B1D8F8040003F088
S3150800CCC093FC00280DDB15F8011B3046FFF7F6FE2E
S3150800CCD0002815DB0134A742EED1A8B12046BDE8ED
S3150800CCE0F08100F13503DBB2042B05D8012202FAE4
S3150800CCF003F313F0150F03D10123B3606FF004009B
S3150800CD00002CEBD1BDE8F081094B586803F0F8FB1D
S3150800CD100028E3DA0123B3602046E0E76FF0180045
S3150800CD20DDE76FF00400DAE76FF02800D7E700BF09
S3150800CD30902603082DE9F04F83B083460F46144624
S3150800CD40009203F0EFFD002840F0A880DBF80420ED
S3150800CD50002A00F0A980DBF80800002840F0A1802E
S3150800CD60002C41D0DFF84CA105464FF0010881465A
S3150800CD70B8F1000F05D0DAF8000003F035FC0028FA
S3150800CD8072DB03F031FD00285CDBDBF80060DBF8C2
S3150800CD9010003168DBF81840B668421C365CDBF8D0
S3150800CDA02000013C8A4214BF13464B46B4FA84F865
S3150800CDB0CBF81030CBF818404FEA581810B1B4EB3E
S3150800CDC0510F2DD903F024FD00283BDB07F8016B32
S3150800CDD0DBF80C10CB0705F1010508D4009BAB4224
S3150800CDE0C6D1002C38D1284603B0BDE8F08FDAF852
S3150800CDF004300193184603F0F7FB002842DB31465E
S3150800CE005846FFF75BFE0028EDDBE7D1019803F0F3
S3150800CE1077FB0028E2DA0122CBF808202846E3E768
S3150800CE202348112100F04CFB30B90121204800F0BD
S3150800CE3059FB11218BF81C10CBF8209003F0E8FC65
S3150800CE400028C3DA0122CBF808206FF00400002D71
S3150800CE50C9D103B0BDE8F08F164A106803F050FB3D
S3150800CE600028D8DB2846BFE700F13502D2B2042AEB
S3150800CE70E8D8012101FA02F212F0150FE2D0002DCE
S3150800CE80E7D0B0E73530C2B2042AC4D8012101FA86
S3150800CE9002F212F0150FBED02846A5E76FF018006B
S3150800CEA0A2E76FF004009FE76FF028009CE700BF39
S3150800CEB0542703089026030838B504460D4603F0A0
S3150800CEC031FD28B9636833B1A06838B9E56038BD63
S3150800CED06FF0180038BD6FF0280038BD6FF00400F9
S3150800CEE038BD00BF38B504460D4603F01BFD40B9F2
S3150800CEF063684BB1A06850B9A269E36AC5E9002323
S3150800CF0038BD6FF0180038BD6FF0280038BD6FF0D7
S3150800CF10040038BD38B5017F044649B9056B0DB91B
S3150800CF20C36A5BB9BDE838401448012100F0ECBA81
S3150800CF30124800F0C5FA0023237738BD0268436A11
S3150800CF40D2680E48D15C00F0BBFA2368626A596859
S3150800CF50E36A01328A4218BF15469942656202D0D1
S3150800CF60013BE36238BD064B586803F0C9FA00284E
S3150800CF70B7BF0122E36AE36AA260F1E75427030810
S3150800CF8090260308F8B50446414800F0A1FAE3687C
S3150800CF90DD05C0B228D513285DD0226B3ABB11280F
S3150800CFA021D02368A1691A6891421CD09A686369DE
S3150800CFB0D05422686369126801339342636104BFDF
S3150800CFC000236361A369002B48D0E2680133520548
S3150800CFD0A36108D5226A32B92268126802EB4202B6
S3150800CFE0B3EB920F45D2F8BD226B002AD9D011288F
S3150800CFF001D09905D5D5E36A00252563002BF2D023
S3150800D000234E244F0FE02368626A5968E36A0132A7
S3150800D0108A4214BF104628469942606212D0013BE4
S3150800D020E362002BDFD02268636AD2683046D15C9F
S3150800D03000F046FA0028E6D1BDE8F8401448012178
S3150800D04000F050BA786803F05BFA0028BCBF0123E9
S3150800D050A360E36AE3E701232363F8BD0D4B186871
S3150800D06003F04EFA0028B7BF0122A369A369A2609C
S3150800D070ABE70748132100F023FA28B90448012131
S3150800D08000F030FA1323237701232362F8BD00BF8B
S3150800D090542703089026030843680BB1C36A0BB9E3
S3150800D0A0184670470268436AD268D35C0B700268F8
S3150800D0B0436A526801339342C26A436204BF00233B
S3150800D0C04362013A0123C2621846704710B5044606
S3150800D0D003F028FC98B9002C0EDD0A4B5A68A242C8
S3150800D0E00ADB04F180441B68013C53F824000368FA
S3150800D0F0BDE810401B6818476FF0110010BD6FF0AF
S3150800D100180010BDF826030870B504460D461646E5
S3150800D11003F008FCA8B9002C10DD0B4B5A68A24294
S3150800D1200CDB04F180441B68013C324653F82400AA
S3150800D130036829469B68BDE8704018476FF01100E0
S3150800D14070BD6FF0180070BDF826030870B5044668
S3150800D1500D46164603F0E6FBA8B9002C10DD0B4B6E
S3150800D1605A68A2420CDB04F180441B68013C324633
S3150800D17053F8240003682946DB68BDE87040184761
S3150800D1806FF0110070BD6FF0180070BDF826030827
S3150800D19000F030B92DE9F04F0D4689B0EFF310874E
S3150800D1A072B6264C0126636986401E4223D0244A5D
S3150800D1B0E368D2F800908E46D16803F1010801EBC6
S3150800D1C0431A204BD3F800B0BEE80F00D446ACE8AB
S3150800D1D00F009EE80F00C8458CE80F0028BF002303
S3150800D1E0CAF804B0C4F80C8028BFE36063689945A0
S3150800D1F00BD901336360A3691E420ED1012F00D0FB
S3150800D20062B6002009B0BDE8F08FE368A360236921
S3150800D21001332361A3691E42F0D00A4B2C461E68CF
S3150800D2200FCC6D460FC594E80F0085E80F00064938
S3150800D23001966846FCF756FCE0E700BF38A20020D6
S3150800D2400027030818FD002091D10008F0B583B027
S3150800D250EFF3108272B6012A29D0194C65680026A8
S3150800D26005B3184AA168D36803EB411E13680193F6
S3150800D2704F1C8446BEE80F00ACE80F009EE80F007E
S3150800D2808CE80F00019B20699F4228BF002305F107
S3150800D290FF35C4E9015728BFA360002323611EB1E7
S3150800D2A003B0F0BD6FF0280062B603B0F0BD044CC1
S3150800D2B065681646002DD4D16FF02800F0E700BF48
S3150800D2C038A2002000270308FFF764BF00B583B023
S3150800D2D0034601220DF1070103488DF80730FFF7D1
S3150800D2E0D7FC03B05DF804FB04A0002000F082B868
S3150800D2F030B51248124D134C89B0FFF737FC124B64
S3150800D30002930122694605200092FFF7DDFF684671
S3150800D310FFF79CFF002809DB0CD121466846FCF77D
S3150800D320E1FB6846FFF792FF0028F5DA286803F064
S3150800D33033F8ECE72146FCF7F1FBEEE704A0002002
S3150800D34010270308CDD2000834280308F0B5184D75
S3150800D3508BB003E09DF8070000F04CF80DF10701CB
S3150800D3602846FFF799FE04460028F3D102A8FFF7DE
S3150800D3706DFF051E0F4E104F0CDB6CB19DB9314683
S3150800D38002A8FCF7AFFB02A8FFF760FF051E4FF0E7
S3150800D3900104F2DA0BB0F0BD214632463846FCF7F6
S3150800D3A0D3FA002DEBD031462846FCF7B7FBE6E763
S3150800D3B004A00020EDD200085428030810B50B4B32
S3150800D3C00B4988B0D3E900230291012403200721E1
S3150800D3D0CDE903010094694600240520CDE90542FC
S3150800D3E00793FFF771FF08B010BD00BF4C2703086D
S3150800D3F0702803080A2838B5044607D0074D214681
S3150800D400284600F05DF80028F9D038BD034D0D21F7
S3150800D410284600F055F80028F9D0EFE75427030806
S3150800D42010B5044620482368D96821F40051D9600C
S3150800D43023F44061002281421A61DA605A612FD0D2
S3150800D44004F088FA02466168184BA3FB02021848E2
S3150800D450A3FB01314FF47A7C520949090CFB02F20D
S3150800D4600901B2FBF1F32268A0FB034189090CFB11
S3150800D47011331B0103F5FA73A0FB0303C3F38313EC
S3150800D48043EA01139360D36843F00C03D3605369EE
S3150800D49043F001035361D36843F40053D36010BDCE
S3150800D4A004F070FA0246CEE7001001401F85EB51E2
S3150800D4B0D34D62100268D36823F40053D3607047D3
S3150800D4C00368186810F080001CBF59600120704777
S3150800D4D003681A68920646BF5868C0B24FF0FF3014
S3150800D4E0704700BF012908D0022905D10268D36810
S3150800D4F043F02003D360704770470268D36843F04F
S3150800D5008003D360704700BF012908D0022905D1DE
