S00B00006173702E73726563D5
S3150800800008BB0020D98100082D8200082D820008AF
S315080080102D8200082D8200082D8200082D82000876
S315080080200000000000000000000000001D8300089A
S315080080302D820008000000006B820008F5A50008E4
S31508008040F5A50008F5A50008F5A50008F5A500089A
S31508008050F5A50008F5A50008F5A50008F5A500088A
S31508008060F5A50008F5A50008F5A50008F5A500087A
S31508008070F5A50008F5A50008F5A50008F5A500086A
S31508008080F5A50008F5A50008F5A50008F5A500085A
S31508008090F5A50008F5A50008F5A50008F5A500084A
S315080080A0F5A50008F5A50008F5A50008F5A500083A
S315080080B0F5A50008F5A50008F5A50008F5A500082A
S315080080C0F5A50008F5A50008F5A50008F5A500081A
S315080080D0F5A50008F5A50008F5A50008F5A500080A
S315080080E0F5A50008F5A50008F5A50008F5A50008FA
S315080080F0F5A50008F5A50008F5A50008F5A50008EA
S31508008100F5A50008F5A50008F5A50008F5A50008D9
S31508008110F5A50008F5A50008F5A50008F5A50008C9
S31508008120F5A50008F5A50008F5A50008F5A50008B9
S31508008130F5A50008F5A50008F5A50008F5A50008A9
S31508008140F5A50008F5A50008F5A50008F5A5000899
S31508008150F5A50008F5A50008F5A50008F5A5000889
S31508008160F5A50008F5A50008F5A50008F5A5000879
S31508008170F5A50008F5A50008F5A50008F5A5000869
S31508008180F5A50008F5A50008F5A50008F5A5000859
S31508008190F5A50008F5A50008F5A50008F5A5000849
S315080081A0F5A50008F5A50008F5A50008F5A5000839
S315080081B0F5A50008F5A50008F5A50008F5A5000829
S315080081C0F5A50008F5A50008F5A50008F5A5000819
S315080081D0F5A50008F5A5000871B601F01BFD0020FD
S315080081E00D490E4A914203D2086004319142FBD3ED
S315080081F00B490C4A914206D20B4B086818600431A9
S3150800820004339142F9D300F005F802F097FAFEE735
S31508008210704700BF7047000000100020D8580120A2
S31508008220AC4302089C47020800000020EFF31181C6
S31508008230EFF3108251EA02211EF0040F05D0EFF386
S31508008240098020E9024002B501E002B56846744A91
S3150800825013680CB4EFF30583724951F8232090474D
S315080082600FBC016082F311881847102080F311882B
S315080082706D49086858B1EFF309821EF0100F01D155
S3150800828022ED108A22E9F00F8261C0F81CE06748E7
S3150800829000680860A0B1C16911F07F42B2F17F4F52
S315080082A01AD18269B2E8F00F11F0100F01D1B2ECC1
S315080082B0108A82F30988002071B680F3118808476E
S315080082C0EFF309805A495FF0807220E906001838F2
S315080082D080F30988DFF840F0426A4AB1554A5FF0F0
S315080082E080738069B0E8F00F20E90E00143807E0C3
S315080082F08069B0E8F00F5FF0807220E90600183850
S3150800830080F30988464801210160BFF34F8FDFF8E3
S3150800831008F0BDEC108A7047FDFFFFFF40480021BA
S315080083200160002080F31188A0692900B0E8F00FE9
S3150800833011F0100F01D1B0EC108A80F309880847B4
S315080083403D48016881F30888022080F31488BFF34A
S315080083506F8F3A49D1F814D034490968324A61B660
S315080083601BE0022383F31488BFF36F8F2F49096834
S315080083702D4A12E0EFF3148313F0040306D02DED13
S31508008380108A022383F31488BFF36F8F43622DE9A3
S31508008390F00FC0F81CE0C0F818D0116089B1CA699E
S315080083A012F07F40B0F17F4F02D10C00150000DFBC
S315080083B0D1F818D0BDE8F00F4B6A0BB1BDEC108AA6
S315080083C01047174800210160BFF34F8F002080F344
S315080083D01188BFF34F8F30BFFBE700BF104800215D
S315080083E00160BFF34F8F002080F311880E480168A3
S315080083F08A685068DFF848E0D2F808F0002181F36F
S315080084001488BFF36F8F02F0C5B900BFA0F15300FF
S31508008410002800DC7047A0F131000028FBDC70471B
S3150800842070FC0020F809020884FC002088FC002063
S31508008430C283000812830008F40C0208740D0208AF
S3150800844079AC00087BB972B90029BEBF00204FF08D
S31508008450004106E008BF00281CBF6FF000414FF03E
S31508008460FF3000F0A7B9ADF1080C6DE904CE00297C
S3150800847009DB002B1ADB00F035F8DDF804E0DDE94E
S31508008480022304B07047404261EB4101002B1BDB1D
S3150800849000F028F8DDF804E0DDE9022304B04042E4
S315080084A061EB4101524263EB43037047524263EB6F
S315080084B0430300F017F8DDF804E0DDE9022304B011
S315080084C0404261EB41017047524263EB430300F0BF
S315080084D009F8DDF804E0DDE9022304B0524263EB53
S315080084E0430370472DE9F047089D04468E46002B46
S315080084F04DD18A42944669D9B2FA82F252B101FA4A
S3150800850002F3C2F1200120FA01F10CFA02FC41EA59
S31508008510030E94404FEA1C48210CBEFBF8F61FFADE
S315080085208CF708FB16E341EA034306FB07F1994279
S315080085300AD91CEB030306F1FF3080F01F8199422C
S3150800854040F21C81023E63445B1AA4B2B3FBF8F006
S3150800855008FB103344EA034400FB07F7A7420AD98D
S315080085601CEB040400F1FF3380F00A81A74240F2B5
S3150800857007816444023840EA0640E41B00261DB120
S31508008580D4400023C5E900433146BDE8F0878B4255
S3150800859009D9002D00F0EF800026C5E90001304614
S315080085A03146BDE8F087B3FA83F6002E4AD18B42EE
S315080085B002D3824200F2F980841A61EB0303012098
S315080085C09E46002DE0D0C5E9004EDDE702B9FFDE84
S315080085D0B2FA82F2002A40F09280A1EB0C014FEA2F
S315080085E01C471FFA8CFE0126200CB1FBF7F307FB8C
S315080085F0131140EA01410EFB03F0884208D91CEB2F
S31508008600010103F1FF3802D2884200F2CB804346CB
S31508008610091AA4B2B1FBF7F007FB101144EA0144AA
S315080086200EFB00FEA64508D91CEB040400F1FF3139
S3150800863002D2A64500F2BB800846A4EB0E0440EA27
S3150800864003409CE7C6F12007B34022FA07FC4CEA30
S31508008650030C20FA07F401FA06F31C43F9404FEA23
S315080086601C4900FA06F3B1FBF9F8200C1FFA8CFE38
S3150800867009FB181140EA014108FB0EF0884202FA8C
S3150800868006F20BD91CEB010108F1FF3A80F088804D
S31508008690884240F28580A8F102086144091AA4B20A
S315080086A0B1FBF9F009FB101144EA014100FB0EFE8B
S315080086B08E4508D91CEB010100F1FF346CD28E45BA
S315080086C06AD90238614440EA0840A0FB0294A1EB4B
S315080086D00E01A142C846A64656D353D05DB1B3EBA8
S315080086E0080261EB0E0101FA07F722FA06F3F140D8
S315080086F01F43C5E9007100263146BDE8F087C2F17F
S315080087002003D8400CFA02FC21FA03F391400143F6
S315080087104FEA1C471FFA8CFEB3FBF7F007FB10362F
S315080087200B0C43EA064300FB0EF69E4204FA02F4DB
S3150800873008D91CEB030300F1FF382FD29E422DD92E
S31508008740023863449B1B89B2B3FBF7F607FB163363
S3150800875041EA034106FB0EF38B4208D91CEB0101E3
S3150800876006F1FF3816D28B4214D9023E6144C91A63
S3150800877046EA004638E72E46284605E70646E3E673
S315080087801846F8E64B45A9D2B9EB020864EB0C0E7D
S315080087900138A3E74646EAE7204694E74046D1E78C
S315080087A0D0467BE7023B614432E7304609E764443A
S315080087B0023842E7704700BF844641EA000313F0D7
S315080087C003036DD1403A41D351F8043B40F8043BCA
S315080087D051F8043B40F8043B51F8043B40F8043B8D
S315080087E051F8043B40F8043B51F8043B40F8043B7D
S315080087F051F8043B40F8043B51F8043B40F8043B6D
S3150800880051F8043B40F8043B51F8043B40F8043B5C
S3150800881051F8043B40F8043B51F8043B40F8043B4C
S3150800882051F8043B40F8043B51F8043B40F8043B3C
S3150800883051F8043B40F8043B51F8043B40F8043B2C
S3150800884051F8043B40F8043B403ABDD2303211D3CC
S3150800885051F8043B40F8043B51F8043B40F8043B0C
S3150800886051F8043B40F8043B51F8043B40F8043BFC
S31508008870103AEDD20C3205D351F8043B40F8043BCC
S31508008880043AF9D2043208D0D2071CBF11F8013BCA
S3150800889000F8013B01D30B8803806046704700BF90
S315080088A0082A13D38B078DD010F003038AD0C3F19F
S315080088B00403D21ADB071CBF11F8013B00F8013B81
S315080088C080D331F8023B20F8023B7BE7043AD9D340
S315080088D0013A11F8013B00F8013BF9D20B78037015
S315080088E04B7843708B7883706046704700000000B1
S315080088F0000000000000000000000000000000006A
S3150800890090F800F06DE9024520F007016FF0000CC1
S3150800891010F0070491F820F040F049804FF0000469
S315080089206FF00700D1E9002391F840F000F1080044
S3150800893082FA4CF2A4FA8CF283FA4CF3A2FA8CF37C
S315080089404BBBD1E9022382FA4CF200F10800A4FAE3
S315080089508CF283FA4CF3A2FA8CF3E3B9D1E9042337
S3150800896082FA4CF200F10800A4FA8CF283FA4CF36E
S31508008970A2FA8CF37BB9D1E9062301F1200182FA28
S315080089804CF200F10800A4FA8CF283FA4CF3A2FA2E
S315080089908CF3002BC6D0002A04BF04301A4612BA3C
S315080089A0B2FA82F2FDE8024500EBD2007047D1E93F
S315080089B0002304F00305C4F100004FEAC50514F0CE
S315080089C0040F91F840F00CFA05F562EA05021CBF9F
S315080089D063EA050362464FF00004A9E70EB400B542
S315080089E08AB00BAA02A852F8041B019200F062FA98
S315080089F002A9052000F084FD0AB05DF804EB03B077
S31508008A00704700BFF0B56749674D684F684E83B039
S31508008A1000220520FFF7E2FF0DF1060001F068FBD2
S31508008A20BDF80630C3F38014D90648BF02349A0647
S31508008A3048BF04349B052B6848BF0834A34215D0A9
S31508008A40631E0E2B12D8DFE803F094A08A7E746AA0
S31508008A5060544A40362C2218080039460520002260
S31508008A60FFF7BCFF4621304601F0BAFA514800220A
S31508008A70012101F03FFA2C60CEE74F49002205207C
S31508008A80FFF7ACFF46214D4801F0AAFAEEE74C493C
S31508008A9000220520FFF7A2FF46214A4801F0A0FA66
S31508008AA0E4E7494900220520FFF798FF4621474891
S31508008AB001F096FADAE7464900220520FFF78EFF0D
S31508008AC04621444801F08CFAD0E7434900220520A4
S31508008AD0FFF784FF4621414801F082FAC6E740497C
S31508008AE000220520FFF77AFF46213E4801F078FA72
S31508008AF0BCE73D4900220520FFF770FF00224FF42E
S31508008B007A71394801F0F6F9B0E7384900220520AC
S31508008B10FFF764FF4621364801F062FAA6E73549B1
S31508008B2000220520FFF75AFF4621334801F058FA7C
S31508008B309CE7324900220520FFF750FF46213048BE
S31508008B4001F04EFA92E72F4900220520FFF746FF6B
S31508008B5000224FF47A712B4801F0CCF986E72A49AE
S31508008B6000220520FFF73AFF4621284801F038FA87
S31508008B707CE7274900220520FFF730FF00224FF443
S31508008B807A71234801F0B6F970E7224900220520D8
S31508008B90FFF724FF00224FF47A711E4801F0AAF964
S31508008BA064E700BF3805020800100020EC0502083B
S31508008BB0F0050208F8050208DC050208E4050208C3
S31508008BC0CC050208D4050208C0050208C405020837
S31508008BD0B0050208B8050208A4050208A805020897
S31508008BE0980502089C050208E0050208880502089F
S31508008BF0900502087C05020880050208700502082F
S31508008C00740502088C05020864050208680502084E
S31508008C105C050208600502082DE9F04FB0FBF1FC7F
S31508008C201D4601FB1C0385B0D35CDDF838808DF842
S31508008C30043001AFDDE90F96BE46012400E09C46EC
S31508008C40814260460AD8BCFBF1F301FB13CC013420
S31508008C5012F80CC00EF801CF0B2CF0D1B8F1000FAA
S31508008C602AD005B1013DB9F1000F01D02D20B0473A
S31508008C70AC421BD2B9F1000F14BF4FF0300B4FF0C6
S31508008C80200BA24658460AF1010AB047AA45F9D36D
S31508008C90B8F1000F0AD1013C3C442078B047BC42E9
S31508008CA004F1FF34F9D105B0BDE8F08FB9F1000F32
S31508008CB0F1D12D20B047EEE7AC42DBD3EBE700BF9E
S31508008CC02DE9F04F834682461BF8010B85B0002834
S31508008CD059D0DFF88091DFF880815D4F0E46144643
S31508008CE0002507E0A047DA460BF1010B9AF80000C9
S31508008CF0002848D02528F5D1042DF3D89AF8012064
S31508008D00302A46D00AF1020A0020A2F13003092BC4
S31508008D104FF000030BD803EB830302EB43031AF867
S31508008D20012BA2F130010929A3F13003F3D96C2AEA
S31508008D302CD002F0DF01542928D0782A1DD8572ACA
S31508008D4015D9583A202A18D8DFE802F05617171707
S31508008D5017171717171717646B17171717171717F4
S31508008D601717171729171737174817172900002A2B
S31508008D706AD0252A01D11046A0470AF1010B9AF8B4
S31508008D8000000028B6D105B0BDE8F08F1AF8012B0F
S31508008D90D3E79AF8022001200AF1030AB5E7CDE9DC
S31508008DA001040022009256F8250042461021FFF7DA
S31508008DB033FF01350AF1010B98E756F825B01BF881
S31508008DC0010B01350028D8D0A0479BF800000BF10D
S31508008DD0010B0028F8D10AF1010BD0E7CDE901040F
S31508008DE00022009256F825003A460A21FFF714FF9A
S31508008DF001350AF1010B79E7CDE901040022009259
S31508008E0056F825004A461021FFF706FF01350AF1F4
S31508008E10010B6BE716F82500A04701350AF1010B8F
S31508008E2064E756F82520002ACDE90104ABBF1046B1
S31508008E3050420022012200920A213A46FFF7ECFE30
S31508008E4001350AF1010B9AE7D3460AF1FF3A4DE7D5
S31508008E504806020834060208540602080268012A6F
S31508008E6010B503460C4602D0022A0BD010BD806806
S31508008E700A4603F10C01FFF723FF23460A20BDE843
S31508008E80104018470A46024803F10801F3E700BFF5
S31508008E90FC05020810B582B003460A460C4604488B
S31508008EA0019301A9FFF70CFF0A20A04702B010BDE5
S31508008EB01C06020830B50123036081600C789E46C3
S31508008EC044B1BEF1050F05D8252C04D011F8014F81
S31508008ED0002CF6D130BD4B7801F1020CA3F130011C
S31508008EE0092905D81CF8013BA3F130010929F9D94C
S31508008EF06C2B5BD003F0DF0154291DD0002B00F04A
S31508008F00B480583BD9B2202900F2B580202B00F254
S31508008F10B280DFE803F040B0B0B0B0B0B0B0B0B0E7
S31508008F20B04040B0B0B0B0B0B0B0B0B0B0B030B093
S31508008F30B030B040B0B04000614611F8014B002C8B
S31508008F4000F09780583CE5B2202D7FD8202C7DD89C
S31508008F50DFE804F01C7C7C7C7C7C7C7C7C7C7C2232
S31508008F607F7C7C7C7C7C7C7C7C7C7C7C127C7C1204
S31508008F707C1C7C7C1C0061460EF1020352F8044BF3
S31508008F8040F823400EF1010E0C7899E7742B03D0B4
S31508008F90542B64D08C46614652F8044B0EF10203FA
S31508008FA00EF1010E40F823400C7889E7614611F866
S31508008FB0014B002C5DD0583CE3B2202B46D8202C20
S31508008FC044D801A353F824F0998F00084D9000085F
S31508008FD04D9000084D9000084D9000084D900008EF
S31508008FE04D9000084D9000084D9000084D900008DF
S31508008FF04D900008998F0008998F00084D90000839
S315080090004D9000084D9000084D9000084D900008BE
S315080090104D9000084D9000084D9000084D900008AE
S315080090204D9000084D900008798F00084D90000873
S315080090304D900008798F00084D900008998F000818
S315080090404D9000084D900008998F00089CF8014043
S3150800905036E76C2BA0D0742B9ED0542B9CD10732AC
S3150800906022F0070252F8084B98E71CF8014C0CF15D
S31508009070FF3C614624E79CF80040614620E700BFB4
S3150800908010B50C4888B04FF4004101F031F90A4A8E
S31508009090106008B108B010BD0849094B0291C022FA
S315080090A002246946CDE90323009400F029FA00F06A
S315080090B0D7FDFEE70020002000A000206806020871
S315080090C08C0602080EB410B58BB00DAA044652F8E9
S315080090D0041B019202A8FFF7EDFE02A9204600F044
S315080090E00FFA0BB0BDE8104003B0704708B5044945
S315080090F00620FFF7E7FF04F079FC02F086FBFEE79F
S31508009100A006020801F0AEBC012001F0F5BC00BFC4
S3150800911010B582B00C461A4604490094034600204E
S31508009120FFF7D0FF00F09CFDFEE700BFBC06020873
S31508009130704700BF704700BF704700BF704700BF49
S31508009140704700BF704700BF024B03490022C3E9BE
S315080091500012704704A000200C070208704700BFE1
S3150800916010B4074B074C00223F201F21C3E90042D9
S31508009170C3E90222C3E904205DF8044B99617047EC
S3150800918038A200201C070208704700BF704700BFBE
S31508009190704700BF704700BF704700BF704700BFE9
S315080091A00849094B10B4002201F11C0401F13800EA
S315080091B0C3E90A42C3E90012C3E914025DF8044B85
S315080091C0704700BF7807020854A6002000F060BC6C
S315080091D000F060BC00F060BC084600F05FBC00BF51
S315080091E0084600F05DBC00BF704700BF00F06CBCCD
S315080091F000F07CBC00F07CBC084600F07BBC00BFDD
S31508009200084600F087BC00BF704700BF00F0A6BC48
S3150800921000F0A6BC00F0A6BC084600F0A5BC00BF3E
S31508009220084600F0A3BC00BF704700BF00F07CB939
S31508009230014800F047BA00BF7007020800F0DAB923
S3150800924000F0A0B938B5017F044649B9056B0DB9D8
S31508009250C36A5BB9BDE838401448012100F020BA5A
S31508009260124800F0F9F90023237738BD0268436AEB
S31508009270D2680E48D15C00F0EFF92368626A596833
S31508009280E36A01328A4218BF15469942656202D0DE
S31508009290013BE36238BD064B586801F049FD0028DA
S315080092A0B7BF0122E36AE36AA260F1E77007020822
S315080092B0E8060208F8B50446414800F0D5F9E3681F
S315080092C0DD05C0B228D513285DD0226B3ABB11281C
S315080092D021D02368A1691A6891421CD09A686369EB
S315080092E0D05422686369126801339342636104BFEC
S315080092F000236361A369002B48D0E2680133520555
S31508009300A36108D5226A32B92268126802EB4202C2
S31508009310B3EB920F45D2F8BD226B002AD9D011289B
S3150800932001D09905D5D5E36A00252563002BF2D02F
S31508009330234E244F0FE02368626A5968E36A0132B4
S315080093408A4214BF104628469942606212D0013BF1
S31508009350E362002BDFD02268636AD2683046D15CAC
S3150800936000F07AF90028E6D1BDE8F8401448012152
S3150800937000F084B9786801F0DBFC0028BCBF012343
S31508009380A360E36AE3E701232363F8BD0D4B18687E
S3150800939001F0CEFC0028B7BF0122A369A369A26029
S315080093A0ABE70748132100F057F928B9044801210B
S315080093B000F064F91323237701232362F8BD00BF65
S315080093C070070208E806020800F030B92DE9F04FE8
S315080093D00D4689B0EFF3108772B6264C01266369ED
S315080093E086401E4223D0244AE368D2F800908E466F
S315080093F0D16803F1010801EB431A204BD3F800B0FA
S31508009400BEE80F00D446ACE80F009EE80F00C8453A
S315080094108CE80F0028BF0023CAF804B0C4F80C80F3
S3150800942028BFE360636899450BD901336360A36974
S315080094301E420ED1012F00D062B6002009B0BDE849
S31508009440F08FE368A360236901332361A3691E4291
S31508009450F0D00A4B2C461E680FCC6D460FC594E813
S315080094600F0085E80F00064901966846FFF7F6FCE7
S31508009470E0E700BF38A200201C0702086CFC0020A9
S31508009480C9930008F0B583B0EFF3108272B6012ACB
S3150800949029D0194C6568002605B3184AA168D3680F
S315080094A003EB411E136801934F1C8446BEE80F0068
S315080094B0ACE80F009EE80F008CE80F00019B2069BE
S315080094C09F4228BF002305F1FF35C4E9015728BF8D
S315080094D0A360002323611EB103B0F0BD6FF028001E
S315080094E062B603B0F0BD044C65681646002DD4D1AB
S315080094F06FF02800F0E700BF38A200201C0702081A
S31508009500FFF764BF00B583B0034601220DF10701DA
S3150800951003488DF8073000F0A7F903B05DF804FB9F
S3150800952054A6002000F082B830B51248124D134CEC
S3150800953089B000F051F9124B0293012269460520C1
S315080095400092FFF7DDFF6846FFF79CFF002809DB5E
S315080095500CD121466846FFF781FC6846FFF792FF63
S315080095600028F5DA286801F02FFBECE72146FFF71B
S3150800957091FCEEE754A600202C0702080595000882
S3150800958020080208F0B5184D8BB003E09DF80700D7
S3150800959000F04CF80DF10701284600F05FFA044682
S315080095A00028F3D102A8FFF76DFF051E0F4E104FD6
S315080095B00CDB6CB19DB9314602A8FFF74FFC02A837
S315080095C0FFF760FF051E4FF00104F2DA0BB0F0BD9D
S315080095D0214632463846FFF773FB002DEBD031465D
S315080095E02846FFF757FCE6E754A60020259500080D
S315080095F04008020810B50B4B0B4988B0D3E9002385
S315080096000291012403200721CDE90301009469464C
S3150800961000240520CDE905420793FFF771FF08B03E
S3150800962010BD00BF680702085C0802080A2838B59A
S31508009630044607D0074D2146284600F00DF80028B5
S31508009640F9D038BD034D0D21284600F005F800284D
S31508009650F9D0EFE7700702080368186810F0800071
S315080096601CBF59600120704703681A68920646BFF6
S315080096705868C0B24FF0FF30704700BF012908D0C4
S31508009680022905D10268D36843F02003D3607047E6
S3150800969070470268D36843F08003D360704700BF01
S315080096A0012908D0022905D10268D36823F02003CE
S315080096B0D360704770470268D36823F08003D3608D
S315080096C0704700BF03681A68910606D41B681B0614
S315080096D000D470470848FFF7B5BD10B504460648DC
S315080096E0FFF7E8FD23681B681A0600D410BDBDE81D
S315080096F010400148FFF7A6BD04A000200EB400B52F
S315080097008AB00CAA02A806490192FFF7D3FB02A960
S315080097100020FFF7F5FE0AB05DF804EB03B07047CA
S31508009720B80902080A2970B50E46044602D1C3686C
S31508009730DB0626D401F028FC002846DB2268236ACB
S315080097409269D6542268236A1569616A0133AB4265
S3150800975001F101012362A5EB010504BF0023236281
S31508009760B5FA85F5012961624FEA551503D11068E6
S315080097700368DB68984701F01BFC002825DB2846B0
S3150800978070BD0D21FFF7CEFF051EF8DBD2D0636A48
S3150800979023B12368186803689B68984723685B6841
S315080097A0186801F039FB051EC4DA0A492A46002062
S315080097B0FFF7A4FF05F13503DBB2042B05D8012218
S315080097C002FA03F313F0150FD9D10123A3606FF042
S315080097D00405D4E7B809020870B5044601F072FC1E
S315080097E000283ED12368186803681B68984701F06B
S315080097F0F1FB002830DB65683DB16FF0280501F004
S3150800980015FC002828DB284670BD40F21153C4E930
S315080098100335C4E90555C4E90755656201F0B4FB8B
S31508009820002816DB23681868036801211B69984716
S315080098302368186803680221DB6801269847C4E98B
S31508009840016501F0B5FB0028D9DAA6606FF00405BA
S31508009850D5E76FF00405D2E70123A3606FF004058E
S31508009860D1E76FF01805CEE72DE9F04105460F461A
S31508009870904601F027FC002840F089806B68002B91
S3150800988000F08880AE68002E7ED12B685B68186869
S3150800989001F0C2FA041E51DBB8F1000F63D017F8C5
S315080098A0011B2846FFF73EFF041E32DB0136B04592
S315080098B025D0002CF3D06B6A23B12B68186803688F
S315080098C09B6898472B685B68186801F0A5FA041E20
S315080098D0E5DA002031492246FFF710FF04F135008A
S315080098E0C0B2042805D8012303FA00F010F0150FBA
S315080098F001D10123AB6034462046BDE8F0816B6A8E
S3150800990063B12B68186803689B689847002C33D0A6
S315080099100024002EEFD12046BDE8F081002CEAD1C4
S315080099202B685B68186801F003FA0028E3DA01235C
S31508009930AB606FF00404002EEDD0DCE71749224631
S315080099403046FFF7DBFE04F13503DBB2042B05D8FE
S31508009950012202FA03F313F0150FCDD10123AB60F0
S315080099606FF00404C8E76E6A2B68002ED9D0186811
S3150800997003689B68464698472B685B68186801F039
S31508009980D7F90028C4DAD2E76FF00404B4E76FF019
S315080099901804B1E76FF02804AEE700BFB80902085B
S315080099A0406A704738B5456A0446B5B10268C36966
S315080099B09269D35C0B700168C3690A6901339342E3
S315080099C0C36104BF0023C361436A9A420DD0013BB9
S315080099D0636201250BB1284638BD236818680368F9
S315080099E001211B699847284638BD4B68186801F05D
S315080099F09FF9002801DB636AE9E70123A3606FF09A
S31508009A000405E8E7036810B5DA68044680699042F9
S31508009A101CD05A696369D15422686369D1680133D5
S31508009A208B42636104BF00236361A3691BB10133E1
S31508009A30A361012010BD9368186801F079F9002820
S31508009A4006DBA3690133A3610120F3E7002010BDFB
S31508009A500123A3606FF0040010BD00BF43680BB17B
S31508009A60436A0BB9184670470268C3699269D35CA2
S31508009A700B700268C369126901339342426AC36173
S31508009A8004BF0023C361013A0123426218467047A6
S31508009A90704700BF704700BF704700BF704700BFE0
S31508009AA0704700BF0148FFF77BBF00BF54A60020E0
S31508009AB001460148FFF776BF54A600200146014833
S31508009AC0FFF7A0BF54A6002010B500F013FB064C04
S31508009AD001E001F079F8022003F084F903462046F4
S31508009AE0002BF6D010BD00BF40420F00704700BFE4
S31508009AF005F084BD012806D0022803D1034B0122B4
S31508009B001A6070477047024B18607047E4AA002035
S31508009B10E8AA0020012806D0022803D1044B002217
S31508009B201A6070477047034B00221A60704700BFDF
S31508009B30E4AA0020E8AA00200148FFF731BF00BFC9
S31508009B407CA6002001460148FFF72CBF7CA6002012
S31508009B5001460148FFF756BF7CA60020704700BFA4
S31508009B60704700BF704700BF704700BF704700BF0F
S31508009B7008B5FFF7DDFAFFF7DDFAFFF7DDFAFFF7BD
S31508009B80DDFAFFF7DDFAFFF7DDFAFFF7DDFAFFF793
S31508009B90E5FAFFF7E5FAFFF7F7FAFFF7F7FAFFF73F
S31508009BA0F7FAFFF7F7FAFFF7F7FAFFF7F7FAFFF70B
S31508009BB0F7FAFFF719FBFFF727FBBDE80840FFF7A1
S31508009BC033BB00BF0148FFF733BB00BF08070208D5
S31508009BD008B500F0F5FD01F093F801F077F901F00A
S31508009BE085FABDE8084001F059BB00BF0EB400B5C0
S31508009BF08AB00BAA02A852F8041B0192FFF75AF979
S31508009C0002A90020FFF77CFC0AB05DF804EB03B05C
S31508009C10704700BF08B500F0E3F8024A024B126825
S31508009C201A6008BDF00C02080000002070B520F08C
S31508009C301F040A4E84B004F58075D4E90032A06882
S31508009C40E16802911034CDE9002031462246002011
S31508009C50FFF7CCFFA542F0D104B070BDE40D0208B1
S31508009C6038B512490020FFF7C1FF11490020FFF758
S31508009C70BDFFEFF30885EFF309846A460D49002016
S31508009C80FFF7B4FF0C492A460020FFF7AFFF284626
S31508009C90FFF7CCFF094922460020FFF7A7FF204619
S31508009CA0FFF7C4FF00F032FCFEE700BF000E020813
S31508009CB0100E0208240E02082C0E0208380E02089E
S31508009CC008B503490020FFF791FF00F01FFCFEE7E7
S31508009CD0440E020800B5002083B000F08BF800247B
S31508009CE00194019BB3F5801F06DA019B01330193AA
S31508009CF0019BB3F5801FF8DB002000F0A3F8EFE71F
S31508009D0030B589B000F08AFB284B1A6842F4007215
S31508009D101A601A6842F480621A601A6842F48072FD
S31508009D2000241A6000F096F8204600F063F8204BED
S31508009D3001941A6B1F4842F008021A631A6B02F064
S31508009D4008020192019A02945A6C42F040025A643F
S31508009D505B6C03F04003022102934FF40043049125
S31508009D6006910B2503A90393029B079501230593E7
S31508009D7001F078FD4FF480430E48039303A9079535
S31508009D8001F070FD0C480D4904614FF4E1320C23D3
S31508009D90C0E90012C0E90244C0E90534C46102F012
S31508009DA06FFA08B909B030BDFFF794FF003C0240CE
S31508009DB000380240000C024024FC00200018014034
S31508009DC000207047034A044B1068A3FB0030800943
S31508009DD0704700BF18FD0020D34D6210704700BFC2
S31508009DE0034AD2F8883043F47003C2F888307047C3
S31508009DF000ED00E070B5044686B050B90F4B0090F0
S31508009E001A6B42F001021A631B6B03F001030093FD
S31508009E10009B0B4E012356F824002025022201A997
S31508009E20CDE90332CDE9015301F01CFD56F82400B3
S31508009E300022294601F0FEFD06B070BD003802403A
S31508009E4004000020024B202153F8200001F0F7BD42
S31508009E500400002030B595B00023244A0093116C05
S31508009E60234841F080511164126C02F0805200922E
S31508009E70009A0193026822F4404242F400420260CA
S31508009E80026802F440420221012401924FF4800044
S31508009E904FF48032CDE90742CDE90933CDE90C31DB
S31508009EA0082460220E90042307A8CDE90F42CDE9C5
S31508009EB01113019D139101F0D3FD80B902200F24DF
S31508009EC00023CDE902404FF48052052102A8CDE9CE
S31508009ED00432069301F09AFF20B915B030BDFFF79A
S31508009EE0F9FEEBE7FFF7F6FE15B030BD0038024085
S31508009EF0007000402DE9F04F054683B000780092C7
S31508009F00002851D04FF0000909F101035FFA83F9DF
S31508009F1015F80920002AF7D1B9F1000F44D02038E6
S31508009F20C6B201E04C4507D201325E2ED4B2F9D949
S31508009F30022003B0BDE8F08F009BDFF89CA0DFF895
S31508009F409C804FF47A7B0BFB01F70BFB03FB09F1B3
S31508009F50FF332E460024019309E0019BA34216D045
S31508009F600134E2B291451FD916F8010F203800EBEB
S31508009F7080000AEB0001D8F8000003F061FE0246F3
S31508009F803846AAB900F020FE009B002BE5D0D8F889
S31508009F90000003F039FE02465846AAB9013400F01B
S31508009FA013FEE2B29145DFD8002003B0BDE8F08F7A
S31508009FB0295DD8F80000203901EB8101514403B02E
S31508009FC0BDE8F04F03F03CBED8F8000003B0BDE88A
S31508009FD0F04F03F019BE00BF740E0208B00000204F
S31508009FE02DE9F04F03788BB088468BB10246C0F155
S31508009FF0010402E012F8013F5BB1203B5E2B04EB43
S3150800A0000205F7D94FF0020A50460BB0BDE8F08FAB
S3150800A0101D46334B019093E80300324BDFF8CC9092
S3150800A0200690ADF81C1093E8030099F804300890E0
S3150800A0308DF80C30D9F80000ADF824104FF47A7377
S3150800A040029003FB08F800270DF10D0B019804A9EF
S3150800A0500022BD42CABF03780023203B03EB8303DB
S3150800A0604B449B5C01F8013B0132052AF1D106AC51
S3150800A07008AE4FF0040C102002AA04A911F8013BFF
S3150800A08092F800E0034043FA0CF343EA4E0302F861
S3150800A090013B5A45F2D1144B02A9186803F0D0FDCA
S3150800A0A0824690B9404600F08FFD0DF11D03A3428C
S3150800A0B004D014F8010F16F801CFDDE7019B01372C
S3150800A0C00133BD420193C1DA9EE7074B02A918681E
S3150800A0D003F0B6FD824650460BB0BDE8F08F00BFD0
S3150800A0E06C0E020810050208B0000020740E020863
S3150800A0F002F07FBF08B500F047FF054B054801226F
S3150800A1001A7002F0E5FB00F053FF002008BD00BFFF
S3150800A11068FC00208C00002030B54B6823F0030350
S3150800A1207F2B89B035D89B10002203EB421C00EB2D
S3150800A1308C0CDCF87440002C3CD0C1E90240E1608C
S3150800A14001F10B0424F0030401F1080EA6450FD013
S3150800A1502048214B02904FF41C72022469460020C5
S3150800A160CDE903230094FFF7CBF9FFF779FDFEE766
S3150800A170CCF87410012101FA02F401FA03F301691B
S3150800A18000EB82022143016151690B43536109B017
S3150800A19030BDB3FA83F2C2F11A04E34083F0200318
S3150800A1A0C2F1190203EB421C00EB8C0CDCF874407C
S3150800A1B0002CC2D10749094B029140F26A220225B6
S3150800A1C069462046CDE903230095FFF799F9FFF77D
S3150800A1D047FDFEE750100208B41002088410020872
S3150800A1E00EB400B58AB00BAA02A852F8041B019255
S3150800A1F0FEF760FE02A90020FFF782F90AB05DF8B3
S3150800A20004EB03B0704700BF30B511F0030589B001
S3150800A21035D1083A22F003031C4A0C46A3F10C0177
S3150800A220914223D8254643F0010355F804296B606B
S3150800A2302946FFF771FF6B6833F0030007D0231D2B
S3150800A2400344022243E90152204609B030BD1049B1
S3150800A250104B029140F2C31202246946CDE903234A
S3150800A2600094FFF74DF9FFF7FBFCFEE728460A4B7B
S3150800A2700A491422FFF7B4FF284609B030BD00206A
S3150800A28007490422FFF7ACFF0020DEE7F4FFFF3F93
S3150800A2905010020850110208080000409C110208DC
S3150800A2A06811020810F0030110B516D104460161C1
S3150800A2B0C0E902006022143016F098F804F1F002A2
S3150800A2C004F54F61A2F1800343F8044F9342FBD192
S3150800A2D080328A42F6D1204610BD04490422002065
S3150800A2E00024FFF77DFF204610BD00BFDC110208E1
S3150800A2F070B50E460546FFF7D5FFA6F67442044626
S3150800A30005F67441FFF780FF204670BD4FF0E02345
S3150800A31007491A69074822F001021A6159619961C9
S3150800A3201A69002142F005021A610160704700BFF0
S3150800A330FF7601006CFC00204FF0E02300221A6132
S3150800A340704700BF034A136803F57A73136000F079
S3150800A350E3BA00BF6CFC00200EB400B58AB00BAAA5
S3150800A36002A852F8041B0192FEF7A4FD02A90020D8
S3150800A370FFF7C6F80AB05DF804EB03B0704700BFF4
S3150800A380031F0B2B11D80E4B820853F822301A687C
S3150800A39000F00300C0004FF0FF0C0CFA00FC22EAA4
S3150800A3A00C028140114319607047A0F11003652B18
S3150800A3B0FAD823F0030303F1604303F56443E6E7A1
S3150800A3C0B4130208043803280BD8DFE800F01D147C
S3150800A3D00B024FF0E022D2F8243D43F40023C2F8E2
S3150800A3E0243D70474FF0E022D2F8243D43F4802301
S3150800A3F0C2F8243D70474FF0E022D2F8243D43F4DA
S3150800A4000033C2F8243D70474FF0E022D2F8243DCD
S3150800A41043F48033C2F8243D704700BF10B41023BC
S3150800A42083F311883348344A0023012103601160FD
S3150800A430BFF34F8F4FF0E0223049C2F8081DD2F81B
S3150800A440181D2F4821F0FF01C2F8181DD2F8181D53
S3150800A450006821F47F41C2F8181DD2F8181D21F4AE
S3150800A4607F01C2F8181DD2F81C1D21F07F41C2F8E1
S3150800A4701C1DD2F8201D21F0FF01C2F8201DD2F8BC
S3150800A480201D21F47F0141F47001C2F8201DD2F885
S3150800A490241D41F48031C2F8241DD2F8241D41F44C
S3150800A4A00031C2F8241DD2F8241D41F48021C2F8D7
S3150800A4B0241DD2F8141D21F40071C2F8141DD2F817
S3150800A4C0881D4FF0404441F47001C2F8881DC2F857
S3150800A4D0344F60B100EB80000A4A0B4C400011690A
S3150800A4E044F823100A33834202F11802F7D15DF8C3
S3150800A4F0044B704774FC002070FC002000800008A4
S3150800A500C40D0208740D0208B8FB002082B0044B83
S3150800A5100193019B13B1019B02B0184702B0704723
S3150800A520DD9D000870B5A0F10F0CBCF1660F88B070
S3150800A5302ED80C4602F110010F2919D80F283DD044
S3150800A5405342DBB2A0F11001C3F110034FEA511CCC
S3150800A55001F01F0201261901224B964043F82C6090
S3150800A5604FEA8C05FFF70CFFE30721D408B070BD4E
S3150800A5701D481E4B02904FF4927202246946002031
S3150800A580CDE903230094FEF7BBFFFFF769FBFEE75F
S3150800A5901548174B029040F2231202246946002000
S3150800A5A0CDE903230094FEF7ABFFFFF759FBFEE75F
S3150800A5B005F1604505F561452E60D7E74FF0E025C2
S3150800A5C053422A69DBB222F00202C3F110032A6160
S3150800A5D01901FFF7D5FEE207C8D52B6943F0020338
S3150800A5E02B61C3E780E100E010120208701202082E
S3150800A5F05412020810B5EFF31184EFF30582054BE8
S3150800A60053F822309847044B00221A6084F31188C5
S3150800A61010BD00BFF809020870FC0020F0B587B02D
S3150800A620036A0768466A05930446EFF305852C49CD
S3150800A630C5F308050020FFF78FFECDE90067294915
S3150800A640059B02942A460020FFF786FE032D38D084
S3150800A650042D28D0052D11D0062D0AD12249002017
S3150800A660FFF77AFE214B22499A6A0020120CFFF75F
S3150800A67073FE07B0BDE8F040FFF7F2BA1B4C1D4960
S3150800A6800020FFF769FEA26A1949C2F307220020D3
S3150800A690FFF762FEA36A1B04EBD5A26B16490020DE
S3150800A6A0FFF75AFEE5E715490020FFF755FE144A5D
S3150800A6B014490020FFF750FE07B0BDE8F040FFF749
S3150800A6C0CFBA11490020FFF747FE084B0F49DA6A4F
S3150800A6D00020FFF741FE07B0BDE8F040FFF7C0BA1B
S3150800A6E0A8120208C81202087413020800ED00E056
S3150800A6F05413020848130208641302082C130208AC
S3150800A70050ED00E0381302080C1302081C13020867
S3150800A71010B5EFF3058407490020FFF71DFEC4F3C3
S3150800A720080205490020FFF717FEBDE81040FFF7AD
S3150800A73097BA00BF84130208A4130208F8B5FFF7F6
S3150800A74017FAFFF7DDFA00F0BBF8FFF741FA0C4BF2
S3150800A7501D6855B10B4E0024371F57F8343056F88C
S3150800A760340001349847AC42F7D1074A074B1268C0
S3150800A7701A6000F0CFF8064B01221A60FDF7E0FDDB
S3150800A780D00D0208D40B02086CFC002018FD00202E
S3150800A79078FC0020F8B5084B1D6855B1074E002413
S3150800A7A0371F57F8343056F8340001349847AC420E
S3150800A7B0F7D1FFF785FA00BFD40D0208680D020825
S3150800A7C02DE9F047234D244C24482549254B0022E2
S3150800A7D02A602260012202600A6003F18002C3E94E
S3150800A7E0003308339342FAD11F4A204B15684FF0BD
S3150800A7F0000AA3F800A05DB31D4CDFF87C801D4F4E
S3150800A800564601E0AA4523D054F8043B013B03EB26
S3150800A810830908EBC90903EB430399F80F2007EBF3
S3150800A820C3036FF30002C9F80830484689F80F20B9
S3150800A83000F024F8D9F80830C9F814601B68DB075B
S3150800A8400AF1010ADED5484600F026F8AA45DBD10A
S3150800A850BDE8F08784FC002088FC002080FC0020EE
S3150800A8607CFC002090FC0020C40D02088CFC002013
S3150800A870D80D0208740D020898FB0020C37B826875
S3150800A8800021017323F01E03127B427343F0080371
S3150800A8908273C373704700BF82685269203A10B446
S3150800A8A00021054C82610122C46141625DF8044BB6
S3150800A8B0027300F03BBD00BFDD8300080000000006
S3150800A8C09FED0B7B0C4B0D490D4A0E4810B483EDDA
S3150800A8D0007B0D4C00230B600C4923600C4C046074
S3150800A8E00B605DF8044B1260704700BFAFF3008041
S3150800A8F0000000000000000028FD002014FD0020D4
S3150800A90010FC002010FD00201CFD002020FD00206A
S3150800A910003E14F4704700BF2DE9F04F8BB0EFF3FB
S3150800A920148515F0020301930FD04448444B049054
S3150800A93040F25122022402A90020CDE905230294FF
S3150800A940FEF7DEFDFFF78CF9FEE7DFF80C81D8F895
S3150800A9500030002B58D1EFF31182102383F31288AD
S3150800A960384901230A60C8F80030BFF34F8FDFF873
S3150800A970ECA0DFF8EC90344F344ECAF8003009F1F9
S3150800A980040400F07FFED9F80000A0422AD3002272
S3150800A99008E0DBE902309847D9F80000A0424FF0FA
S3150800A9A00102EED3D9F804B03B68DBF8001035682D
S3150800A9B0C91AEB1A9942A0F1040C11D8019BC9F8DF
S3150800A9C000C00133A4450193E3D303682046196800
S3150800A9D000F020FED9F800305B6803605860D8E7BD
S3150800A9E0002ACED1019BFBB1FFF794FF0023CAF8DA
S3150800A9F00030C8F80030BFF34F8F124B1B6883F343
S3150800AA0011880BB0BDE8F08F0C49114B049140F248
S3150800AA105222022402A901980294CDE90523FEF7E1
S3150800AA206FFDFFF71DF9FEE70A4B0493012202A901
S3150800AA3005200292FEF764FDD6E700BFC41302089C
S3150800AA40F413020874FC002010FD002014FD0020F9
S3150800AA50041402081414020870FC00201CFD0020CF
S3150800AA6010FC002070B582B0EFF31483980719D54F
S3150800AA701C4D2C68B4B91C4B1B689BB1102383F37F
S3150800AA8011881A4A012314602B60BFF34F8F184EA2
S3150800AA903068C37B59070AD49A0713D564F3410370
S3150800AAA0C37306E06FF01804204602B070BD6FF05D
S3150800AAB0340400232B60BFF34F8F83F3118820469D
S3150800AAC002B070BD0423037300F058FC306801948B
S3150800AAD001AB0361074B32461968FDF74BFC019C35
S3150800AAE0E7E700BF70FC00207CFC002074FC002017
S3150800AAF084FC002088FC002070B52D4C2568002DAC
S3150800AB0053D1002822D033DD2A4B1B6883422FDB22
S3150800AB10294B013800EB800003EBC000EFF31183EB
S3150800AB20102282F31288254E336001232360BFF377
S3150800AB304F8F037B8BB96FF0280500232360BFF383
S3150800AB404F8F336883F31188284670BDEFF314835B
S3150800AB509A070DD51A4B1868E0E723F00203042B71
S3150800AB600DD0C37B9A0707D443F00203C373E4E707
S3150800AB706FF01105284670BD6FF02A05DDE700F075
S3150800AB809DFC0F4A0F4B106819688842D5D0EFF321
S3150800AB9014839B0702D5FDF7EDFBCEE74FF0E023C4
S3150800ABA04FF08052C3F8042DC7E76FF01805CBE7BE
S3150800ABB070FC0020C40D020898FB002074FC0020DD
S3150800ABC084FC002088FC0020EFF314839A0725D51F
S3150800ABD070B5224D2B6886B0002B39D1204A1268F1
S3150800ABE0002A35D01F4A9042044634D8102282F3F0
S3150800ABF011881D4901220B602A60BFF34F8F1B4E37
S3150800AC003068C37B5B070CD56FF0340000232B60DC
S3150800AC10BFF34F8F83F3118806B070BD6FF018002D
S3150800AC2070470823037300F0A9FB3368059301AA4C
S3150800AC301A6102A80E4B01902146049300F05CFDB0
S3150800AC400C4B306819683246FDF794FB0198DDE72E
S3150800AC506FF01800E0E76FF01000DDE770FC0020E9
S3150800AC607CFC002000286BEE74FC002084FC00208D
S3150800AC701DB5000888FC002008B5EFF314839B0770
S3150800AC8019D5194B1A68CAB1184B1A686AB9184AFD
S3150800AC90116809B90121116016490A68F2B9012239
S3150800ACA01A6000F00FFB144B1860144B186800F07C
S3150800ACB0D5FBFDF756FB6FF0180008BDEFF31180C2
S3150800ACC0102282F312880B49012208601A60BFF32A
S3150800ACD04F8F064B1A68002AE7D1D8E71209102ABF
S3150800ACE01CBF00220A60DAE770FC00207CFC00200A
S3150800ACF080FC002074FC002088FC002084FC0020D6
S3150800AD00084B186868B1084B084A03EB00105168ED
S3150800AD10D960C3E901321B601033834202F10C0289
S3150800AD20F5D17047C00D020808BB0020F80C0208D0
S3150800AD30F0B5314C256889B0002D5AD1002855DD6B
S3150800AD402E4B1B68834251DB431EEFF31182102101
S3150800AD5081F312882A4E326001222260BFF34F8F98
S3150800AD60284A190102EB0313885883421AD0076848
S3150800AD708F507B6000F0A2FB234A244B10681968A9
S3150800AD80884205D0EFF314839B0728D5FDF7F2FA1E
S3150800AD9000232360BFF34F8F336883F31188284657
S3150800ADA009B0F0BD5A6893420ED01949194B029161
S3150800ADB09A22022469462846CDE903230094FEF721
S3150800ADC09FFBFEF74DFFFEE7D3E9021289688A4228
S3150800ADD002D36FF02A05DBE70132DA60D8E74FF0D5
S3150800ADE0E0234FF08052C3F8042DD1E76FF0110528
S3150800ADF0D5E76FF01805D2E770FC0020C00D0208F1
S3150800AE0074FC002008BB002084FC002088FC00207D
S3150800AE104414020870140208EFF314839A0726D51F
S3150800AE2030B5234C226883B0002A3BD1214B1B68DE
S3150800AE30002B37D0002838DD1F4B1B68834234DBD4
S3150800AE40102383F311881D4901230A602360BFF389
S3150800AE504F8F1B4D2B68DB7B5B070CD41949431EB0
S3150800AE6001EB0310C3688BB1013BC36005E06FF0CB
S3150800AE701802104670476FF0340200232360BFF3B0
S3150800AE804F8F83F31188104603B030BD6A464021C0
S3150800AE9000F094FB0C4B286819682A46FDF76AFAF5
S3150800AEA0009AEAE76FF01802EDE76FF01102EAE799
S3150800AEB070FC00207CFC0020C00D020874FC0020F9
S3150800AEC084FC002008BB002088FC00202DE9F843FC
S3150800AED0154B1F682FB3154D154CDFF858900026F3
S3150800AEE04FF0010807E00136BE42636005F114051C
S3150800AEF004F1180415D02B68256013F00203C4E981
S3150800AF000494F0D020462B69C4F80480013640F832
S3150800AF10083F00F0E3FBBE4205F1140504F11804EE
S3150800AF20E9D1BDE8F88300BFBC0D0208E4090208B0
S3150800AF30ECAA002039AF000802688368D268134477
S3150800AF4070B5044640F8083F00F0C8FB0C4D0023D6
S3150800AF502B60BFF34F8F0B4E336883F3118823683A
S3150800AF60D3E9010290472B684BB9EFF311821023FE
S3150800AF7083F31288012332602B60BFF34F8F70BDB5
S3150800AF8070FC002074FC0020074B1A6852B9EFF3D6
S3150800AF901180102282F312880449012208601A607F
S3150800AFA0BFF34F8F0020704770FC002074FC002010
S3150800AFB0064B1A683AB100221A60BFF34F8F044B4A
S3150800AFC01B6883F311880020704700BF70FC0020BF
S3150800AFD074FC0020EFF314839B071BD50F4B1868EE
S3150800AFE0C0B910B4EFF31184102282F312880C4A08
S3150800AFF0012114601960BFF34F8F0A4C0A4920607B
S3150800B00008601860BFF34F8F136883F311885DF8E3
S3150800B010044B70476FF01800704700BF70FC0020A3
S3150800B02074FC002080FC00207CFC002070B5EFF347
S3150800B03014839B071DD51D4D2C68D4B9EFF31182D7
S3150800B040102383F312881A4E012332602B60BFF354
S3150800B0504F8F184A136033687BB11B09102B0CD02D
S3150800B06000232B60BFF34F8F336883F31188204684
S3150800B07070BD6FF01804204670BD0F4B01221A6090
S3150800B08000F020F90D4B0E4A186001461068C37B84
S3150800B09003F00C030C2B04D08842E1D0FDF76AF9C3
S3150800B0A0DEE700F0DBF9FDF75CF900BF70FC002075
S3150800B0B074FC002080FC00207CFC002088FC00201A
S3150800B0C084FC0020EFF314839B0702D5054B1B680D
S3150800B0D00BB101207047044B1868B0FA80F040099C
S3150800B0E0704700BF70FC00207CFC0020074B70B541
S3150800B0F01E6856B1064C0025D4E90112013554F8EC
S3150800B1000C0BFFF70FFAB542F6D170BDC80D020851
S3150800B110E80B0208A0F10F03662B50D82A490A68E3
S3150800B12030B41AB3294B440900F01F0C53F82440D5
S3150800B130012303FA0CF323423CD00F2833D0A0F1A5
S3150800B14010035D09224C03F01F03012000FA03F3E4
S3150800B15044F825301ABB1F4C00230B60BFF34F8FF2
S3150800B160236883F31188104630BC7047EFF31183C8
S3150800B170102484F31288174C236001230B60BFF355
S3150800B1804F8F124D4FEA501C55F82C5000F01F0CEB
S3150800B19003FA0CF32B42D0D16FF02802DCE7002229
S3150800B1A0104630BC70474FF0E020036923F00203D5
S3150800B1B00361CFE76FF02802104630BC70476FF086
S3150800B1C010021046704700BF70FC0020C409020830
S3150800B1D080E100E074FC0020A0F10F03662B53D831
S3150800B1E030B42B4C216831B32A4B420900F01F0CAE
S3150800B1F053F82220012303FA0CF313423FD00F28F9
S3150800B20036D0A0F1100253099B0003F1604303F501
S3150800B210614302F01F02012000FA02F21A6019BB0C
S3150800B2201D4A00232360BFF34F8F136883F31188E9
S3150800B230084630BC7047EFF31183102282F3128858
S3150800B240154A136001232360BFF34F8F114D4FEA50
S3150800B250501C55F82C5000F01F0C03FA0CF32B4227
S3150800B260CDD16FF02801DCE70021084630BC7047D5
S3150800B2704FF0E022136943F002031361CFE76FF042
S3150800B2802801084630BC70476FF010010846704721
S3150800B29070FC0020C409020874FC0020074B70B536
S3150800B2A01D6855B1064E05EB4505002456F82400E1
S3150800B2B00334FFF787F8AC42F8D170BDCC0D02080D
S3150800B2C010050208144B1888A8B1C3B283B100212F
S3150800B2D010F00F03114A08BFC0F303131A4408BF3E
S3150800B2E0043112F8013C0E480B4450F833007047FD
S3150800B2F0000A0821ECE710B588B00A490A4B029102
S3150800B300972202246946CDE903230094FEF7F8F84C
S3150800B310FEF7A6FCFEE700BF8CFC0020C814020856
S3150800B32090FC00208C140208B814020890F80EC08D
S3150800B3300E4B0F4A03EBCC0110B44C684460016015
S3150800B340206048600B4914880968012303FA0CF346
S3150800B3502343138031B1084A136813B19B7B6345B5
S3150800B36000D910605DF8044B704700BF90FC0020C0
S3150800B3708CFC00207CFC002088FC002030B5D0E93D
S3150800B3800014827B2D4B21604C6053F8321003EB7E
S3150800B390C204A14289B005D0294B1A68824225D039
S3150800B3A009B030BD636899420ED02648264B0290F4
S3150800B3B09A22022469460020CDE903230094FEF769
S3150800B3C09FF8FEF74DFCFEE7204C1D4D2388012112
S3150800B3D001FA02F223EA02022B6822808342DFD1B5
S3150800B3E01B4B1868B0B122BB2A60D9E7184A106807
S3150800B3F008B11960D4E71749174B02914FF48972BF
S3150800B40002246946CDE903230094FEF779F8FEF78E
S3150800B41027FCFEE70F49104B02914FF4867202246F
S3150800B4206946CDE903230094FEF76AF8FEF718FC8F
S3150800B430FEE7FFF747FF0246D6E700BF90FC00206D
S3150800B44088FC002044140208701402088CFC0020B2
S3150800B4507CFC00208C140208D814020810B5037B63
S3150800B460D90704461DD413F07C0F0CD163691BB1B0
S3150800B470114B20461B6898472046FFF7FFF9E37BE8
S3150800B480DA0711D410BD13F0600F03D0D0E90032EB
S3150800B49013605A60236918680028E7D000F050F94D
S3150800B4A0E4E7FFF76BFFE1E76FF30003E37320467A
S3150800B4B0BDE81040FFF7F0B930FD002010B503696C
S3150800B4C00446186888B010B100F03AF923690022DA
S3150800B4D01A60237B13F07C000DD09B0703D502234B
S3150800B4E0237308B010BD01232046237308B0BDE8B6
S3150800B4F01040FFF71BBF0749074B02917122022430
S3150800B5006946CDE903230094FDF7FAFFFEF7A8FB89
S3150800B510FEE700BFE01402080C15020830B5026900
S3150800B52000211160027B12F07C0189B02AD09207B3
S3150800B53023D5022202731B4A1B4B12681B689A42C8
S3150800B54005D04FF0E0234FF08052C3F8042D174B77
S3150800B55000221A60BFF34F8F154A116881F31188CC
S3150800B56000BFEFF31180102181F3128801211060CA
S3150800B5701960BFF34F8F09B030BD01220273FFF780
S3150800B580D5FED8E70B4B0C4C0294712202250846CF
S3150800B5906946CDE903230095FDF7B2FFFEF760FB88
S3150800B5A0FEE700BF84FC002088FC002070FC002019
S3150800B5B074FC00200C150208E014020870B5144E3D
S3150800B5C033680446197318461546FFF7D7FEA3686D
S3150800B5D031681B680D610022DB072A6006D46368A0
S3150800B5E0C1E90043196061606C6070BD2368887B9F
S3150800B5F09C4203D105E01B689C4202D09A7B82429A
S3150800B600F9D95A68C1E90032116059606C6070BD99
S3150800B61084FC002070B5194C031B22689B1004EBB0
S3150800B620C303934229D8164D2D68A1EB050E10E0E9
S3150800B6301A6812681946521B0B1B9B10964504EB99
S3150800B640C3031AD90A680260506022689A420846FB
S3150800B65013D3191D9142EBD8D3E9006212683668F4
S3150800B660521BA6EB050C624524BF194662460B1B06
S3150800B6709B10964504EBC303E4D870BD10FC00206C
S3150800B68010FD00200E490F4B70B40F4C18680B685C
S3150800B69022680E4D0860C31A991821602C680C4858
S3150800B6A00C4EA21A08449A42306002D2A14202D332
S3150800B6B0296070BC7047084A536801335360F7E73E
S3150800B6C018FD00206CFC002014FD002020FD002041
S3150800B6D0003E14F410FD002028FD0020054A1368DA
S3150800B6E010B50446181D2168106000F063F8046060
S3150800B6F0606010BD10FC002070B504460E46FFF7CA
S3150800B700C1FF0C4B0C4D1B68286803F57A73991911
S3150800B71004302160286000F04DF8084B1B6804606F
S3150800B720606013B90435A84200D070BDBDE870400A
S3150800B730FFF7F0B814FD002010FC00201CFD0020C7
S3150800B740F8B5194D46682A682C46131F44F8043B79
S3150800B750A34218D31368A64219680DD9701BC010E6
S3150800B760124B55F820701A683B68A1EB020C9B1A1D
S3150800B7709C4505EB80000CD33046FFF74BFF2B6842
S3150800B7805B68036058600A4B1B680BB9A64205D074
S3150800B790F8BD37607E6000F00DF8F0E7FFF772FF3E
S3150800B7A0BDE8F840FFF7B6B810FC002010FD0020F1
S3150800B7B01CFD002030B50E4CA042844616D90D4B10
S3150800B7C01D68A4F1040E491B03E0A44502605060FD
S3150800B7D00CD9ACEB0E03DB1060465EF823200EEBAB
S3150800B7E0830C13685B1B8B42EFD830BD604630BDB7
S3150800B7F014FC002010FD002008B502F067FA0028A6
S3150800B800FBD1BDE80840FDF77DBC08B502F048FA53
S3150800B81003F064FF012002F04DFA062004F048FA0E
S3150800B820002003F0E5FE082004F094FAB0B10620E3
S3150800B83004F066FA002003F0DBFE012002F03AFA73
S3150800B84003F062FF072004F033FAFFF7D5FF01F093
S3150800B85087FD0028F9D101F067FFF6E7FFF7CCFF6F
S3150800B860E1E700002DE9F04F6B4ADFF8B481DFF815
S3150800B870B49185B000230C6801279F4007EA0405A8
S3150800B88037EA040440F0B5804C6824F0100ABAF18F
S3150800B890020F16D14FEAD30E00EB8E0E03F0070BFC
S3150800B8A0DEF820604FEA8B0B4FF00F0C0CFA0BFCFE
S3150800B8B026EA0C0C0E6906FA0BF646EA0C06CEF8D2
S3150800B8C02060D0F800B04FEA430E4FF0030C0CFA94
S3150800B8D00EFC6FEA0C062BEA0C0B04F0030C0CFAB0
S3150800B8E00EFC0AF1FF3A4CEA0B0CBAF1010F01966D
S3150800B8F0C0F800C015D8D0F808C006EA0C0CCE6807
S3150800B90006FA0EFA4AEA0C0CC0F808C0D0F804C0C9
S3150800B9102CEA0707C4F3001C0CFA03FC4CEA0707D9
S3150800B9204760C768019E37408E6806FA0EF63E43A2
S3150800B930C660E6005DD54FF0000BCDF80CB0D8F820
S3150800B9404470364E47F48047C8F84470D8F84470B7
S3150800B95007F480470397039F23F0030707F18047FF
S3150800B96007F59C3703F0030ED7F808A04FEA8E0EAA
S3150800B9704FF00F0C0CFA0EFCB0422AEA0C0C3FD022
S3150800B98006F58066B0423DD006F58066B0423BD0EB
S3150800B99006F58066B04239D006F58066B04237D0E3
S3150800B9A0484537D006F50066B0420CBF062607267E
S3150800B9B006FA0EF646EA0C06BE601668EF4314F45D
S3150800B9C0803F0CBF3E402E431660566814F4003F75
S3150800B9D00CBF3E402E435660966814F4801F0CBF79
S3150800B9E03E402E439660D668A40254BF3E402E437E
S3150800B9F0D6600133102B7FF43EAF05B0BDE8F08F5B
S3150800BA005E46D5E70126D3E70226D1E70326CFE728
S3150800BA100426CDE70526CBE7003C0140000002409E
S3150800BA2000380240001402400369194214BF01207D
S3150800BA30002070470AB1816170470904FBE7436932
S3150800BA405940416170470000044A5169014208B5EE
S3150800BA5002D0506101F0C4FF08BD00BF003C0140A0
S3150800BA600368F7B50446D8073BD42368990700F15D
S3150800BA70898023681E0700F1CA8023685D072AD5D6
S3150800BA80002301938B4B8C4D1A6C42F080521A643A
S3150800BA901B6C03F080530193019B2B6843F480735E
S3150800BAA02B60FEF78FF906462B68DA0540F1D3803E
S3150800BAB0A368804D012B40F0D5802B6F43F001031E
S3150800BAC02B67FEF77FF97B4E054641F28837336FC1
S3150800BAD09B0740F1E880A269002A40F0F180002027
S3150800BAE015E0744B9A6802F00C02042A07D09A688B
S3150800BAF002F00C02082A0CD15A68520209D56D4B7D
S3150800BB001B689B03B1D56368002BAED1012003B037
S3150800BB10F0BD6268B2F5803F11D11A6842F48032EE
S3150800BB201A60FEF74FF9634E054633689F039CD4A7
S3150800BB30FEF748F9401B6428F7D90320E7E75D4D6F
S3150800BB40B2F5A02F2B6807D143F480232B602B680E
S3150800BB5043F480332B60E4E723F480332B602B68AF
S3150800BB6023F480232B60002ADBD1FEF72BF9064647
S3150800BB702B6898037FF579AFFEF724F9801B6428B4
S3150800BB80F6D9DAE74B4B9A6812F00C0F07D09A6889
S3150800BB9002F00C02082A17D15B68590214D4454BE7
S3150800BBA01A68920702D5E268012AAFD11968236993
S3150800BBB021F0F801F82292FAA2F2B2FA82F2934040
S3150800BBC03C4A0B43136054E7E2683C4B82B10122BE
S3150800BBD01A60FEF7F7F8374E054633689B0701D516
S3150800BBE03168E4E7FEF7EEF8401B0228F5D9A4E72A
S3150800BBF01A60FEF7E7F82F4E054633689F077FF56C
S3150800BC0038AFFEF7DFF8401B0228F6D995E76269D8
S3150800BC102A4B82B10122C3F8802EFEF7D3F8254EAF
S3150800BC200546736F98073FF528AFFEF7CBF8401B1C
S3150800BC300228F6D981E7C3F8802EFEF7C3F81D4E11
S3150800BC400546736F99077FF518AFFEF7BBF8401BDB
S3150800BC500228F6D971E7FEF7B5F8801B02287FF6A9
S3150800BC6023AF6AE7052B04D12B6F43F004032B6738
S3150800BC7023E72A6F22F001022A672A6F22F00402BC
S3150800BC802A67002B7FF41DAFFEF79CF841F2883730
S3150800BC9006462B6F98077FF51EAFFEF793F8801BB5
S3150800BCA0B842F6D949E7FEF78DF8401BB8427FF649
S3150800BCB00EAF42E7003802400070004000004742DD
S3150800BCC0304DAB6803F00C03082B3FF41FAF2E4B27
S3150800BCD0022A4FF000021A6646D1FEF773F80646A6
S3150800BCE02B6899013AD4D4E9072147F6C073114362
S3150800BCF0626A93FAA3F3B3FA83F39A40A36A5B08DA
S3150800BD000A43013B4FF4403191FAA1F1B1FA81F1AE
S3150800BD108B4013434FF07061E26A91FAA1F1B1FAD0
S3150800BD2081F18A401A434FF0E041236B91FAA1F161
S3150800BD30B1FA81F18B40134D13436B60124B01220C
S3150800BD401A66FEF73FF804462B689A013FF5C7AE18
S3150800BD50FEF738F8001B0228F6D9EEE6FEF732F8A9
S3150800BD60801B0228BCD9E8E6FEF72CF804462B68A7
S3150800BD709B017FF5B4AEFEF725F8001B0228F6D91D
S3150800BD80DBE600BF00380240000047421C4A9368C1
S3150800BD9003F00C03082B30D15168536813F4800F55
S3150800BDA001F03F0147F6C0731BD05068184093FA5C
S3150800BDB0A3F3B3FA83F3D840124B5843B0FBF1F020
S3150800BDC080000F4B5B684FF4403203F4403392FA1D
S3150800BDD0A2F2B2FA82F2D34001335B00B0FBF3F071
S3150800BDE070470948B0FBF1F15068184093FAA3F37D
S3150800BDF0B3FA83F3D8404843E3E70348704700BFE4
S3150800BE000038024000093D000024F400554B1A682A
S3150800BE1002F00F028A422DE9F04104460D462FD35F
S3150800BE202268960736D4D0073CD44E4B1A6802F0DF
S3150800BE300F02AA4200F286802268510700F18A8022
S3150800BE40130707D5484A2169936823F4604343EAF0
S3150800BE50C1039360FFF79AFF434B9B68F02203F0F8
S3150800BE60F00392FAA2F2B2FA82F2D3403F4AD35CC6
S3150800BE70D8403F4B18600F20FDF7A2FF002007E0CF
S3150800BE80CAB21A701B6803F00F038B42C8D0012090
S3150800BE90BDE8F0813449A0688B6823F0F0030343BA
S3150800BEA08B60C0E76268304B012A1DD11B6813F40A
S3150800BEB0003FECD02C4EB36823F003031343B36062
S3150800BEC0FDF780FF6368012B074641F2883815D1D4
S3150800BED0B36803F00C03042BA7D0FDF773FFC01B50
S3150800BEE04045F5D90320D3E7911E01291B6802D8DE
S3150800BEF013F0007FDDE713F0020FDAE7022B0AD111
S3150800BF00B36803F00C03082B8FD0FDF75BFFC01B4B
S3150800BF104045F5D9E6E7032B0FD1B36803F00C03C8
S3150800BF200C2B82D0FDF74EFFC01B4045F5D9D9E74B
S3150800BF30FDF748FFC01B4045D4D8B36813F00C0F73
S3150800BF40F6D172E7EAB21A701B6803F00F03AB4228
S3150800BF509DD171E70449E0688B6823F4E0530343F5
S3150800BF608B606DE7003C024000380240540E020820
S3150800BF7000000020014B1868704700BF0000002031
S3150800BF80084B1868084B9B684FF4E05203F4E053DB
S3150800BF9092FAA2F2B2FA82F2D340044AD35CD840AB
S3150800BFA0704700BF0000002000380240640E0208F7
S3150800BFB0084B1868084B9B684FF4604203F46043CB
S3150800BFC092FAA2F2B2FA82F2D340044AD35CD8407B
S3150800BFD0704700BF0000002000380240640E0208C7
S3150800BFE00168074B0B445B0100225A611A62054B34
S3150800BFF00B445B011A60202380F83A30704700BF73
S3150800C0000C0010C2140010C22DE9F8430368C16879
S3150800C0101A69044622F440520A431A612569A2683D
S3150800C020D968C0692A43656921F416412A4321F073
S3150800C0300C0102430A43DA605A69A16922F4407284
S3150800C0400A43B0F5004F5A618B4A40F08D809342FF
S3150800C0500BD002F58062934207D002F580629342C4
S3150800C06003D002F58062934249D1FFF7A1FF6368C6
S3150800C0704FF019094FF0640809FB00F05B00B0FBAC
S3150800C080F3F3B3FBF8F31F01FFF792FF656809FBAB
S3150800C09000F06D00B0FBF5F5FFF78AFF666809FB4F
S3150800C0A000F07600B0FBF6F6FFF782FFB6FBF8F66F
S3150800C0B008FB16566368F6003236B6FBF8F67600C5
S3150800C0C009FB00F05B0006F4F876B0FBF3F5FFF722
S3150800C0D06FFF6368226809FB00F05B00B0FBF3F3AF
S3150800C0E0B3FBF8F308FB1353DB003233B3FBF8F367
S3150800C0F003F007033B4433449360BDE8F883FFF736
S3150800C1003FFF63684FF019094FF0640809FB00F018
S3150800C1105B00B0FBF3F3B3FBF8F31F01FFF730FF47
S3150800C120656809FB00F06D00B0FBF5F5FFF728FF21
S3150800C130666809FB00F07600B0FBF6F6FFF720FF0D
S3150800C140B6FBF8F608FB16566368F6003236B6FBF9
S3150800C150F8F6760009FB00F05B0006F4F876B0FB0B
S3150800C160F3F5FFF70DFFB4E793420AD0434A93422B
S3150800C17007D002F58062934203D002F580629342AB
S3150800C18046D1FFF715FF63684FF019094FF06408A9
S3150800C19009FB00F09B00B0FBF3F3B3FBF8F31F01B8
S3150800C1A0FFF706FF656809FB00F0AD00B0FBF5F583
S3150800C1B0FFF7FEFE636809FB00F09B00B0FBF3F394
S3150800C1C0B3FBF8F308FB13531B013233B3FBF8F345
S3150800C1D003F0F006FFF7ECFE636809FB00F09B002E
S3150800C1E0B0FBF3F5FFF7E4FE6368226809FB00F08D
S3150800C1F09B00B0FBF3F3B3FBF8F308FB13531B01E7
S3150800C2003233B3FBF8F303F00F0333433B4473E7CE
S3150800C210FFF7B6FE63684FF019094FF0640809FB8B
S3150800C22000F09B00B0FBF3F3B3FBF8F31F01FFF735
S3150800C230A7FE656809FB00F0AD00B0FBF5F5FFF752
S3150800C2409FFE636809FB00F09B00B0FBF3F3B3FBAA
S3150800C250F8F308FB13531B013233B3FBF8F303F06F
S3150800C260F006FFF78DFE636809FB00F09B00B0FB44
S3150800C270F3F5FFF785FEB7E700100140001401400B
S3150800C28010B5044640B390F8393003F0FF021BB9E5
S3150800C29080F8382001F0D6F92268242384F839304A
S3150800C2A0D36823F40053D3602046FFF7ADFE236816
S3150800C2B01A6922F490421A615A6922F02A025A61CE
S3150800C2C0DA6842F40052DA6000202023E06384F83A
S3150800C2D0393084F83A3010BD0120FCE770B50446C1
S3150800C2E0134694F83920202A2DD151B34BB394F82C
S3150800C2F03820012A27D0206BE38400252122E56314
S3150800C300012684F83920114AA38484F8386021620A
S3150800C310C2630F4A02640F4AC0E913252268043231
S3150800C3200DF056F923686FF0400243F8142B03F119
S3150800C330424303F580135B0184F838502846DE61D2
S3150800C34070BD0120FCE70220FAE700BFF5C300082C
S3150800C3502FC40008F9C4000837B590F83A30202BE6
S3150800C36004463BD1002937D0002A35D090F838301A
S3150800C370012B33D0012380F838300023C363816250
S3150800C3808285222084F83A00606B154DC563154DE9
S3150800C3900564154DC0E91353256813460A46291D39
S3150800C3A00DF016F92268536913F4807305D10193C9
S3150800C3B01368019353680193019B0C4B13445B016B
S3150800C3C00121002084F838001960094B13445B01E9
S3150800C3D01960996103B030BD0120FBE70220F9E737
S3150800C3E039C40008EBC40008F9C400080D0010C2DF
S3150800C3F0140010C20268126812F4807208B5836BC2
S3150800C4000BD1DA841968074B0B445B01DA61064BDA
S3150800C4100B445B0101229A6108BD18460FF016F914
S3150800C420FAE700BF140010C20C0010C2704708B526
S3150800C430806BFFF7FBFF08BD08B50346806B1B68DA
S3150800C4401B6813F480730DD10168084AC3850A4432
S3150800C45052011360064A0A4452011360936120236D
S3150800C46080F83A300FF0FAF808BD00BF0D0010C288
S3150800C470140010C290F83A30222B10B521D18168E9
S3150800C48004690268836AB1F5805F1FD15268CCB926
S3150800C490C2F3080223F8022B8362C38D013B9BB2C9
S3150800C4A0C38573B901680E4A0A445201536113627F
S3150800C4B00C4A0A4452011360202380F83A300FF0E0
S3150800C4C0CDF810BDD2B223F8012BE5E7591C526806
S3150800C4D081620CB91A70E0E702F07F02FAE700BF42
S3150800C4E00C0010C2140010C2704708B5806BFFF725
S3150800C4F0FBFF08BD7047000008B5806B02685369EA
S3150800C50090F8391021290BD1190609D50D4B13447A
S3150800C5105B010021C184D9619961202380F83930F3
S3150800C520536990F83A20222A05D15B0603D50023E1
S3150800C530C385FFF755FDC36B43F01003C363FFF7CD
S3150800C540D9FF08BD0C0010C202681368D16870B51F
S3150800C5501E075569044607D19E065AD58D0658D535
S3150800C560BDE87040FFF786BF05F0010001F490753D
S3150800C57005434ED0DE0705D5CD0542BFE26B42F036
S3150800C5800102E2635A0704D518B1E26B42F00202CF
S3150800C590E2639E0704D518B1E26B42F00402E26337
S3150800C5A01D0704D518B1E26B42F00802E263E26B9C
S3150800C5B052B3980604D58A0602D52046FFF75AFFD5
S3150800C5C023685B69E56B03F0400305F008051D4326
S3150800C5D020461AD0FFF704FD226853695B0610D57A
S3150800C5E0284B606B13445B0100229A6148B1264BC5
S3150800C5F003650DF06FF838B1606BBDE87040036DE8
S3150800C60018472046FFF776FF70BDFFF773FFE5630F
S3150800C610FAE71E0626D50D0624D594F83930212BBF
S3150800C620F2D1A168236AB1F5805F16D11988C1F3E2
S3150800C63008015160216971B902332362E38C013B19
S3150800C6409BB2E384002BDFD1104911444901CB6129
S3150800C65001238B61D8E70133EFE7591C21621B7868
S3150800C6605360EBE75806CFD54B06CDD5074B134499
S3150800C6705B0100229A61202384F8393020460EF0A7
S3150800C680E5FFC1E7140010C291C600080C0010C2ED
S3150800C69008B5806B0023C385C384FFF72BFF08BD4D
S3150800C6A038B5836804460D469BB10A4804600220E3
S3150800C6B0A07304F10C0098470238012801D9832D8C
S3150800C6C005D121462046BDE8384000F00BB80123C5
S3150800C6D0A37338BDB8FE0020837BDB0701D5FFF7BF
S3150800C6E0DFBF70472DE9F8431C4F3D68044688466E
S3150800C6F02B46A34204D00BB9BDE8F8831B68F8E7BC
S3150800C700002CF9D0164EA37BD6F8009063B100230F
S3150800C710A3738DB9A3683BB1444505D034602A4656
S3150800C720832104F10C0098473B68A3420ED1236885
S3150800C7303B60C6F80090DFE7A54204D02246872171
S3150800C7402846FFF7C9FF2D68E3E71346002BF0D00C
S3150800C7501A68A242F9D122681A60EAE7BCFE0020EC
S3150800C760B8FE002038B5094B00221A70084B1C6821
S3150800C770012504B938BDE37B2BB1E581002282216E
S3150800C7802046FFF78DFF2468F3E700BFB7FE0020B9
S3150800C790BCFE0020014B1968FFF7A4BFB8FE0020B5
S3150800C7A0064B8A221A70064A00231370054A13702C
S3150800C7B0054A1360054A1360704700BFB5FE00209E
S3150800C7C0B4FE0020B6FE0020BCFE0020B8FE002005
S3150800C7D0F7B51C4E33780BB1FFF7C4FF1A4D2C780A
S3150800C7E094B11A4F1A493B780C225A438818895C27
S3150800C7F0D0E90120013303F01F03013C3B702C7084
S3150800C800C0B9144B1C6824B933782878184403B087
S3150800C810F0BD33782BB1CDE90012FFF7A3FFDDE9B0
S3150800C82000122046CDE90012FFF756FFDDE9001297
S3150800C8302468E8E7812904BF01238373FFF74CFFC7
S3150800C840E2E700BFB7FE0020B6FE0020B4FE0020D7
S3150800C85034FD0020BCFE0020F0B50B4D2C78202CB2
S3150800C8600FD00A4B0A4F1B7823440C2603F01F03EC
S3150800C8707343FE180134F954C6E901202C700020D0
S3150800C880F0BD0120FCE700BFB6FE0020B4FE002084
S3150800C89034FD002038B5034C2568FFF71DFF2560D9
S3150800C8A038BD00BFB8FE0020084B19680A46824208
S3150800C8B00BD042B948B101601860012383738281A5
S3150800C8C08121FFF7E7BF1268F1E77047BCFE002039
S3150800C8D048B1837B013B012B05D80123024AC37368
S3150800C8E01370FCF711BC7047B7FE0020034B1B689A
S3150800C8F00BB1012018470E20704700BF34FF0020F7
S3150800C9004FF6FF73002908BF1846014B1880704779
S3150800C9100A00002010B5054B027A416804461888BB
S3150800C92007F08AF92368BDE8104018472C00002054
S3150800C93010B5054B027A41680446188800F050FB8A
S3150800C9402368BDE8104018470A000020014604295C
S3150800C950104610B51A4602D0072913D010BD037821
S3150800C960F22BFBD18378112B06D0122BF6D10A4B6A
S3150800C9704FF6FF721A80F1E7032104F071F9064BAE
S3150800C9801880EBE7054B1B68002BE7D00146BDE88E
S3150800C99010400220184700BF2C00002034FF00205A
S3150800C9A0032938B51C460BD10648FBF7A9FF0246F2
S3150800C9B085B21CB103492046FBF7FEFE284638BD62
S3150800C9C00025FBE7F003002070B51378A03B14465A
S3150800C9D0072B23D8DFE803F012040B222222224970
S3150800C9E020462E4ABDE8704004210AF030B8204699
S3150800C9F02B4ABDE8704004210AF045B8294CA37BB0
S3150800CA00052B13D1284BA189284804F1100209F0F7
S3150800CA10E4FF84F8400010B90623A37370BDA0890B
S3150800CA2006F0D6F940F20943E381F7E7062B18D159
S3150800CA3004F12602A1891D48012309F0D7FFA2891E
S3150800CA4084F8400038B904F126031849204609F04D
S3150800CA5063FF0723E1E7104606F0BAF940F20953E7
S3150800CA60E2E7072BDAD10823D7E70221204604F0AC
S3150800CA70F7F80C4B9B898342D0D10D4D2B68002BC0
S3150800CA80CCD00621204604F0EBF82B68024604F1C8
S3150800CA9008010320BDE87040184700BFD8FE0020F3
S3150800CAA0EEFE0020C8FE00200A1B0208C9C90008BD
S3150800CAB030FF00200428F7B50146144640F0C4802C
S3150800CAC013783E2B13D0E22B59D0052B1DD11046D7
S3150800CAD0032104F0C5F85D4A138883423FD14FF617
S3150800CAE0FF7313805A4A13805A4A13800DE09378CD
S3150800CAF0012B0AD19379012B17D1104604F0B0F80F
S3150800CB00524B1880002006F03FF9534D53482C60CD
S3150800CB1001F0FEFA00232B60514B1B68002B00F036
S3150800CB20938003B0BDE8F04018474E4DAB7B032B0E
S3150800CB30EBD1104604F094F84B4AA88101464B48BD
S3150800CB4009F0FCFE85F8400010B90523AB73DCE755
S3150800CB50A88906F03DF940F20933EB81D5E7414D46
S3150800CB600321204604F07CF8AB898342CDD12846C0
S3150800CB7009F0DEFE4FF6FF73AB810023E6E7394D79
S3150800CB809678D77A69460622201D04F0B8F8AB7B5A
S3150800CB90012B25D1002EB8D11F2FB6D1324904F169
S3150800CBA0110002F043FB0028AFD094F8262095F830
S3150800CBB048309A42A9D105F142060622314668460E
S3150800CBC013F0E2FB0028A0D0BDF804300098C5F8A1
S3150800CBD04200A5F84630E37885F841300223B5E7E8
S3150800CBE0022B92D1042E90D105F14201684604F039
S3150800CBF02FF8002889D1637B092B17D195F849307E
S3150800CC0004F10E0643B11422314605F1490013F02A
S3150800CC103FFC08B1012399E7154B314604F122027E
S3150800CC2051F8040B43F8040B9142F9D106F016F8B3
S3150800CC3095F841100F4806F01BF885F8400008B92A
S3150800CC40032383E7042381E703B0F0BD080000202F
S3150800CC500A0000202C000020C4FE002044FF00200B
S3150800CC60C0FE0020C8FE00201A1B0208C9C9000819
S3150800CC7011FF00200AFF0020294B10B54FF6FF725E
S3150800CC80284C9A8103F074FF0EF0CEFB03F0DAFF0E
S3150800CC902368984706F05EFB234904F0A7FC6368FF
S3150800CCA0984704F003FDA368984704F00BFD1F4856
S3150800CCB01F4B436004F08CFC06F06AFD09F00AFF7E
S3150800CCC00BF0F4FE03200BF0D3FEE0680BF0D6FE63
S3150800CCD020690BF0DFFE02200BF0BCFF09F0F6FD21
S3150800CCE014491548002208F071FC06F08FFE134817
S3150800CCF006F0DEFE124806F0DFFE124B8122B3F87C
S3150800CD00803040F29731012006F0DAFE0E480F49CE
S3150800CD1000F010F9BDE810400D4806F03BBF00BF13
S3150800CD20C8FE0020241702084C15020828FF002018
S3150800CD30B5CA0008A1C90008641502082815020822
S3150800CD402E150208007D0008EDC8000801C9000874
S3150800CD504DC9000805F040BF08B506F061F800386F
S3150800CD6018BF012008BD000030B587B00722002390
S3150800CD700192302104AA0293009208461A460493A7
S3150800CD80ADF814300CF0F8F81049114D182005F0DC
S3150800CD90B5FF1049104B0846B3F880306B72FBF7A5
S3150800CDA0AFFDC4B20246631C0A49EB7205F10D00D9
S3150800CDB0FBF702FD04F10D002946C0B205F0AEFFEF
S3150800CDC0012007B0BDE8304005F0DEBF3415020883
S3150800CDD00C000020F0030020007D0008002005F06C
S3150800CDE0D3BF000038B90B4B18884FF6FF73C01A2B
S3150800CDF018BF01207047012801D1074BF4E7022824
S3150800CE0001D1064BF0E7032802D1054B9889ECE7D8
S3150800CE1000207047080000200A0000202C0000208F
S3150800CE20C8FE0020014B1860704700BFC0FE0020F6
S3150800CE3003460A4883605B7A012B05D1084B436099
S3150800CE40084B198800F0CAB8022B05D1064B436077
S3150800CE50064B198806F0EEBE704700BF38FF002063
S3150800CE6031C900080A00002015C900082C00002056
S3150800CE70014B1860704700BF34FF002038B5104DCD
S3150800CE80049B2D888D42044607D1BAB90D4A194626
S3150800CE901468BDF81420A04738BD0B4A12888A4288
S3150800CEA00AD10021184603F0DBFE084B1880084B10
S3150800CEB001461B68204698470020EDE70B20EBE764
S3150800CEC054FF00204CFF002050FF002052FF002096
S3150800CED048FF002010B51C46134B1B888B4208D10F
S3150800CEE02CB1124B00211A88204603F0CCFE0220F2
S3150800CEF010BD0F4B1B888B4213D184B1BDF8083087
S3150800CF00092B0CD908F0CFFB4FF40071033800F059
S3150800CF10ABFD002381B20322204600F010FF0A2051
S3150800CF20E6E70020E4E700BF50FF002052FF00209C
S3150800CF3056FF002007B51E4B18601E4B1E48196089
S3150800CF400023ADF804300DF106024FF6FF7301A970
S3150800CF50ADF8063007F060FDBDF80610174ABDF8B3
S3150800CF60040007F097FD164BBDF806101880134A03
S3150800CF70BDF8040007F0B6FD124B134ABDF80610BB
S3150800CF801880BDF8040007F085FD104B188010487E
S3150800CF90BDF804308380BDF80630C3800D4B83602E
S3150800CFA00D4BC36008F0FEFA03B05DF804FB00BF42
S3150800CFB04CFF002048FF0020521B0208321B0208C3
S3150800CFC054FF002050FF0020421B020856FF002095
S3150800CFD058FF0020D5CE00087DCE000808F024BBF7
S3150800CFE013460A460149098808F036BB54FF002053
S3150800CFF0704713B50446002020800DF1070100F0A4
S3150800D0007DF818BB9DF80730980742BF238843F080
S3150800D010200323800DF10701012000F06FF8A8B95D
S3150800D0209DF80730D90742BF228842F010022280B5
S3150800D0309A0742BF228842F04002228013F0040376
S3150800D0401DBF238843F400732380184602B010BD21
S3150800D05070470000014B1868704700BF6CFF00203E
S3150800D060024B1B680A205843704700BF6CFF00201C
S3150800D070054A10B514684FF47A7113681B1B4B43A5
S3150800D0808342FAD310BD00BF6CFF0020024A136822
S3150800D090013313600DF0ECBD6CFF0020084A094906
S3150800D0A0536F13F0805F06D001230B70536F43F064
S3150800D0B080735367704713F0005318BF0223F4E7D1
S3150800D0C00038024070FF002008B560B9BFF34F8FE3
S3150800D0D00849094BCA6802F4E0621343CB60BFF300
S3150800D0E04F8F00BFFDE772B600F01EFB00F048FA4E
S3150800D0F0FAE700BF00ED00E00400FA050128F7B5DD
S3150800D1000C4635D81C4F12264643BD190DF10601AB
S3150800D110287C0DF059FF28B9BDF80630BA5B9A424B
S3150800D12002D2207003B0F0BD6A889A4202D2042364
S3150800D1302370F7E7AA889A4201D20223F8E7EA8819
S3150800D1409A4201D20623F3E72A899A4201D2012399
S3150800D150EEE76A899A4201D20523E9E7AA899A4243
S3150800D16001D20323E4E7EA899A4203D20723DFE7D9
S3150800D1700520D7E70320D5E7AC19020882292DE94F
S3150800D180F041064617D1574C2578A5B9564F574949
S3150800D190387880F0010002F059F808B1544B1D7038
S3150800D1A0257845B93878534902F050F818B1524BEA
S3150800D1B01D800123237033882BB1B22B40F08E805B
S3150800D1C0484F3B7823B9B22333800120BDE8F0816C
S3150800D1D0494D4A482B880468412B31D006D8D3B12B
S3150800D1E03C2B23D000232B80032340E0492B56D029
S3150800D1F0562BF7D142480DF0DBFD28B3A36B13F08D
S3150800D200040F3B4B14BF042203221A70A36B23F4AA
S3150800D2108013A36353E00CF023FCA36B384843F454
S3150800D2208023A3634FF47A710DF09CFDA36B13F072
S3150800D23001080BD0324864210DF094FD41232B8060
S3150800D2402F480DF0B5FDE0B9002310E02C480DF08D
S3150800D250AFFD90B1A36B294823F48023A3630CF098
S3150800D26009FC234BA5F8008001221A700223012B22
S3150800D2708CBF002301233B70A5E73C232B800123A9
S3150800D280F5E7A36B1E4823F48023A363A36B43F43B
S3150800D2900023A36364210DF065FD49232B801848FC
S3150800D2A00DF086FD0028CFD0A36B13F0020FA36BF9
S3150800D2B023F40023A36306D10D4B02221A700F48EC
S3150800D2C00CF0D8FB8EE7A36B0D4843F48013A363D9
S3150800D2D064210DF047FD56232B808BE7002333800E
S3150800D2E0032073E771FF00205C0601204806012031
S3150800D2F04906012072FF002074FF002078FF0020F5
S3150800D3004C06012001480CF02FBC00BF78FF002016
S3150800D310024B18700248FFF7DBBA00BF5C06012013
S3150800D3203000002008B50A480A4B0B49C0F8C43239
S3150800D3300022C3F8FC0302F0FDFE0848FFF7B4FA22
S3150800D3400648FFF7C5FABDE8084000F001B900BF76
S3150800D3507803012078FF002000020020300000201A
S3150800D360014B1878704700BF49060120014B002081
S3150800D370187070478407012021280ED022281CD057
S3150800D380202808D1104B0A681A600A791A714A7956
S3150800D3905A718A799A71002070470B4A13680B7084
S3150800D3A0180A4870180C1B0ECB7013790B71537939
S3150800D3B04B71937988708B71EDE74B88034A03F0BC
S3150800D3C001031370E7E700BF40000020840701202F
S3150800D3D0014B0020187070470508012070B50646F5
S3150800D3E00D4600242B68A34203D8044B002018706E
S3150800D3F070BD305DFCF762FB0134F3E7C507012019
S3150800D40010B50E490E4C0F4880220DF0DEFB0E4972
S3150800D4100E4880220DF0D9FB00220D49204602F065
S3150800D4204CFE0C49204602F050FE0B4B00201870AB
S3150800D4300A4B18700A4B187010BD00BF6806012009
S3150800D4407803012060060120F0060120E806012085
S3150800D450C607012085070120C50701200508012008
S3150800D4608407012003882DE9F0410546ABB140F257
S3150800D4702112934257D1822924D12D4F2D480DF0E0
S3150800D48085FC3B7833B32C4C2378ABB92B4802F098
S3150800D4903AFE88B9012323700EE02949274802F08D
S3150800D4A061FE2849254802F001FE244802F06DFE77
S3150800D4B0204805210DF056FC40F221132B8001204F
S3150800D4C0BDE8F0818829FAD11A480DF071FC0028C8
S3150800D4D0F5D0D2E71C4C26687EB12268002AD2D045
S3150800D4E01A49164802F0E9FD144802F0F4FD00282E
S3150800D4F0C9D101233B702060C5E7FCF7D3FA3F2862
S3150800D500206004D93F232360DFF8408007E0002825
