S00B00006173702E73726563D5
S3150800800038BB0020D98100082D8200082D8200087F
S315080080102D8200082D8200082D8200082D82000876
S315080080200000000000000000000000001D8300089A
S315080080302D820008000000006B820008A9A800082D
S31508008040A9A80008A9A80008A9A80008A9A80008BE
S31508008050A9A80008A9A80008A9A80008A9A80008AE
S31508008060A9A80008A9A80008A9A80008A9A800089E
S31508008070A9A80008A9A80008A9A80008A9A800088E
S31508008080A9A80008A9A80008A9A80008A9A800087E
S31508008090A9A80008A9A80008A9A80008A9A800086E
S315080080A0A9A80008A9A80008A9A80008A9A800085E
S315080080B0A9A80008A9A80008A9A80008A9A800084E
S315080080C0A9A80008A9A80008A9A80008A9A800083E
S315080080D0A9A80008A9A80008A9A80008A9A800082E
S315080080E0A9A80008A9A80008A9A80008A9A800081E
S315080080F0A9A80008A9A80008A9A80008A9A800080E
S31508008100A9A80008A9A80008A9A80008A9A80008FD
S31508008110A9A80008A9A80008A9A80008A9A80008ED
S31508008120A9A80008A9A80008A9A80008A9A80008DD
S31508008130A9A80008A9A80008A9A80008A9A80008CD
S31508008140A9A80008A9A80008A9A80008A9A80008BD
S31508008150A9A80008A9A80008A9A80008A9A80008AD
S31508008160A9A80008A9A80008A9A80008A9A800089D
S31508008170A9A80008A9A80008A9A80008A9A800088D
S31508008180A9A80008A9A80008A9A80008A9A800087D
S31508008190A9A80008A9A80008A9A80008A9A800086D
S315080081A0A9A80008A9A80008A9A80008A9A800085D
S315080081B0A9A80008A9A80008A9A80008A9A800084D
S315080081C0A9A80008A9A80008A9A80008A9A800083D
S315080081D0A9A80008A9A8000871B601F0E3FD0020C7
S315080081E00D490E4A914203D2086004319142FBD3ED
S315080081F00B490C4A914206D20B4B086818600431A9
S3150800820004339142F9D300F005F802F0F1FBFEE7DA
S31508008210704700BF7047000000100020307A012028
S31508008220C4540208CC58020800000020EFF311815C
S31508008230EFF3108251EA02211EF0040F05D0EFF386
S31508008240098020E9024002B501E002B56846744A91
S3150800825013680CB4EFF30583724951F8232090474D
S315080082600FBC016082F311881847102080F311882B
S315080082706D49086858B1EFF309821EF0100F01D155
S3150800828022ED108A22E9F00F8261C0F81CE06748E7
S3150800829000680860A0B1C16911F07F42B2F17F4F52
S315080082A01AD18269B2E8F00F11F0100F01D1B2ECC1
S315080082B0108A82F30988002071B680F3118808476E
S315080082C0EFF309805A495FF0807220E906001838F2
S315080082D080F30988DFF840F0426A4AB1554A5FF0F0
S315080082E080738069B0E8F00F20E90E00143807E0C3
S315080082F08069B0E8F00F5FF0807220E90600183850
S3150800830080F30988464801210160BFF34F8FDFF8E3
S3150800831008F0BDEC108A7047FDFFFFFF40480021BA
S315080083200160002080F31188A0692900B0E8F00FE9
S3150800833011F0100F01D1B0EC108A80F309880847B4
S315080083403D48016881F30888022080F31488BFF34A
S315080083506F8F3A49D1F814D034490968324A61B660
S315080083601BE0022383F31488BFF36F8F2F49096834
S315080083702D4A12E0EFF3148313F0040306D02DED13
S31508008380108A022383F31488BFF36F8F43622DE9A3
S31508008390F00FC0F81CE0C0F818D0116089B1CA699E
S315080083A012F07F40B0F17F4F02D10C00150000DFBC
S315080083B0D1F818D0BDE8F00F4B6A0BB1BDEC108AA6
S315080083C01047174800210160BFF34F8F002080F344
S315080083D01188BFF34F8F30BFFBE700BF104800215D
S315080083E00160BFF34F8F002080F311880E480168A3
S315080083F08A685068DFF848E0D2F808F0002181F36F
S315080084001488BFF36F8F02F01FBB00BFA0F15300A3
S31508008410002800DC7047A0F131000028FBDC70471B
S315080084207C1D012094180208901D0120941D01202E
S31508008430C283000812830008901B0208101C020859
S31508008440F5AF00087BB972B90029BEBF00204FF00E
S31508008450004106E008BF00281CBF6FF000414FF03E
S31508008460FF3000F0A7B9ADF1080C6DE904CE00297C
S3150800847009DB002B1ADB00F035F8DDF804E0DDE94E
S31508008480022304B07047404261EB4101002B1BDB1D
S3150800849000F028F8DDF804E0DDE9022304B04042E4
S315080084A061EB4101524263EB43037047524263EB6F
S315080084B0430300F017F8DDF804E0DDE9022304B011
S315080084C0404261EB41017047524263EB430300F0BF
S315080084D009F8DDF804E0DDE9022304B0524263EB53
S315080084E0430370472DE9F047089D04468E46002B46
S315080084F04DD18A42944669D9B2FA82F252B101FA4A
S3150800850002F3C2F1200120FA01F10CFA02FC41EA59
S31508008510030E94404FEA1C48210CBEFBF8F61FFADE
S315080085208CF708FB16E341EA034306FB07F1994279
S315080085300AD91CEB030306F1FF3080F01F8199422C
S3150800854040F21C81023E63445B1AA4B2B3FBF8F006
S3150800855008FB103344EA034400FB07F7A7420AD98D
S315080085601CEB040400F1FF3380F00A81A74240F2B5
S3150800857007816444023840EA0640E41B00261DB120
S31508008580D4400023C5E900433146BDE8F0878B4255
S3150800859009D9002D00F0EF800026C5E90001304614
S315080085A03146BDE8F087B3FA83F6002E4AD18B42EE
S315080085B002D3824200F2F980841A61EB0303012098
S315080085C09E46002DE0D0C5E9004EDDE702B9FFDE84
S315080085D0B2FA82F2002A40F09280A1EB0C014FEA2F
S315080085E01C471FFA8CFE0126200CB1FBF7F307FB8C
S315080085F0131140EA01410EFB03F0884208D91CEB2F
S31508008600010103F1FF3802D2884200F2CB804346CB
S31508008610091AA4B2B1FBF7F007FB101144EA0144AA
S315080086200EFB00FEA64508D91CEB040400F1FF3139
S3150800863002D2A64500F2BB800846A4EB0E0440EA27
S3150800864003409CE7C6F12007B34022FA07FC4CEA30
S31508008650030C20FA07F401FA06F31C43F9404FEA23
S315080086601C4900FA06F3B1FBF9F8200C1FFA8CFE38
S3150800867009FB181140EA014108FB0EF0884202FA8C
S3150800868006F20BD91CEB010108F1FF3A80F088804D
S31508008690884240F28580A8F102086144091AA4B20A
S315080086A0B1FBF9F009FB101144EA014100FB0EFE8B
S315080086B08E4508D91CEB010100F1FF346CD28E45BA
S315080086C06AD90238614440EA0840A0FB0294A1EB4B
S315080086D00E01A142C846A64656D353D05DB1B3EBA8
S315080086E0080261EB0E0101FA07F722FA06F3F140D8
S315080086F01F43C5E9007100263146BDE8F087C2F17F
S315080087002003D8400CFA02FC21FA03F391400143F6
S315080087104FEA1C471FFA8CFEB3FBF7F007FB10362F
S315080087200B0C43EA064300FB0EF69E4204FA02F4DB
S3150800873008D91CEB030300F1FF382FD29E422DD92E
S31508008740023863449B1B89B2B3FBF7F607FB163363
S3150800875041EA034106FB0EF38B4208D91CEB0101E3
S3150800876006F1FF3816D28B4214D9023E6144C91A63
S3150800877046EA004638E72E46284605E70646E3E673
S315080087801846F8E64B45A9D2B9EB020864EB0C0E7D
S315080087900138A3E74646EAE7204694E74046D1E78C
S315080087A0D0467BE7023B614432E7304609E764443A
S315080087B0023842E7704700BF844641EA000313F0D7
S315080087C003036DD1403A41D351F8043B40F8043BCA
S315080087D051F8043B40F8043B51F8043B40F8043B8D
S315080087E051F8043B40F8043B51F8043B40F8043B7D
S315080087F051F8043B40F8043B51F8043B40F8043B6D
S3150800880051F8043B40F8043B51F8043B40F8043B5C
S3150800881051F8043B40F8043B51F8043B40F8043B4C
S3150800882051F8043B40F8043B51F8043B40F8043B3C
S3150800883051F8043B40F8043B51F8043B40F8043B2C
S3150800884051F8043B40F8043B403ABDD2303211D3CC
S3150800885051F8043B40F8043B51F8043B40F8043B0C
S3150800886051F8043B40F8043B51F8043B40F8043BFC
S31508008870103AEDD20C3205D351F8043B40F8043BCC
S31508008880043AF9D2043208D0D2071CBF11F8013BCA
S3150800889000F8013B01D30B8803806046704700BF90
S315080088A0082A13D38B078DD010F003038AD0C3F19F
S315080088B00403D21ADB071CBF11F8013B00F8013B81
S315080088C080D331F8023B20F8023B7BE7043AD9D340
S315080088D0013A11F8013B00F8013BF9D20B78037015
S315080088E04B7843708B7883706046704700000000B1
S315080088F0000000000000000000000000000000006A
S3150800890090F800F06DE9024520F007016FF0000CC1
S3150800891010F0070491F820F040F049804FF0000469
S315080089206FF00700D1E9002391F840F000F1080044
S3150800893082FA4CF2A4FA8CF283FA4CF3A2FA8CF37C
S315080089404BBBD1E9022382FA4CF200F10800A4FAE3
S315080089508CF283FA4CF3A2FA8CF3E3B9D1E9042337
S3150800896082FA4CF200F10800A4FA8CF283FA4CF36E
S31508008970A2FA8CF37BB9D1E9062301F1200182FA28
S315080089804CF200F10800A4FA8CF283FA4CF3A2FA2E
S315080089908CF3002BC6D0002A04BF04301A4612BA3C
S315080089A0B2FA82F2FDE8024500EBD2007047D1E93F
S315080089B0002304F00305C4F100004FEAC50514F0CE
S315080089C0040F91F840F00CFA05F562EA05021CBF9F
S315080089D063EA050362464FF00004A9E70EB400B542
S315080089E08AB00CAA02A80649019200F07FF902A9EA
S315080089F0052000F06BFF0AB05DF804EB03B0704782
S31508008A004814020808B50F4900220520FFF7E6FFBB
S31508008A1000F08CFB00F0D0FB00F0F0FB00F0DAFB76
S31508008A2000F0F6FB00F048FA00F0B8FA4FF40070D0
S31508008A3000F0F0FB0128F7D100F04AFA00F048FAF6
S31508008A40FAE700BF4814020802F0D4BA704700BF1C
S31508008A502DE9F04FB0FBF1FC1D4601FB1C0385B068
S31508008A60D35CDDF838808DF8043001AFDDE90F9668
S31508008A70BE46012400E09C46814260460AD8BCFBFB
S31508008A80F1F301FB13CC013412F80CC00EF801CF38
S31508008A900B2CF0D1B8F1000F2AD005B1013DB9F180
S31508008AA0000F01D02D20B047AC421BD2B9F1000F00
S31508008AB014BF4FF0300B4FF0200BA24658460AF170
S31508008AC0010AB047AA45F9D3B8F1000F0AD1013C0B
S31508008AD03C442078B047BC4204F1FF34F9D105B0D4
S31508008AE0BDE8F08FB9F1000FF1D12D20B047EEE7C0
S31508008AF0AC42DBD3EBE700BF2DE9F04F8346824655
S31508008B001BF8010B85B0002859D0DFF88091DFF8F3
S31508008B1080815D4F0E461446002507E0A047DA46D9
S31508008B200BF1010B9AF80000002848D02528F5D14A
S31508008B30042DF3D89AF80120302A46D00AF1020A01
S31508008B400020A2F13003092B4FF000030BD803EBEA
S31508008B50830302EB43031AF8012BA2F1300109291A
S31508008B60A3F13003F3D96C2A2CD002F0DF01542983
S31508008B7028D0782A1DD8572A15D9583A202A18D81D
S31508008B80DFE802F05617171717171717171717647E
S31508008B906B171717171717171717171729171737D1
S31508008BA0174817172900002A6AD0252A01D1104626
S31508008BB0A0470AF1010B9AF800000028B6D105B0C3
S31508008BC0BDE8F08F1AF8012BD3E79AF802200120A6
S31508008BD00AF1030AB5E7CDE901040022009256F826
S31508008BE0250042461021FFF733FF01350AF1010B34
S31508008BF098E756F825B01BF8010B01350028D8D0A0
S31508008C00A0479BF800000BF1010B0028F8D10AF1E8
S31508008C10010BD0E7CDE901040022009256F82500A1
S31508008C203A460A21FFF714FF01350AF1010B79E7E5
S31508008C30CDE901040022009256F825004A46102183
S31508008C40FFF706FF01350AF1010B6BE716F8250059
S31508008C50A04701350AF1010B64E756F82520002ADA
S31508008C60CDE90104ABBF1046504200220122009212
S31508008C700A213A46FFF7ECFE01350AF1010B9AE79D
S31508008C80D3460AF1FF3A4DE7B8140208A4140208BD
S31508008C90C41402080268012A10B503460C4602D01D
S31508008CA0022A0BD010BD80680A4603F10C01FFF7B3
S31508008CB023FF23460A20BDE8104018470A46024803
S31508008CC003F10801F3E700BF6C14020810B582B07F
S31508008CD003460A460C460448019301A9FFF70CFF10
S31508008CE00A20A04702B010BD8C14020830B5012333
S31508008CF0036081600C789E4644B1BEF1050F05D825
S31508008D00252C04D011F8014F002CF6D130BD4B7834
S31508008D1001F1020CA3F13001092905D81CF8013B21
S31508008D20A3F130010929F9D96C2B5BD003F0DF01D7
S31508008D3054291DD0002B00F0B480583BD9B2202905
S31508008D4000F2B580202B00F2B280DFE803F040B0D5
S31508008D50B0B0B0B0B0B0B0B0B04040B0B0B0B0B0E5
S31508008D60B0B0B0B0B0B030B0B030B040B0B0400085
S31508008D70614611F8014B002C00F09780583CE5B28B
S31508008D80202D7FD8202C7DD8DFE804F01C7C7C7C45
S31508008D907C7C7C7C7C7C7C227F7C7C7C7C7C7C7C5C
S31508008DA07C7C7C7C127C7C127C1C7C7C1C00614656
S31508008DB00EF1020352F8044B40F823400EF1010E5F
S31508008DC00C7899E7742B03D0542B64D08C466146F3
S31508008DD052F8044B0EF102030EF1010E40F823403F
S31508008DE00C7889E7614611F8014B002C5DD0583C98
S31508008DF0E3B2202B46D8202C44D801A353F824F0FC
S31508008E00D18D0008858E0008858E0008858E00089D
S31508008E10858E0008858E0008858E0008858E0008D8
S31508008E20858E0008858E0008858E0008D18D00087D
S31508008E30D18D0008858E0008858E0008858E00086D
S31508008E40858E0008858E0008858E0008858E0008A8
S31508008E50858E0008858E0008858E0008858E000898
S31508008E60B18D0008858E0008858E0008B18D000832
S31508008E70858E0008D18D0008858E0008858E00082D
S31508008E80D18D00089CF8014036E76C2BA0D0742BD6
S31508008E909ED0542B9CD1073222F0070252F8084B79
S31508008EA098E71CF8014C0CF1FF3C614624E79CF856
S31508008EB00040614620E700BF08B500F029F800F039
S31508008EC00FF9024B00221A8008BD00BF00100020CF
S31508008ED0044B1B8823B1012B01D100F013B970474D
S31508008EE000F0A2B8001000200EB400B58AB00BAA94
S31508008EF002A852F8041B0192FFF7F8FE02A9052002
S31508008F0000F0E4FC0AB05DF804EB03B0704700BF5C
S31508008F101349144A14484FF0010C30B4A1F800C0A4
S31508008F20C8211180114A1249124C134D002313808F
S31508008F30124A03800B80138011481249124A238073
S31508008F40032404800B80114C138011481149124ADE
S31508008F502B802380038030BC0B801380704700BFB2
S31508008F601610002002100020141000200410002003
S31508008F700C100020081000200A10002010100020F5
S31508008F80121000200E1000200610002018100020D5
S31508008F901C1000201E1000201A10002010B51020EA
S31508008FA000F038F901280AD0402000F033F90128EA
S31508008FB012D0202000F02EF901281AD010BD14482E
S31508008FC000F012F9134900220520FFF78DFF402013
S31508008FD000F020F90128ECD10F4800F005F90F49F7
S31508008FE000220520FFF780FF202000F013F9012852
S31508008FF0E4D1094B064A1B881288094C09491344CF
S315080090005B1023800022BDE810400520FFF76CBFE7
S315080090101E100020D81402081A100020DC140208BA
S315080090200A100020E014020870B5204C204D204696
S3150800903000F0DAF81F4B21881C881F4B1F4A188836
S315080090401288641A1E491FFA84FC6044098880B293
S31508009050188011FB00F11B4B288889B219801A4B1E
S315080090601B88ACEB000013FB00F31848B0F800C0EF
S31508009070174812FB04F20688164892B21144028079
S31508009080154A9BB219441380144B89B2ACEB010004
S315080090901980614424B280B289B21EB900F064F81E
S315080090A02C8070BD00F074F82C8070BD081000206C
S315080090B0181000200A1000201C1000201210002092
S315080090C0101000200C1000200E10002002100020A6
S315080090D0161000201410002004100020061000208E
S315080090E005480649064A00234FF0010CA0F800C0BF
S315080090F00B801380704700BF241000202210002028
S3150800910020100020064B1B8823B9064B19880846F1
S3150800911000F02AB8044B1988084600F039B800BF91
S3150800912024100020201000202210002038B54520E9
S3150800913001F0C0F80A4D0B4C034642202B6001F0A3
S31508009140B9F80122034611462868236001F0E2F8BF
S3150800915020680122BDE83840002101F0DBB800BFD5
S31508009160281000202C10002010B5074A03460C468C
S315080091701068194601F0EEF8044B21461868BDE858
S31508009180104001F0E7B800BF281000202C1000207E
S3150800919010B5074A03460C461068194601F0F8F858
S315080091A0044B21461868BDE8104001F0F1B800BF2D
S315080091B0281000202C10002008B5412001F07AF86C
S315080091C0034B012218600021BDE8084001F0A2B84F
S315080091D03010002008B5432001F016F8014B18603E
S315080091E008BD00BF34100020034B10B504461868AC
S315080091F001F026F8208010BD3410002008B5442060
S3150800920000F054FF014B186008BD00BF381000205D
S31508009210704700BF38B5064D0446284600F032FFB1
S315080092202B8834EA03030CBF0120002038BD00BF99
S315080092303C10002010B50C4888B04FF4004101F0EE
S31508009240B1F90A4A106008B108B010BD0849094BBF
S315080092500291C02202246946CDE90323009400F056
S3150800926035FB00F0C5FDFEE70020002000A0002029
S31508009270E4140208081502080EB410B58BB00DAA3E
S31508009280044652F8041B019202A8FFF72FFD02A913
S31508009290204600F01BFB0BB0BDE8104003B070473A
S315080092A008B504490620FFF7E7FF05F0CBF802F0FA
S315080092B06AFDFEE71C15020801F092BD012001F0C7
S315080092C0D9BD00BF10B582B00C461A4604490094B1
S315080092D003460020FFF7D0FF00F08AFDFEE700BF37
S315080092E038150208704700BF704700BF704700BFB7
S315080092F0704700BF704700BF704700BF024B034965
S315080093000022C3E90012704704A000208C15020849
S31508009310704700BF10B4074B074C00223F201F219F
S31508009320C3E90042C3E90222C3E904205DF8044BFD
S315080093309961704738A200209C150208704700BF43
S31508009340704700BF704700BF704700BF704700BF37
S31508009350704700BF0849094B10B4002201F11C04EC
S3150800936001F13800C3E90A42C3E90012C3E914024D
S315080093705DF8044B704700BFF815020854A6002094
S3150800938000F04ABC00F04ABC00F04ABC084600F0AF
S3150800939049BC00BF084600F047BC00BF704700BF85
S315080093A000F056BC00F066BC00F066BC084600F04B
S315080093B065BC00BF084600F071BC00BF704700BF1F
S315080093C000F090BC00F090BC00F090BC084600F09D
S315080093D08FBC00BF084600F08DBC00BF704700BFB9
S315080093E000F088BA014800F09DBB00BFF0150208DE
S315080093F000F0E6BA00F0ACBA0A2970B50E46044683
S3150800940002D1C368DB062ED401F07CFF002841DBBD
S31508009410E36AD3B12268A36AD268D6542268A36ADB
S31508009420E06A556801330130AB42A5EB0005A3623B
S31508009430B5FA85F504BF0023A362E0626D0901F061
S3150800944075FF002826DB284670BD256B002DE1D167
S315080094501348314600F030FB0028F0D110480121AE
S3150800946000F03CFBD6E70D21FFF7C6FF051EEADB39
S31508009470CAD00C4B586801F08DFE051EC4DA05F1FA
S315080094803503DBB2042B05D8012202FA03F313F0E5
S31508009490150FD8D10123A3606FF00405D3E700BFE9
S315080094A0F01502086415020870B5044601F0C8FFF5
S315080094B0B0BB01F04DFF002835DB65683DB16FF0A4
S315080094C0280501F071FF00282DDB284670BD40F203
S315080094D01153C4E90335C4E90555C4E90855C4E977
S315080094E00A552577256301F00DFF002815DB10487E
S315080094F000F098FA0F4B186802F02CF801260C4871
S31508009500022100F0EBFAC4E9016501F00FFF00281B
S31508009510D7DAA6606FF00405D3E76FF00405D0E745
S315080095206FF01805D1E70123A3606FF00405CCE7B7
S31508009530F0150208841502082DE9F04106460D4685
S31508009540174601F07DFF00283CD17368002B3FD0F9
S31508009550B068002839D1B7B1DFF87C80044601200D
S3150800956028B1D8F8040001F015FE00280DDB15F81F
S31508009570011B3046FFF740FF002815DB0134A742E0
S31508009580EED1A8B12046BDE8F08100F13503DBB283
S31508009590042B05D8012202FA03F313F0150F03D1A1
S315080095A00123B3606FF00400002CEBD1BDE8F08115
S315080095B0094B586801F07AFD0028E3DA0123B36005
S315080095C02046E0E76FF01800DDE76FF00400DAE701
S315080095D06FF02800D7E700BF6415020838B5017F89
S315080095E0044649B9056B0DB9C36A5BB9BDE838408D
S315080095F01448012100F084BA124800F05DFA0023ED
S31508009600237738BD0268436AD2680E48D15C00F0F9
S3150800961053FA2368626A5968E36A01328A4218BFB4
S3150800962015469942656202D0013BE36238BD064B96
S31508009630586801F03BFD0028B7BF0122E36AE36AD8
S31508009640A260F1E7F015020864150208F8B50446A9
S31508009650414800F039FAE368DD05C0B228D5132879
S315080096605DD0226B3ABB112821D02368A1691A68FC
S3150800967091421CD09A686369D0542268636912685B
S3150800968001339342636104BF00236361A369002B1E
S3150800969048D0E26801335205A36108D5226A32B977
S315080096A02268126802EB4202B3EB920F45D2F8BD6C
S315080096B0226B002AD9D0112801D09905D5D5E36A9D
S315080096C000252563002BF2D0234E244F0FE0236894
S315080096D0626A5968E36A01328A4214BF104628460C
S315080096E09942606212D0013BE362002BDFD0226808
S315080096F0636AD2683046D15C00F0DEF90028E6D10C
S31508009700BDE8F8401448012100F0E8B9786801F08E
S31508009710CDFC0028BCBF0123A360E36AE3E701236D
S315080097202363F8BD0D4B186801F0C0FC0028B7BFCD
S315080097300122A369A369A260ABE70748132100F0D9
S31508009740BBF928B90448012100F0C8F91323237787
S3150800975001232362F8BD00BFF0150208641502084C
S3150800976043680BB1C36A0BB9184670470268436A67
S31508009770D268D35C0B700268436A5268013393421D
S31508009780C26A436204BF00234362013A0123C262EC
S315080097901846704700F030B92DE9F04F0D4689B0EC
S315080097A0EFF3108772B6264C0126636986401E427F
S315080097B023D0244AE368D2F800908E46D16803F194
S315080097C0010801EB431A204BD3F800B0BEE80F009E
S315080097D0D446ACE80F009EE80F00C8458CE80F0099
S315080097E028BF0023CAF804B0C4F80C8028BFE36079
S315080097F0636899450BD901336360A3691E420ED18C
S31508009800012F00D062B6002009B0BDE8F08FE368EA
S31508009810A360236901332361A3691E42F0D00A4B72
S315080098202C461E680FCC6D460FC594E80F0085E8D8
S315080098300F00064901966846FFF72CFAE0E700BFD5
S3150800984038A200209C150208781D0120959700086B
S31508009850F0B583B0EFF3108272B6012A29D0194CFD
S315080098606568002605B3184AA168D36803EB411E4C
S31508009870136801934F1C8446BEE80F00ACE80F003E
S315080098809EE80F008CE80F00019B20699F4228BFC5
S31508009890002305F1FF35C4E9015728BFA36000235B
S315080098A023611EB103B0F0BD6FF0280062B603B0A5
S315080098B0F0BD044C65681646002DD4D16FF028001B
S315080098C0F0E700BF38A200209C150208FFF764BF26
S315080098D000B583B0034601220DF1070103488DF850
S315080098E00730FFF729FE03B05DF804FB04A000204B
S315080098F000F082B830B51248124D134C89B0FFF704
S31508009900D3FD124B02930122694605200092FFF708
S31508009910DDFF6846FFF79CFF002809DB0CD12146CE
S315080099206846FFF7B7F96846FFF792FF0028F5DAA9
S31508009930286801F007FBECE72146FFF7C7F9EEE7D1
S3150800994004A00020AC150208D1980008A016020849
S31508009950F0B5184D8BB003E09DF8070000F04CF801
S315080099600DF107012846FFF7FBFE04460028F3D150
S3150800997002A8FFF76DFF051E0F4E104F0CDB6CB1EA
S315080099809DB9314602A8FFF785F902A8FFF760FFDF
S31508009990051E4FF00104F2DA0BB0F0BD214632463F
S315080099A03846FFF7A9F8002DEBD031462846FFF7D1
S315080099B08DF9E6E704A00020F1980008C016020811
S315080099C010B50B4B0B4988B0D3E90023029101244B
S315080099D003200721CDE903010094694600240520E8
S315080099E0CDE905420793FFF771FF08B010BD00BF28
S315080099F0E8150208DC1602080A2838B5044607D016
S31508009A00074D2146284600F057F80028F9D038BDFA
S31508009A10034D0D21284600F04FF80028F9D0EFE74E
S31508009A20F015020810B5044620482368D96821F4C1
S31508009A300051D96023F44061002281421A61DA603C
S31508009A405A612FD002F05AFD02466168184BA3FBF3
S31508009A5002021848A3FB01314FF47A7C52094909DE
S31508009A600CFB02F20901B2FBF1F32268A0FB0341E9
S31508009A7089090CFB11331B0103F5FA73A0FB0303D9
S31508009A80C3F3831343EA01139360D36843F00C03CB
S31508009A90D360536943F001035361D36843F4005319
S31508009AA0D36010BD02F042FD0246CEE70010014029
S31508009AB01F85EB51D34D62100368186810F08000BB
S31508009AC01CBF59600120704703681A68920646BF92
S31508009AD05868C0B24FF0FF30704700BF012908D060
S31508009AE0022905D10268D36843F02003D360704782
S31508009AF070470268D36843F08003D360704700BF9D
S31508009B00012908D0022905D10268D36823F0200369
S31508009B10D360704770470268D36823F08003D36028
S31508009B20704700BF03681A68910606D41B681B06AF
S31508009B3000D470470848FFF751BD10B504460648DB
S31508009B40FFF784FD23681B681A0600D410BDBDE81C
S31508009B5010400148FFF742BD04A00020406A704744
S31508009B6038B5456A0446B5B10268C3699269D35CDB
S31508009B700B700168C3690A6901339342C36104BF64
S31508009B800023C361436A9A420DD0013B63620125F3
S31508009B900BB1284638BD23681868036801211B697C
S31508009BA09847284638BD4B68186801F07FFA0028A0
S31508009BB001DB636AE9E70123A3606FF00405E8E7C0
S31508009BC0036810B5DA680446806990421CD05A6961
S31508009BD06369D15422686369D16801338B42636132
S31508009BE004BF00236361A3691BB10133A36101208C
S31508009BF010BD9368186801F059FA002806DBA369B6
S31508009C000133A3610120F3E7002010BD0123A360FF
S31508009C106FF0040010BD00BF704700BF704700BF5B
S31508009C20704700BF704700BF704700BF0148FFF785
S31508009C3095BF00BF54A6002001460148FFF790BF14
S31508009C4054A6002001460148FFF7BABF54A60020D3
S31508009C5010B500F019FA064C01E001F073F902207C
S31508009C6003F07EFB03462046002BF6D010BD00BF4E
S31508009C7040420F00704700BF07F0CABB012806D054
S31508009C80022803D1034B01221A6070477047024B22
S31508009C9018607047E4AA0020E8AA0020012806D028
S31508009CA0022803D1044B00221A6070477047034B01
S31508009CB000221A60704700BFE4AA0020E8AA002024
S31508009CC00148FFF74BBF00BF7CA6002001460148AC
S31508009CD0FFF746BF7CA6002001460148FFF770BF84
S31508009CE07CA60020704700BF704700BF704700BFC2
S31508009CF0704700BF704700BF08B5FFF7F3FAFFF7D4
S31508009D00F3FAFFF7F3FAFFF7F3FAFFF7F3FAFFF7B9
S31508009D10F3FAFFF7F3FAFFF7FBFAFFF7FBFAFFF799
S31508009D200DFBFFF70DFBFFF70DFBFFF70DFBFFF72D
S31508009D300DFBFFF70DFBFFF70DFBFFF72FFBFFF7FB
S31508009D403DFBBDE80840FFF749BB00BF00F0E2BF96
S31508009D500148FFF747BB00BF8815020800F0DABFC5
S31508009D6008B500F087FE01F089F901F06DFA01F0F7
S31508009D707BFBBDE8084001F04FBC00BF0EB400B540
S31508009D808AB00BAA02A852F8041B0192FEF7AEFF8E
S31508009D9002A90020FFF79AFD0AB05DF804EB03B0AC
S31508009DA0704700BF08B500F0E3F8024A024B126894
S31508009DB01A6008BD8C1B02080000002070B520F050
S31508009DC01F040A4E84B004F58075D4E90032A068F1
S31508009DD0E16802911034CDE9002031462246002080
S31508009DE0FFF7CCFFA542F0D104B070BDB81C02083D
S31508009DF038B512490020FFF7C1FF11490020FFF7C7
S31508009E00BDFFEFF30885EFF309846A460D49002084
S31508009E10FFF7B4FF0C492A460020FFF7AFFF284694
S31508009E20FFF7CCFF094922460020FFF7A7FF204687
S31508009E30FFF7C4FF00F0C4FCFEE700BFD41C02080D
S31508009E40E41C0208F81C0208001D02080C1D020882
S31508009E5008B503490020FFF791FF00F0B1FCFEE7C3
S31508009E60181D020800B5002083B000F08BF8002406
S31508009E700194019BB3F5801F06DA019B0133019318
S31508009E80019BB3F5801FF8DB002000F0A3F8EFE78D
S31508009E9030B589B000F01CFC284B1A6842F40072F1
S31508009EA01A601A6842F480621A601A6842F480726C
S31508009EB000241A6000F096F8204600F063F8204B5C
S31508009EC001941A6B1F4842F008021A631A6B02F0D3
S31508009ED008020192019A02945A6C42F040025A64AE
S31508009EE05B6C03F04003022102934FF40043049194
S31508009EF006910B2503A90393029B07950123059356
S31508009F0001F06EFF4FF480430E48039303A90795AB
S31508009F1001F066FF0C480D4904614FF4E1320C2349
S31508009F20C0E90012C0E90244C0E90534C46102F080
S31508009F3065FC08B909B030BDFFF794FF003C024044
S31508009F4000380240000C0240B41C012000180140F1
S31508009F5000207047034A044B1068A3FB00308009B1
S31508009F60704700BF241E0120D34D6210704700BF02
S31508009F70034AD2F8883043F47003C2F88830704731
S31508009F8000ED00E070B5044686B050B90F4B00905E
S31508009F901A6B42F001021A631B6B03F0010300936C
S31508009FA0009B0B4E012356F824002025022201A906
S31508009FB0CDE90332CDE9015301F012FF56F824002A
S31508009FC00022294601F0F4FF06B070BD00380240B1
S31508009FD004000020024B202153F8200001F0EDBFB9
S31508009FE00400002030B595B00023244A0093116C74
S31508009FF0234841F080511164126C02F0805200929D
S3150800A000009A0193026822F4404242F40042026038
S3150800A010026802F440420221012401924FF48000B2
S3150800A0204FF48032CDE90742CDE90933CDE90C3149
S3150800A030082460220E90042307A8CDE90F42CDE933
S3150800A0401113019D139101F0C9FF80B902200F2455
S3150800A0500023CDE902404FF48052052102A8CDE93C
S3150800A0600432069302F090F920B915B030BDFFF717
S3150800A070F9FEEBE7FFF7F6FE15B030BD00380240F3
S3150800A0800070004003F073BA08B501F03BF9054BC0
S3150800A090054801221A7002F0D9FE01F047F900209E
S3150800A0A008BD00BFF81C0120B40000203E2101F0C5
S3150800A0B01DBB00BF0EB400B58AB00BAA02A852F8A1
S3150800A0C0041B0192FEF712FE02A90320FFF7FEFB0E
S3150800A0D00AB05DF804EB03B0704700BF10B50388FB
S3150800A0E0B3F5806F18BFC3F38702438882B008BFF1
S3150800A0F0FF22B3F5806F8DF8042018BFC3F38702DB
S3150800A100838808BFFF220C46B3F5806F14BFC3F3DC
S3150800A1108703FF2301A88DF805208DF8063004F083
S3150800A12017FAE078032820D9A378032B21D9B4F8A5
S3150800A13000C0BCF1270F25D9214AC3F1C80103FB8A
S3150800A14001F182FB0123CA17C2EB6312D2B2C0F136
S3150800A150C8031B49A27000FB03F381FB0301DB174D
S3150800A160C3EB6113E37002B010BD00220021218009
S3150800A170EDE7C3F1C80203FB02F26423B2FBF3F274
S3150800A180D2B2F3E7ACF114021421120292FBF1F2F7
S3150800A190D2B24FF0640E02FB02F20EFB02F1091472
S3150800A1A0C1F1C801C3F1C8020CFB01F103FB02F2BD
S3150800A1B0B1FBFEF192FBFEF289B2D2B2D7E700BF3D
S3150800A1C01F85EB5130B587B00D4602AA052101F06F
S3150800A1D0ABFA044678B9DDE90202049BADF8000043
S3150800A1E029466846ADF80220ADF80430FFF776FF39
S3150800A1F0204607B030BD03490320FFF75BFF204622
S3150800A20007B030BD401D020870B53D2182B001F08F
S3150800A2106DFA094C094D01A90646FFF7D3FF062337
S3150800A22044F8043B0FCD0FC495E8030084E8030007
S3150800A230304602B070BD00BFFC1C0120080000209B
S3150800A24000B585B06A46052101F06EFA98B9DDE9D0
S3150800A2500023029913440B446422A0F1553002FBF3
S3150800A26003F300F1004080FB0320DB17C3EB6020FB
S3150800A27005B05DF804FB04490320FFF71BFF002027
S3150800A28005B05DF804FB00BF701D02080EB400B5EA
S3150800A2908AB00CAA02A806490192FEF727FD02A970
S3150800A2A00320FFF713FB0AB05DF804EB03B0704711
S3150800A2B0981D0208F0B585B00024012106460394CE
S3150800A2C001F096FA70B9104F0A2503A9304605F031
S3150800A2D077F90446082C384610D100F033FE013DC4
S3150800A2E0F3D1204604F0E8FC084A009008493346B2
S3150800A2F00320FFF7CBFF002005B0F0BD002CF0D1FE
S3150800A300039805B0F0BD00BF40420F00B41D020817
S3150800A310981D020830B5134685B04FF47A72054683
S3150800A32005F07AF9044610B9204605B030BD2B6809
S3150800A3301B78039304F0C0FC044A00900449039B6D
S3150800A3400320FFF7A3FF204605B030BDCC1D020849
S3150800A350981D020830B5054685B0006801F072F907
S3150800A360044610B9204605B030BD2B681B78039308
S3150800A37004F0A2FC044A00900449039B0320FFF75B
S3150800A38085FF204605B030BDE01D0208981D02086D
S3150800A39030B585B0054601F053F9044610B9204694
S3150800A3A005B030BD2B681B78039304F085FC054A7D
S3150800A3B000900549039B0320FFF768FF204605B078
S3150800A3C030BD00BFF81D0208981D020830B54B685D
S3150800A3D023F003037F2B89B035D89B10002203EBAB
S3150800A3E0421C00EB8C0CDCF87440002C3CD0C1E914
S3150800A3F00240E16001F10B0424F0030401F1080EA8
S3150800A400A6450FD02048214B02904FF41C72022417
S3150800A41069460020CDE903230094FFF757FAFFF7B2
S3150800A420E7FCFEE7CCF87410012101FA02F401FA00
S3150800A43003F3016900EB82022143016151690B4371
S3150800A440536109B030BDB3FA83F2C2F11A04E3408E
S3150800A45083F02003C2F1190203EB421C00EB8C0CBB
S3150800A460DCF87440002CC2D10749094B029140F22E
S3150800A4706A22022569462046CDE903230095FFF79F
S3150800A48025FAFFF7B5FCFEE7101E0208741E02083F
S3150800A490441E02080EB400B58AB00BAA02A852F8E8
S3150800A4A0041B0192FEF722FC02A90020FFF70EFA10
S3150800A4B00AB05DF804EB03B0704700BF30B511F081
S3150800A4C0030589B035D1083A22F003031C4A0C4625
S3150800A4D0A3F10C01914223D8254643F0010355F810
S3150800A4E004296B602946FFF771FF6B6833F0030098
S3150800A4F007D0231D0344022243E90152204609B02E
S3150800A50030BD1049104B029140F2C312022469462D
S3150800A510CDE903230094FFF7D9F9FFF769FCFEE7B5
S3150800A52028460A4B0A491422FFF7B4FF284609B001
S3150800A53030BD002007490422FFF7ACFF0020DEE704
S3150800A540F4FFFF3F101E0208101F02080800004013
S3150800A5505C1F0208281F020810F0030110B516D167
S3150800A56004460161C0E902006022143016F0C8FEF4
S3150800A57004F1F00204F54F61A2F1800343F8044F99
S3150800A5809342FBD180328A42F6D1204610BD044957
S3150800A590042200200024FFF77DFF204610BD00BFDF
S3150800A5A09C1F020870B50E460546FFF7D5FFA6F6AE
S3150800A5B07442044605F67441FFF780FF204670BDD5
S3150800A5C04FF0E02307491A69074822F001021A6189
S3150800A5D0596199611A69002142F005021A61016000
S3150800A5E0704700BFFF760100781D01204FF0E02379
S3150800A5F000221A61704700BF034A136803F57A738D
S3150800A600136000F0E1BA00BF781D01200EB400B552
S3150800A6108AB00BAA02A852F8041B0192FEF766FB41
S3150800A62002A90020FFF752F90AB05DF804EB03B05F
S3150800A630704700BF031F0B2B11D80E4B820853F827
S3150800A64022301A6800F00300C0004FF0FF0C0CFA25
S3150800A65000FC22EA0C028140114319607047A0F100
S3150800A6601003652BFAD823F0030303F1604303F5BF
S3150800A6706443E6E774210208043803280BD8DFE8A8
S3150800A68000F01D140B024FF0E022D2F8243D43F4EB
S3150800A6900023C2F8243D70474FF0E022D2F8243D4B
S3150800A6A043F48023C2F8243D70474FF0E022D2F8E5
S3150800A6B0243D43F40033C2F8243D70474FF0E022AE
S3150800A6C0D2F8243D43F48033C2F8243D704700BFD6
S3150800A6D010B4102383F311883348344A0023012128
S3150800A6E003601160BFF34F8F4FF0E0223049C2F884
S3150800A6F0081DD2F8181D2F4821F0FF01C2F8181DB1
S3150800A700D2F8181D006821F47F41C2F8181DD2F846
S3150800A710181D21F47F01C2F8181DD2F81C1D21F05E
S3150800A7207F41C2F81C1DD2F8201D21F0FF01C2F896
S3150800A730201DD2F8201D21F47F0141F47001C2F8D2
S3150800A740201DD2F8241D41F48031C2F8241DD2F808
S3150800A750241D41F40031C2F8241DD2F8241D41F409
S3150800A7608021C2F8241DD2F8141D21F40071C2F804
S3150800A770141DD2F8881D4FF0404441F47001C2F808
S3150800A780881DC2F8344F60B100EB80000A4A0B4CB2
S3150800A7904000116944F823100A33834202F1180273
S3150800A7A0F7D15DF8044B7047801D01207C1D012000
S3150800A7B000800008901C0208101C0208E81B0120F3
S3150800A7C082B0044B0193019B13B1019B02B0184759
S3150800A7D002B070476D9F000870B5A0F10F0CBCF170
S3150800A7E0660F88B02ED80C4602F110010F2919D829
S3150800A7F00F283DD05342DBB2A0F11001C3F110037C
S3150800A8004FEA511C01F01F0201261901224B9640FE
S3150800A81043F82C604FEA8C05FFF70CFFE30721D4B9
S3150800A82008B070BD1D481E4B02904FF49272022468
S3150800A83069460020CDE903230094FFF747F8FFF7A0
S3150800A840D7FAFEE71548174B029040F22312022466
S3150800A85069460020CDE903230094FFF737F8FFF790
S3150800A860C7FAFEE705F1604505F561452E60D7E7AD
S3150800A8704FF0E02553422A69DBB222F00202C3F107
S3150800A88010032A611901FFF7D5FEE207C8D52B691F
S3150800A89043F002032B61C3E780E100E0D01F020802
S3150800A8A0302002081420020810B5EFF31184EFF3E4
S3150800A8B00582054B53F822309847044B00221A604C
S3150800A8C084F3118810BD00BF941802087C1D01206E
S3150800A8D0F0B587B0036A0768466A05930446EFF33E
S3150800A8E005852C49C5F308050020FFF78FFECDE93D
S3150800A8F000672949059B02942A460020FFF786FE31
S3150800A900032D38D0042D28D0052D11D0062D0AD1B7
S3150800A91022490020FFF77AFE214B22499A6A002035
S3150800A920120CFFF773FE07B0BDE8F040FFF760BAF8
S3150800A9301B4C1D490020FFF769FEA26A1949C2F39C
S3150800A94007220020FFF762FEA36A1B04EBD5A26B61
S3150800A95016490020FFF75AFEE5E715490020FFF7DC
S3150800A96055FE144A14490020FFF750FE07B0BDE80B
S3150800A970F040FFF73DBA11490020FFF747FE084BA4
S3150800A9800F49DA6A0020FFF741FE07B0BDE8F0403C
S3150800A990FFF72EBA68200208882002083421020828
S3150800A9A000ED00E01421020808210208242102080B
S3150800A9B0EC20020850ED00E0F8200208CC2002083E
S3150800A9C0DC20020810B5EFF3058407490020FFF7DD
S3150800A9D01DFEC4F3080205490020FFF717FEBDE86F
S3150800A9E01040FFF705BA00BF442102086421020897
S3150800A9F0F8B5FFF781F9FFF74BFA00F0B9F8FFF75A
S3150800AA00AFF90C4B1D6855B10B4E0024371F57F88C
S3150800AA10343056F8340001349847AC42F7D1074A27
S3150800AA20074B12681A6000F0CDF8064B01221A602F
S3150800AA30FDF786FC9C1C0208701A0208781D012086
S3150800AA40241E0120841D0120F8B5084B1D6855B148
S3150800AA50074E0024371F57F8343056F834000134AF
S3150800AA609847AC42F7D1FFF7F3F900BFA01C0208DC
S3150800AA70041C02082DE9F047234D244C2448254997
S3150800AA80254B00222A602260012202600A6003F137
S3150800AA908002C3E9003308339342FAD11F4A204B98
S3150800AAA015684FF0000AA3F800A05DB31D4CDFF847
S3150800AAB07C801D4F564601E0AA4523D054F8043B36
S3150800AAC0013B03EB830908EBC90903EB430399F838
S3150800AAD00F2007EBC3036FF30002C9F80830484696
S3150800AAE089F80F2000F024F8D9F80830C9F814605E
S3150800AAF01B68DB070AF1010ADED5484600F026F88E
S3150800AB00AA45DBD1BDE8F087901D0120941D0120E0
S3150800AB108C1D0120881D01209C1D0120901C020807
S3150800AB20981D0120A41C0208101C0208C81B01203D
S3150800AB30C37B82680021017323F01E03127B4273D4
S3150800AB4043F008038273C373704700BF8268526973
S3150800AB50203A10B40021054C82610122C461416289
S3150800AB605DF8044B027300F09FBE00BFDD8300084A
S3150800AB709FED0B7B0C4B0D490D4A0E4810B483ED27
S3150800AB80007B0D4C00230B600C4923600C4C0460C1
S3150800AB900B605DF8044B1260704700BFAFF300808E
S3150800ABA00000000000000000301E0120201E0120C9
S3150800ABB0901C01201C1E0120281E01202C1E01208D
S3150800ABC0003E14F4704700BF2DE9F04F8BB0EFF349
S3150800ABD0148515F0020301930FD04448444B0490A2
S3150800ABE040F25122022402A90020CDE9052302944D
S3150800ABF0FEF76CFEFFF7FCF8FEE7DFF80C81D8F8E5
S3150800AC000030002B58D1EFF31182102383F31288FA
S3150800AC10384901230A60C8F80030BFF34F8FDFF8C0
S3150800AC20ECA0DFF8EC90344F344ECAF8003009F146
S3150800AC30040400F0E5FFD9F80000A0422AD3002258
S3150800AC4008E0DBE902309847D9F80000A0424FF047
S3150800AC500102EED3D9F804B03B68DBF8001035687A
S3150800AC60C91AEB1A9942A0F1040C11D8019BC9F82C
S3150800AC7000C00133A4450193E3D30368204619684D
S3150800AC8000F086FFD9F800305B6803605860D8E7A3
S3150800AC90002ACED1019BFBB1FFF794FF0023CAF827
S3150800ACA00030C8F80030BFF34F8F124B1B6883F390
S3150800ACB011880BB0BDE8F08F0C49114B049140F296
S3150800ACC05222022402A901980294CDE90523FEF72F
S3150800ACD0FDFDFFF78DF8FEE70A4B0493012202A952
S3150800ACE005200292FEF7F2FDD6E700BF842102088E
S3150800ACF0B4210208801D01201C1E0120201E0120EF
S3150800AD00C4210208D42102087C1D0120281E012026
S3150800AD10901C012070B52C4C2568002D50D10028B8
S3150800AD2026D042DD294B1B6883423EDB284B01387F
S3150800AD3000EB800003EBC000EFF31183102282F3CF
S3150800AD401288244E336001232360BFF34F8F037BA1
S3150800AD50E3B183681B68990711D56FF02A050023AC
S3150800AD602360BFF34F8F336883F31188284670BD7D
S3150800AD70EFF314839A0718D5174B1868DCE7C37BDB
S3150800AD80DA07EAD443F00103C373E8E7FFF7DEFE08
S3150800AD90114A124B106819688842E0D0EFF3148301
S3150800ADA09B0706D5FDF7E6FAD9E76FF011052846A1
S3150800ADB070BD4FF0E0234FF08052C3F8042DCEE764
S3150800ADC06FF01805D2E700BF7C1D0120901C020811
S3150800ADD0C81B0120801D0120901D0120941D012003
S3150800ADE070B582B0EFF31483980719D51C4D2C68FB
S3150800ADF0B4B91C4B1B689BB1102383F311881A4AFC
S3150800AE00012314602B60BFF34F8F184E3068C37B45
S3150800AE1059070AD49A0713D564F34103C37306E0A6
S3150800AE206FF01804204602B070BD6FF0340400239A
S3150800AE302B60BFF34F8F83F31188204602B070BD95
S3150800AE400423037300F058FD3068019401AB0361D5
S3150800AE50074B32461968FDF78DFA019CE7E700BFF4
S3150800AE607C1D0120881D0120801D0120901D0120C8
S3150800AE70941D012070B52D4C2568002D53D100284E
S3150800AE8022D033DD2A4B1B6883422FDB294B01383E
S3150800AE9000EB800003EBC000EFF31183102282F36E
S3150800AEA01288254E336001232360BFF34F8F037B3F
S3150800AEB08BB96FF0280500232360BFF34F8F3368E3
S3150800AEC083F31188284670BDEFF314839A070DD5CE
S3150800AED01A4B1868E0E723F00203042B0DD0C37B56
S3150800AEE09A0707D443F00203C373E4E76FF011052A
S3150800AEF0284670BD6FF02A05DDE700F09DFD0F4A74
S3150800AF000F4B106819688842D5D0EFF314839B0756
S3150800AF1002D5FDF72FFACEE74FF0E0234FF0805227
S3150800AF20C3F8042DC7E76FF01805CBE77C1D012091
S3150800AF30901C0208C81B0120801D0120901D0120BD
S3150800AF40941D0120EFF314839A0725D570B5224D79
S3150800AF502B6886B0002B39D1204A1268002A35D0D2
S3150800AF601F4A9042044634D8102282F311881D499C
S3150800AF7001220B602A60BFF34F8F1B4E3068C37BDC
S3150800AF805B070CD56FF0340000232B60BFF34F8F9F
S3150800AF9083F3118806B070BD6FF018007047082358
S3150800AFA0037300F0A9FC3368059301AA1A6102A885
S3150800AFB00E4B01902146049300F05CFE0C4B306862
S3150800AFC019683246FDF7D6F90198DDE76FF01800E3
S3150800AFD0E0E76FF01000DDE77C1D0120881D0120E9
S3150800AFE000286BEE801D0120901D012099BA0008EB
S3150800AFF0941D012008B5EFF314839B0719D5194B47
S3150800B0001A68CAB1184B1A686AB9184A116809B990
S3150800B0100121116016490A68F2B901221A6000F086
S3150800B0200FFC144B1860144B186800F0D5FCFDF79C
S3150800B03098F96FF0180008BDEFF31180102282F31B
S3150800B04012880B49012208601A60BFF34F8F064B1E
S3150800B0501A68002AE7D1D8E71209102A1CBF00226D
S3150800B0600A60DAE77C1D0120881D01208C1D01205D
S3150800B070801D0120941D0120901D0120084B186891
S3150800B08068B1084B084A03EB00105168D960C3E958
S3150800B09001321B601033834202F10C02F5D170476E
S3150800B0A08C1C020838BB0020941B0208F0B5314CF2
S3150800B0B0256889B0002D5AD1002855DD2E4B1B680E
S3150800B0C0834251DB431EEFF31182102181F312886C
S3150800B0D02A4E326001222260BFF34F8F284A190197
S3150800B0E002EB0313885883421AD007688F507B6097
S3150800B0F000F0A2FC234A244B10681968884205D040
S3150800B100EFF314839B0728D5FDF734F90023236052
S3150800B110BFF34F8F336883F31188284609B0F0BD13
S3150800B1205A6893420ED01949194B02919A22022461
S3150800B13069462846CDE903230094FEF7C7FBFEF7C8
S3150800B14057FEFEE7D3E9021289688A4202D36FF0F6
S3150800B1502A05DBE70132DA60D8E74FF0E0234FF043
S3150800B1608052C3F8042DD1E76FF01105D5E76FF0CB
S3150800B1701805D2E77C1D01208C1C0208801D0120C1
S3150800B18038BB0020901D0120941D012004220208CE
S3150800B19030220208EFF314839A0726D530B5234CDC
S3150800B1A0226883B0002A3BD1214B1B68002B37D07D
S3150800B1B0002838DD1F4B1B68834234DB102383F3DA
S3150800B1C011881D4901230A602360BFF34F8F1B4D69
S3150800B1D02B68DB7B5B070CD41949431E01EB031074
S3150800B1E0C3688BB1013BC36005E06FF018021046D7
S3150800B1F070476FF0340200232360BFF34F8F83F349
S3150800B2001188104603B030BD6A46402100F094FC10
S3150800B2100C4B286819682A46FDF7ACF8009AEAE745
S3150800B2206FF01802EDE76FF01102EAE77C1D0120C6
S3150800B230881D01208C1C0208801D0120901D0120FC
S3150800B24038BB0020941D01202DE9F843154B1F68D3
S3150800B2502FB3154D154CDFF8589000264FF001080E
S3150800B26007E00136BE42636005F1140504F11804CF
S3150800B27015D02B68256013F00203C4E90494F0D0B6
S3150800B28020462B69C4F80480013640F8083F00F0D0
S3150800B290E3FCBE4205F1140504F11804E9D1BDE842
S3150800B2A0F88300BF881C020858180208ECAA002078
S3150800B2B0B5B2000802688368D268134470B50446BC
S3150800B2C040F8083F00F0C8FC0C4D00232B60BFF384
S3150800B2D04F8F0B4E336883F311882368D3E9010235
S3150800B2E090472B684BB9EFF31182102383F312882A
S3150800B2F0012332602B60BFF34F8F70BD7C1D012088
S3150800B300801D0120074B1A6852B9EFF311801022ED
S3150800B31082F312880449012208601A60BFF34F8F2E
S3150800B320002070477C1D0120801D0120064B1A68ED
S3150800B3303AB100221A60BFF34F8F044B1B6883F3A0
S3150800B34011880020704700BF7C1D0120801D012048
S3150800B350EFF314839B071BD50F4B1868C0B910B4BD
S3150800B360EFF31184102282F312880C4A012114602B
S3150800B3701960BFF34F8F0A4C0A49206008601860AD
S3150800B380BFF34F8F136883F311885DF8044B70473A
S3150800B3906FF01800704700BF7C1D0120801D01203A
S3150800B3A08C1D0120881D012070B5EFF314839B07BF
S3150800B3B01DD51D4D2C68D4B9EFF31182102383F3E4
S3150800B3C012881A4E012332602B60BFF34F8F184A3A
S3150800B3D0136033687BB11B09102B0CD000232B603C
S3150800B3E0BFF34F8F336883F31188204670BD6FF023
S3150800B3F01804204670BD0F4B01221A6000F020FA8F
S3150800B4000D4B0E4A186001461068C37B03F00C0307
S3150800B4100C2B04D08842E1D0FCF7ACFFDEE700F045
S3150800B420DBFAFCF79EFF00BF7C1D0120801D012072
S3150800B4308C1D0120881D0120941D0120901D0120CE
S3150800B440EFF314839B0702D5054B1B680BB101204C
S3150800B4507047044B1868B0FA80F04009704700BF7F
S3150800B4607C1D0120881D0120074B70B51E6856B14A
S3150800B470064C0025D4E90112013554F80C0BFFF7E8
S3150800B480ABF9B542F6D170BD941C0208841A0208BD
S3150800B490A0F10F03662B50D82A490A6830B41AB3AC
S3150800B4A0294B440900F01F0C53F82440012303FAE2
S3150800B4B00CF323423CD00F2833D0A0F110035D09CA
S3150800B4C0224C03F01F03012000FA03F344F8253049
S3150800B4D01ABB1F4C00230B60BFF34F8F236883F3FF
S3150800B4E01188104630BC7047EFF31183102484F39B
S3150800B4F01288174C236001230B60BFF34F8F124D40
S3150800B5004FEA501C55F82C5000F01F0C03FA0CF3A8
S3150800B5102B42D0D16FF02802DCE70022104630BC5F
S3150800B52070474FF0E020036923F002030361CFE779
S3150800B5306FF02802104630BC70476FF010021046B4
S3150800B540704700BF7C1D01203818020880E100E022
S3150800B550801D0120A0F10F03662B53D830B42B4C65
S3150800B560216831B32A4B420900F01F0C53F82220F8
S3150800B570012303FA0CF313423FD00F2836D0A0F16B
S3150800B580100253099B0003F1604303F5614302F07F
S3150800B5901F02012000FA02F21A6019BB1D4A002395
S3150800B5A02360BFF34F8F136883F31188084630BCB6
S3150800B5B07047EFF31183102282F31288154A13603D
S3150800B5C001232360BFF34F8F114D4FEA501C55F8E6
S3150800B5D02C5000F01F0C03FA0CF32B42CDD16FF060
S3150800B5E02801DCE70021084630BC70474FF0E0220E
S3150800B5F0136943F002031361CFE76FF02801084689
S3150800B60030BC70476FF01001084670477C1D01205A
S3150800B61038180208801D0120074B70B51D6855B102
S3150800B620064E05EB4505002456F824000334FFF7BB
S3150800B63023F8AC42F8D170BD981C020824140208FD
S3150800B64004F0A6B810B5044682B0084602F06EFFAC
S3150800B650002102460190204603F018FB019A08B91A
S3150800B66002B010BD0021204602B0BDE8104003F02C
S3150800B6700DBB00BF70B505460E4601E0FFF762FC3C
S3150800B6803146284603F0C4FC082804464FF47A706D
S3150800B690F4D01CB1204670BDFFF754FC284603F0D1
S3150800B6A0C9FC082803464FF47A70F5D063B12846DA
S3150800B6B003F0C6FC01E0FFF745FC284603F0BAFC98
S3150800B6C008284FF47A70F6D02B681B783D2B03D0E8
S3150800B6D03E2B07D0252BDDD147F23050FFF732FC41
S3150800B6E0204670BD4CF25030F8E700BF30B504462E
S3150800B6F083B00D4601E0FFF725FC01A9204602F0BC
S3150800B700C7F9082803464CF25030F4D04BB90198D3
S3150800B71003681B78AB4202D05C2D18BF002003B02B
S3150800B72030BD002003B030BDF0B5437A8B4283B0FC
S3150800B730054614460DD00E46FFF79CFF48B16B7AB6
S3150800B740B34243D03146284603B0BDE8F040FFF780
S3150800B75091BF01A9284603F052FC90BB697A0DF106
S3150800B76003030DF10202284603F033FC074698BB93
S3150800B7709DF80250002D39D0019E9DF80310013D19
S3150800B780731C224601F0030153FA85F53046344608
S3150800B79010E0012914BF96F90060B4F9006016603C
S3150800B7A0AB421E4602F1040204F1020400F1040051
S3150800B7B00CD0013302290CD00329EAD10668166099
S3150800B7C0EEE701A9284603F01AFC0746384603B0F7
S3150800B7D0F0BD06681660E3E7697A0DF103030DF11B
S3150800B7E00202284603F0F5FB0746EFE70327EDE7D5
S3150800B7F030B5054683B001E0FFF7A4FB01A928464A
S3150800B80002F046F9082804464CF25030F4D084B9C0
S3150800B810019803685B78DD070ED55A0709D513F03A
S3150800B820080F437A14BF042102218B4201D0FFF787
S3150800B83021FF204603B030BD0524204603B030BDA5
S3150800B840144B1888A8B1C3B283B1002110F00F03B6
S3150800B850114A08BFC0F303131A4408BF043112F88B
S3150800B860013C0E480B4450F833007047000A082183
S3150800B870ECE710B588B00A490A4B029197220224D0
S3150800B8806946CDE903230094FEF720F8FEF7B0FADF
S3150800B890FEE700BF981D0120882202089C1D012092
S3150800B8A04C2202087822020890F80EC00E4B0F4A66
S3150800B8B003EBCC0110B44C6844600160206048601A
S3150800B8C00B4914880968012303FA0CF323431380F0
S3150800B8D031B1084A136813B19B7B634500D91060E0
S3150800B8E05DF8044B704700BF9C1D0120981D012080
S3150800B8F0881D0120941D012030B5D0E90014827BF3
S3150800B9002D4B21604C6053F8321003EBC204A14260
S3150800B91089B005D0294B1A68824225D009B030BDB6
S3150800B920636899420ED02648264B02909A22022432
S3150800B93069460020CDE903230094FDF7C7FFFEF70B
S3150800B94057FAFEE7204C1D4D2388012101FA02F221
S3150800B95023EA02022B6822808342DFD11B4B186838
S3150800B960B0B122BB2A60D9E7184A106808B1196035
S3150800B970D4E71749174B02914FF489720224694696
S3150800B980CDE903230094FDF7A1FFFEF731FAFEE7A0
S3150800B9900F49104B02914FF4867202246946CDE98D
S3150800B9A003230094FDF792FFFEF722FAFEE7FFF75E
S3150800B9B047FF0246D6E700BF9C1D0120941D0120C3
S3150800B9C00422020830220208981D0120881D012041
S3150800B9D04C2202089822020810B5037BD9070446B0
S3150800B9E01DD413F07C0F0CD163691BB1114B204693
S3150800B9F01B6898472046FFF79BF8E37BDA0711D4C4
S3150800BA0010BD13F0600F03D0D0E9003213605A60FE
S3150800BA10236918680028E7D000F050F9E4E7FFF733
S3150800BA206BFFE1E76FF30003E3732046BDE81040C0
S3150800BA30FFF78CB8381E012010B50369044618684C
S3150800BA4088B010B100F03AF9236900221A60237B06
S3150800BA5013F07C000DD09B0703D50223237308B08F
S3150800BA6010BD01232046237308B0BDE81040FFF738
S3150800BA701BBF0749074B0291712202246946CDE98B
S3150800BA8003230094FDF722FFFEF7B2F9FEE700BF95
S3150800BA90A0220208CC22020830B5026900211160F2
S3150800BAA0027B12F07C0189B02AD0920723D50222A4
S3150800BAB002731B4A1B4B12681B689A4205D04FF04B
S3150800BAC0E0234FF08052C3F8042D174B00221A606A
S3150800BAD0BFF34F8F154A116881F3118800BFEFF342
S3150800BAE01180102181F31288012110601960BFF3BB
S3150800BAF04F8F09B030BD01220273FFF7D5FED8E794
S3150800BB000B4B0C4C02947122022508466946CDE976
S3150800BB1003230095FDF7DAFEFEF76AF9FEE700BF94
S3150800BB20901D0120941D01207C1D0120801D0120EF
S3150800BB30CC220208A022020870B5144E33680446C7
S3150800BB40197318461546FFF7D7FEA36831681B68B0
S3150800BB500D610022DB072A6006D46368C1E9004349
S3150800BB60196061606C6070BD2368887B9C4203D154
S3150800BB7005E01B689C4202D09A7B8242F9D95A6832
S3150800BB80C1E90032116059606C6070BD901D0120DA
S3150800BB9070B5194C031B22689B1004EBC303934230
S3150800BBA029D8164D2D68A1EB050E10E01A68126803
S3150800BBB01946521B0B1B9B10964504EBC3031AD957
S3150800BBC00A680260506022689A42084613D3191D13
S3150800BBD09142EBD8D3E9006212683668521BA6EB8D
S3150800BBE0050C624524BF194662460B1B9B109645F9
S3150800BBF004EBC303E4D870BD901C01201C1E012071
S3150800BC000E490F4B70B40F4C18680B6822680E4D1E
S3150800BC100860C31A991821602C680C480C4EA21AA1
S3150800BC2008449A42306002D2A14202D3296070BC0D
S3150800BC307047084A536801335360F7E7241E01200A
S3150800BC40781D0120201E01202C1E0120003E14F420
S3150800BC501C1E0120301E0120054A136810B5044633
S3150800BC60181D2168106000F063F80460606010BD5C
S3150800BC70901C012070B504460E46FFF7C1FF0C4B19
S3150800BC800C4D1B68286803F57A73991904302160EE
S3150800BC90286000F04DF8084B1B680460606013B913
S3150800BCA00435A84200D070BDBDE87040FEF78ABFD3
S3150800BCB0201E0120901C0120281E0120F8B5194DD0
S3150800BCC046682A682C46131F44F8043BA34218D337
S3150800BCD01368A64219680DD9701BC010124B55F887
S3150800BCE020701A683B68A1EB020C9B1A9C4505EB71
S3150800BCF080000CD33046FFF74BFF2B685B68036068
S3150800BD0058600A4B1B680BB9A64205D0F8BD3760C8
S3150800BD107E6000F00DF8F0E7FFF772FFBDE8F84027
S3150800BD20FEF750BF901C01201C1E0120281E012072
S3150800BD3030B50E4CA042844616D90D4B1D68A4F1A9
S3150800BD40040E491B03E0A445026050600CD9ACEB15
S3150800BD500E03DB1060465EF823200EEB830C136897
S3150800BD605B1B8B42EFD830BD604630BD941C01206A
S3150800BD701C1E012008B503F0ADF90028FBD1BDE86B
S3150800BD800840FDF799BA08B503F08EF905F0B0FB3F
S3150800BD90012003F093F9062005F094FE002005F033
S3150800BDA031FB082005F0E0FEB0B1062005F0B2FE32
S3150800BDB0002005F027FB012003F080F905F0AEFB13
S3150800BDC0072005F07FFEFFF7D5FF01F0F5FF0028F5
S3150800BDD0F9D102F0D5F9F6E7FFF7CCFFE1E7000065
S3150800BDE02DE9F04F6B4ADFF8B481DFF8B49185B0DE
S3150800BDF000230C6801279F4007EA040537EA040474
S3150800BE0040F0B5804C6824F0100ABAF1020F16D13A
S3150800BE104FEAD30E00EB8E0E03F0070BDEF8206018
S3150800BE204FEA8B0B4FF00F0C0CFA0BFC26EA0C0CA6
S3150800BE300E6906FA0BF646EA0C06CEF82060D0F82C
S3150800BE4000B04FEA430E4FF0030C0CFA0EFC6FEAF3
S3150800BE500C062BEA0C0B04F0030C0CFA0EFC0AF188
S3150800BE60FF3A4CEA0B0CBAF1010F0196C0F800C074
S3150800BE7015D8D0F808C006EA0C0CCE6806FA0EFAF1
S3150800BE804AEA0C0CC0F808C0D0F804C02CEA070728
S3150800BE90C4F3001C0CFA03FC4CEA07074760C768A2
S3150800BEA0019E37408E6806FA0EF63E43C660E600E7
S3150800BEB05DD54FF0000BCDF80CB0D8F84470364E6F
S3150800BEC047F48047C8F84470D8F8447007F48047A8
S3150800BED00397039F23F0030707F1804707F59C376D
S3150800BEE003F0030ED7F808A04FEA8E0E4FF00F0C9A
S3150800BEF00CFA0EFCB0422AEA0C0C3FD006F5806616
S3150800BF00B0423DD006F58066B0423BD006F5806665
S3150800BF10B04239D006F58066B04237D0484537D0AA
S3150800BF2006F50066B0420CBF0626072606FA0EF688
S3150800BF3046EA0C06BE601668EF4314F4803F0CBF51
S3150800BF403E402E431660566814F4003F0CBF3E4030
S3150800BF502E435660966814F4801F0CBF3E402E434D
S3150800BF609660D668A40254BF3E402E43D66001337D
S3150800BF70102B7FF43EAF05B0BDE8F08F5E46D5E7DF
S3150800BF800126D3E70226D1E70326CFE70426CDE725
S3150800BF900526CBE7003C014000000240003802407D
S3150800BFA0001402400369194214BF0120002070479B
S3150800BFB00AB1816170470904FBE743695940416149
S3150800BFC070470000044A5169014208B502D0506121
S3150800BFD002F032FA08BD00BF003C01400368F7B51D
S3150800BFE00446D8073BD42368990700F1898023685B
S3150800BFF01E0700F1CA8023685D072AD5002301932E
S3150800C0008B4B8C4D1A6C42F080521A641B6C03F0F1
S3150800C01080530193019B2B6843F480732B60FDF7D3
S3150800C02099FF06462B68DA0540F1D380A368804D50
S3150800C030012B40F0D5802B6F43F001032B67FDF7EA
S3150800C04089FF7B4E054641F28837336F9B0740F1DF
S3150800C050E880A269002A40F0F180002015E0744BC0
S3150800C0609A6802F00C02042A07D09A6802F00C02B9
S3150800C070082A0CD15A68520209D56D4B1B689B03D6
S3150800C080B1D56368002BAED1012003B0F0BD62685C
S3150800C090B2F5803F11D11A6842F480321A60FDF772
S3150800C0A059FF634E054633689F039CD4FDF752FF3C
S3150800C0B0401B6428F7D90320E7E75D4DB2F5A02FAA
S3150800C0C02B6807D143F480232B602B6843F4803315
S3150800C0D02B60E4E723F480332B602B6823F480235A
S3150800C0E02B60002ADBD1FDF735FF06462B6898033F
S3150800C0F07FF579AFFDF72EFF801B6428F6D9DAE7BE
S3150800C1004B4B9A6812F00C0F07D09A6802F00C0293
S3150800C110082A17D15B68590214D4454B1A68920746
S3150800C12002D5E268012AAFD11968236921F0F8011E
S3150800C130F82292FAA2F2B2FA82F293403C4A0B43F0
S3150800C140136054E7E2683C4B82B101221A60FDF79E
S3150800C15001FF374E054633689B0701D53168E4E78A
S3150800C160FDF7F8FE401B0228F5D9A4E71A60FDF78B
S3150800C170F1FE2F4E054633689F077FF538AFFDF76A
S3150800C180E9FE401B0228F6D995E762692A4B82B177
S3150800C1900122C3F8802EFDF7DDFE254E0546736F96
S3150800C1A098073FF528AFFDF7D5FE401B0228F6D9BC
S3150800C1B081E7C3F8802EFDF7CDFE1D4E0546736F49
S3150800C1C099077FF518AFFDF7C5FE401B0228F6D97B
S3150800C1D071E7FDF7BFFE801B02287FF623AF6AE7EB
S3150800C1E0052B04D12B6F43F004032B6723E72A6F33
S3150800C1F022F001022A672A6F22F004022A67002B1E
S3150800C2007FF41DAFFDF7A6FE41F2883706462B6F71
S3150800C21098077FF51EAFFDF79DFE801BB842F6D93D
S3150800C22049E7FDF797FE401BB8427FF60EAF42E797
S3150800C230003802400070004000004742304DAB68AD
S3150800C24003F00C03082B3FF41FAF2E4B022A4FF0C6
S3150800C25000021A6646D1FDF77DFE06462B6899014F
S3150800C2603AD4D4E9072147F6C0731143626A93FAB0
S3150800C270A3F3B3FA83F39A40A36A5B080A43013B24
S3150800C2804FF4403191FAA1F1B1FA81F18B40134391
S3150800C2904FF07061E26A91FAA1F1B1FA81F18A4030
S3150800C2A01A434FF0E041236B91FAA1F1B1FA81F1FB
S3150800C2B08B40134D13436B60124B01221A66FDF730
S3150800C2C049FE04462B689A013FF5C7AEFDF742FEC4
S3150800C2D0001B0228F6D9EEE6FDF73CFE801B022875
S3150800C2E0BCD9E8E6FDF736FE04462B689B017FF5C8
S3150800C2F0B4AEFDF72FFE001B0228F6D9DBE600BF19
S3150800C30000380240000047421C4A936803F00C03B9
S3150800C310082B30D15168536813F4800F01F03F01A0
S3150800C32047F6C0731BD05068184093FAA3F3B3FAC4
S3150800C33083F3D840124B5843B0FBF1F080000F4B03
S3150800C3405B684FF4403203F4403392FAA2F2B2FA31
S3150800C35082F2D34001335B00B0FBF3F07047094823
S3150800C360B0FBF1F15068184093FAA3F3B3FA83F3DC
S3150800C370D8404843E3E70348704700BF0038024007
S3150800C38000093D000024F400554B1A6802F00F021C
S3150800C3908A422DE9F04104460D462FD322689607B6
S3150800C3A036D4D0073CD44E4B1A6802F00F02AA4284
S3150800C3B000F286802268510700F18A80130707D5A4
S3150800C3C0484A2169936823F4604343EAC1039360AA
S3150800C3D0FFF79AFF434B9B68F02203F0F00392FAAB
S3150800C3E0A2F2B2FA82F2D3403F4AD35CD8403F4B1E
S3150800C3F018600F20FDF7ACFD002007E0CAB21A70DE
S3150800C4001B6803F00F038B42C8D00120BDE8F081FA
S3150800C4103449A0688B6823F0F00303438B60C0E7B8
S3150800C4206268304B012A1DD11B6813F4003FECD01B
S3150800C4302C4EB36823F003031343B360FDF78AFD5C
S3150800C4406368012B074641F2883815D1B36803F0B3
S3150800C4500C03042BA7D0FDF77DFDC01B4045F5D97D
S3150800C4600320D3E7911E01291B6802D813F0007F29
S3150800C470DDE713F0020FDAE7022B0AD1B36803F0FF
S3150800C4800C03082B8FD0FDF765FDC01B4045F5D979
S3150800C490E6E7032B0FD1B36803F00C030C2B82D00D
S3150800C4A0FDF758FDC01B4045F5D9D9E7FDF752FD04
S3150800C4B0C01B4045D4D8B36813F00C0FF6D172E709
S3150800C4C0EAB21A701B6803F00F03AB429DD171E7FD
S3150800C4D00449E0688B6823F4E05303438B606DE7F7
S3150800C4E0003C024000380240281D020800000020D7
S3150800C4F0014B1868704700BF00000020084B1868F9
S3150800C500084B9B684FF4E05203F4E05392FAA2F208
S3150800C510B2FA82F2D340044AD35CD840704700BFCF
S3150800C5200000002000380240381D0208084B186831
S3150800C530084B9B684FF4604203F4604392FAA2F2F8
S3150800C540B2FA82F2D340044AD35CD840704700BF9F
S3150800C5500000002000380240381D02080168074B19
S3150800C5600B445B0100225A611A62054B0B445B01BE
S3150800C5701A60202380F83A30704700BF0C0010C2BA
S3150800C580140010C22DE9F8430368C1681A69044605
S3150800C59022F440520A431A612569A268D968C0691B
S3150800C5A02A43656921F416412A4321F00C01024306
S3150800C5B00A43DA605A69A16922F440720A43B0F55F
S3150800C5C0004F5A618B4A40F08D8093420BD002F59A
S3150800C5D08062934207D002F58062934203D002F547
S3150800C5E08062934249D1FFF7A1FF63684FF01909AA
S3150800C5F04FF0640809FB00F05B00B0FBF3F3B3FBF4
S3150800C600F8F31F01FFF792FF656809FB00F06D005C
S3150800C610B0FBF5F5FFF78AFF666809FB00F07600C0
S3150800C620B0FBF6F6FFF782FFB6FBF8F608FB1656E0
S3150800C6306368F6003236B6FBF8F6760009FB00F0BA
S3150800C6405B0006F4F876B0FBF3F5FFF76FFF636857
S3150800C650226809FB00F05B00B0FBF3F3B3FBF8F3C9
S3150800C66008FB1353DB003233B3FBF8F303F007037D
S3150800C6703B4433449360BDE8F883FFF73FFF6368A4
S3150800C6804FF019094FF0640809FB00F05B00B0FB96
S3150800C690F3F3B3FBF8F31F01FFF730FF656809FBF7
S3150800C6A000F06D00B0FBF5F5FFF728FF666809FB9B
S3150800C6B000F07600B0FBF6F6FFF720FFB6FBF8F6BB
S3150800C6C008FB16566368F6003236B6FBF8F67600AF
S3150800C6D009FB00F05B0006F4F876B0FBF3F5FFF70C
S3150800C6E00DFFB4E793420AD0434A934207D002F5B6
S3150800C6F08062934203D002F58062934246D1FFF7E7
S3150800C70015FF63684FF019094FF0640809FB00F03C
S3150800C7109B00B0FBF3F3B3FBF8F31F01FFF706FF2B
S3150800C720656809FB00F0AD00B0FBF5F5FFF7FEFE06
S3150800C730636809FB00F09B00B0FBF3F3B3FBF8F367
S3150800C74008FB13531B013233B3FBF8F303F0F0066F
S3150800C750FFF7ECFE636809FB00F09B00B0FBF3F5FE
S3150800C760FFF7E4FE6368226809FB00F09B00B0FB54
S3150800C770F3F3B3FBF8F308FB13531B013233B3FB94
S3150800C780F8F303F00F0333433B4473E7FFF7B6FEB2
S3150800C79063684FF019094FF0640809FB00F09B0025
S3150800C7A0B0FBF3F3B3FBF8F31F01FFF7A7FE6568C9
S3150800C7B009FB00F0AD00B0FBF5F5FFF79FFE6368D7
S3150800C7C009FB00F09B00B0FBF3F3B3FBF8F308FB9F
S3150800C7D013531B013233B3FBF8F303F0F006FFF7EC
S3150800C7E08DFE636809FB00F09B00B0FBF3F5FFF7CD
S3150800C7F085FEB7E7001001400014014010B5044655
S3150800C80040B390F8393003F0FF021BB980F838209E
S3150800C81001F044FC2268242384F83930D36823F4D1
S3150800C8200053D3602046FFF7ADFE23681A6922F449
S3150800C83090421A615A6922F02A025A61DA6842F469
S3150800C8400052DA6000202023E06384F8393084F847
S3150800C8503A3010BD0120FCE770B50446134694F83B
S3150800C8603920202A2DD151B34BB394F83820012A08
S3150800C87027D0206BE38400252122E563012684F86E
S3150800C8803920114AA38484F838602162C2630F4AAA
S3150800C89002640F4AC0E91325226804320EF0A2FD8D
S3150800C8A023686FF0400243F8142B03F1424303F563
S3150800C8B080135B0184F838502846DE6170BD01207C
S3150800C8C0FCE70220FAE700BF71C90008ABC90008F7
S3150800C8D075CA000837B590F83A30202B04463BD184
S3150800C8E0002937D0002A35D090F83830012B33D0BC
S3150800C8F0012380F838300023C363816282852220B1
S3150800C90084F83A00606B154DC563154D0564154DE1
S3150800C910C0E91353256813460A46291D0EF062FD21
S3150800C9202268536913F4807305D101931368019340
S3150800C93053680193019B0C4B13445B0101210020B2
S3150800C94084F838001960094B13445B011960996132
S3150800C95003B030BD0120FBE70220F9E7B5C900089E
S3150800C96067CA000875CA00080D0010C2140010C274
S3150800C9700268126812F4807208B5836B0BD1DA84E8
S3150800C9801968074B0B445B01DA61064B0B445B01E4
S3150800C99001229A6108BD184610F094FDFAE700BF17
S3150800C9A0140010C20C0010C2704708B5806BFFF760
S3150800C9B0FBFF08BD08B50346806B1B681B6813F4AC
S3150800C9C080730DD10168084AC3850A445201136071
S3150800C9D0064A0A44520113609361202380F83A30CC
S3150800C9E010F078FD08BD00BF0D0010C2140010C27B
S3150800C9F090F83A30222B10B521D181680469026873
S3150800CA00836AB1F5805F1FD15268CCB9C2F30802B8
S3150800CA1023F8022B8362C38D013B9BB2C38573B98E
S3150800CA2001680E4A0A445201536113620C4A0A44C9
S3150800CA3052011360202380F83A3010F04BFD10BDE8
S3150800CA40D2B223F8012BE5E7591C526881620CB96A
S3150800CA501A70E0E702F07F02FAE700BF0C0010C286
S3150800CA60140010C2704708B5806BFFF7FBFF08BDBE
S3150800CA707047000008B5806B0268536990F8391052
S3150800CA8021290BD1190609D50D4B13445B01002149
S3150800CA90C184D9619961202380F83930536990F8A7
S3150800CAA03A20222A05D15B0603D50023C385FFF762
S3150800CAB055FDC36B43F01003C363FFF7D9FF08BDE9
S3150800CAC00C0010C202681368D16870B51E07556954
S3150800CAD0044607D19E065AD58D0658D5BDE870403E
S3150800CAE0FFF786BF05F0010001F4907505434ED0A7
S3150800CAF0DE0705D5CD0542BFE26B42F00102E263CF
S3150800CB005A0704D518B1E26B42F00202E2639E07A7
S3150800CB1004D518B1E26B42F00402E2631D0704D59E
S3150800CB2018B1E26B42F00802E263E26B52B3980670
S3150800CB3004D58A0602D52046FFF75AFF23685B69A3
S3150800CB40E56B03F0400305F008051D4320461AD09F
S3150800CB50FFF704FD226853695B0610D5284B606B06
S3150800CB6013445B0100229A6148B1264B03650EF017
S3150800CB70BBFC38B1606BBDE87040036D18472046B2
S3150800CB80FFF776FF70BDFFF773FFE563FAE71E064A
S3150800CB9026D50D0624D594F83930212BF2D1A16873
S3150800CBA0236AB1F5805F16D11988C1F3080151606F
S3150800CBB0216971B902332362E38C013B9BB2E3849A
S3150800CBC0002BDFD1104911444901CB6101238B6148
S3150800CBD0D8E70133EFE7591C21621B785360EBE76E
S3150800CBE05806CFD54B06CDD5074B13445B0100221B
S3150800CBF09A61202384F83930204610F063FCC1E797
S3150800CC00140010C20DCC00080C0010C208B5806BC9
S3150800CC100023C385C384FFF72BFF08BD38B5836897
S3150800CC2004460D469BB10A4804600220A07304F12D
S3150800CC300C0098470238012801D9832D05D12146D1
S3150800CC402046BDE8384000F00BB80123A37338BD71
S3150800CC50C01F0120837BDB0701D5FFF7DFBF7047C5
S3150800CC602DE9F8431C4F3D68044688462B46A342E7
S3150800CC7004D00BB9BDE8F8831B68F8E7002CF9D097
S3150800CC80164EA37BD6F8009063B10023A3738DB923
S3150800CC90A3683BB1444505D034602A46832104F194
S3150800CCA00C0098473B68A3420ED123683B60C6F840
S3150800CCB00090DFE7A54204D0224687212846FFF7E1
S3150800CCC0C9FF2D68E3E71346002BF0D01A68A24285
S3150800CCD0F9D122681A60EAE7C41F0120C01F0120A3
S3150800CCE038B5094B00221A70084B1C68012504B98F
S3150800CCF038BDE37B2BB1E581002282212046FFF770
S3150800CD008DFF2468F3E700BFBF1F0120C41F012061
S3150800CD10014B1968FFF7A4BFC01F0120064B8A22E2
S3150800CD201A70064A00231370054A1370054A1360E1
S3150800CD30054A1360704700BFBD1F0120BC1F0120B4
S3150800CD40BE1F0120C41F0120C01F0120F7B51C4EBD
S3150800CD5033780BB1FFF7C4FF1A4D2C7894B11A4FEC
S3150800CD601A493B780C225A438818895CD0E9012075
S3150800CD70013303F01F03013C3B702C70C0B9144B00
S3150800CD801C6824B933782878184403B0F0BD337882
S3150800CD902BB1CDE90012FFF7A3FFDDE9001220460B
S3150800CDA0CDE90012FFF756FFDDE900122468E8E72F
S3150800CDB0812904BF01238373FFF74CFFE2E700BF15
S3150800CDC0BF1F0120BE1F0120BC1F01203C1E0120E1
S3150800CDD0C41F0120F0B50B4D2C78202C0FD00A4B20
S3150800CDE00A4F1B7823440C2603F01F037343FE18CF
S3150800CDF00134F954C6E901202C700020F0BD012049
S3150800CE00FCE700BFBE1F0120BC1F01203C1E0120FD
S3150800CE1038B5034C2568FFF71DFF256038BD00BFF0
S3150800CE20C01F0120084B19680A4682420BD042B936
S3150800CE3048B1016018600123837382818121FFF75D
S3150800CE40E7BF1268F1E77047C41F012048B1837B2A
S3150800CE50013B012B05D80123024AC3731370FCF763
S3150800CE602DBA7047BF1F0120034B1B680BB1012069
S3150800CE7018470E20704700BF3C2001204FF6FF736D
S3150800CE80002908BF1846014B188070472200002069
S3150800CE9010B5054B027A41680446188808F0D6FD95
S3150800CEA02368BDE8104018474400002010B5054B1C
S3150800CEB0027A41680446188800F050FB2368BDE8EA
S3150800CEC0104018472200002001460429104610B5D4
S3150800CED01A4602D0072913D010BD0378F22BFBD1CE
S3150800CEE08378112B06D0122BF6D10A4B4FF6FF7218
S3150800CEF01A80F1E7032105F0BDFD064B1880EBE724
S3150800CF00054B1B68002BE7D00146BDE81040022000
S3150800CF10184700BF440000203C200120032938B5EB
S3150800CF201C460BD10648FBF7EBFC024685B21CB142
S3150800CF3003492046FBF740FC284638BD0025FBE799
S3150800CF400804002070B51378A03B1446072B23D895
S3150800CF50DFE803F012040B222222224920462E4A39
S3150800CF60BDE8704004210BF07CBC20462B4ABDE886
S3150800CF70704004210BF091BC294CA37B052B13D1DF
S3150800CF80284BA189284804F110020BF030FC84F8DC
S3150800CF90400010B90623A37370BDA08907F022FECE
S3150800CFA040F20943E381F7E7062B18D104F126027C
S3150800CFB0A1891D4801230BF023FCA28984F84000AF
S3150800CFC038B904F12603184920460BF0AFFB0723AE
S3150800CFD0E1E7104607F006FE40F20953E2E7072BA1
S3150800CFE0DAD10823D7E70221204605F043FD0C4B8A
S3150800CFF09B898342D0D10D4D2B68002BCCD00621BE
S3150800D000204605F037FD2B68024604F10801032087
S3150800D010BDE87040184700BFE01F0120F61F012039
S3150800D020D01F0120782C020845CF0008382001209F
S3150800D0300428F7B50146144640F0C48013783E2B01
S3150800D04013D0E22B59D0052B1DD11046032105F02C
S3150800D05011FD5D4A138883423FD14FF6FF73138053
S3150800D0605A4A13805A4A13800DE09378012B0AD145
S3150800D0709379012B17D1104605F0FCFC524B18800A
S3150800D080002007F08BFD534D53482C6002F050FDED
S3150800D09000232B60514B1B68002B00F0938003B0D4
S3150800D0A0BDE8F04018474E4DAB7B032BEBD110463D
S3150800D0B005F0E0FC4B4AA88101464B480BF048FBBB
S3150800D0C085F8400010B90523AB73DCE7A88907F09B
S3150800D0D089FD40F20933EB81D5E7414D032120460E
S3150800D0E005F0C8FCAB898342CDD128460BF02AFB54
S3150800D0F04FF6FF73AB810023E6E7394D9678D77A6A
S3150800D10069460622201D05F004FDAB7B012B25D1BF
S3150800D110002EB8D11F2FB6D1324904F1110003F001
S3150800D1208FFF0028AFD094F8262095F848309A4209
S3150800D130A9D105F1420606223146684614F0AEF832
S3150800D1400028A0D0BDF804300098C5F84200A5F81C
S3150800D1504630E37885F841300223B5E7022B92D1B1
S3150800D160042E90D105F14201684605F07BFC0028A3
S3150800D17089D1637B092B17D195F8493004F10E063E
S3150800D18043B11422314605F1490014F00BF908B1F0
S3150800D190012399E7154B314604F1220251F8040B95
S3150800D1A043F8040B9142F9D107F062FC95F8411057
S3150800D1B00F4807F067FC85F8400008B9032383E7A2
S3150800D1C0042381E703B0F0BD2000002022000020E0
S3150800D1D044000020CC1F01204C200120C81F01203C
S3150800D1E0D01F0120882C020845CF000819200120ED
S3150800D1F012200120294B10B54FF6FF72284C9A8150
S3150800D20005F0C0FB10F04CF805F026FC236898479B
S3150800D21007F0AAFF234906F0F3F86368984706F073
S3150800D2204FF9A368984706F057F91F481F4B436004
S3150800D23006F0D8F808F0B6F90BF056FB0DF040FBEF
S3150800D24003200DF01FFBE0680DF022FB20690DF0AE
S3150800D2502BFB02200DF008FC0BF042FA1449154886
S3150800D26000220AF0BDF808F0DBFA134808F02AFB9A
S3150800D270124808F02BFB124B8122B3F8803040F29B
S3150800D2809731012008F026FB0E480F4900F010F9E7
S3150800D290BDE810400D4808F087BB00BFD01F01202D
S3150800D2A0082602080C2302083020012031D0000885
S3150800D2B01DCF000824230208E8220208EE220208ED
S3150800D2C0007D000869CE00087DCE0008C9CE00089A
S3150800D2D007F08CBB08B507F0ADFC003818BF012075
S3150800D2E008BD000030B587B007220023019230211F
S3150800D2F004AA0293009208461A460493ADF814301D
S3150800D3000DF044FD1049114D182007F001FC104995
S3150800D310104B0846B3F880306B72FBF7F1FAC4B2CB
S3150800D3200246631C0A49EB7205F10D00FBF744FA45
S3150800D33004F10D002946C0B207F0FAFB012007B038
S3150800D340BDE8304007F02ABCF42202082400002079
S3150800D35008040020007D0008002007F01FBC00001C
S3150800D36038B90B4B18884FF6FF73C01A18BF01203F
S3150800D3707047012801D1074BF4E7022801D1064B73
S3150800D380F0E7032802D1054B9889ECE7002070479F
S3150800D390200000202200002044000020D01F012089
S3150800D3A0014B1860704700BFC81F012003460A4892
S3150800D3B083605B7A012B05D1084B4360084B1988BB
S3150800D3C000F0CAB8022B05D1064B4360064B1988F4
S3150800D3D008F03ABB704700BF40200120ADCE0008D8
S3150800D3E02200002091CE000844000020014B18605E
S3150800D3F0704700BF3C20012038B5104D049B2D888E
S3150800D4008D42044607D1BAB90D4A19461468BDF8C3
S3150800D4101420A04738BD0B4A12888A420AD1002137
S3150800D420184605F027FB084B1880084B01461B6871
S3150800D430204698470020EDE70B20EBE75C2001200B
S3150800D44054200120582001205A2001205020012074
S3150800D45010B51C46134B1B888B4208D12CB1124BB6
S3150800D46000211A88204605F018FB022010BD0F4B34
S3150800D4701B888B4213D184B1BDF80830092B0CD90F
S3150800D4800AF01BF84FF40071033801F029FC002359
S3150800D49081B20322204602F062F80A20E6E700205D
S3150800D4A0E4E700BF582001205A2001205E20012011
S3150800D4B007B51E4B18601E4B1E4819600023ADF8B1
S3150800D4C004300DF106024FF6FF7301A9ADF80630D8
S3150800D4D009F0ACF9BDF80610174ABDF8040009F0C2
S3150800D4E0E3F9164BBDF806101880134ABDF8040078
S3150800D4F009F002FA124B134ABDF806101880BDF857
S3150800D500040009F0D1F9104B18801048BDF8043012
