S00B00006173702E73726563D5
S3150800800038BB0020D98100082D8200082D8200087F
S315080080102D8200082D8200082D8200082D82000876
S315080080200000000000000000000000001D8300089A
S315080080302D820008000000006B8200086DB200085F
S315080080406DB200086DB200086DB200086DB2000886
S315080080506DB200086DB200086DB200086DB2000876
S315080080606DB200086DB200086DB200086DB2000866
S315080080706DB200086DB200086DB200086DB2000856
S315080080806DB200086DB200086DB200086DB2000846
S315080080906DB200086DB200086DB200086DB2000836
S315080080A06DB200086DB200086DB200086DB2000826
S315080080B06DB200086DB200086DB200086DB2000816
S315080080C06DB200086DB200086DB200086DB2000806
S315080080D06DB200086DB200086DB200086DB20008F6
S315080080E06DB200086DB200086DB200086DB20008E6
S315080080F06DB200086DB200086DB200086DB20008D6
S315080081006DB200086DB200086DB200086DB20008C5
S315080081106DB200086DB200086DB200086DB20008B5
S315080081206DB200086DB200086DB200086DB20008A5
S315080081306DB200086DB200086DB200086DB2000895
S315080081406DB200086DB200086DB200086DB2000885
S315080081506DB200086DB200086DB200086DB2000875
S315080081606DB200086DB200086DB200086DB2000865
S315080081706DB200086DB200086DB200086DB2000855
S315080081806DB200086DB200086DB200086DB2000845
S315080081906DB200086DB200086DB200086DB2000835
S315080081A06DB200086DB200086DB200086DB2000825
S315080081B06DB200086DB200086DB200086DB2000815
S315080081C06DB200086DB200086DB200086DB2000805
S315080081D06DB200086DB2000871B602F053FA0020BD
S315080081E00D490E4A914203D2086004319142FBD3ED
S315080081F00B490C4A914206D20B4B086818600431A9
S3150800820004339142F9D300F005F803F0D3F8FEE7FA
S31508008210704700BF7047000000100020307B012027
S31508008220607002089878020800000020EFF31181B8
S31508008230EFF3108251EA02211EF0040F05D0EFF386
S31508008240098020E9024002B501E002B56846744A91
S3150800825013680CB4EFF30583724951F8232090474D
S315080082600FBC016082F311881847102080F311882B
S315080082706D49086858B1EFF309821EF0100F01D155
S3150800828022ED108A22E9F00F8261C0F81CE06748E7
S3150800829000680860A0B1C16911F07F42B2F17F4F52
S315080082A01AD18269B2E8F00F11F0100F01D1B2ECC1
S315080082B0108A82F30988002071B680F3118808476E
S315080082C0EFF309805A495FF0807220E906001838F2
S315080082D080F30988DFF840F0426A4AB1554A5FF0F0
S315080082E080738069B0E8F00F20E90E00143807E0C3
S315080082F08069B0E8F00F5FF0807220E90600183850
S3150800830080F30988464801210160BFF34F8FDFF8E3
S3150800831008F0BDEC108A7047FDFFFFFF40480021BA
S315080083200160002080F31188A0692900B0E8F00FE9
S3150800833011F0100F01D1B0EC108A80F309880847B4
S315080083403D48016881F30888022080F31488BFF34A
S315080083506F8F3A49D1F814D034490968324A61B660
S315080083601BE0022383F31488BFF36F8F2F49096834
S315080083702D4A12E0EFF3148313F0040306D02DED13
S31508008380108A022383F31488BFF36F8F43622DE9A3
S31508008390F00FC0F81CE0C0F818D0116089B1CA699E
S315080083A012F07F40B0F17F4F02D10C00150000DFBC
S315080083B0D1F818D0BDE8F00F4B6A0BB1BDEC108AA6
S315080083C01047174800210160BFF34F8F002080F344
S315080083D01188BFF34F8F30BFFBE700BF104800215D
S315080083E00160BFF34F8F002080F311880E480168A3
S315080083F08A685068DFF848E0D2F808F0002181F36F
S315080084001488BFF36F8F03F001B800BFA0F15300C3
S31508008410002800DC7047A0F131000028FBDC70471B
S315080084207C1E012030340208901E0120941E012073
S31508008430C2830008128300082C370208AC370208EA
S31508008440BDB9000881F0004102E000BF83F0004397
S3150800845030B54FEA41044FEA430594EA050F08BFD1
S3150800846090EA020F1FBF54EA000C55EA020C7FEA95
S31508008470645C7FEA655C00F0E2804FEA5454D4EB12
S315080084805555B8BF6D420CDD2C4480EA020281EADC
S31508008490030382EA000083EA010180EA020281EA14
S315080084A00303362D88BF30BD11F0004F4FEA013166
S315080084B04FF4801C4CEA113102D0404261EB410175
S315080084C013F0004F4FEA03334CEA133302D05242FB
S315080084D063EB430394EA050F00F0A780A4F10104B7
S315080084E0D5F1200E0DDB02FA0EFC22FA05F28018F1
S315080084F041F1000103FA0EF2801843FA05F35941D7
S315080085000EE0A5F120050EF1200E012A03FA0EFC55
S3150800851028BF4CF0020C43FA05F3C01851EBE3717F
S3150800852001F0004507D54FF0000EDCF1000C7EEB9C
S3150800853000006EEB0101B1F5801F1BD3B1F5001FDA
S315080085400CD349085FEA30004FEA3C0C04F10104F9
S315080085504FEA445212F5800F80F09A80BCF1004F22
S3150800856008BF5FEA500C50F1000041EB045141EAA4
S31508008570050130BD5FEA4C0C404141EB0101013C6D
S3150800858028BFB1F5801FE9D291F0000F04BF01465C
S315080085900020B1FA81F308BF2033A3F10B03B3F12E
S315080085A020020CDA0C3208DD02F1140CC2F10C02BE
S315080085B001FA0CF021FA02F10CE002F11402D8BF1C
S315080085C0C2F1200C01FA02F120FA0CFCDCBF41EAE8
S315080085D00C019040E41AA2BF01EB0451294330BDB7
S315080085E06FEA04041F3C1CDA0C340EDC04F1140494
S315080085F0C4F1200220FA04F001FA02F340EA03006B
S3150800860021FA04F345EA030130BDC4F10C04C4F1B0
S31508008610200220FA02F001FA04F340EA0300294690
S3150800862030BD21FA04F0294630BD94F0000F83F4DA
S31508008630801306BF81F480110134013D4EE77FEABD
S31508008640645C18BF7FEA655C29D094EA050F08BF09
S3150800865090EA020F05D054EA000C04BF19461046EA
S3150800866030BD91EA030F1EBF0021002030BD5FEA2E
S31508008670545C05D14000494128BF41F0004130BD56
S3150800868014F580043CBF01F5801130BD01F00045AA
S3150800869045F0FE4141F470014FF0000030BD7FEA1D
S315080086A0645C1ABF194610467FEA655C1CBF0B4618
S315080086B0024650EA013406BF52EA033591EA030F2F
S315080086C041F4002130BD00BF90F0000F04BF002127
S315080086D0704730B54FF4806404F132044FF000055A
S315080086E04FF0000150E700BF90F0000F04BF0021D3
S315080086F0704730B54FF4806404F1320410F0004539
S3150800870048BF40424FF000013EE700BF42004FEA33
S31508008710E2014FEA31014FEA02701FBF12F07F43B0
S3150800872093F07F4F81F06051704732F07F4208BF67
S31508008730704793F07F4F04BF41F40021704730B56E
S315080087404FF4607401F0004521F000411CE700BFBA
S3150800875050EA010208BF704730B54FF000050AE03D
S3150800876050EA010208BF704730B511F0004502D53E
S31508008770404261EB41014FF4806404F132045FEA40
S31508008780915C3FF4D8AE4FF003025FEADC0C18BFE9
S3150800879003325FEADC0C18BF033202EBDC02C2F1DB
S315080087A0200300FA03FC20FA02F001FA03FE40EA6D
S315080087B00E0021FA02F11444BDE600BF70B54FF071
S315080087C0FF0C4CF4E06C1CEA11541DBF1CEA13554F
S315080087D094EA0C0F95EA0C0F00F0DEF82C4481EAB7
S315080087E0030621EA4C5123EA4C5350EA013518BFD7
S315080087F052EA033541F4801143F4801338D0A0FBC4
S3150800880002CE4FF00005E1FB02E506F00042E0FB70
S3150800881003E54FF00006E1FB03569CF0000F18BF76
S315080088204EF0010EA4F1FF04B6F5007F64F540741E
S3150800883004D25FEA4E0E6D4146EB060642EAC621B1
S3150800884041EA55514FEAC52040EA5E504FEACE2E1E
S31508008850B4F1FD0C88BFBCF5E06F1ED8BEF1004F21
S3150800886008BF5FEA500E50F1000041EB045170BD9D
S3150800887006F0004646EA010140EA020081EA0301E1
S31508008880B4EB5C04C2BFD4EB0C0541EA045170BDDD
S3150800889041F480114FF0000E013C00F3AB8014F157
S315080088A0360FDEBF002001F0004170BDC4F10004A0
S315080088B0203C35DA0C341BDC04F11404C4F1200521
S315080088C000FA05F320FA04F001FA05F240EA02007C
S315080088D001F0004221F0004110EBD37021FA04F6B2
S315080088E042EB06015EEA430E08BF20EAD37070BD6C
S315080088F0C4F10C04C4F1200500FA04F320FA05F0CB
S3150800890001FA04F240EA020001F0004110EBD370CC
S3150800891041F100015EEA430E08BF20EAD37070BD3C
S31508008920C4F1200500FA05F24EEA020E20FA04F315
S3150800893001FA05F243EA020321FA04F001F00041C4
S3150800894021FA04F220EA020000EBD3705EEA430E35
S3150800895008BF20EAD37070BD94F0000F0FD101F064
S315080089600046400041EB010111F4801F08BF013C9D
S31508008970F7D041EA060195F0000F18BF704703F0DB
S315080089800046520043EB030313F4801F08BF013D62
S31508008990F7D043EA0603704794EA0C0F0CEA13551E
S315080089A018BF95EA0C0F0CD050EA410618BF52EAD8
S315080089B04306D1D181EA030101F000414FF00000DE
S315080089C070BD50EA410606BF1046194652EA4306EC
S315080089D019D094EA0C0F02D150EA013613D195EA60
S315080089E00C0F05D152EA03361CBF104619460AD1A8
S315080089F081EA030101F0004141F0FE4141F47001B2
S31508008A004FF0000070BD41F0FE4141F4780170BDA1
S31508008A1070B54FF0FF0C4CF4E06C1CEA11541DBF06
S31508008A201CEA135594EA0C0F95EA0C0F00F0A7F808
S31508008A30A4EB050481EA030E52EA03354FEA013135
S31508008A4000F088804FEA03334FF0805545EA131348
S31508008A5043EA12634FEA022245EA111545EA106510
S31508008A604FEA00260EF000419D4208BF964244F1A7
S31508008A70FD0404F5407402D25B084FEA3202B61AC6
S31508008A8065EB03055B084FEA32024FF480104FF49A
S31508008A90002CB6EB020E75EB030E22BFB61A75460E
S31508008AA040EA0C005B084FEA3202B6EB020E75EBA1
S31508008AB0030E22BFB61A754640EA5C005B084FEA09
S31508008AC03202B6EB020E75EB030E22BFB61A7546D6
S31508008AD040EA9C005B084FEA3202B6EB020E75EBE1
S31508008AE0030E22BFB61A754640EADC0055EA060EA2
S31508008AF018D04FEA051545EA16754FEA06164FEAE5
S31508008B00C30343EA52734FEAC2025FEA1C1CC0D190
S31508008B1011F4801F0BD141EA00014FF000004FF01D
S31508008B20004CB6E711F4801F04BF01430020B4F1DE
S31508008B30FD0C88BFBCF5E06F3FF6AFAEB5EB030C96
S31508008B4004BFB6EB020C5FEA500C50F1000041EB93
S31508008B50045170BD0EF0004E4EEA113114EB5C0460
S31508008B60C2BFD4EB0C0541EA045170BD41F4801133
S31508008B704FF0000E013C90E645EA060E8DE60CEA3B
S31508008B80135594EA0C0F08BF95EA0C0F3FF43BAF58
S31508008B9094EA0C0F0AD150EA01347FF434AF95EA0F
S31508008BA00C0F7FF425AF104619462CE795EA0C0FF3
S31508008BB006D152EA03353FF4FDAE1046194622E7C0
S31508008BC050EA410618BF52EA43067FF4C5AE50EA9A
S31508008BD041047FF40DAF52EA43057FF4EBAE12E78A
S31508008BE04FF0FF3C06E000BF4FF0010C02E000BF6B
S31508008BF04FF0010C4DF804CD4FEA410C7FEA6C5C4E
S31508008C004FEA430C18BF7FEA6C5C1BD001B050EAF0
S31508008C10410C0CBF52EA430C91EA030F02BF90EADB
S31508008C20020F0020704710F1000F91EA030F58BF9A
S31508008C30994208BF90422CBFD8176FEAE37040F0FC
S31508008C40010070474FEA410C7FEA6C5C02D150EA9A
S31508008C50013C07D14FEA430C7FEA6C5CD6D152EA55
S31508008C60033CD3D05DF8040B704700BF844610461A
S31508008C7062468C461946634600E000BF01B5FFF719
S31508008C80B7FF002848BF10F1000F01BD4DF808EDE9
S31508008C90FFF7F4FF0CBF012000205DF808FB00BFBA
S31508008CA04DF808EDFFF7EAFF34BF012000205DF814
S31508008CB008FB00BF4DF808EDFFF7E0FF94BF012061
S31508008CC000205DF808FB00BF4DF808EDFFF7CEFF62
S31508008CD094BF012000205DF808FB00BF4DF808EDA1
S31508008CE0FFF7C4FF34BF012000205DF808FB00BF72
S31508008CF04FEA410C7FEA6C5C02D150EA013C0AD18A
S31508008D004FEA430C7FEA6C5C02D152EA033C02D17B
S31508008D104FF0000070474FF0010070474A0011D22B
S31508008D2012F5001211D20DD56FF47873B3EB6252B7
S31508008D300ED44FEAC12343F0004343EA505323FAC3
S31508008D4002F070474FF00000704750EA013002D138
S31508008D504FF0FF3070474FF0000070477BB972B98B
S31508008D600029BEBF00204FF0004106E008BF0028DA
S31508008D701CBF6FF000414FF0FF3000F0A7B9ADF10E
S31508008D80080C6DE904CE002909DB002B1ADB00F07C
S31508008D9035F8DDF804E0DDE9022304B07047404207
S31508008DA061EB4101002B1BDB00F028F8DDF804E03D
S31508008DB0DDE9022304B0404261EB4101524263EB14
S31508008DC043037047524263EB430300F017F8DDF89C
S31508008DD004E0DDE9022304B0404261EB410170473B
S31508008DE0524263EB430300F009F8DDF804E0DDE9DD
S31508008DF0022304B0524263EB430370472DE9F04760
S31508008E00089D04468E46002B4DD18A42944669D960
S31508008E10B2FA82F252B101FA02F3C2F1200120FA43
S31508008E2001F10CFA02FC41EA030E94404FEA1C4891
S31508008E30210CBEFBF8F61FFA8CF708FB16E341EA8D
S31508008E40034306FB07F199420AD91CEB030306F113
S31508008E50FF3080F01F81994240F21C81023E634434
S31508008E605B1AA4B2B3FBF8F008FB103344EA0344D8
S31508008E7000FB07F7A7420AD91CEB040400F1FF33ED
S31508008E8080F00A81A74240F207816444023840EA2A
S31508008E900640E41B00261DB1D4400023C5E9004363
S31508008EA03146BDE8F0878B4209D9002D00F0EF80E6
S31508008EB00026C5E9000130463146BDE8F087B3FA19
S31508008EC083F6002E4AD18B4202D3824200F2F98001
S31508008ED0841A61EB030301209E46002DE0D0C5E904
S31508008EE0004EDDE702B9FFDEB2FA82F2002A40F050
S31508008EF09280A1EB0C014FEA1C471FFA8CFE012653
S31508008F00200CB1FBF7F307FB131140EA01410EFBF6
S31508008F1003F0884208D91CEB010103F1FF3802D29D
S31508008F20884200F2CB804346091AA4B2B1FBF7F097
S31508008F3007FB101144EA01440EFB00FEA64508D9BA
S31508008F401CEB040400F1FF3102D2A64500F2BB80F7
S31508008F500846A4EB0E0440EA03409CE7C6F1200746
S31508008F60B34022FA07FC4CEA030C20FA07F401FA8C
S31508008F7006F31C43F9404FEA1C4900FA06F3B1FB15
S31508008F80F9F8200C1FFA8CFE09FB181140EA01417A
S31508008F9008FB0EF0884202FA06F20BD91CEB010117
S31508008FA008F1FF3A80F08880884240F28580A8F16F
S31508008FB002086144091AA4B2B1FBF9F009FB1011C1
S31508008FC044EA014100FB0EFE8E4508D91CEB01015F
S31508008FD000F1FF346CD28E456AD90238614440EA02
S31508008FE00840A0FB0294A1EB0E01A142C846A64682
S31508008FF056D353D05DB1B3EB080261EB0E0101FA0B
S3150800900007F722FA06F3F1401F43C5E90071002667
S315080090103146BDE8F087C2F12003D8400CFA02FCBD
S3150800902021FA03F3914001434FEA1C471FFA8CFECD
S31508009030B3FBF7F007FB10360B0C43EA064300FBBD
S315080090400EF69E4204FA02F408D91CEB030300F15B
S31508009050FF382FD29E422DD9023863449B1B89B212
S31508009060B3FBF7F607FB163341EA034106FB0EF39B
S315080090708B4208D91CEB010106F1FF3816D28B4248
S3150800908014D9023E6144C91A46EA004638E72E4614
S31508009090284605E70646E3E61846F8E64B45A9D20C
S315080090A0B9EB020864EB0C0E0138A3E74646EAE77B
S315080090B0204694E74046D1E7D0467BE7023B614429
S315080090C032E7304609E76444023842E7704700BF92
S315080090D0844641EA000313F003036DD1403A41D3B5
S315080090E051F8043B40F8043B51F8043B40F8043B74
S315080090F051F8043B40F8043B51F8043B40F8043B64
S3150800910051F8043B40F8043B51F8043B40F8043B53
S3150800911051F8043B40F8043B51F8043B40F8043B43
S3150800912051F8043B40F8043B51F8043B40F8043B33
S3150800913051F8043B40F8043B51F8043B40F8043B23
S3150800914051F8043B40F8043B51F8043B40F8043B13
S3150800915051F8043B40F8043B51F8043B40F8043B03
S31508009160403ABDD2303211D351F8043B40F8043BA3
S3150800917051F8043B40F8043B51F8043B40F8043BE3
S3150800918051F8043B40F8043B103AEDD20C3205D3B3
S3150800919051F8043B40F8043B043AF9D2043208D0AB
S315080091A0D2071CBF11F8013B00F8013B01D30B881D
S315080091B003806046704700BF082A13D38B078DD0FB
S315080091C010F003038AD0C3F10403D21ADB071CBFCD
S315080091D011F8013B00F8013B80D331F8023B20F837
S315080091E0023B7BE7043AD9D3013A11F8013B00F870
S315080091F0013BF9D20B7803704B7843708B788370F8
S3150800920060467047000000000000000000000000F3
S315080092100000000000000000000000000000000040
S315080092200000000000000000000000000000000030
S315080092300000000000000000000000000000000020
S3150800924090F800F06DE9024520F007016FF0000C78
S3150800925010F0070491F820F040F049804FF0000420
S315080092606FF00700D1E9002391F840F000F10800FB
S3150800927082FA4CF2A4FA8CF283FA4CF3A2FA8CF333
S315080092804BBBD1E9022382FA4CF200F10800A4FA9A
S315080092908CF283FA4CF3A2FA8CF3E3B9D1E90423EE
S315080092A082FA4CF200F10800A4FA8CF283FA4CF325
S315080092B0A2FA8CF37BB9D1E9062301F1200182FADF
S315080092C04CF200F10800A4FA8CF283FA4CF3A2FAE5
S315080092D08CF3002BC6D0002A04BF04301A4612BAF3
S315080092E0B2FA82F2FDE8024500EBD2007047D1E9F6
S315080092F0002304F00305C4F100004FEAC50514F085
S31508009300040F91F840F00CFA05F562EA05021CBF55
S3150800931063EA050362464FF00004A9E708B500F0C2
S3150800932075FB00F0B9FB00F0D9FB00F0C3FB00F0B9
S31508009330DFFB00F067FA322001F016FB4FF0FF3131
S3150800934040F2164001F060FB00F0BAFA4FF40070E4
S3150800935000F0D0FB0128F7D101F076FB022002F0DD
S315080093608DFC032002F08AFCBDE8084002F026BB0B
S3150800937008B500F053FA3221084600F065FB1420C0
S3150800938001F0F2FA4FF0FF3140F2051001F03CFB14
S31508009390BDE8084002F012BB704700BF2DE9F04F48
S315080093A0B0FBF1FC1D4601FB1C0385B0D35CDDF860
S315080093B038808DF8043001AFDDE90F96BE460124EA
S315080093C000E09C46814260460AD8BCFBF1F301FBEB
S315080093D013CC013412F80CC00EF801CF0B2CF0D1C7
S315080093E0B8F1000F2AD005B1013DB9F1000F01D03F
S315080093F02D20B047AC421BD2B9F1000F14BF4FF075
S31508009400300B4FF0200BA24658460AF1010AB04726
S31508009410AA45F9D3B8F1000F0AD1013C3C4420789B
S31508009420B047BC4204F1FF34F9D105B0BDE8F08F6E
S31508009430B9F1000FF1D12D20B047EEE7AC42DBD3EE
S31508009440EBE700BF2DE9F04F834682461BF8010B78
S3150800945085B0002859D0DFF88091DFF880815D4F0C
S315080094600E461446002507E0A047DA460BF1010B25
S315080094709AF80000002848D02528F5D1042DF3D8FD
S315080094809AF80120302A46D00AF1020A0020A2F1F1
S315080094903003092B4FF000030BD803EB830302EBD1
S315080094A043031AF8012BA2F130010929A3F130036D
S315080094B0F3D96C2A2CD002F0DF01542928D0782A57
S315080094C01DD8572A15D9583A202A18D8DFE802F0A5
S315080094D05617171717171717171717646B1717172E
S315080094E0171717171717171729171737174817179B
S315080094F02900002A6AD0252A01D11046A0470AF178
S31508009500010B9AF800000028B6D105B0BDE8F08F27
S315080095101AF8012BD3E79AF8022001200AF1030A68
S31508009520B5E7CDE901040022009256F82500424627
S315080095301021FFF733FF01350AF1010B98E756F8BA
S3150800954025B01BF8010B01350028D8D0A0479BF899
S3150800955000000BF1010B0028F8D10AF1010BD0E746
S31508009560CDE901040022009256F825003A460A2160
S31508009570FFF714FF01350AF1010B79E7CDE901047C
S315080095800022009256F825004A461021FFF706FFEA
S3150800959001350AF1010B6BE716F82500A0470135DE
S315080095A00AF1010B64E756F82520002ACDE90104E3
S315080095B0ABBF104650420022012200920A213A46C9
S315080095C0FFF7ECFE01350AF1010B9AE7D3460AF1DB
S315080095D0FF3A4DE7603002084C3002086C3002084A
S315080095E00268012A10B503460C4602D0022A0BD09F
S315080095F010BD80680A4603F10C01FFF723FF2346D6
S315080096000A20BDE8104018470A46024803F1080137
S31508009610F3E700BF1430020810B582B003460A46C5
S315080096200C460448019301A9FFF70CFF0A20A0473E
S3150800963002B010BD3430020830B5012303608160E2
S315080096400C789E4644B1BEF1050F05D8252C04D0EA
S3150800965011F8014F002CF6D130BD4B7801F1020C00
S31508009660A3F13001092905D81CF8013BA3F1300103
S315080096700929F9D96C2B5BD003F0DF0154291DD0D9
S31508009680002B00F0B480583BD9B2202900F2B580EF
S31508009690202B00F2B280DFE803F040B0B0B0B0B0E3
S315080096A0B0B0B0B0B04040B0B0B0B0B0B0B0B0B08C
S315080096B0B0B030B0B030B040B0B04000614611F83C
S315080096C0014B002C00F09780583CE5B2202D7FD83E
S315080096D0202C7DD8DFE804F01C7C7C7C7C7C7C7CA0
S315080096E07C7C7C227F7C7C7C7C7C7C7C7C7C7C7C03
S315080096F0127C7C127C1C7C7C1C0061460EF10203E9
S3150800970052F8044B40F823400EF1010E0C7899E705
S31508009710742B03D0542B64D08C46614652F8044B04
S315080097200EF102030EF1010E40F823400C7889E78A
S31508009730614611F8014B002C5DD0583CE3B2202B52
S3150800974046D8202C44D801A353F824F01D970008C6
S31508009750D1970008D1970008D1970008D19700083B
S31508009760D1970008D1970008D1970008D19700082B
S31508009770D1970008D19700081D9700081D97000883
S31508009780D1970008D1970008D1970008D19700080B
S31508009790D1970008D1970008D1970008D1970008FB
S315080097A0D1970008D1970008D1970008FD960008C0
S315080097B0D1970008D1970008FD960008D1970008B0
S315080097C01D970008D1970008D19700081D97000833
S315080097D09CF8014036E76C2BA0D0742B9ED0542BF6
S315080097E09CD1073222F0070252F8084B98E71CF87A
S315080097F0014C0CF1FF3C614624E79CF800406146A9
S3150800980020E700BF08B500F015F800F0DDF8024BB8
S3150800981001221A8008BD00BF00100020044B1B88D7
S3150800982023B1012B01D100F0DDB8704700F070B804
S31508009830001000201349144A14484FF0010C30B4A4
S31508009840A1F800C032211180114A1249124C134D59
S3150800985000231380124A03800B8013801148124993
S31508009860124A23800A2404800B80114C1380114865
S315080098701149124A2B802380038030BC0B80138049
S31508009880704700BF16100020021000201410002098
S31508009890041000200C100020081000200A100020D8
S315080098A010100020121000200E10002006100020B4
S315080098B0181000201C1000201E1000201A1000206E
S315080098C008B5102000F016F9012817D0402000F03E
S315080098D011F901280ED0202000F00CF9012800D03B
S315080098E008BD084A084B11881B88084A0B445B10B8
S315080098F0138008BD044800F0E7F8ECE7014800F0DB
S31508009900E3F8E3E71E1000201A1000200A100020D2
S3150800991070B5204C204D204600F0D6F81F4B218804
S315080099201C881F4B1F4A18881288641A1E491FFA7A
S3150800993084FC6044098880B2188011FB00F11B4B37
S31508009940288889B219801A4B1B88ACEB000013FBD8
S3150800995000F31848B0F800C0174812FB04F206884E
S31508009960164892B211440280154A9BB219441380D4
S31508009970144B89B2ACEB01001980614424B280B261
S3150800998089B21EB900F060F82C8070BD00F070F83E
S315080099902C8070BD08100020181000200A10002026
S315080099A01C10002012100020101000200C1000209F
S315080099B00E1000200210002016100020141000209F
S315080099C0041000200610002003480449044A002316
S315080099D003800B801380704724100020221000207B
S315080099E020100020064B1B8823B9064B1988084609
S315080099F000F02AB8044B1988084600F039B800BFA9
S31508009A0024100020201000202210002038B5452000
S31508009A1001F032F90A4D0B4C034642202B6001F047
S31508009A202BF90122034611462868236001F054F9F0
S31508009A3020680122BDE83840002101F04DB900BF79
S31508009A40281000202C10002010B5074A03460C46A3
S31508009A501068194601F060F9044B21461868BDE8FC
S31508009A60104001F059B900BF281000202C10002022
S31508009A7010B5074A03460C461068194601F06AF9FC
S31508009A80044B21461868BDE8104001F063B900BFD1
S31508009A90281000202C10002008B5412001F0ECF811
S31508009AA0034B012218600021BDE8084001F014B9F3
S31508009AB03010002008B5432001F088F8014B1860E3
S31508009AC008BD00BF34100020034B10B504461868C3
S31508009AD001F098F8208010BD3410002008B5442005
S31508009AE000F0C6FF014B186008BD00BF3810002003
S31508009AF0704700BF38B5064D0446284600F032FFC9
S31508009B002B8834EA03030CBF0120002038BD00BFB0
S31508009B103C10002010B50C4888B04FF4004101F005
S31508009B2023FA0A4A106008B108B010BD0849094B63
S31508009B300291C02202246946CDE90323009400F06D
S31508009B4035FB00F0C5FDFEE70020002000A0002040
S31508009B5080300208A43002080EB410B58BB00DAAE6
S31508009B60044652F8041B019202A8FFF765FD02A9F4
S31508009B70204600F01BFB0BB0BDE8104003B0704751
S31508009B8008B504490620FFF7E7FF05F039FA02F0A1
S31508009B9034FEFEE7B830020801F006BE012001F0E7
S31508009BA04DBE00BF10B582B00C461A460449009453
S31508009BB003460020FFF7D0FF00F08AFDFEE700BF4E
S31508009BC0D4300208704700BF704700BF704700BF17
S31508009BD0704700BF704700BF704700BF024B03497C
S31508009BE00022C3E90012704704A0002028310208A9
S31508009BF0704700BF10B4074B074C00223F201F21B7
S31508009C00C3E90042C3E90222C3E904205DF8044B14
S31508009C109961704738A2002038310208704700BFA2
S31508009C20704700BF704700BF704700BF704700BF4E
S31508009C30704700BF0849094B10B4002201F11C0403
S31508009C4001F13800C3E90A42C3E90012C3E9140264
S31508009C505DF8044B704700BF9431020854A60020F3
S31508009C6000F04ABC00F04ABC00F04ABC084600F0C6
S31508009C7049BC00BF084600F047BC00BF704700BF9C
S31508009C8000F056BC00F066BC00F066BC084600F062
S31508009C9065BC00BF084600F071BC00BF704700BF36
S31508009CA000F090BC00F090BC00F090BC084600F0B4
S31508009CB08FBC00BF084600F08DBC00BF704700BFD0
S31508009CC000F088BA014800F09DBB00BF8C3102083D
S31508009CD000F0E6BA00F0ACBA0A2970B50E4604469A
S31508009CE002D1C368DB062ED402F046F8002841DB11
S31508009CF0E36AD3B12268A36AD268D6542268A36AF3
S31508009D00E06A556801330130AB42A5EB0005A36252
S31508009D10B5FA85F504BF0023A362E0626D0902F077
S31508009D203FF8002826DB284670BD256B002DE1D1BB
S31508009D301348314600F030FB0028F0D110480121C5
S31508009D4000F03CFBD6E70D21FFF7C6FF051EEADB50
S31508009D50CAD00C4B586801F001FF051EC4DA05F19C
S31508009D603503DBB2042B05D8012202FA03F313F0FC
S31508009D70150FD8D10123A3606FF00405D3E700BF00
S31508009D808C3102080031020870B5044602F092F8D8
S31508009D90B0BB02F017F8002835DB65683DB16FF0F7
S31508009DA0280502F03BF800282DDB284670BD40F256
S31508009DB01153C4E90335C4E90555C4E90855C4E98E
S31508009DC00A552577256301F0D7FF002815DB1048CB
S31508009DD000F098FA0F4B186802F0F6F801260C48BE
S31508009DE0022100F0EBFAC4E9016501F0D9FF002869
S31508009DF0D7DAA6606FF00405D3E76FF00405D0E75D
S31508009E006FF01805D1E70123A3606FF00405CCE7CE
S31508009E108C310208203102082DE9F04106460D462C
S31508009E20174602F047F800283CD17368002B3FD04C
S31508009E30B068002839D1B7B1DFF87C800446012024
S31508009E4028B1D8F8040001F089FE00280DDB15F8C2
S31508009E50011B3046FFF740FF002815DB0134A742F7
S31508009E60EED1A8B12046BDE8F08100F13503DBB29A
S31508009E70042B05D8012202FA03F313F0150F03D1B8
S31508009E800123B3606FF00400002CEBD1BDE8F0812C
S31508009E90094B586801F0EEFD0028E3DA0123B360A8
S31508009EA02046E0E76FF01800DDE76FF00400DAE718
S31508009EB06FF02800D7E700BF0031020838B5017FE8
S31508009EC0044649B9056B0DB9C36A5BB9BDE83840A4
S31508009ED01448012100F084BA124800F05DFA002304
S31508009EE0237738BD0268436AD2680E48D15C00F011
S31508009EF053FA2368626A5968E36A01328A4218BFCC
S31508009F0015469942656202D0013BE36238BD064BAD
S31508009F10586801F0AFFD0028B7BF0122E36AE36A7B
S31508009F20A260F1E78C31020800310208F8B5044650
S31508009F30414800F039FAE368DD05C0B228D5132890
S31508009F405DD0226B3ABB112821D02368A1691A6813
S31508009F5091421CD09A686369D05422686369126872
S31508009F6001339342636104BF00236361A369002B35
S31508009F7048D0E26801335205A36108D5226A32B98E
S31508009F802268126802EB4202B3EB920F45D2F8BD83
S31508009F90226B002AD9D0112801D09905D5D5E36AB4
S31508009FA000252563002BF2D0234E244F0FE02368AB
S31508009FB0626A5968E36A01328A4214BF1046284623
S31508009FC09942606212D0013BE362002BDFD022681F
S31508009FD0636AD2683046D15C00F0DEF90028E6D123
S31508009FE0BDE8F8401448012100F0E8B9786801F0A6
S31508009FF041FD0028BCBF0123A360E36AE3E7012310
S3150800A0002363F8BD0D4B186801F034FD0028B7BF6F
S3150800A0100122A369A369A260ABE70748132100F0F0
S3150800A020BBF928B90448012100F0C8F9132323779E
S3150800A03001232362F8BD00BF8C31020800310208F3
S3150800A04043680BB1C36A0BB9184670470268436A7E
S3150800A050D268D35C0B700268436A52680133934234
S3150800A060C26A436204BF00234362013A0123C26203
S3150800A0701846704700F030B92DE9F04F0D4689B003
S3150800A080EFF3108772B6264C0126636986401E4296
S3150800A09023D0244AE368D2F800908E46D16803F1AB
S3150800A0A0010801EB431A204BD3F800B0BEE80F00B5
S3150800A0B0D446ACE80F009EE80F00C8458CE80F00B0
S3150800A0C028BF0023CAF804B0C4F80C8028BFE36090
S3150800A0D0636899450BD901336360A3691E420ED1A3
S3150800A0E0012F00D062B6002009B0BDE8F08FE36802
S3150800A0F0A360236901332361A3691E42F0D00A4B8A
S3150800A1002C461E680FCC6D460FC594E80F0085E8EF
S3150800A1100F00064901966846FFF762FAE0E700BFB6
S3150800A12038A2002038310208781E012075A00008E0
S3150800A130F0B583B0EFF3108272B6012A29D0194C14
S3150800A1406568002605B3184AA168D36803EB411E63
S3150800A150136801934F1C8446BEE80F00ACE80F0055
S3150800A1609EE80F008CE80F00019B20699F4228BFDC
S3150800A170002305F1FF35C4E9015728BFA360002372
S3150800A18023611EB103B0F0BD6FF0280062B603B0BC
S3150800A190F0BD044C65681646002DD4D16FF0280032
S3150800A1A0F0E700BF38A2002038310208FFF764BF85
S3150800A1B000B583B0034601220DF1070103488DF867
S3150800A1C00730FFF729FE03B05DF804FB04A0002062
S3150800A1D000F082B830B51248124D134C89B0FFF71B
S3150800A1E0D3FD124B02930122694605200092FFF720
S3150800A1F0DDFF6846FFF79CFF002809DB0CD12146E6
S3150800A2006846FFF7EDF96846FFF792FF0028F5DA8A
S3150800A210286801F07BFBECE72146FFF7FDF9EEE73E
S3150800A22004A0002048310208B1A100083C32020807
S3150800A230F0B5184D8BB003E09DF8070000F04CF818
S3150800A2400DF107012846FFF7FBFE04460028F3D167
S3150800A25002A8FFF76DFF051E0F4E104F0CDB6CB101
S3150800A2609DB9314602A8FFF7BBF902A8FFF760FFC0
S3150800A270051E4FF00104F2DA0BB0F0BD2146324656
S3150800A2803846FFF7DFF8002DEBD031462846FFF7B2
S3150800A290C3F9E6E704A00020D1A100085C32020851
S3150800A2A010B50B4B0B4988B0D3E900230291012462
S3150800A2B003200721CDE903010094694600240520FF
S3150800A2C0CDE905420793FFF771FF08B010BD00BF3F
S3150800A2D084310208783202080A2838B5044607D0BD
S3150800A2E0074D2146284600F057F80028F9D038BD12
S3150800A2F0034D0D21284600F04FF80028F9D0EFE766
S3150800A3008C31020810B5044620482368D96821F420
S3150800A3100051D96023F44061002281421A61DA6053
S3150800A3205A612FD002F024FE02466168184BA3FB3F
S3150800A33002021848A3FB01314FF47A7C52094909F5
S3150800A3400CFB02F20901B2FBF1F32268A0FB034100
S3150800A35089090CFB11331B0103F5FA73A0FB0303F0
S3150800A360C3F3831343EA01139360D36843F00C03E2
S3150800A370D360536943F001035361D36843F4005330
S3150800A380D36010BD02F00CFE0246CEE70010014075
S3150800A3901F85EB51D34D62100368186810F08000D2
S3150800A3A01CBF59600120704703681A68920646BFA9
S3150800A3B05868C0B24FF0FF30704700BF012908D077
S3150800A3C0022905D10268D36843F02003D360704799
S3150800A3D070470268D36843F08003D360704700BFB4
S3150800A3E0012908D0022905D10268D36823F0200381
S3150800A3F0D360704770470268D36823F08003D36040
S3150800A400704700BF03681A68910606D41B681B06C6
S3150800A41000D470470848FFF751BD10B504460648F2
S3150800A420FFF784FD23681B681A0600D410BDBDE833
S3150800A43010400148FFF742BD04A00020406A70475B
S3150800A44038B5456A0446B5B10268C3699269D35CF2
S3150800A4500B700168C3690A6901339342C36104BF7B
S3150800A4600023C361436A9A420DD0013B636201250A
S3150800A4700BB1284638BD23681868036801211B6993
S3150800A4809847284638BD4B68186801F0F3FA002843
S3150800A49001DB636AE9E70123A3606FF00405E8E7D7
S3150800A4A0036810B5DA680446806990421CD05A6978
S3150800A4B06369D15422686369D16801338B42636149
S3150800A4C004BF00236361A3691BB10133A3610120A3
S3150800A4D010BD9368186801F0CDFA002806DBA36959
S3150800A4E00133A3610120F3E7002010BD0123A36017
S3150800A4F06FF0040010BD00BF704700BF704700BF73
S3150800A500704700BF704700BF704700BF0148FFF79C
S3150800A51095BF00BF54A6002001460148FFF790BF2B
S3150800A52054A6002001460148FFF7BABF54A60020EA
S3150800A53010B500F08BFA064C01E001F0E7F90220AD
S3150800A54003F048FC03462046002BF6D010BD00BF9A
S3150800A55040420F00704700BF07F038BD012806D0FB
S3150800A560022803D1034B01221A6070477047024B39
S3150800A57018607047E4AA0020E8AA0020012806D03F
S3150800A580022803D1044B00221A6070477047034B18
S3150800A59000221A60704700BFE4AA0020E8AA00203B
S3150800A5A00148FFF74BBF00BF7CA6002001460148C3
S3150800A5B0FFF746BF7CA6002001460148FFF770BF9B
S3150800A5C07CA60020704700BF704700BF704700BFD9
S3150800A5D0704700BF704700BF08B5FFF7F3FAFFF7EB
S3150800A5E0F3FAFFF7F3FAFFF7F3FAFFF7F3FAFFF7D1
S3150800A5F0F3FAFFF7F3FAFFF7FBFAFFF7FBFAFFF7B1
S3150800A6000DFBFFF70DFBFFF70DFBFFF70DFBFFF744
S3150800A6100DFBFFF70DFBFFF70DFBFFF72FFBFFF712
S3150800A6203DFBBDE80840FFF749BB00BF01F056B83F
S3150800A6300148FFF747BB00BF2431020801F04EB8B6
S3150800A64008B500F0F9FE01F0FDF901F0E1FA01F0B4
S3150800A65045FCBDE8084001F019BD00BF0EB400B5C1
S3150800A6608AB00BAA02A852F8041B0192FEF7E4FF6F
S3150800A67002A90020FFF79AFD0AB05DF804EB03B0C3
S3150800A680704700BF08B500F0E3F8024A024B1268AB
S3150800A6901A6008BD283702080000002070B520F0AF
S3150800A6A01F040A4E84B004F58075D4E90032A06808
S3150800A6B0E16802911034CDE9002031462246002097
S3150800A6C0FFF7CCFFA542F0D104B070BD543802089C
S3150800A6D038B512490020FFF7C1FF11490020FFF7DE
S3150800A6E0BDFFEFF30885EFF309846A460D4900209C
S3150800A6F0FFF7B4FF0C492A460020FFF7AFFF2846AC
S3150800A700FFF7CCFF094922460020FFF7A7FF20469E
S3150800A710FFF7C4FF00F036FDFEE700BF70380208F9
S3150800A72080380208943802089C380208A8380208BB
S3150800A73008B503490020FFF791FF00F023FDFEE767
S3150800A740B438020800B5002083B000F08BF8002466
S3150800A7500194019BB3F5801F06DA019B013301932F
S3150800A760019BB3F5801FF8DB002000F0A3F8EFE7A4
S3150800A77030B589B000F08EFC284B1A6842F4007296
S3150800A7801A601A6842F480621A601A6842F4807283
S3150800A79000241A6000F096F8204600F063F8204B73
S3150800A7A001941A6B1F4842F008021A631A6B02F0EA
S3150800A7B008020192019A02945A6C42F040025A64C5
S3150800A7C05B6C03F04003022102934FF400430491AB
S3150800A7D006910B2503A90393029B0795012305936D
S3150800A7E002F038F84FF480430E48039303A90795FF
S3150800A7F002F030F80C480D4904614FF4E1320C239D
S3150800A800C0E90012C0E90244C0E90534C46102F097
S3150800A8102FFD08B909B030BDFFF794FF003C024090
S3150800A82000380240000C0240B41C01200018014008
S3150800A83000207047034A044B1068A3FB00308009C8
S3150800A840704700BF241F0120D34D6210704700BF18
S3150800A850034AD2F8883043F47003C2F88830704748
S3150800A86000ED00E070B5044686B050B90F4B009075
S3150800A8701A6B42F001021A631B6B03F00103009383
S3150800A880009B0B4E012356F824002025022201A91D
S3150800A890CDE90332CDE9015301F0DCFF56F8240077
S3150800A8A00022294602F0BEF806B070BD0038024004
S3150800A8B004000020024B202153F8200002F0B7B80C
S3150800A8C00400002030B595B00023244A0093116C8B
S3150800A8D0234841F080511164126C02F080520092B4
S3150800A8E0009A0193026822F4404242F40042026050
S3150800A8F0026802F440420221012401924FF48000CA
S3150800A9004FF48032CDE90742CDE90933CDE90C3160
S3150800A910082460220E90042307A8CDE90F42CDE94A
S3150800A9201113019D139102F093F880B902200F24A8
S3150800A9300023CDE902404FF48052052102A8CDE953
S3150800A9400432069302F05AFA20B915B030BDFFF763
S3150800A950F9FEEBE7FFF7F6FE15B030BD003802400A
S3150800A9600070004003F03DBB214A1178814236D081
S3150800A97008B51070FDF7B8FE1E4B0022FEF748F822
S3150800A9809FED170B41EC110B17F08AFA1A4B51EC95
S3150800A990100B0022FDF75AFD184B0022FEF738F877
S3150800A9A011A3D3E90023FDF709FFFEF7B7F982B231
S3150800A9B0134BC2F5FF417F3189B203F1800023F8BA
S3150800A9C0021F8342FBD10F4B02F5FF427F3292B240
S3150800A9D003F1800123F8022F8B42FBD108BD704793
S3150800A9E0000000000000244000000000C0FFDF4017
S3150800A9F0F81D0120000059400000F03F00002240E9
S3150800AA00F61C0120761D012045F6C052904228BF4B
S3150800AA1010464028024638BF402210B509480C4661
S3150800AA209201802103F078FE002C09DB4FF47A703E
S3150800AA3004FB00F000F06AFFBDE8104003F090BE8A
S3150800AA4010BD00BFF81C012003F08ABE08B501F04E
S3150800AA5093F9054B054801221A7002F031FF01F0FF
S3150800AA609FF9002008BD00BFF91D0120B400002091
S3150800AA703E2101F075BB00BF0EB400B58AB00BAA23
S3150800AA8002A852F8041B0192FEF7D6FD02A903207C
S3150800AA90FFF78CFB0AB05DF804EB03B0704700BF04
S3150800AAA010B50388B3F5806F18BFC3F387024388D0
S3150800AAB082B008BFFF22B3F5806F8DF8042018BF57
S3150800AAC0C3F38702838808BFFF220C46B3F5806F5D
S3150800AAD014BFC3F38703FF2301A88DF805208DF85B
S3150800AAE0063004F013FBE078032820D9A378032B5B
S3150800AAF021D9B4F800C0BCF1270F25D9214AC3F1E2
S3150800AB00C80103FB01F182FB0123CA17C2EB6312DA
S3150800AB10D2B2C0F1C8031B49A27000FB03F381FB44
S3150800AB200301DB17C3EB6113E37002B010BD00220B
S3150800AB3000212180EDE7C3F1C80203FB02F264237A
S3150800AB40B2FBF3F2D2B2F3E7ACF11402142112020B
S3150800AB5092FBF1F2D2B24FF0640E02FB02F20EFB48
S3150800AB6002F10914C1F1C801C3F1C8020CFB01F1D5
S3150800AB7003FB02F2B1FBFEF192FBFEF289B2D2B2FE
S3150800AB80D7E700BF1F85EB5130B587B00D4602AA3F
S3150800AB90052101F003FB044678B9DDE90202049BAE
S3150800ABA0ADF8000029466846ADF80220ADF8043035
S3150800ABB0FFF776FF204607B030BD03490320FFF7AD
S3150800ABC05BFF204607B030BDDC38020870B53D2172
S3150800ABD082B001F0C5FA094C094D01A90646FFF7EE
S3150800ABE0D3FF062344F8043B0FCD0FC495E80300B2
S3150800ABF084E80300304602B070BD00BFFC1D01208A
S3150800AC000800002000B585B06A46052101F0C6FA9D
S3150800AC1098B9DDE90023029913440B446422A0F194
S3150800AC20553002FB03F300F1004080FB0320DB17DD
S3150800AC30C3EB602005B05DF804FB04490320FFF769
S3150800AC401BFF002005B05DF804FB00BF0C390208A5
S3150800AC500EB400B58AB00CAA02A806490192FEF7FE
S3150800AC60EBFC02A90320FFF7A1FA0AB05DF804EB92
S3150800AC7003B0704734390208F0B585B000240121C5
S3150800AC800646039401F0EEFA70B9104F0A2503A997
S3150800AC90304605F073FA0446082C384610D100F001
S3150800ACA035FE013DF3D1204604F0E4FD084A009044
S3150800ACB0084933460320FFF7CBFF002005B0F0BD57
S3150800ACC0002CF0D1039805B0F0BD00BF40420F003C
S3150800ACD0503902083439020830B5134685B04FF4A6
S3150800ACE07A72054605F076FA044610B9204605B08C
S3150800ACF030BD2B681B78039304F0BCFD044A009012
S3150800AD000449039B0320FFF7A3FF204605B030BD87
S3150800AD10683902083439020830B5054685B0006836
S3150800AD2001F0CAF9044610B9204605B030BD2B68B3
S3150800AD301B78039304F09EFD044A00900449039B84
S3150800AD400320FFF785FF204605B030BD7C39020891
S3150800AD503439020830B585B0054601F0ABF904462A
S3150800AD6010B9204605B030BD2B681B78039304F054
S3150800AD7081FD054A00900549039B0320FFF768FFFC
S3150800AD80204605B030BD00BF9439020834390208A0
S3150800AD9030B54B6823F003037F2B89B035D89B1059
S3150800ADA0002203EB421C00EB8C0CDCF87440002CF0
S3150800ADB03CD0C1E90240E16001F10B0424F0030430
S3150800ADC001F1080EA6450FD02048214B02904FF4FA
S3150800ADD01C72022469460020CDE903230094FFF77C
S3150800ADE0E5F9FFF775FCFEE7CCF87410012101FAC6
S3150800ADF002F401FA03F3016900EB820221430161BF
S3150800AE0051690B43536109B030BDB3FA83F2C2F1FD
S3150800AE101A04E34083F02003C2F1190203EB421C33
S3150800AE2000EB8C0CDCF87440002CC2D10749094BA6
S3150800AE30029140F26A22022569462046CDE903239B
S3150800AE400095FFF7B3F9FFF743FCFEE7AC390208B4
S3150800AE50103A0208E03902080EB400B58AB00BAA07
S3150800AE6002A852F8041B0192FEF7E6FB02A900208D
S3150800AE70FFF79CF90AB05DF804EB03B0704700BF12
S3150800AE8030B511F0030589B035D1083A22F003032D
S3150800AE901C4A0C46A3F10C01914223D8254643F0DF
S3150800AEA0010355F804296B602946FFF771FF6B68A3
S3150800AEB033F0030007D0231D0344022243E901525D
S3150800AEC0204609B030BD1049104B029140F2C3121A
S3150800AED002246946CDE903230094FFF767F9FFF7D3
S3150800AEE0F7FBFEE728460A4B0A491422FFF7B4FF88
S3150800AEF0284609B030BD002007490422FFF7ACFFF9
S3150800AF000020DEE7F4FFFF3FAC390208AC3A02083E
S3150800AF1008000040F83A0208C43A020810F0030193
S3150800AF2010B516D104460161C0E90200602214304A
S3150800AF3017F0CCFF04F1F00204F54F61A2F180038B
S3150800AF4043F8044F9342FBD180328A42F6D1204619
S3150800AF5010BD0449042200200024FFF77DFF204687
S3150800AF6010BD00BF383B020870B50E460546FFF710
S3150800AF70D5FFA6F67442044605F67441FFF780FF2E
S3150800AF80204670BD4FF0E02307491A69074822F0AA
S3150800AF9001021A61596199611A69002142F0050294
S3150800AFA01A610160704700BFFF760100781E012014
S3150800AFB04FF0E02300221A61704700BF034A136866
S3150800AFC003F57A73136000F0E3BA00BF781E012018
S3150800AFD00EB400B58AB00BAA02A852F8041B019257
S3150800AFE0FEF72AFB02A90020FFF7E0F80AB05DF891
S3150800AFF004EB03B0704700BF031F0B2B11D80E4B91
S3150800B000820853F822301A6800F00300C0004FF097
S3150800B010FF0C0CFA00FC22EA0C028140114319606D
S3150800B0207047A0F11003652BFAD823F0030303F148
S3150800B030604303F56443E6E7103D02080438032835
S3150800B0400BD8DFE800F01D140B024FF0E022D2F80F
S3150800B050243D43F40023C2F8243D70474FF0E02214
S3150800B060D2F8243D43F48023C2F8243D70474FF0BC
S3150800B070E022D2F8243D43F40033C2F8243D704759
S3150800B0804FF0E022D2F8243D43F48033C2F8243D41
S3150800B090704700BF10B4102383F311883348344A2D
S3150800B0A00023012103601160BFF34F8F4FF0E022A8
S3150800B0B03049C2F8081DD2F8181D2F4821F0FF01A3
S3150800B0C0C2F8181DD2F8181D006821F47F41C2F88D
S3150800B0D0181DD2F8181D21F47F01C2F8181DD2F8E0
S3150800B0E01C1D21F07F41C2F81C1DD2F8201D21F03D
S3150800B0F0FF01C2F8201DD2F8201D21F47F0141F47A
S3150800B1007001C2F8201DD2F8241D41F48031C2F81E
S3150800B110241DD2F8241D41F40031C2F8241DD2F8AA
S3150800B120241D41F48021C2F8241DD2F8141D21F4EF
S3150800B1300071C2F8141DD2F8881D4FF0404441F43E
S3150800B1407001C2F8881DC2F8344F60B100EB800068
S3150800B1500A4A0B4C4000116944F823100A3383420B
S3150800B16002F11802F7D15DF8044B7047801E0120E2
S3150800B1707C1E0120008000082C380208AC37020823
S3150800B180E81B012082B0044B0193019B13B1019B7C
S3150800B19002B0184702B070474DA8000870B5A0F174
S3150800B1A00F0CBCF1660F88B02ED80C4602F11001C0
S3150800B1B00F2919D80F283DD05342DBB2A0F1100150
S3150800B1C0C3F110034FEA511C01F01F0201261901B1
S3150800B1D0224B964043F82C604FEA8C05FFF70CFF8C
S3150800B1E0E30721D408B070BD1D481E4B02904FF4EA
S3150800B1F09272022469460020CDE903230094FEF7E3
S3150800B200D5FFFFF765FAFEE71548174B029040F29F
S3150800B2102312022469460020CDE903230094FEF791
S3150800B220C5FFFFF755FAFEE705F1604505F56145E7
S3150800B2302E60D7E74FF0E02553422A69DBB222F0A9
S3150800B2400202C3F110032A611901FFF7D5FEE207CE
S3150800B250C8D52B6943F002032B61C3E780E100E000
S3150800B2606C3B0208CC3B0208B03B020810B5EFF372
S3150800B2701184EFF30582054B53F822309847044BA7
S3150800B28000221A6084F3118810BD00BF303402080A
S3150800B2907C1E0120F0B587B0036A0768466A0593E5
S3150800B2A00446EFF305852C49C5F308050020FFF78A
S3150800B2B08FFECDE900672949059B02942A4600209E
S3150800B2C0FFF786FE032D38D0042D28D0052D11D082
S3150800B2D0062D0AD122490020FFF77AFE214B224982
S3150800B2E09A6A0020120CFFF773FE07B0BDE8F0401B
S3150800B2F0FFF7EEB91B4C1D490020FFF769FEA26A4D
S3150800B3001949C2F307220020FFF762FEA36A1B044D
S3150800B310EBD5A26B16490020FFF75AFEE5E715495B
S3150800B3200020FFF755FE144A14490020FFF750FE87
S3150800B33007B0BDE8F040FFF7CBB911490020FFF789
S3150800B34047FE084B0F49DA6A0020FFF741FE07B0AF
S3150800B350BDE8F040FFF7BCB9043C0208243C0208EB
S3150800B360D03C020800ED00E0B03C0208A43C02080C
S3150800B370C03C0208883C020850ED00E0943C0208F4
S3150800B380683C0208783C020810B5EFF305840749C3
S3150800B3900020FFF71DFEC4F3080205490020FFF749
S3150800B3A017FEBDE81040FFF793B900BFE03C02085E
S3150800B3B0003D0208F8B5FFF70FF9FFF7D9F900F0D5
S3150800B3C0BBF8FFF73DF90C4B1D6855B10B4E002431
S3150800B3D0371F57F8343056F8340001349847AC42D2
S3150800B3E0F7D1074A074B12681A6000F0CFF8064BE8
S3150800B3F001221A60FCF7A4FF383802080C36020846
S3150800B400781E0120241F0120841E0120F8B5084B50
S3150800B4101D6855B1074E0024371F57F8343056F8C3
S3150800B420340001349847AC42F7D1FFF781F900BFE1
S3150800B4303C380208A03702082DE9F047234D244C72
S3150800B44024482549254B00222A60226001220260F1
S3150800B4500A6003F18002C3E9003308339342FAD144
S3150800B4601F4A204B15684FF0000AA3F800A05DB3E9
S3150800B4701D4CDFF87C801D4F564601E0AA4523D0B7
S3150800B48054F8043B013B03EB830908EBC90903EBBA
S3150800B490430399F80F2007EBC3036FF30002C9F8BB
S3150800B4A00830484689F80F2000F024F8D9F8083003
S3150800B4B0C9F814601B68DB070AF1010ADED548469D
S3150800B4C000F026F8AA45DBD1BDE8F087901E0120DA
S3150800B4D0941E01208C1E0120881E01209C1E01201E
S3150800B4E02C380208981E012040380208AC3702089A
S3150800B4F0C81B0120C37B82680021017323F01E0349
S3150800B500127B427343F008038273C373704700BF0C
S3150800B51082685269203A10B40021054C82610122E2
S3150800B520C46141625DF8044B027300F0F7BE00BFC8
S3150800B530DD830008000000009FED0B7B0C4B0D49D6
S3150800B5400D4A0E4810B483ED007B0D4C00230B60AA
S3150800B5500C4923600C4C04600B605DF8044B1260C8
S3150800B560704700BFAFF30080000000000000000035
S3150800B570301F0120201F0120901C01201C1F0120C4
S3150800B580281F01202C1F0120003E14F4704700BF1D
S3150800B5902DE9F04F8BB0EFF3148515F002030193F4
S3150800B5A00FD04448444B049040F25122022402A989
S3150800B5B00020CDE905230294FEF7F8FDFFF788F889
S3150800B5C0FEE7DFF80C81D8F80030002B58D1EFF3EE
S3150800B5D01182102383F31288384901230A60C8F8B8
S3150800B5E00030BFF34F8FDFF8ECA0DFF8EC90344F54
S3150800B5F0344ECAF8003009F1040401F03BF8D9F8D2
S3150800B6000000A0422AD3002208E0DBE9023098476E
S3150800B610D9F80000A0424FF00102EED3D9F804B0E1
S3150800B6203B68DBF800103568C91AEB1A9942A0F195
S3150800B630040C11D8019BC9F800C00133A445019335
S3150800B640E3D303682046196800F0DCFFD9F8003018
S3150800B6505B6803605860D8E7002ACED1019BFBB12E
S3150800B660FFF794FF0023CAF80030C8F80030BFF38C
S3150800B6704F8F124B1B6883F311880BB0BDE8F08F10
S3150800B6800C49114B049140F25222022402A9019856
S3150800B6900294CDE90523FEF789FDFFF719F8FEE7C1
S3150800B6A00A4B0493012202A905200292FEF77EFDA9
S3150800B6B0D6E700BF203D0208503D0208801E012043
S3150800B6C01C1F0120201F0120603D0208703D020852
S3150800B6D07C1E0120281F0120901C012070B52C4CCF
S3150800B6E02568002D50D1002826D042DD294B1B683D
S3150800B6F083423EDB284B013800EB800003EBC00099
S3150800B700EFF31183102282F31288244E336001234B
S3150800B7102360BFF34F8F037BE3B183681B689907E8
S3150800B72011D56FF02A0500232360BFF34F8F3368C6
S3150800B73083F31188284670BDEFF314839A0718D54A
S3150800B740174B1868DCE7C37BDA07EAD443F0010332
S3150800B750C373E8E7FFF7DCFE114A124B1068196855
S3150800B7608842E0D0EFF314839B0706D5FCF702FE68
S3150800B770D9E76FF01105284670BD4FF0E0234FF06A
S3150800B7808052C3F8042DCEE76FF01805D2E700BF44
S3150800B7907C1E01202C380208C81B0120801E0120AF
S3150800B7A0901E0120941E012070B582B0EFF3148319
S3150800B7B0980719D51C4D2C68B4B91C4B1B689BB14E
S3150800B7C0102383F311881A4A012314602B60BFF3F0
S3150800B7D04F8F184E3068C37B59070AD49A0713D57A
S3150800B7E064F34103C37306E06FF01804204602B001
S3150800B7F070BD6FF0340400232B60BFF34F8F83F3C3
S3150800B8001188204602B070BD0423037300F0AEFD14
S3150800B8103068019401AB0361074B32461968FCF79F
S3150800B820A9FD019CE7E700BF7C1E0120881E0120B8
S3150800B830801E0120901E0120941E012070B52D4CFB
S3150800B8402568002D53D1002822D033DD2A4B1B68EA
S3150800B85083422FDB294B013800EB800003EBC00045
S3150800B860EFF31183102282F31288254E33600123E9
S3150800B8702360BFF34F8F037B8BB96FF02805002336
S3150800B8802360BFF34F8F336883F31188284670BD52
S3150800B890EFF314839A070DD51A4B1868E0E723F0DF
S3150800B8A00203042B0DD0C37B9A0707D443F0020387
S3150800B8B0C373E4E76FF01105284670BD6FF02A05DB
S3150800B8C0DDE700F0F3FD0F4A0F4B10681968884250
S3150800B8D0D5D0EFF314839B0702D5FCF74BFDCEE7D3
S3150800B8E04FF0E0234FF08052C3F8042DC7E76FF0FE
S3150800B8F01805CBE77C1E01202C380208C81B01203E
S3150800B900801E0120901E0120941E0120EFF314834F
S3150800B9109A0725D570B5224D2B6886B0002B39D1EC
S3150800B920204A1268002A35D01F4A9042044634D865
S3150800B930102282F311881D4901220B602A60BFF389
S3150800B9404F8F1B4E3068C37B5B070CD56FF03400F6
S3150800B95000232B60BFF34F8F83F3118806B070BDA9
S3150800B9606FF0180070470823037300F0FFFC336874
S3150800B970059301AA1A6102A80E4B01902146049369
S3150800B98000F0B2FE0C4B306819683246FCF7F2FC40
S3150800B9900198DDE76FF01800E0E76FF01000DDE7CB
S3150800B9A07C1E0120881E012000286BEE801E0120C7
S3150800B9B0901E01200DC50008941E012008B5EFF35E
S3150800B9C014839B0719D5194B1A68CAB1184B1A68FC
S3150800B9D06AB9184A116809B90121116016490A6835
S3150800B9E0F2B901221A6000F065FC144B1860144B7A
S3150800B9F0186800F02BFDFCF7B4FC6FF0180008BDC2
S3150800BA00EFF31180102282F312880B490122086095
S3150800BA101A60BFF34F8F064B1A68002AE7D1D8E79A
S3150800BA201209102A1CBF00220A60DAE77C1E0120D0
S3150800BA30881E01208C1E0120801E0120941E0120D4
S3150800BA40901E0120084B186868B1084B084A03EB9A
S3150800BA5000105168D960C3E901321B601033834274
S3150800BA6002F10C02F5D170472838020838BB0020CD
S3150800BA7030370208F0B5314C256889B0002D5AD107
S3150800BA80002855DD2E4B1B68834251DB431EEFF31E
S3150800BA901182102181F312882A4E32600122226017
S3150800BAA0BFF34F8F284A190102EB031388588342C4
S3150800BAB01AD007688F507B6000F0F8FC234A244BA5
S3150800BAC010681968884205D0EFF314839B0728D5B8
S3150800BAD0FCF750FC00232360BFF34F8F336883F3D2
S3150800BAE01188284609B0F0BD5A6893420ED0194904
S3150800BAF0194B02919A22022469462846CDE9032366
S3150800BB000094FEF753FBFEF7E3FDFEE7D3E90212C6
S3150800BB1089688A4202D36FF02A05DBE70132DA60C8
S3150800BB20D8E74FF0E0234FF08052C3F8042DD1E751
S3150800BB306FF01105D5E76FF01805D2E77C1E0120D6
S3150800BB4028380208801E012038BB0020901E0120DC
S3150800BB50941E0120A03D0208CC3D0208EFF3148391
S3150800BB609A0726D530B5234C226883B0002A3BD1E4
S3150800BB70214B1B68002B37D0002838DD1F4B1B686C
S3150800BB80834234DB102383F311881D4901230A609D
S3150800BB902360BFF34F8F1B4D2B68DB7B5B070CD4F1
S3150800BBA01949431E01EB0310C3688BB1013BC360FF
S3150800BBB005E06FF01802104670476FF03402002354
S3150800BBC02360BFF34F8F83F31188104603B030BD4F
S3150800BBD06A46402100F0EAFC0C4B286819682A4698
S3150800BBE0FCF7C8FB009AEAE76FF01802EDE76FF07A
S3150800BBF01102EAE77C1E0120881E01202838020867
S3150800BC00801E0120901E012038BB0020941E0120B2
S3150800BC102DE9F843154B1F682FB3154D154CDFF862
S3150800BC20589000264FF0010807E00136BE426360CF
S3150800BC3005F1140504F1180415D02B68256013F0D6
S3150800BC400203C4E90494F0D020462B69C4F80480A2
S3150800BC50013640F8083F00F039FDBE4205F11405EB
S3150800BC6004F11804E9D1BDE8F88300BF24380208B6
S3150800BC70F4330208ECAA002029BD00082DE9F04398
S3150800BC8083B0EFF314839B0736D5234E35689DBBE7
S3150800BC9000283EDD214B1B6883423ADB441EEFF346
S3150800BCA01183102282F31288DFF874800121C8F804
S3150800BCB000303160BFF34F8FDFF8689004EB440023
S3150800BCC009EBC00204FA01F75368C000D3B908307B
S3150800BCD0516048443C4459F83430196900F004FD71
S3150800BCE000233360BFF34F8FD8F8003083F31188F1
S3150800BCF0284603B0BDE8F0836FF01805284603B060
S3150800BD00BDE8F08308304844019000F011FD019821
S3150800BD10E0E76FF01105F1E77C1E012024380208E0
S3150800BD20801E0120ECAA002002688368D2681344AA
S3150800BD3070B5044640F8083F00F0C8FC0C4D0023D7
S3150800BD402B60BFF34F8F0B4E336883F3118823683C
S3150800BD50D3E9010290472B684BB9EFF31182102300
S3150800BD6083F31288012332602B60BFF34F8F70BDB7
S3150800BD707C1E0120801E0120074B1A6852B9EFF37A
S3150800BD801180102282F312880449012208601A6081
S3150800BD90BFF34F8F002070477C1E0120801E0120B4
S3150800BDA0064B1A683AB100221A60BFF34F8F044B4C
S3150800BDB01B6883F311880020704700BF7C1E012092
S3150800BDC0801E0120EFF314839B071BD50F4B1868C1
S3150800BDD0C0B910B4EFF31184102282F312880C4A0A
S3150800BDE0012114601960BFF34F8F0A4C0A4920607D
S3150800BDF008601860BFF34F8F136883F311885DF8E6
S3150800BE00044B70476FF01800704700BF7C1E012076
S3150800BE10801E01208C1E0120881E012070B5EFF3BC
S3150800BE2014839B071DD51D4D2C68D4B9EFF31182D9
S3150800BE30102383F312881A4E012332602B60BFF356
S3150800BE404F8F184A136033687BB11B09102B0CD02F
S3150800BE5000232B60BFF34F8F336883F31188204686
S3150800BE6070BD6FF01804204670BD0F4B01221A6092
S3150800BE7000F020FA0D4B0E4A186001461068C37B85
S3150800BE8003F00C030C2B04D08842E1D0FCF772FABD
S3150800BE90DEE700F0DBFAFCF764FA00BF7C1E01203F
S3150800BEA0801E01208C1E0120881E0120941E012060
S3150800BEB0901E0120EFF314839B0702D5054B1B68E0
S3150800BEC00BB101207047044B1868B0FA80F040099E
S3150800BED0704700BF7C1E0120881E0120074B70B5E5
S3150800BEE01E6856B1064C0025D4E90112013554F8EE
S3150800BEF00C0BFFF753F9B542F6D170BD303802087E
S3150800BF0020360208A0F10F03662B50D82A490A6882
S3150800BF1030B41AB3294B440900F01F0C53F82440D7
S3150800BF20012303FA0CF323423CD00F2833D0A0F1A7
S3150800BF3010035D09224C03F01F03012000FA03F3E6
S3150800BF4044F825301ABB1F4C00230B60BFF34F8FF4
S3150800BF50236883F31188104630BC7047EFF31183CA
S3150800BF60102484F31288174C236001230B60BFF357
S3150800BF704F8F124D4FEA501C55F82C5000F01F0CED
S3150800BF8003FA0CF32B42D0D16FF02802DCE700222B
S3150800BF90104630BC70474FF0E020036923F00203D7
S3150800BFA00361CFE76FF02802104630BC70476FF088
S3150800BFB010021046704700BF7C1E0120D4330208C9
S3150800BFC080E100E0801E0120A0F10F03662B53D804
S3150800BFD030B42B4C216831B32A4B420900F01F0CB0
S3150800BFE053F82220012303FA0CF313423FD00F28FB
S3150800BFF036D0A0F1100253099B0003F1604303F504
S3150800C000614302F01F02012000FA02F21A6019BB0E
S3150800C0101D4A00232360BFF34F8F136883F31188EB
S3150800C020084630BC7047EFF31183102282F312885A
S3150800C030154A136001232360BFF34F8F114D4FEA52
S3150800C040501C55F82C5000F01F0C03FA0CF32B4229
S3150800C050CDD16FF02801DCE70021084630BC7047D7
S3150800C0604FF0E022136943F002031361CFE76FF044
S3150800C0702801084630BC70476FF010010846704723
S3150800C0807C1E0120D4330208801E0120074B70B5A0
S3150800C0901D6855B1064E05EB4505002456F82400E3
S3150800C0A00334FEF7CBFFAC42F8D170BD3438020832
S3150800C0B0F02F020804F04AB910B5044682B00846C3
S3150800C0C003F012F8002102460190204603F0BCFB5B
S3150800C0D0019A08B902B010BD0021204602B0BDE899
S3150800C0E0104003F0B1BB00BF70B505460E4601E02F
S3150800C0F0FFF70CFC3146284603F068FD082804467D
S3150800C1004FF47A70F4D01CB1204670BDFFF7FEFBE1
S3150800C110284603F06DFD082803464FF47A70F5D0DB
S3150800C12063B1284603F06AFD01E0FFF7EFFB2846F6
S3150800C13003F05EFD08284FF47A70F6D02B681B785A
S3150800C1403D2B03D03E2B07D0252BDDD147F23050AF
S3150800C150FFF7DCFB204670BD4CF25030F8E700BF15
S3150800C16030B5044683B00D4601E0FFF7CFFB01A9C1
S3150800C170204602F0C7F9082803464CF25030F4D09E
S3150800C1804BB9019803681B78AB4202D05C2D18BFE7
S3150800C190002003B030BD002003B030BDF0B5437AAF
S3150800C1A08B4283B0054614460DD00E46FFF79CFF1A
S3150800C1B048B16B7AB34243D03146284603B0BDE84E
S3150800C1C0F040FFF791BF01A9284603F0F6FC90BBA3
S3150800C1D0697A0DF103030DF10202284603F0D7FC34
S3150800C1E0074698BB9DF80250002D39D0019E9DF850
S3150800C1F00310013D731C224601F0030153FA85F52D
S3150800C2003046344610E0012914BF96F90060B4F9A7
S3150800C21000601660AB421E4602F1040204F10204F5
S3150800C22000F104000CD0013302290CD00329EAD10D
S3150800C23006681660EEE701A9284603F0BEFC074625
S3150800C240384603B0F0BD06681660E3E7697A0DF173
S3150800C25003030DF10202284603F099FC0746EFE7AF
S3150800C2600327EDE730B5054683B001E0FFF74EFB3F
S3150800C27001A9284602F046F9082804464CF250302F
S3150800C280F4D084B9019803685B78DD070ED55A07A0
S3150800C29009D513F0080F437A14BF042102218B42F3
S3150800C2A001D0FFF721FF204603B030BD0524204604
S3150800C2B003B030BD144B1888A8B1C3B283B10021AE
S3150800C2C010F00F03114A08BFC0F303131A4408BF3E
S3150800C2D0043112F8013C0E480B4450F833007047FD
S3150800C2E0000A0821ECE710B588B00A490A4B029102
S3150800C2F0972202246946CDE903230094FDF756FFE9
S3150800C300FEF7E6F9FEE700BF981E0120243E020864
S3150800C3109C1E0120E83D0208143E020890F80EC053
S3150800C3200E4B0F4A03EBCC0110B44C684460016015
S3150800C330206048600B4914880968012303FA0CF346
S3150800C3402343138031B1084A136813B19B7B6345B5
S3150800C35000D910605DF8044B704700BF9C1E012091
S3150800C360981E0120881E0120941E012030B5D0E9B0
S3150800C3700014827B2D4B21604C6053F8321003EB7E
S3150800C380C204A14289B005D0294B1A68824225D039
S3150800C39009B030BD636899420ED02648264B0290F4
S3150800C3A09A22022469460020CDE903230094FDF76A
S3150800C3B0FDFEFEF78DF9FEE7204C1D4D2388012171
S3150800C3C001FA02F223EA02022B6822808342DFD1B5
S3150800C3D01B4B1868B0B122BB2A60D9E7184A106807
S3150800C3E008B11960D4E71749174B02914FF48972BF
S3150800C3F002246946CDE903230094FDF7D7FEFEF72C
S3150800C40067F9FEE70F49104B02914FF48672022432
S3150800C4106946CDE903230094FDF7C8FEFEF758F9EF
S3150800C420FEE7FFF747FF0246D6E700BF9C1E01203E
S3150800C430941E0120A03D0208CC3D0208981E01204A
S3150800C440881E0120E83D0208343E020810B5037B29
S3150800C450D90704461DD413F07C0F0CD163691BB1B0
S3150800C460114B20461B6898472046FFF743F8E37BA5
S3150800C470DA0711D410BD13F0600F03D0D0E90032EB
S3150800C48013605A60236918680028E7D000F050F94D
S3150800C490E4E7FFF76BFFE1E76FF30003E37320467A
S3150800C4A0BDE81040FFF734B8381F012010B50369FE
S3150800C4B00446186888B010B100F03AF923690022DA
S3150800C4C01A60237B13F07C000DD09B0703D502234B
S3150800C4D0237308B010BD01232046237308B0BDE8B6
S3150800C4E01040FFF71BBF0749074B02917122022430
S3150800C4F06946CDE903230094FDF758FEFEF7E8F8F0
S3150800C500FEE700BF3C3E0208683E020830B50269F5
S3150800C51000211160027B12F07C0189B02AD09207B3
S3150800C52023D5022202731B4A1B4B12681B689A42C8
S3150800C53005D04FF0E0234FF08052C3F8042D174B77
S3150800C54000221A60BFF34F8F154A116881F31188CC
S3150800C55000BFEFF31180102181F3128801211060CA
S3150800C5601960BFF34F8F09B030BD01220273FFF780
S3150800C570D5FED8E70B4B0C4C0294712202250846CF
S3150800C5806946CDE903230095FDF710FEFEF7A0F8EE
S3150800C590FEE700BF901E0120941E01207C1E01208C
S3150800C5A0801E0120683E02083C3E020870B5144E03
S3150800C5B033680446197318461546FFF7D7FEA3686D
S3150800C5C031681B680D610022DB072A6006D46368A0
S3150800C5D0C1E90043196061606C6070BD2368887B9F
S3150800C5E09C4203D105E01B689C4202D09A7B82429A
S3150800C5F0F9D95A68C1E90032116059606C6070BD9A
S3150800C600901E012070B5194C031B22689B1004EB81
S3150800C610C303934229D8164D2D68A1EB050E10E0E9
S3150800C6201A6812681946521B0B1B9B10964504EB99
S3150800C630C3031AD90A680260506022689A420846FB
S3150800C64013D3191D9142EBD8D3E9006212683668F4
S3150800C650521BA6EB050C624524BF194662460B1B06
S3150800C6609B10964504EBC303E4D870BD901C0120CB
S3150800C6701C1F01200E490F4B70B40F4C18680B682D
S3150800C68022680E4D0860C31A991821602C680C4858
S3150800C6900C4EA21A08449A42306002D2A14202D332
S3150800C6A0296070BC7047084A536801335360F7E73E
S3150800C6B0241F0120781E0120201F01202C1F012085
S3150800C6C0003E14F41C1F0120301F0120054A136880
S3150800C6D010B50446181D2168106000F063F8046060
S3150800C6E0606010BD901C012070B504460E46FFF729
S3150800C6F0C1FF0C4B0C4D1B68286803F57A73991912
S3150800C70004302160286000F04DF8084B1B6804606F
S3150800C710606013B90435A84200D070BDBDE870400A
S3150800C720FEF734BF201F0120901C0120281F01207E
S3150800C730F8B5194D46682A682C46131F44F8043B79
S3150800C740A34218D31368A64219680DD9701BC010E6
S3150800C750124B55F820701A683B68A1EB020C9B1A1D
S3150800C7609C4505EB80000CD33046FFF74BFF2B6842
S3150800C7705B68036058600A4B1B680BB9A64205D074
S3150800C780F8BD37607E6000F00DF8F0E7FFF772FF3E
S3150800C790BDE8F840FEF7FABE901C01201C1F0120D8
S3150800C7A0281F012030B50E4CA042844616D90D4BE1
S3150800C7B01D68A4F1040E491B03E0A44502605060FD
S3150800C7C00CD9ACEB0E03DB1060465EF823200EEBAB
S3150800C7D0830C13685B1B8B42EFD830BD604630BDB7
S3150800C7E0941C01201C1F012008B503F051FA0028EB
S3150800C7F0FBD1BDE80840FDF7CFB908B503F032FA1A
S3150800C80005F054FC012003F037FA062005F038FF3E
S3150800C810002005F0D5FB082005F084FFB0B10620FE
S3150800C82005F056FF002005F0CBFB012003F024FAA3
S3150800C83005F052FC072005F023FFFFF7D5FF02F0AD
S3150800C84099F80028F9D102F079FAF6E7FFF7CCFF54
S3150800C850E1E700002DE9F04F6B4ADFF8B481DFF815
S3150800C860B49185B000230C6801279F4007EA0405A8
S3150800C87037EA040440F0B5804C6824F0100ABAF18F
S3150800C880020F16D14FEAD30E00EB8E0E03F0070BFC
S3150800C890DEF820604FEA8B0B4FF00F0C0CFA0BFCFE
S3150800C8A026EA0C0C0E6906FA0BF646EA0C06CEF8D2
S3150800C8B02060D0F800B04FEA430E4FF0030C0CFA94
S3150800C8C00EFC6FEA0C062BEA0C0B04F0030C0CFAB0
S3150800C8D00EFC0AF1FF3A4CEA0B0CBAF1010F01966D
S3150800C8E0C0F800C015D8D0F808C006EA0C0CCE6807
S3150800C8F006FA0EFA4AEA0C0CC0F808C0D0F804C0CA
S3150800C9002CEA0707C4F3001C0CFA03FC4CEA0707D9
S3150800C9104760C768019E37408E6806FA0EF63E43A2
S3150800C920C660E6005DD54FF0000BCDF80CB0D8F820
S3150800C9304470364E47F48047C8F84470D8F84470B7
S3150800C94007F480470397039F23F0030707F18047FF
S3150800C95007F59C3703F0030ED7F808A04FEA8E0EAA
S3150800C9604FF00F0C0CFA0EFCB0422AEA0C0C3FD022
S3150800C97006F58066B0423DD006F58066B0423BD0EB
S3150800C98006F58066B04239D006F58066B04237D0E3
S3150800C990484537D006F50066B0420CBF062607267E
S3150800C9A006FA0EF646EA0C06BE601668EF4314F45D
S3150800C9B0803F0CBF3E402E431660566814F4003F75
S3150800C9C00CBF3E402E435660966814F4801F0CBF79
S3150800C9D03E402E439660D668A40254BF3E402E437E
S3150800C9E0D6600133102B7FF43EAF05B0BDE8F08F5B
S3150800C9F05E46D5E70126D3E70226D1E70326CFE729
S3150800CA000426CDE70526CBE7003C0140000002409E
S3150800CA1000380240001402400369194214BF01207D
S3150800CA20002070470AB1816170470904FBE7436932
S3150800CA305940416170470000044A5169014208B5EE
S3150800CA4002D0506102F0D6FA08BD00BF003C014092
S3150800CA500368F7B50446D8073BD42368990700F15D
S3150800CA60898023681E0700F1CA8023685D072AD5D6
S3150800CA70002301938B4B8C4D1A6C42F080521A643A
S3150800CA801B6C03F080530193019B2B6843F480735E
S3150800CA902B60FDF7CFFE06462B68DA0540F1D380FA
S3150800CAA0A368804D012B40F0D5802B6F43F001031E
S3150800CAB02B67FDF7BFFE7B4E054641F28837336F7D
S3150800CAC09B0740F1E880A269002A40F0F180002027
S3150800CAD015E0744B9A6802F00C02042A07D09A688B
S3150800CAE002F00C02082A0CD15A68520209D56D4B7D
S3150800CAF01B689B03B1D56368002BAED1012003B038
S3150800CB00F0BD6268B2F5803F11D11A6842F48032EE
S3150800CB101A60FDF78FFE634E054633689F039CD463
S3150800CB20FDF788FE401B6428F7D90320E7E75D4D2B
S3150800CB30B2F5A02F2B6807D143F480232B602B680E
S3150800CB4043F480332B60E4E723F480332B602B68AF
S3150800CB5023F480232B60002ADBD1FDF76BFE064603
S3150800CB602B6898037FF579AFFDF764FE801B642870
S3150800CB70F6D9DAE74B4B9A6812F00C0F07D09A6889
S3150800CB8002F00C02082A17D15B68590214D4454BE7
S3150800CB901A68920702D5E268012AAFD11968236993
S3150800CBA021F0F801F82292FAA2F2B2FA82F2934040
S3150800CBB03C4A0B43136054E7E2683C4B82B10122BE
S3150800CBC01A60FDF737FE374E054633689B0701D5D1
S3150800CBD03168E4E7FDF72EFE401B0228F5D9A4E7E5
S3150800CBE01A60FDF727FE2F4E054633689F077FF527
S3150800CBF038AFFDF71FFE401B0228F6D995E7626994
S3150800CC002A4B82B10122C3F8802EFDF713FE254E6A
S3150800CC100546736F98073FF528AFFDF70BFE401BD7
S3150800CC200228F6D981E7C3F8802EFDF703FE1D4ECC
S3150800CC300546736F99077FF518AFFDF7FBFD401B97
S3150800CC400228F6D971E7FDF7F5FD801B02287FF665
S3150800CC5023AF6AE7052B04D12B6F43F004032B6738
S3150800CC6023E72A6F22F001022A672A6F22F00402BC
S3150800CC702A67002B7FF41DAFFDF7DCFD41F28837EC
S3150800CC8006462B6F98077FF51EAFFDF7D3FD801B71
S3150800CC90B842F6D949E7FDF7CDFD401BB8427FF605
S3150800CCA00EAF42E7003802400070004000004742DD
S3150800CCB0304DAB6803F00C03082B3FF41FAF2E4B27
S3150800CCC0022A4FF000021A6646D1FDF7B3FD064662
S3150800CCD02B6899013AD4D4E9072147F6C073114362
S3150800CCE0626A93FAA3F3B3FA83F39A40A36A5B08DA
S3150800CCF00A43013B4FF4403191FAA1F1B1FA81F1AF
S3150800CD008B4013434FF07061E26A91FAA1F1B1FAD0
S3150800CD1081F18A401A434FF0E041236B91FAA1F161
S3150800CD20B1FA81F18B40134D13436B60124B01220C
S3150800CD301A66FDF77FFD04462B689A013FF5C7AED4
S3150800CD40FDF778FD001B0228F6D9EEE6FDF772FD21
S3150800CD50801B0228BCD9E8E6FDF76CFD04462B6863
S3150800CD609B017FF5B4AEFDF765FD001B0228F6D9D9
S3150800CD70DBE600BF00380240000047421C4A9368C1
S3150800CD8003F00C03082B30D15168536813F4800F55
S3150800CD9001F03F0147F6C0731BD05068184093FA5C
S3150800CDA0A3F3B3FA83F3D840124B5843B0FBF1F020
S3150800CDB080000F4B5B684FF4403203F4403392FA1D
S3150800CDC0A2F2B2FA82F2D34001335B00B0FBF3F071
S3150800CDD070470948B0FBF1F15068184093FAA3F37D
S3150800CDE0B3FA83F3D8404843E3E70348704700BFE4
S3150800CDF00038024000093D000024F400554B1A682B
S3150800CE0002F00F028A422DE9F04104460D462FD35F
S3150800CE102268960736D4D0073CD44E4B1A6802F0DF
S3150800CE200F02AA4200F286802268510700F18A8022
S3150800CE30130707D5484A2169936823F4604343EAF0
S3150800CE40C1039360FFF79AFF434B9B68F02203F0F8
S3150800CE50F00392FAA2F2B2FA82F2D3403F4AD35CC6
S3150800CE60D8403F4B18600F20FDF7E2FC002007E092
S3150800CE70CAB21A701B6803F00F038B42C8D0012090
S3150800CE80BDE8F0813449A0688B6823F0F0030343BA
S3150800CE908B60C0E76268304B012A1DD11B6813F40A
S3150800CEA0003FECD02C4EB36823F003031343B36062
S3150800CEB0FDF7C0FC6368012B074641F2883815D197
S3150800CEC0B36803F00C03042BA7D0FDF7B3FCC01B13
S3150800CED04045F5D90320D3E7911E01291B6802D8DE
S3150800CEE013F0007FDDE713F0020FDAE7022B0AD111
S3150800CEF0B36803F00C03082B8FD0FDF79BFCC01B0F
S3150800CF004045F5D9E6E7032B0FD1B36803F00C03C8
S3150800CF100C2B82D0FDF78EFCC01B4045F5D9D9E70E
S3150800CF20FDF788FCC01B4045D4D8B36813F00C0F36
S3150800CF30F6D172E7EAB21A701B6803F00F03AB4228
S3150800CF409DD171E70449E0688B6823F4E0530343F5
S3150800CF508B606DE7003C024000380240C438020886
S3150800CF6000000020014B1868704700BF0000002031
S3150800CF70084B1868084B9B684FF4E05203F4E053DB
S3150800CF8092FAA2F2B2FA82F2D340044AD35CD840AB
S3150800CF90704700BF0000002000380240D43802085D
S3150800CFA0084B1868084B9B684FF4604203F46043CB
S3150800CFB092FAA2F2B2FA82F2D340044AD35CD8407B
S3150800CFC0704700BF0000002000380240D43802082D
S3150800CFD00168074B0B445B0100225A611A62054B34
S3150800CFE00B445B011A60202380F83A30704700BF73
S3150800CFF00C0010C2140010C22DE9F8430368C1687A
S3150800D0001A69044622F440520A431A612569A2683D
S3150800D010D968C0692A43656921F416412A4321F073
S3150800D0200C0102430A43DA605A69A16922F4407284
S3150800D0300A43B0F5004F5A618B4A40F08D809342FF
S3150800D0400BD002F58062934207D002F580629342C4
S3150800D05003D002F58062934249D1FFF7A1FF6368C6
S3150800D0604FF019094FF0640809FB00F05B00B0FBAC
S3150800D070F3F3B3FBF8F31F01FFF792FF656809FBAB
S3150800D08000F06D00B0FBF5F5FFF78AFF666809FB4F
S3150800D09000F07600B0FBF6F6FFF782FFB6FBF8F66F
S3150800D0A008FB16566368F6003236B6FBF8F67600C5
S3150800D0B009FB00F05B0006F4F876B0FBF3F5FFF722
S3150800D0C06FFF6368226809FB00F05B00B0FBF3F3AF
S3150800D0D0B3FBF8F308FB1353DB003233B3FBF8F367
S3150800D0E003F007033B4433449360BDE8F883FFF736
S3150800D0F03FFF63684FF019094FF0640809FB00F019
S3150800D1005B00B0FBF3F3B3FBF8F31F01FFF730FF47
S3150800D110656809FB00F06D00B0FBF5F5FFF728FF21
S3150800D120666809FB00F07600B0FBF6F6FFF720FF0D
S3150800D130B6FBF8F608FB16566368F6003236B6FBF9
S3150800D140F8F6760009FB00F05B0006F4F876B0FB0B
S3150800D150F3F5FFF70DFFB4E793420AD0434A93422B
S3150800D16007D002F58062934203D002F580629342AB
S3150800D17046D1FFF715FF63684FF019094FF06408A9
S3150800D18009FB00F09B00B0FBF3F3B3FBF8F31F01B8
S3150800D190FFF706FF656809FB00F0AD00B0FBF5F583
S3150800D1A0FFF7FEFE636809FB00F09B00B0FBF3F394
S3150800D1B0B3FBF8F308FB13531B013233B3FBF8F345
S3150800D1C003F0F006FFF7ECFE636809FB00F09B002E
S3150800D1D0B0FBF3F5FFF7E4FE6368226809FB00F08D
S3150800D1E09B00B0FBF3F3B3FBF8F308FB13531B01E7
S3150800D1F03233B3FBF8F303F00F0333433B4473E7CF
S3150800D200FFF7B6FE63684FF019094FF0640809FB8B
S3150800D21000F09B00B0FBF3F3B3FBF8F31F01FFF735
S3150800D220A7FE656809FB00F0AD00B0FBF5F5FFF752
S3150800D2309FFE636809FB00F09B00B0FBF3F3B3FBAA
S3150800D240F8F308FB13531B013233B3FBF8F303F06F
S3150800D250F006FFF78DFE636809FB00F09B00B0FB44
S3150800D260F3F5FFF785FEB7E700100140001401400B
S3150800D27010B5044640B390F8393003F0FF021BB9E5
S3150800D28080F8382001F0E8FC2268242384F8393035
S3150800D290D36823F40053D3602046FFF7ADFE236816
S3150800D2A01A6922F490421A615A6922F02A025A61CE
S3150800D2B0DA6842F40052DA6000202023E06384F83A
S3150800D2C0393084F83A3010BD0120FCE770B50446C1
S3150800D2D0134694F83920202A2DD151B34BB394F82C
S3150800D2E03820012A27D0206BE38400252122E56314
S3150800D2F0012684F83920114AA38484F8386021620B
S3150800D300C2630F4A02640F4AC0E913252268043231
S3150800D3100EF01BFF23686FF0400243F8142B03F14D
S3150800D320424303F580135B0184F838502846DE61D2
S3150800D33070BD0120FCE70220FAE700BFE5D300082C
S3150800D3401FD40008E9D4000837B590F83A30202BE6
S3150800D35004463BD1002937D0002A35D090F838301A
S3150800D360012B33D0012380F838300023C363816250
S3150800D3708285222084F83A00606B154DC563154DE9
S3150800D3800564154DC0E91353256813460A46291D39
S3150800D3900EF0DBFE2268536913F4807305D10193FE
S3150800D3A01368019353680193019B0C4B13445B016B
S3150800D3B00121002084F838001960094B13445B01E9
S3150800D3C01960996103B030BD0120FBE70220F9E737
S3150800D3D029D40008DBD40008E9D400080D0010C2DF
S3150800D3E0140010C20268126812F4807208B5836BC2
S3150800D3F00BD1DA841968074B0B445B01DA61064BDB
S3150800D4000B445B0101229A6108BD184610F0F0FF33
S3150800D410FAE700BF140010C20C0010C2704708B526
S3150800D420806BFFF7FBFF08BD08B50346806B1B68DA
S3150800D4301B6813F480730DD10168084AC3850A4432
S3150800D44052011360064A0A4452011360936120236D
S3150800D45080F83A3010F0D4FF08BD00BF0D0010C2A6
S3150800D460140010C290F83A30222B10B521D18168E9
S3150800D47004690268836AB1F5805F1FD15268CCB926
S3150800D480C2F3080223F8022B8362C38D013B9BB2C9
S3150800D490C38573B901680E4A0A445201536113627F
S3150800D4A00C4A0A4452011360202380F83A3010F0DF
S3150800D4B0A7FF10BDD2B223F8012BE5E7591C526825
S3150800D4C081620CB91A70E0E702F07F02FAE700BF42
S3150800D4D00C0010C2140010C2704708B5806BFFF725
S3150800D4E0FBFF08BD7047000008B5806B02685369EA
S3150800D4F090F8391021290BD1190609D50D4B13447B
S3150800D5005B010021C184D9619961202380F83930F3
