S00B00006173702E73726563D5
S3150800800080BB0020D98100082D8200082D82000837
S315080080102D8200082D8200082D8200082D82000876
S315080080200000000000000000000000001D8300089A
S315080080302D820008000000006B82000801C80008B5
S3150800804001C8000801C8000801C8000801C80008DE
S3150800805001C8000801C8000801C8000801C80008CE
S3150800806001C8000801C8000801C8000801C80008BE
S3150800807001C8000801C8000801C8000801C80008AE
S3150800808001C8000801C8000801C8000801C800089E
S3150800809001C8000801C8000801C8000801C800088E
S315080080A001C8000801C8000801C8000801C800087E
S315080080B001C8000801C8000801C8000801C800086E
S315080080C001C8000801C8000801C8000801C800085E
S315080080D001C8000801C8000801C8000801C800084E
S315080080E001C8000801C8000801C8000801C800083E
S315080080F001C8000801C8000801C8000801C800082E
S3150800810001C8000801C8000801C8000801C800081D
S3150800811001C8000801C8000801C8000801C800080D
S3150800812001C8000801C8000801C8000801C80008FD
S3150800813001C8000801C8000801C8000801C80008ED
S3150800814001C8000801C8000801C8000801C80008DD
S3150800815001C8000801C8000801C8000801C80008CD
S3150800816001C8000801C8000801C8000801C80008BD
S3150800817001C8000801C8000801C8000801C80008AD
S3150800818001C8000801C8000801C8000801C800089D
S3150800819001C8000801C8000801C8000801C800088D
S315080081A001C8000801C8000801C8000801C800087D
S315080081B001C8000801C8000801C8000801C800086D
S315080081C001C8000801C8000801C8000801C800085D
S315080081D001C8000801C8000871B603F09BFC00201E
S315080081E00D490E4A914203D2086004319142FBD3ED
S315080081F00B490C4A914206D20B4B086818600431A9
S3150800820004339142F9D300F005F804F09DFBFEE72C
S31508008210704700BF704700000010002008AC01201E
S31508008220D0880208B892020800000020EFF31181F6
S31508008230EFF3108251EA02211EF0040F05D0EFF386
S31508008240098020E9024002B501E002B56846744A91
S3150800825013680CB4EFF30583724951F8232090474D
S315080082600FBC016082F311881847102080F311882B
S315080082706D49086858B1EFF309821EF0100F01D155
S3150800828022ED108A22E9F00F8261C0F81CE06748E7
S3150800829000680860A0B1C16911F07F42B2F17F4F52
S315080082A01AD18269B2E8F00F11F0100F01D1B2ECC1
S315080082B0108A82F30988002071B680F3118808476E
S315080082C0EFF309805A495FF0807220E906001838F2
S315080082D080F30988DFF840F0426A4AB1554A5FF0F0
S315080082E080738069B0E8F00F20E90E00143807E0C3
S315080082F08069B0E8F00F5FF0807220E90600183850
S3150800830080F30988464801210160BFF34F8FDFF8E3
S3150800831008F0BDEC108A7047FDFFFFFF40480021BA
S315080083200160002080F31188A0692900B0E8F00FE9
S3150800833011F0100F01D1B0EC108A80F309880847B4
S315080083403D48016881F30888022080F31488BFF34A
S315080083506F8F3A49D1F814D034490968324A61B660
S315080083601BE0022383F31488BFF36F8F2F49096834
S315080083702D4A12E0EFF3148313F0040306D02DED13
S31508008380108A022383F31488BFF36F8F43622DE9A3
S31508008390F00FC0F81CE0C0F818D0116089B1CA699E
S315080083A012F07F40B0F17F4F02D10C00150000DFBC
S315080083B0D1F818D0BDE8F00F4B6A0BB1BDEC108AA6
S315080083C01047174800210160BFF34F8F002080F344
S315080083D01188BFF34F8F30BFFBE700BF104800215D
S315080083E00160BFF34F8F002080F311880E480168A3
S315080083F08A685068DFF848E0D2F808F0002181F36F
S315080084001488BFF36F8F04F0CBBA00BFA0F15300F6
S31508008410002800DC7047A0F131000028FBDC70471B
S31508008420544F0120404C0208684F01206C4F012030
S31508008430C2830008128300083C4F0208BC4F02089A
S315080084404DCF000881F0004102E000BF83F00043F1
S3150800845030B54FEA41044FEA430594EA050F08BFD1
S3150800846090EA020F1FBF54EA000C55EA020C7FEA95
S31508008470645C7FEA655C00F0E2804FEA5454D4EB12
S315080084805555B8BF6D420CDD2C4480EA020281EADC
S31508008490030382EA000083EA010180EA020281EA14
S315080084A00303362D88BF30BD11F0004F4FEA013166
S315080084B04FF4801C4CEA113102D0404261EB410175
S315080084C013F0004F4FEA03334CEA133302D05242FB
S315080084D063EB430394EA050F00F0A780A4F10104B7
S315080084E0D5F1200E0DDB02FA0EFC22FA05F28018F1
S315080084F041F1000103FA0EF2801843FA05F35941D7
S315080085000EE0A5F120050EF1200E012A03FA0EFC55
S3150800851028BF4CF0020C43FA05F3C01851EBE3717F
S3150800852001F0004507D54FF0000EDCF1000C7EEB9C
S3150800853000006EEB0101B1F5801F1BD3B1F5001FDA
S315080085400CD349085FEA30004FEA3C0C04F10104F9
S315080085504FEA445212F5800F80F09A80BCF1004F22
S3150800856008BF5FEA500C50F1000041EB045141EAA4
S31508008570050130BD5FEA4C0C404141EB0101013C6D
S3150800858028BFB1F5801FE9D291F0000F04BF01465C
S315080085900020B1FA81F308BF2033A3F10B03B3F12E
S315080085A020020CDA0C3208DD02F1140CC2F10C02BE
S315080085B001FA0CF021FA02F10CE002F11402D8BF1C
S315080085C0C2F1200C01FA02F120FA0CFCDCBF41EAE8
S315080085D00C019040E41AA2BF01EB0451294330BDB7
S315080085E06FEA04041F3C1CDA0C340EDC04F1140494
S315080085F0C4F1200220FA04F001FA02F340EA03006B
S3150800860021FA04F345EA030130BDC4F10C04C4F1B0
S31508008610200220FA02F001FA04F340EA0300294690
S3150800862030BD21FA04F0294630BD94F0000F83F4DA
S31508008630801306BF81F480110134013D4EE77FEABD
S31508008640645C18BF7FEA655C29D094EA050F08BF09
S3150800865090EA020F05D054EA000C04BF19461046EA
S3150800866030BD91EA030F1EBF0021002030BD5FEA2E
S31508008670545C05D14000494128BF41F0004130BD56
S3150800868014F580043CBF01F5801130BD01F00045AA
S3150800869045F0FE4141F470014FF0000030BD7FEA1D
S315080086A0645C1ABF194610467FEA655C1CBF0B4618
S315080086B0024650EA013406BF52EA033591EA030F2F
S315080086C041F4002130BD00BF90F0000F04BF002127
S315080086D0704730B54FF4806404F132044FF000055A
S315080086E04FF0000150E700BF90F0000F04BF0021D3
S315080086F0704730B54FF4806404F1320410F0004539
S3150800870048BF40424FF000013EE700BF42004FEA33
S31508008710E2014FEA31014FEA02701FBF12F07F43B0
S3150800872093F07F4F81F06051704732F07F4208BF67
S31508008730704793F07F4F04BF41F40021704730B56E
S315080087404FF4607401F0004521F000411CE700BFBA
S3150800875050EA010208BF704730B54FF000050AE03D
S3150800876050EA010208BF704730B511F0004502D53E
S31508008770404261EB41014FF4806404F132045FEA40
S31508008780915C3FF4D8AE4FF003025FEADC0C18BFE9
S3150800879003325FEADC0C18BF033202EBDC02C2F1DB
S315080087A0200300FA03FC20FA02F001FA03FE40EA6D
S315080087B00E0021FA02F11444BDE600BF70B54FF071
S315080087C0FF0C4CF4E06C1CEA11541DBF1CEA13554F
S315080087D094EA0C0F95EA0C0F00F0DEF82C4481EAB7
S315080087E0030621EA4C5123EA4C5350EA013518BFD7
S315080087F052EA033541F4801143F4801338D0A0FBC4
S3150800880002CE4FF00005E1FB02E506F00042E0FB70
S3150800881003E54FF00006E1FB03569CF0000F18BF76
S315080088204EF0010EA4F1FF04B6F5007F64F540741E
S3150800883004D25FEA4E0E6D4146EB060642EAC621B1
S3150800884041EA55514FEAC52040EA5E504FEACE2E1E
S31508008850B4F1FD0C88BFBCF5E06F1ED8BEF1004F21
S3150800886008BF5FEA500E50F1000041EB045170BD9D
S3150800887006F0004646EA010140EA020081EA0301E1
S31508008880B4EB5C04C2BFD4EB0C0541EA045170BDDD
S3150800889041F480114FF0000E013C00F3AB8014F157
S315080088A0360FDEBF002001F0004170BDC4F10004A0
S315080088B0203C35DA0C341BDC04F11404C4F1200521
S315080088C000FA05F320FA04F001FA05F240EA02007C
S315080088D001F0004221F0004110EBD37021FA04F6B2
S315080088E042EB06015EEA430E08BF20EAD37070BD6C
S315080088F0C4F10C04C4F1200500FA04F320FA05F0CB
S3150800890001FA04F240EA020001F0004110EBD370CC
S3150800891041F100015EEA430E08BF20EAD37070BD3C
S31508008920C4F1200500FA05F24EEA020E20FA04F315
S3150800893001FA05F243EA020321FA04F001F00041C4
S3150800894021FA04F220EA020000EBD3705EEA430E35
S3150800895008BF20EAD37070BD94F0000F0FD101F064
S315080089600046400041EB010111F4801F08BF013C9D
S31508008970F7D041EA060195F0000F18BF704703F0DB
S315080089800046520043EB030313F4801F08BF013D62
S31508008990F7D043EA0603704794EA0C0F0CEA13551E
S315080089A018BF95EA0C0F0CD050EA410618BF52EAD8
S315080089B04306D1D181EA030101F000414FF00000DE
S315080089C070BD50EA410606BF1046194652EA4306EC
S315080089D019D094EA0C0F02D150EA013613D195EA60
S315080089E00C0F05D152EA03361CBF104619460AD1A8
S315080089F081EA030101F0004141F0FE4141F47001B2
S31508008A004FF0000070BD41F0FE4141F4780170BDA1
S31508008A1070B54FF0FF0C4CF4E06C1CEA11541DBF06
S31508008A201CEA135594EA0C0F95EA0C0F00F0A7F808
S31508008A30A4EB050481EA030E52EA03354FEA013135
S31508008A4000F088804FEA03334FF0805545EA131348
S31508008A5043EA12634FEA022245EA111545EA106510
S31508008A604FEA00260EF000419D4208BF964244F1A7
S31508008A70FD0404F5407402D25B084FEA3202B61AC6
S31508008A8065EB03055B084FEA32024FF480104FF49A
S31508008A90002CB6EB020E75EB030E22BFB61A75460E
S31508008AA040EA0C005B084FEA3202B6EB020E75EBA1
S31508008AB0030E22BFB61A754640EA5C005B084FEA09
S31508008AC03202B6EB020E75EB030E22BFB61A7546D6
S31508008AD040EA9C005B084FEA3202B6EB020E75EBE1
S31508008AE0030E22BFB61A754640EADC0055EA060EA2
S31508008AF018D04FEA051545EA16754FEA06164FEAE5
S31508008B00C30343EA52734FEAC2025FEA1C1CC0D190
S31508008B1011F4801F0BD141EA00014FF000004FF01D
S31508008B20004CB6E711F4801F04BF01430020B4F1DE
S31508008B30FD0C88BFBCF5E06F3FF6AFAEB5EB030C96
S31508008B4004BFB6EB020C5FEA500C50F1000041EB93
S31508008B50045170BD0EF0004E4EEA113114EB5C0460
S31508008B60C2BFD4EB0C0541EA045170BD41F4801133
S31508008B704FF0000E013C90E645EA060E8DE60CEA3B
S31508008B80135594EA0C0F08BF95EA0C0F3FF43BAF58
S31508008B9094EA0C0F0AD150EA01347FF434AF95EA0F
S31508008BA00C0F7FF425AF104619462CE795EA0C0FF3
S31508008BB006D152EA03353FF4FDAE1046194622E7C0
S31508008BC050EA410618BF52EA43067FF4C5AE50EA9A
S31508008BD041047FF40DAF52EA43057FF4EBAE12E78A
S31508008BE04FF0FF3C06E000BF4FF0010C02E000BF6B
S31508008BF04FF0010C4DF804CD4FEA410C7FEA6C5C4E
S31508008C004FEA430C18BF7FEA6C5C1BD001B050EAF0
S31508008C10410C0CBF52EA430C91EA030F02BF90EADB
S31508008C20020F0020704710F1000F91EA030F58BF9A
S31508008C30994208BF90422CBFD8176FEAE37040F0FC
S31508008C40010070474FEA410C7FEA6C5C02D150EA9A
S31508008C50013C07D14FEA430C7FEA6C5CD6D152EA55
S31508008C60033CD3D05DF8040B704700BF844610461A
S31508008C7062468C461946634600E000BF01B5FFF719
S31508008C80B7FF002848BF10F1000F01BD4DF808EDE9
S31508008C90FFF7F4FF0CBF012000205DF808FB00BFBA
S31508008CA04DF808EDFFF7EAFF34BF012000205DF814
S31508008CB008FB00BF4DF808EDFFF7E0FF94BF012061
S31508008CC000205DF808FB00BF4DF808EDFFF7CEFF62
S31508008CD094BF012000205DF808FB00BF4DF808EDA1
S31508008CE0FFF7C4FF34BF012000205DF808FB00BF72
S31508008CF04FEA410C7FEA6C5C02D150EA013C0AD18A
S31508008D004FEA430C7FEA6C5C02D152EA033C02D17B
S31508008D104FF0000070474FF0010070474FEA4102DC
S31508008D2012F5001215D211D56FF47873B3EB6252AF
S31508008D3012D94FEAC12343F0004343EA505311F0D6
S31508008D40004F23FA02F018BF404270474FF0000068
S31508008D50704750EA013005D111F0004008BF6FF0A6
S31508008D60004070474FF00000704700BF4A0011D21C
S31508008D7012F5001211D20DD56FF47873B3EB625267
S31508008D800ED44FEAC12343F0004343EA505323FA73
S31508008D9002F070474FF00000704750EA013002D1E8
S31508008DA04FF0FF3070474FF0000070477BB972B93B
S31508008DB00029BEBF00204FF0004106E008BF00288A
S31508008DC01CBF6FF000414FF0FF3000F0A7B9ADF1BE
S31508008DD0080C6DE904CE002909DB002B1ADB00F02C
S31508008DE035F8DDF804E0DDE9022304B070474042B7
S31508008DF061EB4101002B1BDB00F028F8DDF804E0ED
S31508008E00DDE9022304B0404261EB4101524263EBC3
S31508008E1043037047524263EB430300F017F8DDF84B
S31508008E2004E0DDE9022304B0404261EB41017047EA
S31508008E30524263EB430300F009F8DDF804E0DDE98C
S31508008E40022304B0524263EB430370472DE9F0470F
S31508008E50089D04468E46002B4DD18A42944669D910
S31508008E60B2FA82F252B101FA02F3C2F1200120FAF3
S31508008E7001F10CFA02FC41EA030E94404FEA1C4841
S31508008E80210CBEFBF8F61FFA8CF708FB16E341EA3D
S31508008E90034306FB07F199420AD91CEB030306F1C3
S31508008EA0FF3080F01F81994240F21C81023E6344E4
S31508008EB05B1AA4B2B3FBF8F008FB103344EA034488
S31508008EC000FB07F7A7420AD91CEB040400F1FF339D
S31508008ED080F00A81A74240F207816444023840EADA
S31508008EE00640E41B00261DB1D4400023C5E9004313
S31508008EF03146BDE8F0878B4209D9002D00F0EF8096
S31508008F000026C5E9000130463146BDE8F087B3FAC8
S31508008F1083F6002E4AD18B4202D3824200F2F980B0
S31508008F20841A61EB030301209E46002DE0D0C5E9B3
S31508008F30004EDDE702B9FFDEB2FA82F2002A40F0FF
S31508008F409280A1EB0C014FEA1C471FFA8CFE012602
S31508008F50200CB1FBF7F307FB131140EA01410EFBA6
S31508008F6003F0884208D91CEB010103F1FF3802D24D
S31508008F70884200F2CB804346091AA4B2B1FBF7F047
S31508008F8007FB101144EA01440EFB00FEA64508D96A
S31508008F901CEB040400F1FF3102D2A64500F2BB80A7
S31508008FA00846A4EB0E0440EA03409CE7C6F12007F6
S31508008FB0B34022FA07FC4CEA030C20FA07F401FA3C
S31508008FC006F31C43F9404FEA1C4900FA06F3B1FBC5
S31508008FD0F9F8200C1FFA8CFE09FB181140EA01412A
S31508008FE008FB0EF0884202FA06F20BD91CEB0101C7
S31508008FF008F1FF3A80F08880884240F28580A8F11F
S3150800900002086144091AA4B2B1FBF9F009FB101170
S3150800901044EA014100FB0EFE8E4508D91CEB01010E
S3150800902000F1FF346CD28E456AD90238614440EAB1
S315080090300840A0FB0294A1EB0E01A142C846A64631
S3150800904056D353D05DB1B3EB080261EB0E0101FABA
S3150800905007F722FA06F3F1401F43C5E90071002617
S315080090603146BDE8F087C2F12003D8400CFA02FC6D
S3150800907021FA03F3914001434FEA1C471FFA8CFE7D
S31508009080B3FBF7F007FB10360B0C43EA064300FB6D
S315080090900EF69E4204FA02F408D91CEB030300F10B
S315080090A0FF382FD29E422DD9023863449B1B89B2C2
S315080090B0B3FBF7F607FB163341EA034106FB0EF34B
S315080090C08B4208D91CEB010106F1FF3816D28B42F8
S315080090D014D9023E6144C91A46EA004638E72E46C4
S315080090E0284605E70646E3E61846F8E64B45A9D2BC
S315080090F0B9EB020864EB0C0E0138A3E74646EAE72B
S31508009100204694E74046D1E7D0467BE7023B6144D8
S3150800911032E7304609E76444023842E7704700BF41
S31508009120844641EA000313F003036DD1403A41D364
S3150800913051F8043B40F8043B51F8043B40F8043B23
S3150800914051F8043B40F8043B51F8043B40F8043B13
S3150800915051F8043B40F8043B51F8043B40F8043B03
S3150800916051F8043B40F8043B51F8043B40F8043BF3
S3150800917051F8043B40F8043B51F8043B40F8043BE3
S3150800918051F8043B40F8043B51F8043B40F8043BD3
S3150800919051F8043B40F8043B51F8043B40F8043BC3
S315080091A051F8043B40F8043B51F8043B40F8043BB3
S315080091B0403ABDD2303211D351F8043B40F8043B53
S315080091C051F8043B40F8043B51F8043B40F8043B93
S315080091D051F8043B40F8043B103AEDD20C3205D363
S315080091E051F8043B40F8043B043AF9D2043208D05B
S315080091F0D2071CBF11F8013B00F8013B01D30B88CD
S3150800920003806046704700BF082A13D38B078DD0AA
S3150800921010F003038AD0C3F10403D21ADB071CBF7C
S3150800922011F8013B00F8013B80D331F8023B20F8E6
S31508009230023B7BE7043AD9D3013A11F8013B00F81F
S31508009240013BF9D20B7803704B7843708B788370A7
S3150800925060467047000000000000000000000000A3
S3150800926000000000000000000000000000000000F0
S3150800927000000000000000000000000000000000E0
S3150800928090F800F06DE9024520F007016FF0000C38
S3150800929010F0070491F820F040F049804FF00004E0
S315080092A06FF00700D1E9002391F840F000F10800BB
S315080092B082FA4CF2A4FA8CF283FA4CF3A2FA8CF3F3
S315080092C04BBBD1E9022382FA4CF200F10800A4FA5A
S315080092D08CF283FA4CF3A2FA8CF3E3B9D1E90423AE
S315080092E082FA4CF200F10800A4FA8CF283FA4CF3E5
S315080092F0A2FA8CF37BB9D1E9062301F1200182FA9F
S315080093004CF200F10800A4FA8CF283FA4CF3A2FAA4
S315080093108CF3002BC6D0002A04BF04301A4612BAB2
S31508009320B2FA82F2FDE8024500EBD2007047D1E9B5
S31508009330002304F00305C4F100004FEAC50514F044
S31508009340040F91F840F00CFA05F562EA05021CBF15
S3150800935063EA050362464FF00004A9E708B500F082
S3150800936091FF01F063F901F0ABF901F087F901F01B
S31508009370BBF900F023FE00F019FC00F099FB00F0A1
S31508009380A5FB00F057FB00F069FA084B0022022003
S315080093901A7003F083FF032003F080FF042003F014
S315080093A07DFFBDE8084003F0D1BD00BF00100020D6
S315080093B008B500F009FCBDE8084003F0C7BD00BFCA
S315080093C008B500F055FABDE8084003F0BFBD00BF78
S315080093D003F0BCBD08B500F0AFFEBDE8084003F0D9
S315080093E0B5BD00BF08B500F02DFFBDE8084003F085
S315080093F0ADBD00BF2DE9F04FB0FBF1FC1D4601FBEA
S315080094001C0385B0D35CDDF838808DF8043001AFD5
S31508009410DDE90F96BE46012400E09C46814260467F
S315080094200AD8BCFBF1F301FB13CC013412F80CC0CB
S315080094300EF801CF0B2CF0D1B8F1000F2AD005B1E8
S31508009440013DB9F1000F01D02D20B047AC421BD227
S31508009450B9F1000F14BF4FF0300B4FF0200BA246A6
S3150800946058460AF1010AB047AA45F9D3B8F1000FE0
S315080094700AD1013C3C442078B047BC4204F1FF3491
S31508009480F9D105B0BDE8F08FB9F1000FF1D12D2063
S31508009490B047EEE7AC42DBD3EBE700BF2DE9F04F70
S315080094A0834682461BF8010B85B0002859D0DFF8A1
S315080094B08091DFF880815D4F0E461446002507E04F
S315080094C0A047DA460BF1010B9AF80000002848D0AD
S315080094D02528F5D1042DF3D89AF80120302A46D04C
S315080094E00AF1020A0020A2F13003092B4FF000030B
S315080094F00BD803EB830302EB43031AF8012BA2F103
S3150800950030010929A3F13003F3D96C2A2CD002F0D3
S31508009510DF01542928D0782A1DD8572A15D9583A50
S31508009520202A18D8DFE802F0561717171717171743
S31508009530171717646B17171717171717171717170C
S3150800954029171737174817172900002A6AD0252A16
S3150800955001D11046A0470AF1010B9AF8000000282D
S31508009560B6D105B0BDE8F08F1AF8012BD3E79AF803
S31508009570022001200AF1030AB5E7CDE90104002219
S31508009580009256F8250042461021FFF733FF0135B1
S315080095900AF1010B98E756F825B01BF8010B0135BF
S315080095A00028D8D0A0479BF800000BF1010B002833
S315080095B0F8D10AF1010BD0E7CDE9010400220092A7
S315080095C056F825003A460A21FFF714FF01350AF135
S315080095D0010B79E7CDE901040022009256F825002F
S315080095E04A461021FFF706FF01350AF1010B6BE722
S315080095F016F82500A04701350AF1010B64E756F86D
S315080096002520002ACDE90104ABBF104650420022AE
S31508009610012200920A213A46FFF7ECFE01350AF1CB
S31508009620010B9AE7D3460AF1FF3A4DE7C04702080D
S31508009630AC470208CC4702080268012A10B503465F
S315080096400C4602D0022A0BD010BD80680A4603F1E8
S315080096500C01FFF723FF23460A20BDE810401847F0
S315080096600A46024803F10801F3E700BF74470208F7
S3150800967010B582B003460A460C460448019301A970
S31508009680FFF70CFF0A20A04702B010BD9447020856
S3150800969030B50123036081600C789E4644B1BEF163
S315080096A0050F05D8252C04D011F8014F002CF6D14A
S315080096B030BD4B7801F1020CA3F13001092905D818
S315080096C01CF8013BA3F130010929F9D96C2B5BD0B1
S315080096D003F0DF0154291DD0002B00F0B480583B5D
S315080096E0D9B2202900F2B580202B00F2B280DFE83B
S315080096F003F040B0B0B0B0B0B0B0B0B0B04040B019
S31508009700B0B0B0B0B0B0B0B0B0B030B0B030B040BB
S31508009710B0B04000614611F8014B002C00F097806C
S31508009720583CE5B2202D7FD8202C7DD8DFE804F000
S315080097301C7C7C7C7C7C7C7C7C7C7C227F7C7C7C12
S315080097407C7C7C7C7C7C7C7C127C7C127C1C7C7C7F
S315080097501C0061460EF1020352F8044B40F8234000
S315080097600EF1010E0C7899E7742B03D0542B64D0B4
S315080097708C46614652F8044B0EF102030EF1010EB7
S3150800978040F823400C7889E7614611F8014B002C14
S315080097905DD0583CE3B2202B46D8202C44D801A3F0
S315080097A053F824F0759700082998000829980008A6
S315080097B02998000829980008299800082998000877
S315080097C02998000829980008299800082998000867
S315080097D075970008759700082998000829980008C1
S315080097E02998000829980008299800082998000847
S315080097F02998000829980008299800082998000837
S3150800980029980008559700082998000829980008FB
S3150800981055970008299800087597000829980008A0
S3150800982029980008759700089CF8014036E76C2BC4
S31508009830A0D0742B9ED0542B9CD1073222F007025D
S3150800984052F8084B98E71CF8014C0CF1FF3C6146AE
S3150800985024E79CF80040614620E700BF08B500F001
S3150800986017F8024B00221A8008BD00BF021000201C
S3150800987010B5064C2388032B00D010BD00F014F851
S315080098800128FAD123880133238010BD0210002055
S315080098900349044B0120002208801A80704700BF44
S315080098A00410002006100020F8B5544D2B88013B03
S315080098B0092B19D8DFE803F01C2C3D4D57710577A5
S315080098C0911A4F4E3388002B47D04E494E4A0C8882
S315080098D0012313804D4A13804D4BC8221A8000F08D
S315080098E0F7F880B2844272D30020F8BD0120F8BD93
S315080098F0484B454845491A680223038001200880D9
S3150800990043496420012A0880EED12B800020F8BD47
S315080099103D493E483E4A01230B80C82103801180F9
S3150800992000F08AF80428DFD12B88013300202B8029
S31508009930F8BD354A384B39490024148001221A806B
S31508009940374B0E8864221A8000F0B4F88642CBD2D0
S31508009950EAE72B4E3388002B4DD100F01FF901237F
S3150800996033800020F8BD264E3388002BF5D02D4ACB
S31508009970254B1788284A00241C800121284B118072
S3150800998064221A8000F0A4F880B28742ACD22B88F1
S31508009990348001332B802046F8BD194E3388002BBE
S315080099A0DBD0214992E7164E3388002BD5D0164BCB
S315080099B01E4902221A80154B0C8801221A80144B64
S315080099C064221A8000F0B2F880B284428CD22B88C6
S315080099D0002001332B803080F8BD0B490B480C4A18
S315080099E001230B80C8210380118000F025F8202868
S315080099F07FF47AAF98E70E4968E700BF04100020A5
S31508009A00061000200800002008100020441000203E
S31508009A1042100020541000202E10002000000020C4
S31508009A202810002004000020060000200A0000205C
S31508009A3002000020704700BF2DE9F04184B001A85C
S31508009A4003AA02A90026194F00F022FE4FF00108CA
S31508009A50304639460222002501AC0B88B1F802E0EF
S31508009A6004EB420403EB0E0C34F8044C1FFA8CFC8E
S31508009A70A3EB0E03644502F102029BB201F1040155
S31508009A8003D29C4284BF0135ADB2082AE4D1032D26
S31508009A9003D108FA06F3184480B20136062E07F1F8
S31508009AA00C07D6D104B0BDE8F08100BF0C00002039
S31508009AB0704700BF00B583B00DF1060000F00AFE3E
S31508009AC0BDF8060003B05DF804FB00BF704700BF91
S31508009AD000B583B001A80DF1060100F095FDBDF9AA
S31508009AE00430BDF90620104903EB830302EB82021A
S31508009AF0C3EB0313C2EB02129B00920081FB03C067
S31508009B0081FB02C100EB030C8818DB17D217C2EBE6
S31508009B102022C3EB2C20104400EBD07040F34F00FA
S31508009B2003B05DF804FB00BFB7600BB600B583B0A1
S31508009B3001A80DF1060100F067FDBDF90430BDF975
S31508009B400620144903EB830302EB8202C3EB0313DB
S31508009B50C2EB02129B00920081FB03C081FB02C18B
S31508009B6000EB030C8818DB17D217C2EB2022C3EBD5
S31508009B702C20801A084B4FF4B47202FB00F083FBCA
S31508009B8000230344C017C0EB632000B203B05DF89E
S31508009B9004FB00BFB7600BB6592B60AD08B500F0E3
S31508009BA023FDBDE8084000F063BD00BF08B500F01E
S31508009BB081F800F073F900F0DFF9024B01221A80F0
S31508009BC008BD00BF081000200C4B1B88042B13D8B7
S31508009BD0DFE803F0050A0C0E030000F013B8084B83
S31508009BE01B883BB900F09CB800F078B900F0ACB916
S31508009BF000F0D0B900F0C0B8704700BF08100020C8
S31508009C002C1000201E4A1F4B11681B881E481F4A2D
S31508009C105B1A018870B51FFA83FC11FB03F11CB2AD
S31508009C201B4B1C4D89B219801388634498B21A4B92
S31508009C3010801B88194A13FB00F39BB21380184A3D
S31508009C4028881288ACEB000C12FB0CF292B2134473
S31508009C501944144B144889B21980144B06881B887A
S31508009C6013480280581A194400B209B21EB900F006
S31508009C7063FB2C8070BD00F073FB2C8070BD00BFA9
S31508009C805810002010100020540000201A10002040
S31508009C9014100020181000201E100020121000209A
S31508009CA01C1000200E100020161000200A1000209C
S31508009CB00C1000200E490F480F4A002330B40B80C1
S31508009CC00E4C0F49238003800B800E4C0E480F491B
S31508009CD0238003800B800E4D0E4C0F480F492B80B6
S31508009CE0238003800B80642330BC1380704700BF39
S31508009CF0261000202A100020281000202C100020F2
S31508009D0020100020241000202210002032100020ED
S31508009D102E100020301000203610002034100020AD
S31508009D2008B5102000F0E2FC012819D0402000F008
S31508009D30DDFC01280ED0202000F0D8FC012800D038
S31508009D4008BD0A4A0A4B11881B880A4A0B445B104D
S31508009D50138008BD00220649104600F099FCEAE780
S31508009D6000220249104600F093FCDFE73610002077
S31508009D70341000202C100020F8B5394C394D00223B
S31508009D802146104600F084FC374B22881F88374B43
S31508009D90B91A18880EB206FB00F085FB0035C41701
S31508009DA03348344BC4EBA514B0F90050324804804C
S31508009DB0B3F90000854203DD89B2014408B2188070
S31508009DC02E4B2F4D19882B88DB1B13442D4A2E4FFB
S31508009DD01BB201FB03F31188224A00FB01F12B4851
S31508009DE0B0F800C082FB03E0DB17C3EBA01382FBCD
S31508009DF00120CA17C2EBA0122549B7F900E00A806C
S31508009E001C4414441FFA8EF1224A24B2ACEB01001A
S31508009E10002C8C44138000B20FFA8CF102DDBEF1DF
S31508009E20000F18DD1C4B1B8833B100F099FA002C83
S31508009E3006DC3C802E80F8BD00F07EFA002CF8DDAA
S31508009E401E2001F0D9FF02214FF4FA6002F024F82F
S31508009E503C802E80F8BD0021084600F081FAEFE725
S31508009E602A100020D34D62102C1000205A00002022
S31508009E705600002030100020261000205800002030
S31508009E803210002038100020221000202810002050
S31508009E9024100020201000202E10002030B409487D
S31508009EA0094D0A4C0A490B4A002303800A482B80AD
S31508009EB0238003804FF49670642330BC0880138097
S31508009EC0704700BF3A100020441000203E100020C2
S31508009ED042100020401000203C10002038B54FF4F6
S31508009EE0007000F003FC124C124DB4F9003000B2B9
S31508009EF083422880104B16D001221A800F4B1B88EC
S31508009F0043B90F4BB3F90010084600F015FA2B8831
S31508009F10238038BD0B4BB3F90010084600F020FA31
S31508009F202B88238038BDB3F900100029ECD0E5E76B
S31508009F303E1000203A1000203C100020441000205B
S31508009F404010002042100020084B1B8833B9084BEC
S31508009F50B3F90000414209B200F0EEB9054BB3F976
S31508009F600000414209B200F0FBB900BF44100020CE
S31508009F70401000204210002003480449044A0023E8
S31508009F8003800B80138070474A1000204810002079
S31508009F9046100020064B1B8823B9064BB3F9000070
S31508009FA000F056BB044BB3F9000000F059BB00BFE4
S31508009FB04A100020461000204810002038B502201C
S31508009FC000F0BEFF0649074D074C0848084A00231B
S31508009FD00B6032212B6023600360118038BD00BFFF
S31508009FE05810002054100020501000204C1000205B
S31508009FF05C1000204D4B30B5A3FB0042D20802EBA3
S3150800A000820C4B4CA0EB4C0092B23030E070A3FBB4
S3150800A01002C0C0081FFA80FC00EB8000A2EB4002D9
S3150800A0203032A270A3FB0C02D20802EB8202ACEB20
S3150800A030420C0CF1300C002984F801C043DB3D4A80
S3150800A0404FEAE17C82FB0102CCEBA20C0CEB8C0202
S3150800A050A1EB4201A3FB0C2E4FEADE0EA3FB0E205A
S3150800A060C0083031A172A3FB0021C908A3FB015225
S3150800A070D208A3FB0253DB0803EB8303A2EB4303DB
S3150800A08002EB8202A1EB420201EB8101A0EB410146
S3150800A09000EB8000AEEB40000EEB8E0EACEB4E0CE8
S3150800A0A00CF1300C303030313032303384F809C09E
S3150800A0B02072E171A2716371BDE830401C490C221F
S3150800A0C0022000F07DBF4942A3FB0120C00800EB37
S3150800A0D08002A1EB4201A3FB002C4FEADC0C3031D5
S3150800A0E0A172A3FB0C21C908A3FB0152D208A3FB4A
S3150800A0F00253DB0803EB8303A2EB430302EB820262
S3150800A100A1EB420201EB8101ACEB41010CEB8C0C9B
S3150800A1103032A0EB4C00303030313033E2712D2232
S3150800A12021726072A3716271C6E700BFCDCCCCCC38
S3150800A130FC0000206766666638B5144C04F19C0579
S3150800A14004E09BB224F80C3BAC420FD0228861880D
S3150800A150914202F10103F4D1A368A0881968FFF7B8
S3150800A16049FF012324F80C3BAC42EFD1084A0949C0
S3150800A170136808780133136001F03EFEBDE83840E5
S3150800A18002214FF4FA6001F087BE00BF0C010020DF
S3150800A190501000205C1000202DE9F041274D804624
S3150800A1A00E4601222946022000F0E8FE2B78402BB5
S3150800A1B0F7D1234C04F10B0701222146022014444F
S3150800A1C000F0DCFEBC42F7D16B78EA78303B03EB53
S3150800A1D08303303A03EB830302EB8303AA78303A0E
S3150800A1E002EB820203EB4203A8F80030EB79287AE7
S3150800A1F0AC79697A303B9AB2A0F1300398B2303C18
S3150800A2004FF47A73A4B202FB03F342F210773039A3
S3150800A210AA7A07FB043389B26C79642501EB8101BC
S3150800A22005FB0033303A03EB410313FA82F32D2C76
S3150800A23008BF5B423360BDE8F08100BF5C000020C8
S3150800A2405D00002010B50E4C82B00DF1020001A988
S3150800A250FFF7A2FFBDF80200094A002302E0013316
S3150800A2600C2BF2D09188814202F10C02F7D103EB54
S3150800A270430304EB8303019A9B681A60E5E700BF72
S3150800A2806C00002038B5452001F060FF1A4D1B4CC4
S3150800A290034642202B6001F059FF01221146206037
S3150800A2A0286801F083FF01220021206801F07EFF63
S3150800A2B02868134D01F09AFF2068124C01F096FFAA
S3150800A2C0114A1248124900231380124A2380038038
S3150800A2D00B801380104C11481149124A23800380C1
S3150800A2E00B801380104C11481149124A2B80238089
S3150800A2F003800B80138038BD64100020681000208E
S3150800A300E4100020E6100020E8100020EA100020E3
S3150800A3105E10002060100020D6100020D410002007
S3150800A320CC100020D0100020E2100020E010002001
S3150800A330DA100020DE10002010B5074A03460C4646
S3150800A3401068194601F0B2FF044B21461868BDE8AB
S3150800A350104001F0ABBF00BF641000206810002059
S3150800A3602DE9F04F2DED028B7F4B804CDFF86CA268
S3150800A3707F4FDFF86CB283B005461868009101F08C
S3150800A38055FF2080DAF8000001F050FF3B8802B242
S3150800A390132B8146ABF8002009D876490133098882
S3150800A3A09BB23B80002900F0CC80984605E000234C
S3150800A3B0704A3B809846012313806F4BB4F90020FE
S3150800A3C033F918006D4B0192111A89B201EB81021B
S3150800A3D01C886B4BDFF80CC202EB820292B2A5EB2B
S3150800A3E0020E1D88674BACF80000B3F900306648CA
S3150800A3F00FFA8EF6F31A05FB03F30180634D6449E1
S3150800A40006FB04F40A8085FB04C06249624AE41725
S3150800A410C4EB60140C8085FB0315DB17C3EB6515CD
S3150800A4205E4B1680B3F900305D4A642B1FFA8EFE28
S3150800A4305C4B158075DDB3F90000FEF755F948A3A6
S3150800A440D3E90023FEF7BAF9574B41EC180B1888E5
S3150800A450FEF74AF902460B4651EC180BFEF7AEF921
S3150800A460524B0022FEF7D4FAFEF758FC4B4B00B2CB
S3150800A470641B1880204400B263284D4B5BDD6422C0
S3150800A4801A803D4B019A4B4C23F818203D4B34F863
S3150800A49018001E80484B494EA9EB00001880DAF8D0
S3150800A4A0000001F0E3FE009BB6F90020191A444BA0
S3150800A4B01D88444B09B21B888A1A03FB02F2334BE8
S3150800A4C001FB05F54FEAE57C83FB05E5CCEB651555
S3150800A4D083FB023CD3173C4A10803C4A3C48118017
S3150800A4E03C4AC3EB6C131580EA1A12B2632A03803E
S3150800A4F0394B1BDD64221A803B88BBF8002024F800
S3150800A5001320194B31801868502101F0CFFEDAF874
S3150800A5100000502103B0BDEC028BBDE8F04F01F0FE
S3150800A520C5BE1888704400B2188086E7002AD8BFCE
S3150800A53000221A80E0E70028D6BF002218801A8079
S3150800A5409FE70D481B49248820F8134021F813205B
S3150800A55003B0BDEC028BBDE8F08F00BFAFF30080FF
S3150800A560FCA9F1D24D62603F641000206C100020F7
S3150800A570E4100020E610002070100020AC01002036
S3150800A580A8010020D0100020C41000201F85EB5120
S3150800A590CA100020D6100020CE100020D4100020AB
S3150800A5A0CC100020D2100020AA010020000059403B
S3150800A5B05E1000209C100020C6100020DE1000202F
S3150800A5C0AE010020EC100020D8100020DC1000207E
S3150800A5D0DA100020E2100020601000206810002029
S3150800A5E098100020C810002008B5054B186801F01F
S3150800A5F0FDFD044B1868BDE8084001F0F7BD00BF33
S3150800A600641000206810002038B5064B0546186807
S3150800A6100C4601F00BFE044B2880186801F006FE74
S3150800A620208038BD641000206810002010B5412035
S3150800A63001F08CFD054C01220021206001F0B6FDD9
S3150800A6402068BDE8104001F0D1BD00BFF010002021
S3150800A650024B0146186801F029BE00BFF010002021
S3150800A660024B0146186801F03FBE00BFF0100020FB
S3150800A670014B186801F0BABDF010002008B5432058
S3150800A68001F034FD014B186008BD00BFF41000202E
S3150800A69070B50A4B82B006460D46684619681446D8
S3150800A6A001F002FDBDF800303380BDF80220BDF888
S3150800A6B004302A80238002B070BD00BFF410002049
S3150800A6C008B5442001F02EFC014B186008BD00BFF8
S3150800A6D0F8100020034B10B50446186801F026FC54
S3150800A6E0208010BDF8100020704700BF38B5064D11
S3150800A6F00446284601F07EFB2B8834EA03030CBF88
S3150800A7000120002038BD00BFFC10002010B50C4801
S3150800A71088B04FF4004101F0F1FE0A4A106008B112
S3150800A72008B010BD0849094B0291C02202246946A7
S3150800A730CDE90323009400F001FD01F011FAFEE7CC
S3150800A7400020002000A00020E04702080448020874
S3150800A7500EB410B58BB00DAA044652F8041B01922C
S3150800A76002A8FEF795FF02A9204600F0E7FC0BB009
S3150800A770BDE8104003B0704708B504490620FFF746
S3150800A780E7FF05F0AFFF03F0AAFBFEE7184802084B
S3150800A79002F0D2BA012002F019BB00BF10B582B090
S3150800A7A00C461A460449009403460020FFF7D0FFDA
S3150800A7B001F0D6F9FEE700BF34480208704700BF2B
S3150800A7C0704700BF704700BF704700BF704700BFA3
S3150800A7D0704700BF406800F003B900BF406800F04A
S3150800A7E047B900BF406800F0DFB900BF406800F015
S3150800A7F089B900BF406800F099BA00BF406800F008
S3150800A800ABBA00BF024B03490022C3E900127047E6
S3150800A81004A0002090480208704700BF10B4074BF8
S3150800A820074C00223F201F21C3E90042C3E9022248
S3150800A830C3E904205DF8044B9961704738A20020EB
S3150800A840D0480208704700BF704700BF704700BF76
S3150800A850704700BF704700BF704700BF406800F0F0
S3150800A86029BE00BF406800F06DBE00BF406800F01A
S3150800A87049BF00BF406800F0A9BE00BF406800F0AD
S3150800A880F1BF00BF406801F003B800BF0849094B93
S3150800A89010B4002201F11C0401F13800C3E90A4290
S3150800A8A0C3E90012C3E914025DF8044B704700BF00
S3150800A8B04449020854A6002001F060B801F060B8C7
S3150800A8C001F060B8084601F05FB800BF084601F01D
S3150800A8D05DB800BF704700BF01F06CB801F07CB8E6
S3150800A8E001F07CB8084601F07BB800BF084601F0C5
S3150800A8F087B800BF704700BF01F0A6B801F0A6B838
S3150800A90001F0A6B8084601F0A5B800BF084601F050
S3150800A910A3B800BF704700BF00F024BC014800F090
S3150800A9203FBD00BF2449020800F082BC00F048BCC5
S3150800A9300A2970B50E46044602D1C368DB062ED432
S3150800A94002F02AFD002841DBE36AD3B12268A36A34
S3150800A950D268D6542268A36AE06A55680133013082
S3150800A960AB42A5EB0005A362B5FA85F504BF002343
S3150800A970A362E0626D0902F023FD002826DB284663
S3150800A98070BD256B002DE1D11348314600F0D2FC8D
S3150800A9900028F0D11048012100F0DEFCD6E70D2191
S3150800A9A0FFF7C6FF051EEADBCAD00C4B586802F053
S3150800A9B09DFB051EC4DA05F13503DBB2042B05D869
S3150800A9C0012202FA03F313F0150FD8D10123A3606D
S3150800A9D06FF00405D3E700BF24490208604802085F
S3150800A9E070B5044602F076FDB0BB02F0FBFC002809
S3150800A9F035DB65683DB16FF0280502F01FFD0028BC
S3150800AA002DDB284670BD40F21153C4E90335C4E96D
S3150800AA100555C4E90855C4E90A552577256302F0A2
S3150800AA20BBFC002815DB104800F034FC0F4B1868F7
S3150800AA3002F0DAFD01260C48022100F08DFCC4E97B
S3150800AA40016502F0BDFC0028D7DAA6606FF00405A0
S3150800AA50D3E76FF00405D0E76FF01805D1E70123B7
S3150800AA60A3606FF00405CCE7244902088048020871
S3150800AA7070B5044602F02EFD002835D1054602F0D1
S3150800AA80B1FC002833DB63683BB96FF0280502F098
S3150800AA90D5FC00282BDB284670BD02F07DFC064657
S3150800AAA0154800F041FC154B186802F03BFD65603F
S3150800AAB002F086FC0028A8BFF50F114E7068B8BFD3
S3150800AAC0012502F06DFB0028306806DB02F068FB02
S3150800AAD0002804DB002DDAD001E002F061FB012337
S3150800AAE0A3606FF00405D2E76FF01805D3E70123DA
S3150800AAF0A3606FF00405CEE72449020880480208DF
S3150800AB00604802082DE9F04106460D46174602F050
S3150800AB10E1FC00283CD17368002B3FD0B0680028C0
S3150800AB2039D1B7B1DFF87C800446012028B1D8F8BE
S3150800AB30040002F0DBFA00280DDB15F8011B30468D
S3150800AB40FFF7F6FE002815DB0134A742EED1A8B1BF
S3150800AB502046BDE8F08100F13503DBB2042B05D8A9
S3150800AB60012202FA03F313F0150F03D10123B36090
S3150800AB706FF00400002CEBD1BDE8F081094B586852
S3150800AB8002F040FA0028E3DA0123B3602046E0E742
S3150800AB906FF01800DDE76FF00400DAE76FF02800C1
S3150800ABA0D7E700BF604802082DE9F04F83B0834617
S3150800ABB00F461446009202F08DFC002840F0A8804B
S3150800ABC0DBF80420002A00F0A980DBF8080000283A
S3150800ABD040F0A180002C41D0DFF84CA105464FF08B
S3150800ABE001088146B8F1000F05D0DAF8000002F036
S3150800ABF07DFA002872DB02F0CFFB00285CDBDBF86D
S3150800AC000060DBF810003168DBF81840B668421CB3
S3150800AC10365CDBF82000013C8A4214BF13464B46DB
S3150800AC20B4FA84F8CBF81030CBF818404FEA581825
S3150800AC3010B1B4EB510F2DD902F0C2FB00283BDB53
S3150800AC4007F8016BDBF80C10CB0705F1010508D4F2
S3150800AC50009BAB42C6D1002C38D1284603B0BDE8CC
S3150800AC60F08FDAF804300193184602F03FFA00280C
S3150800AC7042DB31465846FFF75BFE0028EDDBE7D19D
S3150800AC80019802F0BFF90028E2DA0122CBF8082081
S3150800AC902846E3E72348112100F04CFB30B901218F
S3150800ACA0204800F059FB11218BF81C10CBF8209096
S3150800ACB002F086FB0028C3DA0122CBF808206FF0E1
S3150800ACC00400002DC9D103B0BDE8F08F164A1068FC
S3150800ACD002F098F90028D8DB2846BFE700F13502CC
S3150800ACE0D2B2042AE8D8012101FA02F212F0150FAD
S3150800ACF0E2D0002DE7D0B0E73530C2B2042AC4D876
S3150800AD00012101FA02F212F0150FBED02846A5E776
S3150800AD106FF01800A2E76FF004009FE76FF02800B5
S3150800AD209CE700BF244902086048020838B5044673
S3150800AD300D4602F0CFFB28B9636833B1A06838B96D
S3150800AD40E56038BD6FF0180038BD6FF0280038BDD3
S3150800AD506FF0040038BD00BF38B504460D4602F052
S3150800AD60B9FB40B963684BB1A06850B9A269E36AF8
S3150800AD70C5E9002338BD6FF0180038BD6FF028000C
S3150800AD8038BD6FF0040038BD38B5017F044649B9AF
S3150800AD90056B0DB9C36A5BB9BDE838401448012193
S3150800ADA000F0ECBA124800F0C5FA0023237738BD44
S3150800ADB00268436AD2680E48D15C00F0BBFA236881
S3150800ADC0626A5968E36A01328A4218BF154699428F
S3150800ADD0656202D0013BE36238BD064B586802F053
S3150800ADE011F90028B7BF0122E36AE36AA260F1E716
S3150800ADF02449020860480208F8B50446414800F0AC
S3150800AE00A1FAE368DD05C0B228D513285DD0226B08
S3150800AE103ABB112821D02368A1691A6891421CD02F
S3150800AE209A686369D0542268636912680133934249
S3150800AE30636104BF00236361A369002B48D0E268FD
S3150800AE4001335205A36108D5226A32B9226812680D
S3150800AE5002EB4202B3EB920F45D2F8BD226B002AF1
S3150800AE60D9D0112801D09905D5D5E36A00252563DF
S3150800AE70002BF2D0234E244F0FE02368626A5968EC
S3150800AE80E36A01328A4214BF104628469942606234
S3150800AE9012D0013BE362002BDFD02268636AD268D6
S3150800AEA03046D15C00F046FA0028E6D1BDE8F84005
S3150800AEB01448012100F050BA786802F0A3F8002877
S3150800AEC0BCBF0123A360E36AE3E701232363F8BD5C
S3150800AED00D4B186802F096F80028B7BF0122A3693F
S3150800AEE0A369A260ABE70748132100F023FA28B943
S3150800AEF00448012100F030FA132323770123236243
S3150800AF00F8BD00BF244902086048020843680BB12F
S3150800AF10C36A0BB9184670470268436AD268D35C9D
S3150800AF200B700268436A526801339342C26A4362ED
S3150800AF3004BF00234362013A0123C26218467047E0
S3150800AF4010B5044602F0C6FA98B9002C0EDD0A4B75
S3150800AF505A68A2420ADB04F180441B68013C53F894
S3150800AF6024000368BDE810401B6818476FF01100FD
S3150800AF7010BD6FF0180010BDC848020870B5044629
S3150800AF800D46164602F0A6FAA8B9002C10DD0B4BA2
S3150800AF905A68A2420CDB04F180441B68013C324625
S3150800AFA053F82400036829469B68BDE87040184793
S3150800AFB06FF0110070BD6FF0180070BDC848020828
S3150800AFC070B504460D46164602F084FAA8B9002C58
S3150800AFD010DD0B4B5A68A2420CDB04F180441B6857
S3150800AFE0013C324653F8240003682946DB68BDE86D
S3150800AFF0704018476FF0110070BD6FF0180070BDF3
S3150800B000C848020800F030B92DE9F04F0D4689B05E
S3150800B010EFF3108772B6264C0126636986401E42F6
S3150800B02023D0244AE368D2F800908E46D16803F10B
S3150800B030010801EB431A204BD3F800B0BEE80F0015
S3150800B040D446ACE80F009EE80F00C8458CE80F0010
S3150800B05028BF0023CAF804B0C4F80C8028BFE360F0
S3150800B060636899450BD901336360A3691E420ED103
S3150800B070012F00D062B6002009B0BDE8F08FE36862
S3150800B080A360236901332361A3691E42F0D00A4BEA
S3150800B0902C461E680FCC6D460FC594E80F0085E850
S3150800B0A00F00064901966846FEF7C6FAE0E700BFB4
S3150800B0B038A20020D0480208504F012005B00008E9
S3150800B0C0F0B583B0EFF3108272B6012A29D0194C75
S3150800B0D06568002605B3184AA168D36803EB411EC4
S3150800B0E0136801934F1C8446BEE80F00ACE80F00B6
S3150800B0F09EE80F008CE80F00019B20699F4228BF3D
S3150800B100002305F1FF35C4E9015728BFA3600023D2
S3150800B11023611EB103B0F0BD6FF0280062B603B01C
S3150800B120F0BD044C65681646002DD4D16FF0280092
S3150800B130F0E700BF38A20020D0480208FFF764BF36
S3150800B14000B583B0034601220DF1070103488DF8C7
S3150800B1500730FFF7D7FC03B05DF804FB04A0002016
S3150800B16000F082B830B51248124D134C89B0FFF77B
S3150800B17037FC124B02930122694605200092FFF71D
S3150800B180DDFF6846FFF79CFF002809DB0CD1214646
S3150800B1906846FEF751FA6846FFF792FF0028F5DA87
S3150800B1A0286801F07BFEECE72146FEF761FAEEE738
S3150800B1B004A00020E048020841B10008044A020839
S3150800B1C0F0B5184D8BB003E09DF8070000F04CF879
S3150800B1D00DF107012846FFF799FE04460028F3D12A
S3150800B1E002A8FFF76DFF051E0F4E104F0CDB6CB162
S3150800B1F09DB9314602A8FEF71FFA02A8FFF760FFBD
S3150800B200051E4FF00104F2DA0BB0F0BD21463246B6
S3150800B2103846FEF743F9002DEBD031462846FEF7AF
S3150800B22027FAE6E704A0002061B10008244A0208CC
S3150800B23010B50B4B0B4988B0D3E9002302910124C2
S3150800B24003200721CDE9030100946946002405205F
S3150800B250CDE905420793FFF771FF08B010BD00BF9F
S3150800B2601C490208404A02080A2838B5044607D08D
S3150800B270074D2146284600F05DF80028F9D038BD6C
S3150800B280034D0D21284600F055F80028F9D0EFE7C0
S3150800B2902449020810B5044620482368D96821F4D1
S3150800B2A00051D96023F44061002281421A61DA60B4
S3150800B2B05A612FD003F0CEF902466168184BA3FBFA
S3150800B2C002021848A3FB01314FF47A7C5209490956
S3150800B2D00CFB02F20901B2FBF1F32268A0FB034161
S3150800B2E089090CFB11331B0103F5FA73A0FB030351
S3150800B2F0C3F3831343EA01139360D36843F00C0343
S3150800B300D360536943F001035361D36843F4005390
S3150800B310D36010BD03F0B6F90246CEE7001001402F
S3150800B3201F85EB51D34D62100268D36823F400538E
S3150800B330D36070470368186810F080001CBF596016
S3150800B3400120704703681A68920646BF5868C0B25B
S3150800B3504FF0FF30704700BF012908D0022905D1F8
S3150800B3600268D36843F02003D360704770470268C9
S3150800B370D36843F08003D360704700BF012908D023
S3150800B380022905D10268D36823F02003D3607047E9
S3150800B39070470268D36823F08003D360704700BF04
S3150800B3A003681A68910606D41B681B0600D4704702
S3150800B3B00848FFF7E9BC10B504460648FFF71CFD28
S3150800B3C023681B681A0600D410BDBDE81040014862
S3150800B3D0FFF7DABC04A000200EB400B58AB00CAAA8
S3150800B3E002A806490192FEF753F902A90020FFF7C1
S3150800B3F0A5FE0AB05DF804EB03B070479C4B020843
S3150800B4000A2970B50E46044602D1C368DB0626D45F
S3150800B41001F0C2FF002846DB2268236A9269D654E7
S3150800B4202268236A1569616A0133AB4201F1010199
S3150800B4302362A5EB010504BF00232362B5FA85F54F
S3150800B440012961624FEA551503D110680368DB6864
S3150800B450984701F0B5FF002825DB284670BD0D2169
S3150800B460FFF7CEFF051EF8DBD2D0636A23B1236847
S3150800B470186803689B68984723685B68186801F032
S3150800B48035FE051EC4DA0A492A460020FFF7A4FF3E
S3150800B49005F13503DBB2042B05D8012202FA03F3C2
S3150800B4A013F0150FD9D10123A3606FF00405D4E773
S3150800B4B09C4B020870B5044602F00CF800283ED1F1
S3150800B4C02368186803681B68984701F08BFF0028F3
S3150800B4D030DB65683DB16FF0280501F0AFFF002845
S3150800B4E028DB284670BD40F21153C4E90335C4E988
S3150800B4F00555C4E90755656201F04EFF002816DBBD
S3150800B50023681868036801211B6998472368186827
S3150800B51003680221DB6801269847C4E9016501F042
S3150800B5204FFF0028D9DAA6606FF00405D5E76FF05B
S3150800B5300405D2E70123A3606FF00405D1E76FF095
S3150800B5401805CEE770B5044601F0C4FF002835D1CA
S3150800B550054601F047FF002833DB63683BB96FF007
S3150800B560280601F06BFF00282BDB304670BD01F082
S3150800B57013FF23680646186803685B689847656082
S3150800B58001F01EFF23685B6800281868ACBFF60F39
S3150800B590012601F005FE23689B680028186806DB6B
S3150800B5A001F0FEFD002804DB002EDAD001E001F0F0
S3150800B5B0F7FD0123A3606FF00406D2E76FF01806C3
S3150800B5C0D3E70123A3606FF00406CEE72DE9F04127
S3150800B5D005460F46904601F07DFF002840F0898019
S3150800B5E06B68002B00F08880AE68002E7ED12B6831
S3150800B5F05B68186801F07AFD041E51DBB8F1000F8C
S3150800B60063D017F8011B2846FFF7FAFE041E32DB43
S3150800B6100136B04525D0002CF3D06B6A23B12B68D0
S3150800B620186803689B6898472B685B68186801F078
S3150800B6305DFD041EE5DA002031492246FFF7CCFEFF
S3150800B64004F13500C0B2042805D8012303FA00F036
S3150800B65010F0150F01D10123AB6034462046BDE832
S3150800B660F0816B6A63B12B68186803689B68984712
S3150800B670002C33D00024002EEFD12046BDE8F081FF
S3150800B680002CEAD12B685B68186801F0BBFC00281F
S3150800B690E3DA0123AB606FF00404002EEDD0DCE79B
S3150800B6A0174922463046FFF797FE04F13503DBB209
S3150800B6B0042B05D8012202FA03F313F0150FCDD196
S3150800B6C00123AB606FF00404C8E76E6A2B68002E8E
S3150800B6D0D9D0186803689B68464698472B685B6804
S3150800B6E0186801F08FFC0028C4DAD2E76FF004046A
S3150800B6F0B4E76FF01804B1E76FF02804AEE700BFAF
S3150800B7009C4B02082DE9F04F83B0044688469146C3
S3150800B71001F0E0FE002840F099806368002B00F0F5
S3150800B7209B80A568002D40F09480B9F1000F31D0B8
S3150800B7302F460126AA4636B123689B68186801F089
S3150800B740D5FC051E4CDB01F027FE002858DB2168D6
S3150800B7502269CE68A5694869531CB34214BF1946C5
S3150800B7605146013D10F802B0A561216101F028FE9D
S3150800B770B5FA85F600284FEA561641DB08F801BBEC
S3150800B780E368DB0707F1010708D4B945D3D1002DD3
S3150800B79040D13D46284603B0BDE8F08F23685B6874
S3150800B7A0186801F0A3FC021E3DDB59462046FFF748
S3150800B7B027FE0028EDDB08D0636A002BE5D0236856
S3150800B7C0186803689B689847DFE723685B6818680A
S3150800B7D001F018FC0028EFDA0123A3603D46D9E7FB
S3150800B7E01F492A460020FFF7F7FD05F13503DBB2AE
S3150800B7F0042B05D8012202FA03F313F0150F03D11F
S3150800B8000123A3606FF00405002FC2D1284603B0B8
S3150800B810BDE8F08F23689B68186801F0F3FB0028E1
S3150800B820DADB3D46B6E70E4901920020FFF7D4FD64
S3150800B830019A02F13503DBB2042BCDD8012202FAB4
S3150800B84003F313F0150FC7D03D46A3E76FF01805AD
S3150800B850A0E76FF004059DE76FF028059AE700BF9B
S3150800B8609C4B020838B504460D4601F033FE28B94C
S3150800B870636833B1A06838B9E56038BD6FF0180061
S3150800B88038BD6FF0280038BD6FF0040038BD00BF22
S3150800B89038B504460D4601F01DFE40B963684BB144
S3150800B8A0A06850B9A269636AC5E9002338BD6FF07C
S3150800B8B0180038BD6FF0280038BD6FF0040038BD99
S3150800B8C0406A704738B5456A0446B5B10268C36927
S3150800B8D09269D35C0B700168C3690A6901339342A4
S3150800B8E0C36104BF0023C361436A9A420DD0013B7A
S3150800B8F0636201250BB1284638BD236818680368BA
S3150800B90001211B699847284638BD4B68186801F01D
S3150800B91079FB002801DB636AE9E70123A3606FF07E
S3150800B9200405E8E7036810B5DA68044680699042BA
S3150800B9301CD05A696369D15422686369D168013396
S3150800B9408B42636104BF00236361A3691BB10133A2
S3150800B950A361012010BD9368186801F053FB002805
S3150800B96006DBA3690133A3610120F3E7002010BDBC
S3150800B9700123A3606FF0040010BD00BF704700BF2D
S3150800B980704700BF704700BF704700BF704700BFD1
S3150800B9900148FFF795BF00BF54A60020014601489D
S3150800B9A0FFF790BF54A6002001460148FFF7BABF2B
S3150800B9B054A6002010B500F08FFA064C01E001F0FD
S3150800B9C06DFA022003F078FD03462046002BF6D0D8
S3150800B9D010BD00BF40420F00704700BF07F0A6BE6B
S3150800B9E0012806D0022803D1034B01221A607047AA
S3150800B9F07047024B18607047E4AA0020E8AA0020A6
S3150800BA00012806D0022803D1044B00221A60704789
S3150800BA107047034B00221A60704700BFE4AA002053
S3150800BA20E8AA00200148FFF74BBF00BF7CA600200C
S3150800BA3001460148FFF746BF7CA60020014601489B
S3150800BA40FFF770BF7CA60020704700BF704700BF95
S3150800BA50704700BF704700BF704700BF08B5FEF7C4
S3150800BA60ADFEFEF7ADFEFEF7ADFEFEF7ADFEFEF748
S3150800BA70ADFEFEF7ADFEFEF7C5FEFEF7CDFEFEF700
S3150800BA80CDFEFEF7DFFEFEF7DFFEFEF7DFFEFEF772
S3150800BA90DFFEFEF7DFFEFEF7DFFEFEF7F7FEFEF738
S3150800BAA019FFFEF727FFBDE80840FEF733BF00BFC2
S3150800BAB001F0DCB80148FEF731BF00BF8448020830
S3150800BAC001F0D4B801F0D2B801F0D0B801F0CEB880
S3150800BAD008B500F07BFF01F07DFA01F0A9FB01F043
S3150800BAE00DFDBDE8084001F0E1BD00BF0EB400B58C
S3150800BAF08AB00BAA02A852F8041B0192FDF7C8FDEA
S3150800BB0002A90020FFF71AFB0AB05DF804EB03B0A0
S3150800BB10704700BF08B500F0E3F8024A024B126806
S3150800BB201A6008BD384F0208B001002070B520F031
S3150800BB301F040A4E84B004F58075D4E90032A06863
S3150800BB40E16802911034CDE90020314622460020F2
S3150800BB50FFF7CCFFA542F0D104B070BDB85002087B
S3150800BB6038B512490020FFF7C1FF11490020FFF739
S3150800BB70BDFFEFF30885EFF309846A460D490020F7
S3150800BB80FFF7B4FF0C492A460020FFF7AFFF284607
S3150800BB90FFF7CCFF094922460020FFF7A7FF2046FA
S3150800BBA0FFF7C4FF00F0B8FDFEE700BFD450020857
S3150800BBB0E4500208F8500208005102080C51020825
S3150800BBC008B503490020FFF791FF00F0A5FDFEE741
S3150800BBD01851020800B5002083B000F08BF8002445
S3150800BBE00194019BB3F5801F06DA019B013301938B
S3150800BBF0019BB3F5801FF8DB002000F0A3F8EFE700
S3150800BC0030B589B000F010FD284B1A6842F400726E
S3150800BC101A601A6842F480621A601A6842F48072DE
S3150800BC2000241A6000F096F8204600F063F8204BCE
S3150800BC3001941A6B1F4842F008021A631A6B02F045
S3150800BC4008020192019A02945A6C42F040025A6420
S3150800BC505B6C03F04003022102934FF40043049106
S3150800BC6006910B2503A90393029B079501230593C8
S3150800BC7002F062F94FF480430E48039303A907952F
S3150800BC8002F05AF90C480D4904614FF4E1320C23CD
S3150800BC90C0E90012C0E90244C0E90534C46102F0F3
S3150800BCA059FE08B909B030BDFFF794FF003C0240C1
S3150800BCB000380240000C02408C4D0120001801405B
S3150800BCC000207047034A044B1068A3FB0030800924
S3150800BCD0704700BFFC4F0120D34D6210704700BF6C
S3150800BCE0034AD2F8883043F47003C2F888307047A4
S3150800BCF000ED00E070B5044686B050B90F4B0090D1
S3150800BD001A6B42F001021A631B6B03F001030093DE
S3150800BD10009B0B4E012356F824002025022201A978
S3150800BD20CDE90332CDE9015302F006F956F82400AD
S3150800BD300022294602F0E8F906B070BD0038024034
S3150800BD40B4010020024B202153F8200002F0E1B98B
S3150800BD50B401002030B595B00023244A0093116C35
S3150800BD60234841F080511164126C02F0805200920F
S3150800BD70009A0193026822F4404242F400420260AB
S3150800BD80026802F440420221012401924FF4800025
S3150800BD904FF48032CDE90742CDE90933CDE90C31BC
S3150800BDA0082460220E90042307A8CDE90F42CDE9A6
S3150800BDB01113019D139102F0BDF980B902200F24D9
S3150800BDC00023CDE902404FF48052052102A8CDE9AF
S3150800BDD00432069302F084FB20B915B030BDFFF794
S3150800BDE0F9FEEBE7FFF7F6FE15B030BD0038024066
S3150800BDF00070004003F067BC214A1178814236D0B2
S3150800BE0008B51070FCF770FC1E4B0022FCF700FE0C
S3150800BE109FED170B41EC110B17F0F2FB1A4B51EC87
S3150800BE20100B0022FCF712FB184B0022FCF7F0FD62
S3150800BE3011A3D3E90023FCF7C1FCFCF797FF82B2F4
S3150800BE40134BC2F5FF417F3189B203F1800023F815
S3150800BE50021F8342FBD10F4B02F5FF427F3292B29B
S3150800BE6003F1800123F8022F8B42FBD108BD7047EE
S3150800BE70000000000000244000000000C0FFDF4072
S3150800BE80D04E0120000059400000F03F000022403B
S3150800BE90CE4D01204E4E012045F6C052904228BF95
S3150800BEA010464028024638BF402210B509480C46BD
S3150800BEB09201802103F0A2FF002C09DB4FF47A706F
S3150800BEC004FB00F000F0EAFFBDE8104003F0BABF3B
S3150800BED010BD00BFD04D012008B501F05DFA054B35
S3150800BEE0054801221A7003F05DF801F069FA00208E
S3150800BEF008BD00BFD14E0120640200200EB400B573
S3150800BF008AB00BAA02A852F8041B0192FDF7C0FBDF
S3150800BF1002A90320FFF712F90AB05DF804EB03B093
S3150800BF20704700BF3E2101F03DBC00BF10B582B08E
S3150800BF3001AA002101F054FC10B9019802B010BD05
S3150800BF40044603490320FFF7D9FF604202B010BD3B
S3150800BF50405102080EB400B58AB00BAA02A852F8DE
S3150800BF60041B0192FDF794FB02A90320FFF7E6F8EC
S3150800BF700AB05DF804EB03B0704700BF10B503883C
S3150800BF80B3F5806F18BFC3F38702438882B008BF32
S3150800BF90FF22B3F5806F8DF8042018BFC3F387021C
S3150800BFA0838808BFFF220C46B3F5806F14BFC3F31E
S3150800BFB08703FF2301A88DF805208DF8063004F0C5
S3150800BFC017FCE078032820D9A378032B21D9B4F8E5
S3150800BFD000C0BCF1270F25D9214AC3F1C80103FBCC
S3150800BFE001F182FB0123CA17C2EB6312D2B2C0F178
S3150800BFF0C8031B49A27000FB03F381FB0301DB178F
S3150800C000C3EB6113E37002B010BD0022002121804A
S3150800C010EDE7C3F1C80203FB02F26423B2FBF3F2B5
S3150800C020D2B2F3E7ACF114021421120292FBF1F238
S3150800C030D2B24FF0640E02FB02F20EFB02F10914B3
S3150800C040C1F1C801C3F1C8020CFB01F103FB02F2FE
S3150800C050B1FBFEF192FBFEF289B2D2B2D7E700BF7E
S3150800C0601F85EB5130B587B00D4602AA052101F0B0
S3150800C070B7FB044678B9DDE90202049BADF8000077
S3150800C08029466846ADF80220ADF80430FFF776FF7A
S3150800C090204607B030BD03490320FFF75BFF204663
S3150800C0A007B030BD6C51020810B50B4684B0044683
S3150800C0B06A460521184601F093FB50B9BDF80420DD
S3150800C0C0BDF808300099218020466280A38004B01C
S3150800C0D010BD05490320FFF73DFF002320462380B6
S3150800C0E06380A38004B010BD9C51020870B53D2141
S3150800C0F082B001F057FB094C094D01A90646FFF726
S3150800C100B1FF062344F8043B0FCD0FC495E803009E
S3150800C11084E80300304602B070BD00BFD44E01204B
S3150800C120B80100200EB400B58AB00CAA02A80649C8
S3150800C1300192FDF7ADFA02A90320FEF7FFFF0AB048
S3150800C1405DF804EB03B07047BC510208F0B585B042
S3150800C150002401210646039401F0A6FB70B9104F8E
S3150800C1600A2503A9304605F07BFB0446082C384609
S3150800C17010D100F093FE013DF3D1204604F0ECFE09
S3150800C180084A0090084933460320FFF7CBFF0020F2
S3150800C19005B0F0BD002CF0D1039805B0F0BD00BF86
S3150800C1A040420F00D8510208BC51020830B5134668
S3150800C1B085B04FF47A72054605F07EFB044610B941
S3150800C1C0204605B030BD2B681B78039304F0C4FEE7
S3150800C1D0044A00900449039B0320FFF7A3FF204667
S3150800C1E005B030BDF0510208BC51020830B5002236
S3150800C1F085B01146054605F08CFC044610B9204664
S3150800C20005B030BD2B681B78039304F0A5FE054ADC
S3150800C21000900549039B0320FFF784FF204605B0DD
S3150800C22030BD00BF04520208BC51020810B586B0E2
S3150800C230002305A90446059301F04CFA10B90598A0
S3150800C24006B010BD23681B78039304F085FE054AE3
S3150800C25000900549039B0320FFF764FF059806B085
S3150800C26010BD00BF1C520208BC51020810B586B0AA
S3150800C270002305A90446059301F034FA10B9059878
S3150800C28006B010BD23681B78039304F065FE054AC3
S3150800C29000900549039B0320FFF744FF059806B065
S3150800C2A010BD00BF34520208BC51020830B505461D
S3150800C2B085B0006801F022FA044610B9204605B098
S3150800C2C030BD2B681B78039304F046FE044A0090A1
S3150800C2D00449039B0320FFF725FF204605B030BD20
S3150800C2E04C520208BC51020830B585B0054601F02B
S3150800C2F003FA044610B9204605B030BD2B681B78F2
S3150800C300039304F029FE054A00900549039B032080
S3150800C310FFF708FF204605B030BD00BF645202088B
S3150800C320BC51020830B54B6823F003037F2B89B054
S3150800C33035D89B10002203EB421C00EB8C0CDCF872
S3150800C3407440002C3CD0C1E90240E16001F10B04C5
S3150800C35024F0030401F1080EA6450FD02048214B0E
S3150800C36002904FF41C72022469460020CDE903238B
S3150800C3700094FEF7E3FEFFF7F3FBFEE7CCF8741034
S3150800C380012101FA02F401FA03F3016900EB8202C2
S3150800C3902143016151690B43536109B030BDB3FABA
S3150800C3A083F2C2F11A04E34083F02003C2F11902B2
S3150800C3B003EB421C00EB8C0CDCF87440002CC2D159
S3150800C3C00749094B029140F26A220225694620462E
S3150800C3D0CDE903230095FEF7B1FEFFF7C1FBFEE7A3
S3150800C3E07C520208D0520208A05202080EB400B5C8
S3150800C3F08AB00BAA02A852F8041B0192FDF748F965
S3150800C40002A90020FEF79AFE0AB05DF804EB03B015
S3150800C410704700BF30B511F0030589B035D1083A29
S3150800C42022F003031C4A0C46A3F10C01914223D8BF
S3150800C430254643F0010355F804296B602946FFF7A2
S3150800C44071FF6B6833F0030007D0231D03440222F3
S3150800C45043E90152204609B030BD1049104B0291FC
S3150800C46040F2C31202246946CDE903230094FEF77D
S3150800C47065FEFFF775FBFEE728460A4B0A491422B4
S3150800C480FFF7B4FF284609B030BD0020074904224B
S3150800C490FFF7ACFF0020DEE7F4FFFF3F7C520208FF
S3150800C4A06C53020808000040B85302088453020877
S3150800C4B010F0030110B516D104460161C0E9020067
S3150800C4C06022143018F0B2F804F1F00204F54F6156
S3150800C4D0A2F1800343F8044F9342FBD180328A428B
S3150800C4E0F6D1204610BD0449042200200024FFF797
S3150800C4F07DFF204610BD00BFF853020870B50E46F2
S3150800C5000546FFF7D5FFA6F67442044605F67441BC
S3150800C510FFF780FF204670BD4FF0E02307491A69F0
S3150800C520074822F001021A61596199611A690021C6
S3150800C53042F005021A610160704700BFFF760100EC
S3150800C540504F01204FF0E02300221A61704700BFC8
S3150800C550034A136803F57A73136000F0E1BA00BF63
S3150800C560504F01200EB400B58AB00BAA02A852F8A3
S3150800C570041B0192FDF78CF802A90020FEF7DEFDE8
S3150800C5800AB05DF804EB03B0704700BF031F0B2B1E
S3150800C59011D80E4B820853F822301A6800F00300AF
S3150800C5A0C0004FF0FF0C0CFA00FC22EA0C02814096
S3150800C5B0114319607047A0F11003652BFAD823F0D0
S3150800C5C0030303F1604303F56443E6E7C055020835
S3150800C5D0043803280BD8DFE800F01D140B024FF0CF
S3150800C5E0E022D2F8243D43F40023C2F8243D7047E4
S3150800C5F04FF0E022D2F8243D43F48023C2F8243DCC
S3150800C60070474FF0E022D2F8243D43F40033C2F8D5
S3150800C610243D70474FF0E022D2F8243D43F480339E
S3150800C620C2F8243D704700BF10B4102383F3118865
S3150800C6303348344A0023012103601160BFF34F8F4A
S3150800C6404FF0E0223049C2F8081DD2F8181D2F48CD
S3150800C65021F0FF01C2F8181DD2F8181D006821F450
S3150800C6607F41C2F8181DD2F8181D21F47F01C2F8BF
S3150800C670181DD2F81C1D21F07F41C2F81C1DD2F8E6
S3150800C680201D21F0FF01C2F8201DD2F8201D21F43B
S3150800C6907F0141F47001C2F8201DD2F8241D41F42F
S3150800C6A08031C2F8241DD2F8241D41F40031C2F8A5
S3150800C6B0241DD2F8241D41F48021C2F8241DD2F885
S3150800C6C0141D21F40071C2F8141DD2F8881D4FF00C
S3150800C6D0404441F47001C2F8881DC2F8344F60B175
S3150800C6E000EB80000A4A0B4C4000116944F82310FD
S3150800C6F00A33834202F11802F7D15DF8044B7047FA
S3150800C700584F0120544F0120008000088450020829
S3150800C710BC4F0208304C012082B0044B0193019BA8
S3150800C72013B1019B02B0184702B07047DDBC000880
S3150800C73070B5A0F10F0CBCF1660F88B02ED80C4668
S3150800C74002F110010F2919D80F283DD05342DBB248
S3150800C750A0F11001C3F110034FEA511C01F01F02AA
S3150800C76001261901224B964043F82C604FEA8C05A6
S3150800C770FFF70CFFE30721D408B070BD1D481E4B18
S3150800C78002904FF49272022469460020CDE90323F1
S3150800C7900094FEF7D3FCFFF7E3F9FEE71548174BBD
S3150800C7A0029040F22312022469460020CDE90323B1
S3150800C7B00094FEF7C3FCFFF7D3F9FEE705F16045E1
S3150800C7C005F561452E60D7E74FF0E02553422A6903
S3150800C7D0DBB222F00202C3F110032A611901FFF746
S3150800C7E0D5FEE207C8D52B6943F002032B61C3E7E0
S3150800C7F080E100E02C5402087C54020860540208C8
S3150800C80010B5EFF31184EFF30582054B53F8223088
S3150800C8109847044B00221A6084F3118810BD00BFA4
S3150800C820404C0208544F0120F0B587B0036A0768E8
S3150800C830466A05930446EFF305852C49C5F30805B2
S3150800C8400020FFF78FFECDE900672949059B029472
S3150800C8502A460020FFF786FE032D38D0042D28D05F
S3150800C860052D11D0062D0AD122490020FFF77AFEA0
S3150800C870214B22499A6A0020120CFFF773FE07B073
S3150800C880BDE8F040FFF76CB91B4C1D490020FFF7C7
S3150800C89069FEA26A1949C2F307220020FFF762FE61
S3150800C8A0A36A1B04EBD5A26B16490020FFF75AFEB4
S3150800C8B0E5E715490020FFF755FE144A14490020FC
S3150800C8C0FFF750FE07B0BDE8F040FFF749B9114938
S3150800C8D00020FFF747FE084B0F49DA6A0020FFF7EA
S3150800C8E041FE07B0BDE8F040FFF73AB9B454020874
S3150800C8F0D45402088055020800ED00E0605502088D
S3150800C90054550208705502083855020850ED00E0E3
S3150800C91044550208185502082855020810B5EFF3C1
S3150800C920058407490020FFF71DFEC4F308020549E0
S3150800C9300020FFF717FEBDE81040FFF711B900BF4A
S3150800C94090550208B0550208F8B5FFF787F8FFF7C3
S3150800C95057F900F0B9F8FFF7BBF80C4B1D6855B14D
S3150800C9600B4E0024371F57F8343056F8340001347C
S3150800C9709847AC42F7D1074A074B12681A6000F08D
S3150800C980CDF8064B01221A60FBF7DAFC9050020834
S3150800C9901C4E0208504F0120FC4F01205C4F01201D
S3150800C9A0F8B5084B1D6855B1074E0024371F57F8D0
S3150800C9B0343056F8340001349847AC42F7D1FFF7C3
S3150800C9C0FFF800BF94500208B04F02082DE9F0475F
S3150800C9D0234D244C24482549254B00222A602260F1
S3150800C9E0012202600A6003F18002C3E900330833BA
S3150800C9F09342FAD11F4A204B15684FF0000AA3F854
S3150800CA0000A05DB31D4CDFF87C801D4F564601E043
S3150800CA10AA4523D054F8043B013B03EB830908EBF2
S3150800CA20C90903EB430399F80F2007EBC3036FF318
S3150800CA300002C9F80830484689F80F2000F024F8A3
S3150800CA40D9F80830C9F814601B68DB070AF1010A2F
S3150800CA50DED5484600F026F8AA45DBD1BDE8F087C2
S3150800CA60684F01206C4F0120644F0120604F012060
S3150800CA70744F012084500208704F01209850020814
S3150800CA80BC4F0208104C0120C37B82680021017349
S3150800CA9023F01E03127B427343F008038273C373A9
S3150800CAA0704700BF82685269203A10B40021054CCD
S3150800CAB082610122C46141625DF8044B027300F091
S3150800CAC04FBF00BFDD8300089FED0B7B0C4B0D4964
S3150800CAD00D4A0E4810B483ED007B0D4C00230B6005
S3150800CAE00C4923600C4C04600B605DF8044B126023
S3150800CAF0704700BFAFF30080000000000000000090
S3150800CB0008500120F84F0120504D0120F44F012014
S3150800CB100050012004500120003E14F4704700BF65
S3150800CB202DE9F04F8BB0EFF3148515F0020301934E
S3150800CB300FD04448444B049040F25122022402A9E3
S3150800CB400020CDE905230294FEF7F8FAFFF708F866
S3150800CB50FEE7DFF80C81D8F80030002B58D1EFF348
S3150800CB601182102383F31288384901230A60C8F812
S3150800CB700030BFF34F8FDFF8ECA0DFF8EC90344FAE
S3150800CB80344ECAF8003009F1040401F0E5F8D9F882
S3150800CB900000A0422AD3002208E0DBE902309847C9
S3150800CBA0D9F80000A0424FF00102EED3D9F804B03C
S3150800CBB03B68DBF800103568C91AEB1A9942A0F1F0
S3150800CBC0040C11D8019BC9F800C00133A445019390
S3150800CBD0E3D303682046196801F086F8D9F80030CF
S3150800CBE05B6803605860D8E7002ACED1019BFBB189
S3150800CBF0FFF794FF0023CAF80030C8F80030BFF3E7
S3150800CC004F8F124B1B6883F311880BB0BDE8F08F6A
S3150800CC100C49114B049140F25222022402A90198B0
S3150800CC200294CDE90523FEF789FAFEF799FFFEE798
S3150800CC300A4B0493012202A905200292FEF77EFA06
S3150800CC40D6E700BFD0550208F0550208584F012014
S3150800CC50F44F0120F84F012000560208105602082A
S3150800CC60544F012000500120504D012070B52C4C26
S3150800CC702568002D50D1002826D042DD294B1B6897
S3150800CC8083423EDB284B013800EB800003EBC000F3
S3150800CC90EFF31183102282F31288244E33600123A6
S3150800CCA02360BFF34F8F037BE3B183681B68990743
S3150800CCB011D56FF02A0500232360BFF34F8F336821
S3150800CCC083F31188284670BDEFF314839A0718D5A5
S3150800CCD0174B1868DCE7C37BDA07EAD443F001038D
S3150800CCE0C373E8E7FFF7DEFE114A124B10681968AE
S3150800CCF08842E0D0EFF314839B0706D5FBF73AFB8F
S3150800CD00D9E76FF01105284670BD4FF0E0234FF0C4
S3150800CD108052C3F8042DCEE76FF01805D2E700BF9E
S3150800CD20544F012084500208104C0120584F01200E
S3150800CD30684F01206C4F012070B582B0EFF3148361
S3150800CD40980719D51C4D2C68B4B91C4B1B689BB1A8
S3150800CD50102383F311881A4A012314602B60BFF34A
S3150800CD604F8F184E3068C37B59070AD49A0713D5D4
S3150800CD7064F34103C37306E06FF01804204602B05B
S3150800CD8070BD6FF0340400232B60BFF34F8F83F31D
S3150800CD901188204602B070BD0423037300F008FE14
S3150800CDA03068019401AB0361074B32461968FBF7FB
S3150800CDB0E1FA019CE7E700BF544F0120604F0120CC
S3150800CDC0584F0120684F01206C4F012070B52D4C3B
S3150800CDD02568002D53D1002822D033DD2A4B1B6845
S3150800CDE083422FDB294B013800EB800003EBC000A0
S3150800CDF0EFF31183102282F31288254E3360012344
S3150800CE002360BFF34F8F037B8BB96FF02805002390
S3150800CE102360BFF34F8F336883F31188284670BDAC
S3150800CE20EFF314839A070DD51A4B1868E0E723F039
S3150800CE300203042B0DD0C37B9A0707D443F00203E1
S3150800CE40C373E4E76FF01105284670BD6FF02A0535
S3150800CE50DDE700F04DFE0F4A0F4B1068196888424F
S3150800CE60D5D0EFF314839B0702D5FBF783FACEE7F9
S3150800CE704FF0E0234FF08052C3F8042DC7E76FF058
S3150800CE801805CBE7544F012084500208104C0120A6
S3150800CE90584F0120684F01206C4F0120EFF314838F
S3150800CEA09A0725D570B5224D2B6886B0002B39D147
S3150800CEB0204A1268002A35D01F4A9042044634D8C0
S3150800CEC0102282F311881D4901220B602A60BFF3E4
S3150800CED04F8F1B4E3068C37B5B070CD56FF0340051
S3150800CEE000232B60BFF34F8F83F3118806B070BD04
S3150800CEF06FF0180070470823037300F059FD336874
S3150800CF00059301AA1A6102A80E4B019021460493C3
S3150800CF1000F05CFF0C4B306819683246FBF72AFABA
S3150800CF200198DDE76FF01800E0E76FF01000DDE725
S3150800CF30544F0120604F012000286BEE584F012006
S3150800CF40684F012051DB00086C4F012008B5EFF34C
S3150800CF5014839B0719D5194B1A68CAB1184B1A6856
S3150800CF606AB9184A116809B90121116016490A688F
S3150800CF70F2B901221A6000F0BFFC144B1860144B7A
S3150800CF80186800F085FDFBF7ECF96FF0180008BD8E
S3150800CF90EFF31180102282F312880B4901220860F0
S3150800CFA01A60BFF34F8F064B1A68002AE7D1D8E7F5
S3150800CFB01209102A1CBF00220A60DAE7544F012022
S3150800CFC0604F0120644F0120584F01206C4F01200B
S3150800CFD0684F0120084B186868B1084B084A03EBEC
S3150800CFE000105168D960C3E901321B6010338342CF
S3150800CFF002F10C02F5D170478050020880BB002070
S3150800D000404F0208F0B5314C256889B0002D5AD139
S3150800D010002855DD2E4B1B68834251DB431EEFF378
S3150800D0201182102181F312882A4E32600122226071
S3150800D030BFF34F8F284A190102EB0313885883421E
S3150800D0401AD007688F507B6000F052FD234A244BA4
S3150800D05010681968884205D0EFF314839B0728D512
S3150800D060FBF788F900232360BFF34F8F336883F3F8
S3150800D0701188284609B0F0BD5A6893420ED019495E
S3150800D080194B02919A22022469462846CDE90323C0
S3150800D0900094FEF753F8FEF763FDFEE7D3E90212A4
S3150800D0A089688A4202D36FF02A05DBE70132DA6023
S3150800D0B0D8E74FF0E0234FF08052C3F8042DD1E7AC
S3150800D0C06FF01105D5E76FF01805D2E7544F012028
S3150800D0D080500208584F012080BB0020684F01206D
S3150800D0E06C4F0120405602085C560208EFF3148381
S3150800D0F09A0726D530B5234C226883B0002A3BD13F
S3150800D100214B1B68002B37D0002838DD1F4B1B68C6
S3150800D110834234DB102383F311881D4901230A60F7
S3150800D1202360BFF34F8F1B4D2B68DB7B5B070CD44B
S3150800D1301949431E01EB0310C3688BB1013BC36059
S3150800D14005E06FF01802104670476FF034020023AE
S3150800D1502360BFF34F8F83F31188104603B030BDA9
S3150800D1606A46402100F044FD0C4B286819682A4697
S3150800D170FBF700F9009AEAE76FF01802EDE76FF09F
S3150800D1801102EAE7544F0120604F0120805002083F
S3150800D190584F0120684F012080BB00206C4F0120AA
S3150800D1A0F8B5EFF314839B072ED51B4E35685DBB88
S3150800D1B000282DDD194B1B68834229DB0138EFF364
S3150800D1C01183102282F31288154F3B6001233360C6
S3150800D1D0BFF34F8F134C04EB0014204600F034FDC8
S3150800D1E0A368114A5B68E360104B106819688842A7
S3150800D1F001D0FBF7BFF800233360BFF34F8F3B68BE
S3150800D20083F311882846F8BD6FF018052846F8BD3F
S3150800D2106FF01105FAE700BF544F0120805002084D
S3150800D220584F012080BB0020684F01206C4F012019
S3150800D2302DE9F843154B1F682FB3154D154CDFF82C
S3150800D240589000264FF0010807E00136BE42636099
S3150800D25005F1140504F1180415D02B68256013F0A0
S3150800D2600203C4E90494F0D020462B69C4F804806C
S3150800D270013640F8083F00F09BFDBE4205F1140553
S3150800D28004F11804E9D1BDE8F88300BF7C50020810
S3150800D290C84B0208ECAA002049D300082DE9F04340
S3150800D2A083B0EFF314839B0736D5234E35689DBBB1
S3150800D2B000283EDD214B1B6883423ADB441EEFF310
S3150800D2C01183102282F31288DFF874800121C8F8CE
S3150800D2D000303160BFF34F8FDFF8689004EB4400ED
S3150800D2E009EBC00204FA01F75368C000D3B9083045
S3150800D2F0516048443C4459F83430196900F066FDD9
S3150800D30000233360BFF34F8FD8F8003083F31188BA
S3150800D310284603B0BDE8F0836FF01805284603B029
S3150800D320BDE8F08308304844019000F073FD019889
S3150800D330E0E76FF01105F1E7544F01207C50020831
S3150800D340584F0120ECAA002002688368D26813446B
S3150800D35070B5044640F8083F00F02AFD0C4D00233E
S3150800D3602B60BFF34F8F0B4E336883F31188236806
S3150800D370D3E9010290472B684BB9EFF311821023CA
S3150800D38083F31288012332602B60BFF34F8F70BD81
S3150800D390544F0120584F0120074B1A6852B9EFF332
S3150800D3A01180102282F312880449012208601A604B
S3150800D3B0BFF34F8F00207047544F0120584F01206C
S3150800D3C0064B1A683AB100221A60BFF34F8F044B16
S3150800D3D01B6883F311880020704700BF544F012053
S3150800D3E0584F0120EFF314839B071BD50F4B186882
S3150800D3F0C0B910B4EFF31184102282F312880C4AD4
S3150800D400012114601960BFF34F8F0A4C0A49206046
S3150800D41008601860BFF34F8F136883F311885DF8AF
S3150800D420044B70476FF01800704700BF544F012037
S3150800D430584F0120644F0120604F012070B5EFF36B
S3150800D44014839B071DD51D4D2C68D4B9EFF31182A3
S3150800D450102383F312881A4E012332602B60BFF320
S3150800D4604F8F184A136033687BB11B09102B0CD0F9
S3150800D47000232B60BFF34F8F336883F31188204650
S3150800D48070BD6FF01804204670BD0F4B01221A605C
S3150800D49000F032FA0D4B0E4A186001461068C37B3D
S3150800D4A003F00C030C2B04D08842E1D0FAF762FF94
S3150800D4B0DEE700F0EDFAFAF754FF00BF544F0120FB
S3150800D4C0584F0120644F0120604F01206C4F012006
S3150800D4D0684F0120EFF314839B0702D5054B1B68A1
S3150800D4E00BB101207047044B1868B0FA80F0400968
S3150800D4F0704700BF544F0120604F0120074B70B59D
S3150800D5001E6856B1064C0025D4E90112013554F8B7
