S00B00006173702E73726563D5
S3150800800050BB0020D98100082D8200082D82000867
S315080080102D8200082D8200082D8200082D82000876
S315080080200000000000000000000000001D8300089A
S315080080302D820008000000006B82000855B5000874
S3150800804055B5000855B5000855B5000855B50008DA
S3150800805055B5000855B5000855B5000855B50008CA
S3150800806055B5000855B5000855B5000855B50008BA
S3150800807055B5000855B5000855B5000855B50008AA
S3150800808055B5000855B5000855B5000855B500089A
S3150800809055B5000855B5000855B5000855B500088A
S315080080A055B5000855B5000855B5000855B500087A
S315080080B055B5000855B5000855B5000855B500086A
S315080080C055B5000855B5000855B5000855B500085A
S315080080D055B5000855B5000855B5000855B500084A
S315080080E055B5000855B5000855B5000855B500083A
S315080080F055B5000855B5000855B5000855B500082A
S3150800810055B5000855B5000855B5000855B5000819
S3150800811055B5000855B5000855B5000855B5000809
S3150800812055B5000855B5000855B5000855B50008F9
S3150800813055B5000855B5000855B5000855B50008E9
S3150800814055B5000855B5000855B5000855B50008D9
S3150800815055B5000855B5000855B5000855B50008C9
S3150800816055B5000855B5000855B5000855B50008B9
S3150800817055B5000855B5000855B5000855B50008A9
S3150800818055B5000855B5000855B5000855B5000899
S3150800819055B5000855B5000855B5000855B5000889
S315080081A055B5000855B5000855B5000855B5000879
S315080081B055B5000855B5000855B5000855B5000869
S315080081C055B5000855B5000855B5000855B5000859
S315080081D055B5000855B5000871B602F0B1FB002088
S315080081E00D490E4A914203D2086004319142FBD3ED
S315080081F00B490C4A914206D20B4B086818600431A9
S3150800820004339142F9D300F005F803F047FAFEE784
S31508008210704700BF7047000000100020788A0120D0
S31508008220CC6402082069020800000020EFF31181DF
S31508008230EFF3108251EA02211EF0040F05D0EFF386
S31508008240098020E9024002B501E002B56846744A91
S3150800825013680CB4EFF30583724951F8232090474D
S315080082600FBC016082F311881847102080F311882B
S315080082706D49086858B1EFF309821EF0100F01D155
S3150800828022ED108A22E9F00F8261C0F81CE06748E7
S3150800829000680860A0B1C16911F07F42B2F17F4F52
S315080082A01AD18269B2E8F00F11F0100F01D1B2ECC1
S315080082B0108A82F30988002071B680F3118808476E
S315080082C0EFF309805A495FF0807220E906001838F2
S315080082D080F30988DFF840F0426A4AB1554A5FF0F0
S315080082E080738069B0E8F00F20E90E00143807E0C3
S315080082F08069B0E8F00F5FF0807220E90600183850
S3150800830080F30988464801210160BFF34F8FDFF8E3
S3150800831008F0BDEC108A7047FDFFFFFF40480021BA
S315080083200160002080F31188A0692900B0E8F00FE9
S3150800833011F0100F01D1B0EC108A80F309880847B4
S315080083403D48016881F30888022080F31488BFF34A
S315080083506F8F3A49D1F814D034490968324A61B660
S315080083601BE0022383F31488BFF36F8F2F49096834
S315080083702D4A12E0EFF3148313F0040306D02DED13
S31508008380108A022383F31488BFF36F8F43622DE9A3
S31508008390F00FC0F81CE0C0F818D0116089B1CA699E
S315080083A012F07F40B0F17F4F02D10C00150000DFBC
S315080083B0D1F818D0BDE8F00F4B6A0BB1BDEC108AA6
S315080083C01047174800210160BFF34F8F002080F344
S315080083D01188BFF34F8F30BFFBE700BF104800215D
S315080083E00160BFF34F8F002080F311880E480168A3
S315080083F08A685068DFF848E0D2F808F0002181F36F
S315080084001488BFF36F8F03F075B900BFA0F153004E
S31508008410002800DC7047A0F131000028FBDC70471B
S31508008420C42D012004280208D82D0120DC2D0120A6
S31508008430C283000812830008002B0208802B02085A
S31508008440A5BC00087BB972B90029BEBF00204FF051
S31508008450004106E008BF00281CBF6FF000414FF03E
S31508008460FF3000F0A7B9ADF1080C6DE904CE00297C
S3150800847009DB002B1ADB00F035F8DDF804E0DDE94E
S31508008480022304B07047404261EB4101002B1BDB1D
S3150800849000F028F8DDF804E0DDE9022304B04042E4
S315080084A061EB4101524263EB43037047524263EB6F
S315080084B0430300F017F8DDF804E0DDE9022304B011
S315080084C0404261EB41017047524263EB430300F0BF
S315080084D009F8DDF804E0DDE9022304B0524263EB53
S315080084E0430370472DE9F047089D04468E46002B46
S315080084F04DD18A42944669D9B2FA82F252B101FA4A
S3150800850002F3C2F1200120FA01F10CFA02FC41EA59
S31508008510030E94404FEA1C48210CBEFBF8F61FFADE
S315080085208CF708FB16E341EA034306FB07F1994279
S315080085300AD91CEB030306F1FF3080F01F8199422C
S3150800854040F21C81023E63445B1AA4B2B3FBF8F006
S3150800855008FB103344EA034400FB07F7A7420AD98D
S315080085601CEB040400F1FF3380F00A81A74240F2B5
S3150800857007816444023840EA0640E41B00261DB120
S31508008580D4400023C5E900433146BDE8F0878B4255
S3150800859009D9002D00F0EF800026C5E90001304614
S315080085A03146BDE8F087B3FA83F6002E4AD18B42EE
S315080085B002D3824200F2F980841A61EB0303012098
S315080085C09E46002DE0D0C5E9004EDDE702B9FFDE84
S315080085D0B2FA82F2002A40F09280A1EB0C014FEA2F
S315080085E01C471FFA8CFE0126200CB1FBF7F307FB8C
S315080085F0131140EA01410EFB03F0884208D91CEB2F
S31508008600010103F1FF3802D2884200F2CB804346CB
S31508008610091AA4B2B1FBF7F007FB101144EA0144AA
S315080086200EFB00FEA64508D91CEB040400F1FF3139
S3150800863002D2A64500F2BB800846A4EB0E0440EA27
S3150800864003409CE7C6F12007B34022FA07FC4CEA30
S31508008650030C20FA07F401FA06F31C43F9404FEA23
S315080086601C4900FA06F3B1FBF9F8200C1FFA8CFE38
S3150800867009FB181140EA014108FB0EF0884202FA8C
S3150800868006F20BD91CEB010108F1FF3A80F088804D
S31508008690884240F28580A8F102086144091AA4B20A
S315080086A0B1FBF9F009FB101144EA014100FB0EFE8B
S315080086B08E4508D91CEB010100F1FF346CD28E45BA
S315080086C06AD90238614440EA0840A0FB0294A1EB4B
S315080086D00E01A142C846A64656D353D05DB1B3EBA8
S315080086E0080261EB0E0101FA07F722FA06F3F140D8
S315080086F01F43C5E9007100263146BDE8F087C2F17F
S315080087002003D8400CFA02FC21FA03F391400143F6
S315080087104FEA1C471FFA8CFEB3FBF7F007FB10362F
S315080087200B0C43EA064300FB0EF69E4204FA02F4DB
S3150800873008D91CEB030300F1FF382FD29E422DD92E
S31508008740023863449B1B89B2B3FBF7F607FB163363
S3150800875041EA034106FB0EF38B4208D91CEB0101E3
S3150800876006F1FF3816D28B4214D9023E6144C91A63
S3150800877046EA004638E72E46284605E70646E3E673
S315080087801846F8E64B45A9D2B9EB020864EB0C0E7D
S315080087900138A3E74646EAE7204694E74046D1E78C
S315080087A0D0467BE7023B614432E7304609E764443A
S315080087B0023842E7704700BF844641EA000313F0D7
S315080087C003036DD1403A41D351F8043B40F8043BCA
S315080087D051F8043B40F8043B51F8043B40F8043B8D
S315080087E051F8043B40F8043B51F8043B40F8043B7D
S315080087F051F8043B40F8043B51F8043B40F8043B6D
S3150800880051F8043B40F8043B51F8043B40F8043B5C
S3150800881051F8043B40F8043B51F8043B40F8043B4C
S3150800882051F8043B40F8043B51F8043B40F8043B3C
S3150800883051F8043B40F8043B51F8043B40F8043B2C
S3150800884051F8043B40F8043B403ABDD2303211D3CC
S3150800885051F8043B40F8043B51F8043B40F8043B0C
S3150800886051F8043B40F8043B51F8043B40F8043BFC
S31508008870103AEDD20C3205D351F8043B40F8043BCC
S31508008880043AF9D2043208D0D2071CBF11F8013BCA
S3150800889000F8013B01D30B8803806046704700BF90
S315080088A0082A13D38B078DD010F003038AD0C3F19F
S315080088B00403D21ADB071CBF11F8013B00F8013B81
S315080088C080D331F8023B20F8023B7BE7043AD9D340
S315080088D0013A11F8013B00F8013BF9D20B78037015
S315080088E04B7843708B7883706046704700000000B1
S315080088F0000000000000000000000000000000006A
S3150800890090F800F06DE9024520F007016FF0000CC1
S3150800891010F0070491F820F040F049804FF0000469
S315080089206FF00700D1E9002391F840F000F1080044
S3150800893082FA4CF2A4FA8CF283FA4CF3A2FA8CF37C
S315080089404BBBD1E9022382FA4CF200F10800A4FAE3
S315080089508CF283FA4CF3A2FA8CF3E3B9D1E9042337
S3150800896082FA4CF200F10800A4FA8CF283FA4CF36E
S31508008970A2FA8CF37BB9D1E9062301F1200182FA28
S315080089804CF200F10800A4FA8CF283FA4CF3A2FA2E
S315080089908CF3002BC6D0002A04BF04301A4612BA3C
S315080089A0B2FA82F2FDE8024500EBD2007047D1E93F
S315080089B0002304F00305C4F100004FEAC50514F0CE
S315080089C0040F91F840F00CFA05F562EA05021CBF9F
S315080089D063EA050362464FF00004A9E708B500F00C
S315080089E01DFD00F087FD00F0D9FD00F0ABFD00F09D
S315080089F0E9FD00F00FFD00F0E7FB00F067FB00F073
S31508008A0073FB00F025FB00F059FA084B0022022000
S31508008A101A7003F0EFFA032003F0ECFA042003F0CF
S31508008A20E9FABDE8084003F03DB900BF0010002090
S31508008A3008B500F0D7FBBDE8084003F033B900BF1E
S31508008A4008B500F045FABDE8084003F02BB900BFA9
S31508008A5003F028B92DE9F04FB0FBF1FC1D4601FBE8
S31508008A601C0385B0D35CDDF838808DF8043001AF7F
S31508008A70DDE90F96BE46012400E09C468142604629
S31508008A800AD8BCFBF1F301FB13CC013412F80CC075
S31508008A900EF801CF0B2CF0D1B8F1000F2AD005B192
S31508008AA0013DB9F1000F01D02D20B047AC421BD2D1
S31508008AB0B9F1000F14BF4FF0300B4FF0200BA24650
S31508008AC058460AF1010AB047AA45F9D3B8F1000F8A
S31508008AD00AD1013C3C442078B047BC4204F1FF343B
S31508008AE0F9D105B0BDE8F08FB9F1000FF1D12D200D
S31508008AF0B047EEE7AC42DBD3EBE700BF2DE9F04F1A
S31508008B00834682461BF8010B85B0002859D0DFF84A
S31508008B108091DFF880815D4F0E461446002507E0F8
S31508008B20A047DA460BF1010B9AF80000002848D056
S31508008B302528F5D1042DF3D89AF80120302A46D0F5
S31508008B400AF1020A0020A2F13003092B4FF00003B4
S31508008B500BD803EB830302EB43031AF8012BA2F1AC
S31508008B6030010929A3F13003F3D96C2A2CD002F07D
S31508008B70DF01542928D0782A1DD8572A15D9583AFA
S31508008B80202A18D8DFE802F05617171717171717ED
S31508008B90171717646B1717171717171717171717B6
S31508008BA029171737174817172900002A6AD0252AC0
S31508008BB001D11046A0470AF1010B9AF800000028D7
S31508008BC0B6D105B0BDE8F08F1AF8012BD3E79AF8AD
S31508008BD0022001200AF1030AB5E7CDE901040022C3
S31508008BE0009256F8250042461021FFF733FF01355B
S31508008BF00AF1010B98E756F825B01BF8010B013569
S31508008C000028D8D0A0479BF800000BF1010B0028DC
S31508008C10F8D10AF1010BD0E7CDE901040022009250
S31508008C2056F825003A460A21FFF714FF01350AF1DE
S31508008C30010B79E7CDE901040022009256F82500D8
S31508008C404A461021FFF706FF01350AF1010B6BE7CB
S31508008C5016F82500A04701350AF1010B64E756F816
S31508008C602520002ACDE90104ABBF10465042002258
S31508008C70012200920A213A46FFF7ECFE01350AF175
S31508008C80010B9AE7D3460AF1FF3A4DE7AC230208EF
S31508008C9098230208B82302080268012A10B5034679
S31508008CA00C4602D0022A0BD010BD80680A4603F192
S31508008CB00C01FFF723FF23460A20BDE8104018479A
S31508008CC00A46024803F10801F3E700BF60230208D9
S31508008CD010B582B003460A460C460448019301A91A
S31508008CE0FFF70CFF0A20A04702B010BD8023020838
S31508008CF030B50123036081600C789E4644B1BEF10D
S31508008D00050F05D8252C04D011F8014F002CF6D1F3
S31508008D1030BD4B7801F1020CA3F13001092905D8C1
S31508008D201CF8013BA3F130010929F9D96C2B5BD05A
S31508008D3003F0DF0154291DD0002B00F0B480583B06
S31508008D40D9B2202900F2B580202B00F2B280DFE8E4
S31508008D5003F040B0B0B0B0B0B0B0B0B0B04040B0C2
S31508008D60B0B0B0B0B0B0B0B0B0B030B0B030B04065
S31508008D70B0B04000614611F8014B002C00F0978016
S31508008D80583CE5B2202D7FD8202C7DD8DFE804F0AA
S31508008D901C7C7C7C7C7C7C7C7C7C7C227F7C7C7CBC
S31508008DA07C7C7C7C7C7C7C7C127C7C127C1C7C7C29
S31508008DB01C0061460EF1020352F8044B40F82340AA
S31508008DC00EF1010E0C7899E7742B03D0542B64D05E
S31508008DD08C46614652F8044B0EF102030EF1010E61
S31508008DE040F823400C7889E7614611F8014B002CBE
S31508008DF05DD0583CE3B2202B46D8202C44D801A39A
S31508008E0053F824F0D58D0008898E0008898E00084D
S31508008E10898E0008898E0008898E0008898E0008C8
S31508008E20898E0008898E0008898E0008898E0008B8
S31508008E30D58D0008D58D0008898E0008898E000812
S31508008E40898E0008898E0008898E0008898E000898
S31508008E50898E0008898E0008898E0008898E000888
S31508008E60898E0008B58D0008898E0008898E00084D
S31508008E70B58D0008898E0008D58D0008898E0008F2
S31508008E80898E0008D58D00089CF8014036E76C2BC2
S31508008E90A0D0742B9ED0542B9CD1073222F0070207
S31508008EA052F8084B98E71CF8014C0CF1FF3C614658
S31508008EB024E79CF80040614620E700BF08B500F0AB
S31508008EC017F8024B00221A8008BD00BF02100020C6
S31508008ED010B5064C2388032B00D010BD00F03EF8D1
S31508008EE00128FAD123880133238010BD02100020FF
S31508008EF00249034A00230B801380704704100020A0
S31508008F000610002010B50F4C238823B900F054F939
S31508008F100123238010BD0C4A0C4B0D4902201080FA
S31508008F20012064221A80088000F00EF9094B1B887C
S31508008F3080B28342EED2084A138800210133218089
S31508008F40138010BD06100020081000202A100020EB
S31508008F502C100020000000200410002070B5354CAD
S31508008F602388062B64D8DFE803F00612162539494C
S31508008F700400012070BD30493048314A02250123DA
S31508008F800D806421038011802380002070BDFFF7C7
S31508008F90B9FF002070BD2849294A284801230B80BB
S31508008FA0C8210380118000F055F82388013300207A
S31508008FB0238070BD234E3388002B33D01F491E48AB
S31508008FC01F4A01230B800380C823138000F08EF804
S31508008FD02388002001332380308070BD16491A4A41
S31508008FE01A4B00250D800121118064221A8000F099
S31508008FF06FF8238801332846238070BD114E3388C5
S3150800900083B10D4A104B0025158001221A800F4B9B
S3150800901064221A8000F06AF8238835800133238099
S31508009020284670BD00F0C8F801233380002070BDC3
S31508009030002070BD04100020081000202C1000200D
S315080090402A100020061000201E1000200A100020FA
S31508009050704700BF2DE9F04184B001A803AA02A910
S315080090600026194F00F078FA4FF0010830463946C5
S315080090700222002501AC0B88B1F802E004EB420499
S3150800908003EB0E0C34F8044C1FFA8CFCA3EB0E030E
S31508009090644502F102029BB201F1040103D29C422B
S315080090A084BF0135ADB2082AE4D1032D03D108FAED
S315080090B006F3184480B20136062E07F10C07D6D1FE
S315080090C004B0BDE8F08100BF04000020704700BF6F
S315080090D000B583B00DF1060000F06AFABDF8060087
S315080090E003B05DF804FB00BF704700BF00B583B04E
S315080090F001A80DF1060100F0EBF9BDF90430BDF940
S315080091000620104903EB830302EB8202C3EB031329
S31508009110C2EB02129B00920081FB03C081FB02C1D5
S3150800912000EB030C8818DB17D217C2EB2022C3EB1F
S315080091302C20104400EBD07040F34F0003B05DF8CC
S3150800914004FB00BFB7600BB600B583B001A80DF1EC
S31508009150060100F0BDF9BDF90430BDF90620144931
S3150800916003EB830302EB8202C3EB0313C2EB021287
S315080091709B00920081FB03C081FB02C100EB030C3C
S315080091808818DB17D217C2EB2022C3EB2C20801AD3
S31508009190084B4FF4B47202FB00F083FB0023034430
S315080091A0C017C0EB632000B203B05DF804FB00BF34
S315080091B0B7600BB6592B60AD08B500F079F9BDE874
S315080091C0084000F0B9B900BF08B500F01FF800F074
S315080091D0BFF800F0FDF8024B01221A8008BD00BF57
S315080091E008100020084B1B88032B0BD8DFE803F078
S315080091F00806040200F0FAB800F0D2B800F0BAB8CF
S3150800920000F04AB8704700BF081000201349144AF6
S3150800921014484FF0010C30B4A1F800C0C8211180E1
S31508009220114A1249124C134D00231380124A038027
S315080092300B80138011481249124A238003240480A4
S315080092400B80114C138011481149124A2B80238038
S31508009250038030BC0B801380704700BF1E100020AF
S315080092600A1000201C1000200C10002014100020EA
S315080092701010002012100020181000201A100020CC
S31508009280161000200E1000202010002024100020A8
S31508009290261000202210002070B5204C204D2046B4
S315080092A000F072F91F4B21881C881F4B1F4A18882B
S315080092B01288641A1E491FFA84FC6044098880B221
S315080092C0188011FB00F11B4B288889B219801A4BAC
S315080092D01B88ACEB000013FB00F31848B0F800C07D
S315080092E0174812FB04F20688164892B21144028007
S315080092F0154A9BB219441380144B89B2ACEB010092
S315080093001980614424B200B209B21EB900F0A8F867
S315080093102C8070BD00F0B8F82C8070BD10100020AD
S315080093202010002012100020241000201A100020FF
S315080093301810002014100020161000200A10002013
S315080093401E1000201C1000200C1000200E100020FB
S3150800935005480649064A00234FF0010CA0F800C04C
S315080093600B801380704700BF2C1000202A100020A5
S3150800937028100020074B1B882BB9074BB3F90010A0
S31508009380084600F06DB8054BB3F90010084600F022
S315080093907BB800BF2C100020281000202A100020BF
S315080093A0084B1B8833B9084B1888414209B200B2EA
S315080093B000F056B8054B1888414209B200B200F0D1
S315080093C063B800BF2C100020281000202A100020A7
S315080093D003480449044A002303800B80138070471E
S315080093E032100020301000202E100020064B1B885B
S315080093F023B9064BB3F9000000F08EB8044BB3F955
S31508009400000000F091B800BF321000202E10002096
S3150800941030100020022000F0F1BC00BF38B545200E
S3150800942001F05EFD0C4D0D4C034642202B6001F009
S3150800943057FD012211462060286801F081FD206849
S315080094400122002101F07CFD286801F099FD2068C1
S31508009450BDE8384001F094BD3410002038100020D3
S3150800946010B5074A03460C461068194601F0C8FDB0
S31508009470044B21461868BDE8104001F0C1BD00BF85
S31508009480341000203810002010B5074A03460C4651
S315080094901068194601F0D2FD044B21461868BDE84C
S315080094A0104001F0CBBD00BF34100020381000205A
S315080094B008B5054B186801F063FD044B1868BDE84C
S315080094C0084001F05DBD00BF3410002038100020B0
S315080094D038B5064B054618680C4601F071FD044B75
S315080094E02880186801F06CFD208038BD34100020F3
S315080094F03810002010B5412001F0F2FC054C01227D
S315080095000021206001F01CFD2068BDE8104001F034
S3150800951037BD00BF3C100020024B0146186801F019
S315080095206FBD00BF3C100020024B0146186801F0D1
S3150800953085BD00BF3C100020014B186801F020BD16
S315080095403C10002008B5432001F074FC014B18605C
S3150800955008BD00BF4010002070B50A4B82B0064611
S315080095600D4668461968144601F042FCBDF80030FD
S315080095703380BDF80220BDF804302A80238002B06B
S3150800958070BD00BF40100020034B10B50446186894
S3150800959001F06CFC208010BD4010002008B5442066
S315080095A001F064FB014B186008BD00BF44100020A1
S315080095B0034B10B50446186801F05CFB208010BD0B
S315080095C044100020704700BF10B50C4888B04FF40F
S315080095D0004101F03DFE0A4A106008B108B010BD0E
S315080095E00849094B0291C02202246946CDE90323A2
S315080095F0009400F0BDFC01F0C9F9FEE70020002048
S3150800960000A00020CC230208F02302080EB410B5EF
S315080096108BB00DAA044652F8041B019202A8FFF764
S3150800962067FB02A9204600F0A3FC0BB0BDE810407A
S3150800963003B0704708B504490620FFF7E7FF05F0B1
S315080096404FFE03F0EEFAFEE70424020802F020BA01
S31508009650012002F067BA00BF10B582B00C461A4660
S315080096600449009403460020FFF7D0FF01F08EF965
S31508009670FEE700BF20240208704700BF704700BFFE
S31508009680704700BF704700BF704700BF704700BFF4
S31508009690406800F003B900BF406800F047B900BF52
S315080096A0406800F0DFB900BF406800F089B900BF24
S315080096B0406800F099BA00BF406800F0ABBA00BF36
S315080096C0024B03490022C3E90012704704A0002098
S315080096D07C240208704700BF10B4074B074C0022D1
S315080096E03F201F21C3E90042C3E90222C3E904203F
S315080096F05DF8044B9961704738A20020BC24020823
S31508009700704700BF704700BF704700BF704700BF73
S31508009710704700BF704700BF406800F0E5BD00BF56
S31508009720406800F029BE00BF406800F005BF00BFD2
S31508009730406800F065BE00BF406800F0ADBF00BFDE
S31508009740406800F0BFBF00BF0849094B10B40022AB
S3150800975001F11C0401F13800C3E90A42C3E9001209
S31508009760C3E914025DF8044B704700BF30250208B0
S3150800977054A6002001F01CB801F01CB801F01CB872
S31508009780084601F01BB800BF084601F019B800BF2B
S31508009790704700BF01F028B801F038B801F038B8B2
S315080097A0084601F037B800BF084601F043B800BFC5
S315080097B0704700BF01F062B801F062B801F062B804
S315080097C0084601F061B800BF084601F05FB800BF5F
S315080097D0704700BF00F0E0BB014800F0FBBC00BFCB
S315080097E01025020800F03EBC00F004BC0A2970B53A
S315080097F00E46044602D1C368DB062ED402F078FC76
S31508009800002841DBE36AD3B12268A36AD268D6543A
S315080098102268A36AE06A556801330130AB42A5EBBA
S315080098200005A362B5FA85F504BF0023A362E062CA
S315080098306D0902F071FC002826DB284670BD256BF1
S31508009840002DE1D11348314600F08EFC0028F0D1F6
S315080098501048012100F09AFCD6E70D21FFF7C6FF54
S31508009860051EEADBCAD00C4B586802F0EBFA051E57
S31508009870C4DA05F13503DBB2042B05D8012202FA56
S3150800988003F313F0150FD8D10123A3606FF0040575
S31508009890D3E700BF102502084C24020870B5044619
S315080098A002F0C4FCB0BB02F049FC002835DB656851
S315080098B03DB16FF0280502F06DFC00282DDB284627
S315080098C070BD40F21153C4E90335C4E90555C4E92E
S315080098D00855C4E90A552577256302F009FC0028CE
S315080098E015DB104800F0F0FB0F4B186802F028FD56
S315080098F001260C48022100F049FCC4E9016502F082
S315080099000BFC0028D7DAA6606FF00405D3E76FF0E2
S315080099100405D0E76FF01805D1E70123A3606FF0BF
S315080099200405CCE7102502086C24020870B5044625
S3150800993002F07CFC002835D1054602F0FFFB002822
S3150800994033DB63683BB96FF0280502F023FC002877
S315080099502BDB284670BD02F0CBFB0646154800F007
S31508009960FDFB154B186802F089FC656002F0D4FB14
S315080099700028A8BFF50F114E7068B8BF012502F080
S31508009980BBFA0028306806DB02F0B6FA002804DBCA
S31508009990002DDAD001E002F0AFFA0123A3606FF0E0
S315080099A00405D2E76FF01805D3E70123A3606FF02B
S315080099B00405CEE7102502086C2402084C24020888
S315080099C02DE9F04106460D46174602F02FFC002801
S315080099D03CD17368002B3FD0B068002839D1B7B1A5
S315080099E0DFF87C800446012028B1D8F8040002F08C
S315080099F029FA00280DDB15F8011B3046FFF7F6FE9D
S31508009A00002815DB0134A742EED1A8B12046BDE8EF
S31508009A10F08100F13503DBB2042B05D8012202FAE6
S31508009A2003F313F0150F03D10123B3606FF004009D
S31508009A30002CEBD1BDE8F081094B586802F08EF98D
S31508009A400028E3DA0123B3602046E0E76FF0180048
S31508009A50DDE76FF00400DAE76FF02800D7E700BF0C
S31508009A604C2402082DE9F04F83B083460F4614466E
S31508009A70009202F0DBFB002840F0A880DBF8042007
S31508009A80002A00F0A980DBF80800002840F0A18031
S31508009A90002C41D0DFF84CA105464FF0010881465D
S31508009AA0B8F1000F05D0DAF8000002F0CBF900286B
S31508009AB072DB02F01DFB00285CDBDBF80060DBF8DC
S31508009AC010003168DBF81840B668421C365CDBF8D3
S31508009AD02000013C8A4214BF13464B46B4FA84F868
S31508009AE0CBF81030CBF818404FEA581810B1B4EB41
S31508009AF0510F2DD902F010FB00283BDB07F8016B4C
S31508009B00DBF80C10CB0705F1010508D4009BAB4226
S31508009B10C6D1002C38D1284603B0BDE8F08FDAF854
S31508009B2004300193184602F08DF9002842DB3146CD
S31508009B305846FFF75BFE0028EDDBE7D1019802F0F7
S31508009B400DF90028E2DA0122CBF808202846E3E7D7
S31508009B502348112100F008FB30B90121204800F004
S31508009B6015FB11218BF81C10CBF8209002F0D4FAC3
S31508009B700028C3DA0122CBF808206FF00400002D74
S31508009B80C9D103B0BDE8F08F164A106802F0E6F8AE
S31508009B900028D8DB2846BFE700F13502D2B2042AEE
S31508009BA0E8D8012101FA02F212F0150FE2D0002DD1
S31508009BB0E7D0B0E73530C2B2042AC4D8012101FA89
S31508009BC002F212F0150FBED02846A5E76FF018006E
S31508009BD0A2E76FF004009FE76FF028009CE700BF3C
S31508009BE0102502084C24020838B504460D4602F032
S31508009BF01DFB28B9636833B1A06838B9E56038BD7C
S31508009C006FF0180038BD6FF0280038BD6FF00400FB
S31508009C1038BD00BF38B504460D4602F007FB40B90B
S31508009C2063684BB1A06850B9A269E36AC5E9002325
S31508009C3038BD6FF0180038BD6FF0280038BD6FF0DA
S31508009C40040038BD38B5017F044649B9056B0DB91E
S31508009C50C36A5BB9BDE838401448012100F0A8BAC8
S31508009C60124800F081FA0023237738BD0268436A58
S31508009C70D2680E48D15C00F077FA2368626A5968A0
S31508009C80E36A01328A4218BF15469942656202D0D4
S31508009C90013BE36238BD064B586802F05FF80028BE
S31508009CA0B7BF0122E36AE36AA260F1E7102502085A
S31508009CB04C240208F8B50446414800F05DFAE3680A
S31508009CC0DD05C0B228D513285DD0226B3ABB112812
S31508009CD021D02368A1691A6891421CD09A686369E1
S31508009CE0D05422686369126801339342636104BFE2
S31508009CF000236361A369002B48D0E268013352054B
S31508009D00A36108D5226A32B92268126802EB4202B8
S31508009D10B3EB920F45D2F8BD226B002AD9D0112891
S31508009D2001D09905D5D5E36A00252563002BF2D025
S31508009D30234E244F0FE02368626A5968E36A0132AA
S31508009D408A4214BF104628469942606212D0013BE7
S31508009D50E362002BDFD02268636AD2683046D15CA2
S31508009D6000F002FA0028E6D1BDE8F84014480121BF
S31508009D7000F00CBA786801F0F1FF0028BCBF012397
S31508009D80A360E36AE3E701232363F8BD0D4B186874
S31508009D9001F0E4FF0028B7BF0122A369A369A26006
S31508009DA0ABE70748132100F0DFF928B90448012179
S31508009DB000F0ECF91323237701232362F8BD00BFD3
S31508009DC0102502084C24020843680BB1C36A0BB974
S31508009DD0184670470268436AD268D35C0B700268FB
S31508009DE0436A526801339342C26A436204BF00233E
S31508009DF04362013A0123C2621846704710B5044609
S31508009E0002F014FA98B9002C0EDD0A4B5A68A242E1
S31508009E100ADB04F180441B68013C53F824000368FC
S31508009E20BDE810401B6818476FF0110010BD6FF0B1
S31508009E30180010BDB424020800F030B92DE9F04F1F
S31508009E400D4689B0EFF3108772B6264C0126636972
S31508009E5086401E4223D0244AE368D2F800908E46F4
S31508009E60D16803F1010801EB431A204BD3F800B07F
S31508009E70BEE80F00D446ACE80F009EE80F00C845C0
S31508009E808CE80F0028BF0023CAF804B0C4F80C8079
S31508009E9028BFE360636899450BD901336360A369FA
S31508009EA01E420ED1012F00D062B6002009B0BDE8CF
S31508009EB0F08FE368A360236901332361A3691E4217
S31508009EC0F0D00A4B2C461E680FCC6D460FC594E899
S31508009ED00F0085E80F00064901966846FEF7DCFE86
S31508009EE0E0E700BF38A20020BC240208C02D0120EC
S31508009EF0399E0008F0B583B0EFF3108272B6012AD6
S31508009F0029D0194C6568002605B3184AA168D36894
S31508009F1003EB411E136801934F1C8446BEE80F00ED
S31508009F20ACE80F009EE80F008CE80F00019B206943
S31508009F309F4228BF002305F1FF35C4E9015728BF12
S31508009F40A360002323611EB103B0F0BD6FF02800A3
S31508009F5062B603B0F0BD044C65681646002DD4D130
S31508009F606FF02800F0E700BF38A20020BC240208E2
S31508009F70FFF764BF00B583B0034601220DF1070160
S31508009F8003488DF80730FFF71BFD03B05DF804FBA7
S31508009F9004A0002000F082B830B51248124D134CC8
S31508009FA089B0FFF77BFC124B029301226946052014
S31508009FB00092FFF7DDFF6846FFF79CFF002809DBE4
S31508009FC00CD121466846FEF767FE6846FFF792FF02
S31508009FD00028F5DA286801F00DFEECE72146FEF7C1
S31508009FE077FEEEE704A00020CC240208759F00083F
S31508009FF0F0250208F0B5184D8BB003E09DF8070070
S3150800A00000F04CF80DF107012846FFF7DDFE04467F
S3150800A0100028F3D102A8FFF76DFF051E0F4E104F5B
S3150800A0200CDB6CB19DB9314602A8FEF735FE02A8D5
S3150800A030FFF760FF051E4FF00104F2DA0BB0F0BD22
S3150800A040214632463846FEF759FD002DEBD03146FB
S3150800A0502846FEF73DFEE6E704A00020959F000887
S3150800A0601026020810B50B4B0B4988B0D3E900231C
S3150800A0700291012403200721CDE9030100946946D2
S3150800A08000240520CDE905420793FFF771FF08B0C4
S3150800A09010BD00BF082502082C2602080A2838B574
S3150800A0A0044607D0074D2146284600F05DF80028EB
S3150800A0B0F9D038BD034D0D21284600F055F8002883
S3150800A0C0F9D0EFE71025020810B5044620482368A2
S3150800A0D0D96821F40051D96023F4406100228142F5
S3150800A0E01A61DA605A612FD003F056F902466168A0
S3150800A0F0184BA3FB02021848A3FB01314FF47A7CE4
S3150800A100520949090CFB02F20901B2FBF1F3226874
S3150800A110A0FB034189090CFB11331B0103F5FA73F4
S3150800A120A0FB0303C3F3831343EA01139360D368C5
S3150800A13043F00C03D360536943F001035361D368BA
S3150800A14043F40053D36010BD03F03EF90246CEE750
S3150800A150001001401F85EB51D34D62100268D36889
S3150800A16023F40053D36070470368186810F0800022
S3150800A1701CBF59600120704703681A68920646BFDB
S3150800A1805868C0B24FF0FF30704700BF012908D0A9
S3150800A190022905D10268D36843F02003D3607047CB
S3150800A1A070470268D36843F08003D360704700BFE6
S3150800A1B0012908D0022905D10268D36823F02003B3
S3150800A1C0D360704770470268D36823F08003D36072
S3150800A1D0704700BF03681A68910606D41B681B06F9
S3150800A1E000D470470848FFF72DBD10B50446064849
S3150800A1F0FFF760FD23681B681A0600D410BDBDE88A
S3150800A20010400148FFF71EBD04A000200EB400B59B
S3150800A2108AB00CAA02A806490192FEF769FD02A9AE
S3150800A2200020FFF7A5FE0AB05DF804EB03B07047FF
S3150800A230882702080A2970B50E46044602D1C36863
S3150800A240DB0626D401F054FF002846DB2268236A81
S3150800A2509269D6542268236A1569616A0133AB424A
S3150800A26001F101012362A5EB010504BF0023236266
S3150800A270B5FA85F5012961624FEA551503D11068CB
S3150800A2800368DB68984701F047FF002825DB284666
S3150800A29070BD0D21FFF7CEFF051EF8DBD2D0636A2D
S3150800A2A023B12368186803689B68984723685B6826
S3150800A2B0186801F0C7FD051EC4DA0A492A460020B7
S3150800A2C0FFF7A4FF05F13503DBB2042B05D80122FD
S3150800A2D002FA03F313F0150FD9D10123A3606FF027
S3150800A2E00405D4E78827020870B5044601F09EFFE6
S3150800A2F000283ED12368186803681B68984701F050
S3150800A3001DFF002830DB65683DB16FF0280501F0B8
S3150800A31041FF002828DB284670BD40F21153C4E9E6
S3150800A3200335C4E90555C4E90755656201F0E0FE41
S3150800A330002816DB23681868036801211B699847FB
S3150800A3402368186803680221DB6801269847C4E970
S3150800A350016501F0E1FE0028D9DAA6606FF0040570
S3150800A360D5E76FF00405D2E70123A3606FF0040573
S3150800A370D1E76FF01805CEE770B5044601F056FF31
S3150800A380002835D1054601F0D9FE002833DB63687D
S3150800A3903BB96FF0280601F0FDFE00282BDB30469E
S3150800A3A070BD01F0A5FE23680646186803685B6859
S3150800A3B09847656001F0B0FE23685B680028186856
S3150800A3C0ACBFF60F012601F097FD23689B680028AD
S3150800A3D0186806DB01F090FD002804DB002EDAD0B1
S3150800A3E001E001F089FD0123A3606FF00406D2E7BE
S3150800A3F06FF01806D3E70123A3606FF00406CEE7D3
S3150800A4002DE9F04105460F46904601F00FFF00285A
S3150800A41040F089806B68002B00F08880AE68002EBB
S3150800A4207ED12B685B68186801F00CFD041E51DBB1
S3150800A430B8F1000F63D017F8011B2846FFF7FAFE9C
S3150800A440041E32DB0136B04525D0002CF3D06B6AEA
S3150800A45023B12B68186803689B6898472B685B6864
S3150800A460186801F0EFFC041EE5DA0020314922469F
S3150800A470FFF7CCFE04F13500C0B2042805D8012345
S3150800A48003FA00F010F0150F01D10123AB60344632
S3150800A4902046BDE8F0816B6A63B12B6818680368CB
S3150800A4A09B689847002C33D00024002EEFD1204615
S3150800A4B0BDE8F081002CEAD12B685B68186801F0CA
S3150800A4C04DFC0028E3DA0123AB606FF00404002E8C
S3150800A4D0EDD0DCE7174922463046FFF797FE04F130
S3150800A4E03503DBB2042B05D8012202FA03F313F075
S3150800A4F0150FCDD10123AB606FF00404C8E76E6A6F
S3150800A5002B68002ED9D0186803689B68464698477A
S3150800A5102B685B68186801F021FC0028C4DAD2E7CA
S3150800A5206FF00404B4E76FF01804B1E76FF028047D
S3150800A530AEE700BF882702082DE9F04F83B004462E
S3150800A5408846914601F072FE002840F099806368BB
S3150800A550002B00F09B80A568002D40F09480B9F18F
S3150800A560000F31D02F460126AA4636B123689B68CC
S3150800A570186801F067FC051E4CDB01F0B9FD0028E0
S3150800A58058DB21682269CE68A5694869531CB3421D
S3150800A59014BF19465146013D10F802B0A561216164
S3150800A5A001F0BAFDB5FA85F600284FEA561641DBE2
S3150800A5B008F801BBE368DB0707F1010708D4B945CA
S3150800A5C0D3D1002D40D13D46284603B0BDE8F08FD3
S3150800A5D023685B68186801F035FC021E3DDB5946A6
S3150800A5E02046FFF727FE0028EDDB08D0636A002B1C
S3150800A5F0E5D02368186803689B689847DFE72368EF
S3150800A6005B68186801F0AAFB0028EFDA0123A3604B
S3150800A6103D46D9E71F492A460020FFF7F7FD05F111
S3150800A6203503DBB2042B05D8012202FA03F313F033
S3150800A630150F03D10123A3606FF00405002FC2D1C3
S3150800A640284603B0BDE8F08F23689B68186801F0B8
S3150800A65085FB0028DADB3D46B6E70E490192002065
S3150800A660FFF7D4FD019A02F13503DBB2042BCDD8EE
S3150800A670012202FA03F313F0150FC7D03D46A3E7EC
S3150800A6806FF01805A0E76FF004059DE76FF0280541
S3150800A6909AE700BF8827020838B504460D4601F038
S3150800A6A0C5FD28B9636833B1A06838B9E56038BD17
S3150800A6B06FF0180038BD6FF0280038BD6FF0040041
S3150800A6C038BD00BF38B504460D4601F0AFFD40B9A8
S3150800A6D063684BB1A06850B9A269636AC5E90023EB
S3150800A6E038BD6FF0180038BD6FF0280038BD6FF020
S3150800A6F0040038BD406A704738B5456A0446B5B1A6
S3150800A7000268C3699269D35C0B700168C3690A69F8
S3150800A71001339342C36104BF0023C361436A9A426B
S3150800A7200DD0013B636201250BB1284638BD23686D
S3150800A7301868036801211B699847284638BD4B6885
S3150800A740186801F00BFB002801DB636AE9E70123BF
S3150800A750A3606FF00405E8E7036810B5DA680446F5
S3150800A760806990421CD05A696369D154226863692A
S3150800A770D16801338B42636104BF00236361A36917
S3150800A7801BB10133A361012010BD9368186801F05D
S3150800A790E5FA002806DBA3690133A3610120F3E784
S3150800A7A0002010BD0123A3606FF0040010BD00BF98
S3150800A7B0704700BF704700BF704700BF704700BFB3
S3150800A7C0704700BF0148FFF795BF00BF54A6002099
S3150800A7D001460148FFF790BF54A6002001460148EC
S3150800A7E0FFF7BABF54A6002010B500F019FA064CB8
S3150800A7F001E001F0FFF9022003F000FD03462046C0
S3150800A800002BF6D010BD00BF40420F00704700BFB6
S3150800A81007F08ABD012806D0022803D1034B01227E
S3150800A8201A6070477047024B18607047E4AA002008
S3150800A830E8AA0020012806D0022803D1044B0022EA
S3150800A8401A6070477047034B00221A60704700BFB2
S3150800A850E4AA0020E8AA00200148FFF74BBF00BF82
S3150800A8607CA6002001460148FFF746BF7CA60020CB
S3150800A87001460148FFF770BF7CA60020704700BF5D
S3150800A880704700BF704700BF704700BF704700BFE2
S3150800A89008B5FEF7F1FEFEF7F1FEFEF7F1FEFEF74C
S3150800A8A0F1FEFEF7F1FEFEF7F1FEFEF709FFFEF7F1
S3150800A8B011FFFEF711FFFEF723FFFEF723FFFEF752
S3150800A8C023FFFEF723FFFEF723FFFEF723FFFEF71E
S3150800A8D03BFFFEF75DFFFEF76BFFBDE80840FEF79E
S3150800A8E077BF00BF01F06EB80148FEF775BF00BF1D
S3150800A8F07024020801F066B801F064B808B500F0E3
S3150800A9000FFF01F013FA01F03FFB01F0A3FCBDE8CD
S3150800A910084001F077BD00BF0EB400B58AB00BAA97
S3150800A92002A852F8041B0192FEF7E2F902A90020D8
S3150800A930FFF71EFB0AB05DF804EB03B0704700BFD3
S3150800A94008B500F0E3F8024A024B12681A6008BD1F
S3150800A950FC2A02084C00002070B520F01F040A4E9D
S3150800A96084B004F58075D4E90032A068E1680291E4
S3150800A9701034CDE90020314622460020FFF7CCFFEF
S3150800A980A542F0D104B070BD442C020838B512496E
S3150800A9900020FFF7C1FF11490020FFF7BDFFEFF3C5
S3150800A9A00885EFF309846A460D490020FFF7B4FFCE
S3150800A9B00C492A460020FFF7AFFF2846FFF7CCFFD1
S3150800A9C0094922460020FFF7A7FF2046FFF7C4FFE4
S3150800A9D000F04CFDFEE700BF602C0208702C020850
S3150800A9E0842C02088C2C0208982C020808B5034906
S3150800A9F00020FFF791FF00F039FDFEE7A42C0208BE
S3150800AA0000B5002083B000F08BF800240194019B68
S3150800AA10B3F5801F06DA019B01330193019BB3F559
S3150800AA20801FF8DB002000F0A3F8EFE730B589B007
S3150800AA3000F0A4FC284B1A6842F400721A601A68DF
S3150800AA4042F480621A601A6842F4807200241A601E
S3150800AA5000F096F8204600F063F8204B01941A6B34
S3150800AA601F4842F008021A631A6B02F008020192A4
S3150800AA70019A02945A6C42F040025A645B6C03F0E5
S3150800AA804003022102934FF40043049106910B25DB
S3150800AA9003A90393029B07950123059302F0EEF899
S3150800AAA04FF480430E48039303A9079502F0E6F88E
S3150800AAB00C480D4904614FF4E1320C23C0E9001239
S3150800AAC0C0E90244C0E90534C46102F0E5FD08B9ED
S3150800AAD009B030BDFFF794FF003C02400038024041
S3150800AAE0000C0240FC2C0120001801400020704791
S3150800AAF0034A044B1068A3FB00308009704700BF67
S3150800AB006C2E0120D34D6210704700BF034AD2F85D
S3150800AB10883043F47003C2F88830704700ED00E0CF
S3150800AB2070B5044686B050B90F4B00901A6B42F0C8
S3150800AB3001021A631B6B03F001030093009B0B4E83
S3150800AB40012356F824002025022201A9CDE9033263
S3150800AB50CDE9015302F092F856F82400002229465E
S3150800AB6002F074F906B070BD0038024050000020AB
S3150800AB70024B202153F8200002F06DB95000002046
S3150800AB8030B595B00023244A0093116C234841F050
S3150800AB9080511164126C02F080520092009A01935F
S3150800ABA0026822F4404242F400420260026802F45B
S3150800ABB040420221012401924FF480004FF4803272
S3150800ABC0CDE90742CDE90933CDE90C3108246022E5
S3150800ABD00E90042307A8CDE90F42CDE91113019D74
S3150800ABE0139102F049F980B902200F240023CDE918
S3150800ABF002404FF48052052102A8CDE9043206939B
S3150800AC0002F010FB20B915B030BDFFF7F9FEEBE7EF
S3150800AC10FFF7F6FE15B030BD003802400070004060
S3150800AC2008B501F065FA054B054801221A7003F0CC
S3150800AC305BF801F071FA002008BD00BF402D012025
S3150800AC40000100200EB400B58AB00BAA02A852F87B
S3150800AC50041B0192FEF74CF802A90320FFF788F9B6
S3150800AC600AB05DF804EB03B0704700BF3E2101F05F
S3150800AC703BBC00BF10B582B001AA002101F052FC0E
S3150800AC8010B9019802B010BD044603490320FFF726
S3150800AC90D9FF604202B010BDCC2C02080EB400B534
S3150800ACA08AB00BAA02A852F8041B0192FEF720F8F4
S3150800ACB002A90320FFF75CF90AB05DF804EB03B0BC
S3150800ACC0704700BF10B50388B3F5806F18BFC3F38C
S3150800ACD08702438882B008BFFF22B3F5806F8DF8DC
S3150800ACE0042018BFC3F38702838808BFFF220C46D7
S3150800ACF0B3F5806F14BFC3F38703FF2301A88DF84C
S3150800AD0005208DF8063004F071FBE078032820D979
S3150800AD10A378032B21D9B4F800C0BCF1270F25D995
S3150800AD20214AC3F1C80103FB01F182FB0123CA17BB
S3150800AD30C2EB6312D2B2C0F1C8031B49A27000FB72
S3150800AD4003F381FB0301DB17C3EB6113E37002B066
S3150800AD5010BD002200212180EDE7C3F1C80203FBE4
S3150800AD6002F26423B2FBF3F2D2B2F3E7ACF11402B7
S3150800AD701421120292FBF1F2D2B24FF0640E02FBDA
S3150800AD8002F20EFB02F10914C1F1C801C3F1C802AF
S3150800AD900CFB01F103FB02F2B1FBFEF192FBFEF2A2
S3150800ADA089B2D2B2D7E700BF1F85EB5130B587B05D
S3150800ADB00D4602AA052101F0B5FB044678B9DDE97E
S3150800ADC00202049BADF8000029466846ADF8022049
S3150800ADD0ADF80430FFF776FF204607B030BD0349CB
S3150800ADE00320FFF75BFF204607B030BDF82C0208AA
S3150800ADF010B50B4684B004466A460521184601F08C
S3150800AE0091FB50B9BDF80420BDF80830009921809F
S3150800AE1020466280A38004B010BD05490320FFF7D1
S3150800AE203DFF0023204623806380A38004B010BD25
S3150800AE30282D020870B53D2182B001F055FB094C5A
S3150800AE40094D01A90646FFF7B1FF062344F8043B5E
S3150800AE500FCD0FC495E8030084E80300304602B01E
S3150800AE6070BD00BF442D01205400002000B585B0F8
S3150800AE706A46052101F056FB98B9DDE900230299D7
S3150800AE8013440B446422A0F1553002FB03F300F18E
S3150800AE90004080FB0320DB17C3EB602005B05DF89C
S3150800AEA004FB04490320FFF7F9FE002005B05DF80E
S3150800AEB004FB00BF482D02080EB400B58AB00CAAE0
S3150800AEC002A806490192FDF713FF02A90320FFF71E
S3150800AED04FF80AB05DF804EB03B07047702D02080E
S3150800AEE0F0B585B0002401210646039401F07EFBE7
S3150800AEF070B9104F0A2503A9304605F0AFFA044683
S3150800AF00082C384610D100F075FE013DF3D12046D5
S3150800AF1004F020FE084A0090084933460320FFF74C
S3150800AF20CBFF002005B0F0BD002CF0D1039805B08A
S3150800AF30F0BD00BF40420F008C2D0208702D02089C
S3150800AF4030B5134685B04FF47A72054605F0B2FA65
S3150800AF50044610B9204605B030BD2B681B7803930C
S3150800AF6004F0F8FD044A00900449039B0320FFF708
S3150800AF70A3FF204605B030BDA42D0208702D020897
S3150800AF8030B5002285B01146054605F0C0FB0446DB
S3150800AF9010B9204605B030BD2B681B78039304F022
S3150800AFA0D9FD054A00900549039B0320FFF784FF56
S3150800AFB0204605B030BD00BFB82D0208702D020826
S3150800AFC010B586B0002305A90446059301F02EFAAC
S3150800AFD010B9059806B010BD23681B78039304F0D2
S3150800AFE0B9FD054A00900549039B0320FFF764FF56
S3150800AFF0059806B010BD00BFD02D0208702D0208B6
S3150800B00030B5054685B0006801F01AFA044610B94D
S3150800B010204605B030BD2B681B78039304F09AFDD3
S3150800B020044A00900449039B0320FFF745FF204686
S3150800B03005B030BDE82D0208702D020830B585B080
S3150800B040054601F0FBF9044610B9204605B030BDA7
S3150800B0502B681B78039304F07DFD054A009005498B
S3150800B060039B0320FFF728FF204605B030BD00BF2D
S3150800B070002E0208702D020830B54B6823F0030332
S3150800B0807F2B89B035D89B10002203EB421C00EBBE
S3150800B0908C0CDCF87440002C3CD0C1E90240E1601D
S3150800B0A001F10B0424F0030401F1080EA6450FD0A4
S3150800B0B02048214B02904FF41C7202246946002056
S3150800B0C0CDE903230094FEF753FFFFF75FFCFEE785
S3150800B0D0CCF87410012101FA02F401FA03F30169AC
S3150800B0E000EB82022143016151690B43536109B0A8
S3150800B0F030BDB3FA83F2C2F11A04E34083F02003A9
S3150800B100C2F1190203EB421C00EB8C0CDCF874400C
S3150800B110002CC2D10749094B029140F26A22022546
S3150800B12069462046CDE903230095FEF721FFFFF780
S3150800B1302DFCFEE7182E02087C2E02084C2E02086B
S3150800B1400EB400B58AB00BAA02A852F8041B0192E5
S3150800B150FDF7CEFD02A90020FEF70AFF0AB05DF84A
S3150800B16004EB03B0704700BF30B511F0030589B092
S3150800B17035D1083A22F003031C4A0C46A3F10C0108
S3150800B180914223D8254643F0010355F804296B60FC
S3150800B1902946FFF771FF6B6833F0030007D0231DBC
S3150800B1A00344022243E90152204609B030BD104942
S3150800B1B0104B029140F2C31202246946CDE90323DB
S3150800B1C00094FEF7D5FEFFF7E1FBFEE728460A4B9B
S3150800B1D00A491422FFF7B4FF284609B030BD0020FB
S3150800B1E007490422FFF7ACFF0020DEE7F4FFFF3F24
S3150800B1F0182E0208182F020808000040642F0208BB
S3150800B200302F020810F0030110B516D1044601616B
S3150800B210C0E902006022143016F0FEFF04F1F002C5
S3150800B22004F54F61A2F1800343F8044F9342FBD122
S3150800B23080328A42F6D1204610BD044904220020F5
S3150800B2400024FFF77DFF204610BD00BFA42F02088B
S3150800B25070B50E460546FFF7D5FFA6F674420446B6
S3150800B26005F67441FFF780FF204670BD4FF0E023D6
S3150800B27007491A69074822F001021A61596199615A
S3150800B2801A69002142F005021A610160704700BF81
S3150800B290FF760100C02D01204FF0E02300221A613D
S3150800B2A0704700BF034A136803F57A73136000F00A
S3150800B2B0E3BA00BFC02D01200EB400B58AB00BAAB0
S3150800B2C002A852F8041B0192FDF712FD02A90020FC
S3150800B2D0FEF74EFE0AB05DF804EB03B0704700BFF8
S3150800B2E0031F0B2B11D80E4B820853F822301A680D
S3150800B2F000F00300C0004FF0FF0C0CFA00FC22EA35
S3150800B3000C028140114319607047A0F11003652BA8
S3150800B310FAD823F0030303F1604303F56443E6E731
S3150800B3207C310208043803280BD8DFE800F01D1426
S3150800B3300B024FF0E022D2F8243D43F40023C2F872
S3150800B340243D70474FF0E022D2F8243D43F4802391
S3150800B350C2F8243D70474FF0E022D2F8243D43F46A
S3150800B3600033C2F8243D70474FF0E022D2F8243D5E
S3150800B37043F48033C2F8243D704700BF10B410234D
S3150800B38083F311883348344A00230121036011608E
S3150800B390BFF34F8F4FF0E0223049C2F8081DD2F8AC
S3150800B3A0181D2F4821F0FF01C2F8181DD2F8181DE4
S3150800B3B0006821F47F41C2F8181DD2F8181D21F43F
S3150800B3C07F01C2F8181DD2F81C1D21F07F41C2F872
S3150800B3D01C1DD2F8201D21F0FF01C2F8201DD2F84D
S3150800B3E0201D21F47F0141F47001C2F8201DD2F816
S3150800B3F0241D41F48031C2F8241DD2F8241D41F4DD
S3150800B4000031C2F8241DD2F8241D41F48021C2F867
S3150800B410241DD2F8141D21F40071C2F8141DD2F8A7
S3150800B420881D4FF0404441F47001C2F8881DC2F8E7
S3150800B430344F60B100EB80000A4A0B4C400011699A
S3150800B44044F823100A33834202F11802F7D15DF853
S3150800B450044B7047C82D0120C42D01200080000828
S3150800B460182C0208802B0208002C012082B0044BFD
S3150800B4700193019B13B1019B02B0184702B07047B4
S3150800B48009AB000870B5A0F10F0CBCF1660F88B0C7
S3150800B4902ED80C4602F110010F2919D80F283DD0D5
S3150800B4A05342DBB2A0F11001C3F110034FEA511C5D
S3150800B4B001F01F0201261901224B964043F82C6021
S3150800B4C04FEA8C05FFF70CFFE30721D408B070BDDF
S3150800B4D01D481E4B02904FF49272022469460020C2
S3150800B4E0CDE903230094FEF743FDFFF74FFAFEE785
S3150800B4F01548174B029040F2231202246946002091
S3150800B500CDE903230094FEF733FDFFF73FFAFEE784
S3150800B51005F1604505F561452E60D7E74FF0E02552
S3150800B52053422A69DBB222F00202C3F110032A61F0
S3150800B5301901FFF7D5FEE207C8D52B6943F00203C8
S3150800B5402B61C3E780E100E0D82F020838300208F3
S3150800B5501C30020810B5EFF31184EFF30582054B92
S3150800B56053F822309847044B00221A6084F3118856
S3150800B57010BD00BF04280208C42D0120F0B587B00D
S3150800B580036A0768466A05930446EFF305852C495E
S3150800B590C5F308050020FFF78FFECDE900672949A6
S3150800B5A0059B02942A460020FFF786FE032D38D015
S3150800B5B0042D28D0052D11D0062D0AD122490020A8
S3150800B5C0FFF77AFE214B22499A6A0020120CFFF7F0
S3150800B5D073FE07B0BDE8F040FFF7D8B91B4C1D490C
S3150800B5E00020FFF769FEA26A1949C2F30722002064
S3150800B5F0FFF762FEA36A1B04EBD5A26B164900206F
S3150800B600FFF75AFEE5E715490020FFF755FE144AED
S3150800B61014490020FFF750FE07B0BDE8F040FFF7D9
S3150800B620B5B911490020FFF747FE084B0F49DA6AFA
S3150800B6300020FFF741FE07B0BDE8F040FFF7A6B9C6
S3150800B64070300208903002083C31020800ED00E034
S3150800B6501C310208103102082C310208F4300208A5
S3150800B66050ED00E000310208D4300208E430020848
S3150800B67010B5EFF3058407490020FFF71DFEC4F354
S3150800B680080205490020FFF717FEBDE81040FFF73E
S3150800B6907DB900BF4C3102086C310208F8B5FFF7D6
S3150800B6A0F7F8FFF7C3F900F0BBF8FFF727F90C4BDB
S3150800B6B01D6855B10B4E0024371F57F8343056F81D
S3150800B6C0340001349847AC42F7D1074A074B126851
S3150800B6D01A6000F0CFF8064B01221A60FCF730FE1C
S3150800B6E0242C0208E0290208C02D01206C2E012016
S3150800B6F0CC2D0120F8B5084B1D6855B1074E00241E
S3150800B700371F57F8343056F8340001349847AC429E
S3150800B710F7D1FFF76BF900BF282C0208742B020833
S3150800B7202DE9F047234D244C24482549254B002272
S3150800B7302A602260012202600A6003F18002C3E9DE
S3150800B740003308339342FAD11F4A204B15684FF04D
S3150800B750000AA3F800A05DB31D4CDFF87C801D4FDE
S3150800B760564601E0AA4523D054F8043B013B03EBB7
S3150800B770830908EBC90903EB430399F80F2007EB84
S3150800B780C3036FF30002C9F80830484689F80F204A
S3150800B79000F024F8D9F80830C9F814601B68DB07EC
S3150800B7A00AF1010ADED5484600F026F8AA45DBD19B
S3150800B7B0BDE8F087D82D0120DC2D0120D42D0120ED
S3150800B7C0D02D0120E42D0120182C0208E02D01209F
S3150800B7D02C2C0208802B0208E02B0120C37B8268F0
S3150800B7E00021017323F01E03127B427343F0080302
S3150800B7F08273C373704700BF82685269203A10B4D7
S3150800B8000021054C82610122C46141625DF8044B46
S3150800B810027300F047BF00BFDD8300080000000088
S3150800B8209FED0B7B0C4B0D490D4A0E4810B483ED6A
S3150800B830007B0D4C00230B600C4923600C4C046004
S3150800B8400B605DF8044B1260704700BFAFF30080D1
S3150800B8500000000000000000782E0120682E01205C
S3150800B860D02C0120642E0120702E0120742E012078
S3150800B870003E14F4704700BF2DE9F04F8BB0EFF38C
S3150800B880148515F0020301930FD04448444B0490E5
S3150800B89040F25122022402A90020CDE90523029490
S3150800B8A0FEF766FBFFF772F8FEE7DFF80C81D8F8BB
S3150800B8B00030002B58D1EFF31182102383F312883E
S3150800B8C0384901230A60C8F80030BFF34F8FDFF804
S3150800B8D0ECA0DFF8EC90344F344ECAF8003009F18A
S3150800B8E0040401F0DBF8D9F80000A0422AD30022AC
S3150800B8F008E0DBE902309847D9F80000A0424FF08B
S3150800B9000102EED3D9F804B03B68DBF800103568BD
S3150800B910C91AEB1A9942A0F1040C11D8019BC9F86F
S3150800B92000C00133A4450193E3D303682046196890
S3150800B93001F07CF8D9F800305B6803605860D8E7F6
S3150800B940002ACED1019BFBB1FFF794FF0023CAF86A
S3150800B9500030C8F80030BFF34F8F124B1B6883F3D3
S3150800B96011880BB0BDE8F08F0C49114B049140F2D9
S3150800B9705222022402A901980294CDE90523FEF772
S3150800B980F7FAFFF703F8FEE70A4B0493012202A928
S3150800B99005200292FEF7ECFAD6E700BF8C310208C2
S3150800B9A0BC310208C82D0120642E0120682E012012
S3150800B9B0CC310208DC310208C42D0120702E01208A
S3150800B9C0D02C012070B52C4C2568002D50D10028AC
S3150800B9D026D042DD294B1B6883423EDB284B0138C3
S3150800B9E000EB800003EBC000EFF31183102282F313
S3150800B9F01288244E336001232360BFF34F8F037BE5
S3150800BA00E3B183681B68990711D56FF02A050023EF
S3150800BA102360BFF34F8F336883F31188284670BDC0
S3150800BA20EFF314839A0718D5174B1868DCE7C37B1E
S3150800BA30DA07EAD443F00103C373E8E7FFF7DCFE4D
S3150800BA40114A124B106819688842E0D0EFF3148344
S3150800BA509B0706D5FCF78EFCD9E76FF0110528463B
S3150800BA6070BD4FF0E0234FF08052C3F8042DCEE7A7
S3150800BA706FF01805D2E700BFC42D0120182C020864
S3150800BA80E02B0120C82D0120D82D0120DC2D012016
S3150800BA9070B582B0EFF31483980719D51C4D2C683E
S3150800BAA0B4B91C4B1B689BB1102383F311881A4A3F
S3150800BAB0012314602B60BFF34F8F184E3068C37B89
S3150800BAC059070AD49A0713D564F34103C37306E0EA
S3150800BAD06FF01804204602B070BD6FF034040023DE
S3150800BAE02B60BFF34F8F83F31188204602B070BDD9
S3150800BAF00423037300F0FEFD3068019401AB036173
S3150800BB00074B32461968FCF735FC019CE7E700BF8E
S3150800BB10C42D0120D02D0120C82D0120D82D0120AB
S3150800BB20DC2D012070B52D4C2568002D53D1002839
S3150800BB3022D033DD2A4B1B6883422FDB294B013881
S3150800BB4000EB800003EBC000EFF31183102282F3B1
S3150800BB501288254E336001232360BFF34F8F037B82
S3150800BB608BB96FF0280500232360BFF34F8F336826
S3150800BB7083F31188284670BDEFF314839A070DD511
S3150800BB801A4B1868E0E723F00203042B0DD0C37B99
S3150800BB909A0707D443F00203C373E4E76FF011056D
S3150800BBA0284670BD6FF02A05DDE700F043FE0F4A10
S3150800BBB00F4B106819688842D5D0EFF314839B079A
S3150800BBC002D5FCF7D7FBCEE74FF0E0234FF08052C3
S3150800BBD0C3F8042DC7E76FF01805CBE7C42D01207D
S3150800BBE0182C0208E02B0120C82D0120D82D012091
S3150800BBF0DC2D0120EFF314839A0725D570B5224D65
S3150800BC002B6886B0002B39D1204A1268002A35D015
S3150800BC101F4A9042044634D8102282F311881D49DF
S3150800BC2001220B602A60BFF34F8F1B4E3068C37B1F
S3150800BC305B070CD56FF0340000232B60BFF34F8FE2
S3150800BC4083F3118806B070BD6FF01800704708239B
S3150800BC50037300F04FFD3368059301AA1A6102A821
S3150800BC600E4B01902146049300F052FF0C4B3068AE
S3150800BC7019683246FCF77EFB0198DDE76FF018007D
S3150800BC80E0E76FF01000DDE7C42D0120D02D01207C
S3150800BC9000286BEEC82D0120D82D012095C8000874
S3150800BCA0DC2D012008B5EFF314839B0719D5194B32
S3150800BCB01A68CAB1184B1A686AB9184A116809B9D4
S3150800BCC00121116016490A68F2B901221A6000F0CA
S3150800BCD0B5FC144B1860144B186800F07BFDFCF794
S3150800BCE040FB6FF0180008BDEFF31180102282F3B5
S3150800BCF012880B49012208601A60BFF34F8F064B62
S3150800BD001A68002AE7D1D8E71209102A1CBF0022B0
S3150800BD100A60DAE7C42D0120D02D0120D42D012098
S3150800BD20C82D0120DC2D0120D82D0120084B1868CC
S3150800BD3068B1084B084A03EB00105168D960C3E99B
S3150800BD4001321B601033834202F10C02F5D17047B1
S3150800BD50142C020850BB0020042B0208F0B5314C05
S3150800BD60256889B0002D5AD1002855DD2E4B1B6851
S3150800BD70834251DB431EEFF31182102181F31288AF
S3150800BD802A4E326001222260BFF34F8F284A1901DA
S3150800BD9002EB0313885883421AD007688F507B60DA
S3150800BDA000F048FD234A244B10681968884205D0DC
S3150800BDB0EFF314839B0728D5FCF7DCFA00232360EE
S3150800BDC0BFF34F8F336883F31188284609B0F0BD57
S3150800BDD05A6893420ED01949194B02919A220224A5
S3150800BDE069462846CDE903230094FEF7C1F8FEF715
S3150800BDF0CDFDFEE7D3E9021289688A4202D36FF0C5
S3150800BE002A05DBE70132DA60D8E74FF0E0234FF086
S3150800BE108052C3F8042DD1E76FF01105D5E76FF00E
S3150800BE201805D2E7C42D0120142C0208C82D0120BC
S3150800BE3050BB0020D82D0120DC2D01200C32020831
S3150800BE4038320208EFF314839A0726D530B5234C07
S3150800BE50226883B0002A3BD1214B1B68002B37D0C0
S3150800BE60002838DD1F4B1B68834234DB102383F31D
S3150800BE7011881D4901230A602360BFF34F8F1B4DAC
S3150800BE802B68DB7B5B070CD41949431E01EB0310B7
S3150800BE90C3688BB1013BC36005E06FF0180210461A
S3150800BEA070476FF0340200232360BFF34F8F83F38C
S3150800BEB01188104603B030BD6A46402100F03AFDAD
S3150800BEC00C4B286819682A46FCF754FA009AEAE7E0
S3150800BED06FF01802EDE76FF01102EAE7C42D0120B2
S3150800BEE0D02D0120142C0208C82D0120D82D0120A0
S3150800BEF050BB0020DC2D0120F8B5EFF314839B0717
S3150800BF002ED51B4E35685DBB00282DDD194B1B68E9
S3150800BF10834229DB0138EFF31183102282F312885A
S3150800BF20154F3B6001233360BFF34F8F134C04EB6F
S3150800BF300014204600F02AFDA368114A5B68E360F6
S3150800BF40104B10681968884201D0FCF713FA0023D1
S3150800BF503360BFF34F8F3B6883F311882846F8BDDB
S3150800BF606FF018052846F8BD6FF01105FAE700BF0F
S3150800BF70C42D0120142C0208C82D012050BB002016
S3150800BF80D82D0120DC2D01202DE9F843154B1F681B
S3150800BF902FB3154D154CDFF8589000264FF00108C1
S3150800BFA007E00136BE42636005F1140504F1180482
S3150800BFB015D02B68256013F00203C4E90494F0D069
S3150800BFC020462B69C4F80480013640F8083F00F083
S3150800BFD091FDBE4205F1140504F11804E9D1BDE846
S3150800BFE0F88300BF102C0208B4270208ECAA002028
S3150800BFF0A1C000082DE9F04383B0EFF314839B0733
S3150800C00036D5234E35689DBB00283EDD214B1B687F
S3150800C01083423ADB441EEFF31183102282F312881F
S3150800C020DFF874800121C8F800303160BFF34F8F04
S3150800C030DFF8689004EB440009EBC00204FA01F744
S3150800C0405368C000D3B90830516048443C4459F895
S3150800C0503430196900F05CFD00233360BFF34F8F5D
S3150800C060D8F8003083F31188284603B0BDE8F0837A
S3150800C0706FF01805284603B0BDE8F0830830484439
S3150800C080019000F069FD0198E0E76FF01105F1E70E
S3150800C090C42D0120102C0208C82D0120ECAA00206E
S3150800C0A002688368D268134470B5044640F8083FAE
S3150800C0B000F020FD0C4D00232B60BFF34F8F0B4E75
S3150800C0C0336883F311882368D3E9010290472B6804
S3150800C0D04BB9EFF31182102383F3128801233260E0
S3150800C0E02B60BFF34F8F70BDC42D0120C82D0120D2
S3150800C0F0074B1A6852B9EFF31180102282F312889F
S3150800C1000449012208601A60BFF34F8F0020704768
S3150800C110C42D0120C82D0120064B1A683AB1002209
S3150800C1201A60BFF34F8F044B1B6883F311880020F6
S3150800C130704700BFC42D0120C82D0120EFF31483DA
S3150800C1409B071BD50F4B1868C0B910B4EFF31184C1
S3150800C150102282F312880C4A012114601960BFF379
S3150800C1604F8F0A4C0A49206008601860BFF34F8F4A
S3150800C170136883F311885DF8044B70476FF0180055
S3150800C180704700BFC42D0120C82D0120D42D0120E1
S3150800C190D02D012070B5EFF314839B071DD51D4DD7
S3150800C1A02C68D4B9EFF31182102383F312881A4E40
S3150800C1B0012332602B60BFF34F8F184A1360336830
S3150800C1C07BB11B09102B0CD000232B60BFF34F8FBC
S3150800C1D0336883F31188204670BD6FF01804204633
S3150800C1E070BD0F4B01221A6000F028FA0D4B0E4A5B
S3150800C1F0186001461068C37B03F00C030C2B04D0AF
S3150800C2008842E1D0FCF7B6F8DEE700F0E3FAFCF77F
S3150800C210A8F800BFC42D0120C82D0120D42D012067
S3150800C220D02D0120DC2D0120D82D0120EFF3148319
S3150800C2309B0702D5054B1B680BB101207047044BC1
S3150800C2401868B0FA80F04009704700BFC42D012075
S3150800C250D02D0120074B70B51E6856B1064C002537
S3150800C260D4E90112013554F80C0BFFF70BF9B54266
S3150800C270F6D170BD1C2C0208F4290208A0F10F03A0
S3150800C280662B50D82A490A6830B41AB3294B440990
S3150800C29000F01F0C53F82440012303FA0CF3234241
S3150800C2A03CD00F2833D0A0F110035D09224C03F0CF
S3150800C2B01F03012000FA03F344F825301ABB1F4C6C
S3150800C2C000230B60BFF34F8F236883F31188104652
S3150800C2D030BC7047EFF31183102484F31288174C8F
S3150800C2E0236001230B60BFF34F8F124D4FEA501C9A
S3150800C2F055F82C5000F01F0C03FA0CF32B42D0D142
S3150800C3006FF02802DCE70022104630BC70474FF079
S3150800C310E020036923F002030361CFE76FF02802E8
S3150800C320104630BC70476FF010021046704700BFC9
S3150800C330C42D01209427020880E100E0C82D0120C1
S3150800C340A0F10F03662B53D830B42B4C216831B3B8
S3150800C3502A4B420900F01F0C53F82220012303FA46
S3150800C3600CF313423FD00F2836D0A0F11002530920
S3150800C3709B0003F1604303F5614302F01F020120AD
S3150800C38000FA02F21A6019BB1D4A00232360BFF3A4
S3150800C3904F8F136883F31188084630BC7047EFF354
S3150800C3A01183102282F31288154A13600123236031
S3150800C3B0BFF34F8F114D4FEA501C55F82C5000F023
S3150800C3C01F0C03FA0CF32B42CDD16FF02801DCE7E2
S3150800C3D00021084630BC70474FF0E022136943F04D
S3150800C3E002031361CFE76FF02801084630BC704797
S3150800C3F06FF0100108467047C42D012094270208E3
S3150800C400C82D0120074B70B51D6855B1064E05EBC2
S3150800C4104505002456F824000334FEF783FFAC4292
S3150800C420F8D170BD202C02083C23020800B583B061
S3150800C43001AA04F0BFF803B05DF804FB04F0F6B8EF
S3150800C44010B5044682B0084602F0BEFF0021024637
S3150800C4500190204603F068FB019A08B902B010BDA6
S3150800C4600021204602B0BDE8104003F05DBB00BFC6
S3150800C47070B505460E4601E0FFF7BCFB3146284677
S3150800C48003F014FD082804464FF47A70F4D01CB162
S3150800C490204670BDFFF7AEFB284603F019FD0828B5
S3150800C4A003464FF47A70F5D063B1284603F016FDBB
S3150800C4B001E0FFF79FFB284603F00AFD08284FF422
S3150800C4C07A70F6D02B681B783D2B03D03E2B07D00D
S3150800C4D0252BDDD147F23050FFF78CFB204670BD87
S3150800C4E04CF25030F8E700BF30B5044683B00D462D
S3150800C4F001E0FFF77FFB01A9204602F017FA08289A
S3150800C50003464CF25030F4D04BB9019803681B78B7
S3150800C510AB4202D05C2D18BF002003B030BD00200E
S3150800C52003B030BDF0B5437A8B4283B00546144656
S3150800C5300DD00E46FFF79CFF48B16B7AB34243D045
S3150800C5403146284603B0BDE8F040FFF791BF01A980
S3150800C550284603F0A2FC90BB697A0DF103030DF19E
S3150800C5600202284603F083FC074698BB9DF8025052
S3150800C570002D39D0019E9DF80310013D731C2246FB
S3150800C58001F0030153FA85F53046344610E00129D7
S3150800C59014BF96F90060B4F900601660AB421E46F7
S3150800C5A002F1040204F1020400F104000CD0013384
S3150800C5B002290CD00329EAD106681660EEE701A91C
S3150800C5C0284603F06AFC0746384603B0F0BD0668FD
S3150800C5D01660E3E7697A0DF103030DF102022846B6
S3150800C5E003F045FC0746EFE70327EDE730B50546B8
S3150800C5F083B001E0FFF7FEFA01A9284602F096F992
S3150800C600082804464CF25030F4D084B901980368DF
S3150800C6105B78DD070ED55A0709D513F0080F437A5C
S3150800C62014BF042102218B4201D0FFF721FF2046C7
S3150800C63003B030BD0524204603B030BD144B18881E
S3150800C640A8B1C3B283B1002110F00F03114A08BF85
S3150800C650C0F303131A4408BF043112F8013C0E480C
S3150800C6600B4450F833007047000A0821ECE710B570
S3150800C67088B00A490A4B0291972202246946CDE9F5
S3150800C68003230094FDF774FCFEF780F9FEE700BF6C
S3150800C690E02D012090320208E42D012054320208D0
S3150800C6A08032020890F80EC00E4B0F4A03EBCC01FD
S3150800C6B010B44C6844600160206048600B491488D7
S3150800C6C00968012303FA0CF32343138031B1084A9E
S3150800C6D0136813B19B7B634500D910605DF8044B62
S3150800C6E0704700BFE42D0120E02D0120D02D012048
S3150800C6F0DC2D012030B5D0E90014827B2D4B21605A
S3150800C7004C6053F8321003EBC204A14289B005D03D
S3150800C710294B1A68824225D009B030BD6368994210
S3150800C7200ED02648264B02909A22022469460020FB
S3150800C730CDE903230094FDF71BFCFEF727F9FEE776
S3150800C740204C1D4D2388012101FA02F223EA020238
S3150800C7502B6822808342DFD11B4B1868B0B122BBFD
S3150800C7602A60D9E7184A106808B11960D4E717494A
S3150800C770174B02914FF4897202246946CDE90323C7
S3150800C7800094FDF7F5FBFEF701F9FEE70F49104B9C
S3150800C79002914FF4867202246946CDE90323009478
S3150800C7A0FDF7E6FBFEF7F2F8FEE7FFF747FF02465E
S3150800C7B0D6E700BFE42D0120DC2D01200C3202084B
S3150800C7C038320208E02D0120D02D0120543202080B
S3150800C7D0A032020810B5037BD90704461DD413F00E
S3150800C7E07C0F0CD163691BB1114B20461B68984717
S3150800C7F02046FEF7F3FFE37BDA0711D410BD13F0EA
S3150800C800600F03D0D0E9003213605A6023691868B4
S3150800C8100028E7D000F0A0F9E4E7FFF76BFFE1E7AF
S3150800C8206FF30003E3732046BDE81040FEF7E4BF4C
S3150800C830802E012010B503690446186888B010B127
S3150800C84000F08AF9236900221A60237B13F07C0022
S3150800C8500DD09B0703D50223237308B010BD01230F
S3150800C8602046237308B0BDE81040FFF71BBF0749F1
S3150800C870074B0291712202246946CDE903230094ED
S3150800C880FDF776FBFEF782F8FEE700BFA83202083E
S3150800C890D432020830B5026900211160027B12F019
S3150800C8A07C0189B02AD0920723D5022202731B4A3B
S3150800C8B01B4B12681B689A4205D04FF0E0234FF0D5
S3150800C8C08052C3F8042D174B00221A60BFF34F8F0E
S3150800C8D0154A116881F3118800BFEFF31180102102
S3150800C8E081F31288012110601960BFF34F8F09B0D8
S3150800C8F030BD01220273FFF7D5FED8E70B4B0C4C6F
S3150800C90002947122022508466946CDE9032300955B
S3150800C910FDF72EFBFEF73AF8FEE700BFD82D0120FB
S3150800C920DC2D0120C42D0120C82D0120D432020897
S3150800C930A832020870B5144E3368044619731846AF
S3150800C9401546FFF7D7FEA36831681B680D610022FC
S3150800C950DB072A6006D46368C1E900431960616091
S3150800C9606C6070BD2368887B9C4203D105E01B6818
S3150800C9709C4202D09A7B8242F9D95A68C1E90032B0
S3150800C980116059606C6070BDD82D01202DE9F04109
S3150800C9900568A84288B0044618D06FF03208022607
S3150800C9A001272B692A6818682260546010B100F0C4
S3150800C9B0D3F82B69C3F800802B7B13F07C001CD0BE
S3150800C9C09B0715D52E732568AC42EAD163689C424D
S3150800C9D021D01248124B02909A220224694600205E
S3150800C9E0CDE903230094FDF7C3FAFDF7CFFFFEE771
S3150800C9F02F732846FFF756FEE5E70A490A4B0291C8
S3150800CA00712202246946CDE903230094FDF7B0FAA2
S3150800CA10FDF7BCFFFEE708B0BDE8F0810C3202085E
S3150800CA2038320208A8320208D432020870B5194C06
S3150800CA30031B22689B1004EBC303934229D8164DA7
S3150800CA402D68A1EB050E10E01A6812681946521BEC
S3150800CA500B1B9B10964504EBC3031AD90A680260A0
S3150800CA60506022689A42084613D3191D9142EBD8A2
S3150800CA70D3E9006212683668521BA6EB050C6245BC
S3150800CA8024BF194662460B1B9B10964504EBC3034D
S3150800CA90E4D870BDD02C0120642E01200E490F4B1E
S3150800CAA070B40F4C18680B6822680E4D0860C31ADC
S3150800CAB0991821602C680C480C4EA21A08449A4210
S3150800CAC0306002D2A14202D3296070BC7047084A7E
S3150800CAD0536801335360F7E76C2E0120C02D0120FF
S3150800CAE0682E0120742E0120003E14F4642E0120C5
S3150800CAF0782E0120054A136810B50446181D2168CA
S3150800CB00106000F063F80460606010BDD02C01204E
S3150800CB1070B504460E46FFF7C1FF0C4B0C4D1B685B
S3150800CB20286803F57A73991904302160286000F0A3
S3150800CB304DF8084B1B680460606013B90435A842B9
S3150800CB4000D070BDBDE87040FEF794BE682E012087
S3150800CB50D02C0120702E0120F8B5194D46682A6898
S3150800CB602C46131F44F8043BA34218D31368A64265
S3150800CB7019680DD9701BC010124B55F820701A6829
S3150800CB803B68A1EB020C9B1A9C4505EB80000CD375
S3150800CB903046FFF74BFF2B685B68036058600A4B0B
S3150800CBA01B680BB9A64205D0F8BD37607E6000F059
S3150800CBB00DF8F0E7FFF772FFBDE8F840FEF75ABE3A
S3150800CBC0D02C0120642E0120702E012030B50E4C89
S3150800CBD0A042844616D90D4B1D68A4F1040E491BC4
S3150800CBE003E0A445026050600CD9ACEB0E03DB10E1
S3150800CBF060465EF823200EEB830C13685B1B8B42A2
S3150800CC00EFD830BD604630BDD42C0120642E0120FB
S3150800CC1008B503F0ADF90028FBD1BDE80840FCF7DC
S3150800CC2015BD08B503F08EF905F0EEFB012003F0FB
S3150800CC3093F9062005F0D2FE002005F06FFB0820C8
S3150800CC4005F01EFFB0B1062005F0F0FE002005F045
S3150800CC5065FB012003F080F905F0ECFB072005F0E1
S3150800CC60BDFEFFF7D5FF01F0F5FF0028F9D102F068
S3150800CC70D5F9F6E7FFF7CCFFE1E700002DE9F04F1D
S3150800CC806B4ADFF8B481DFF8B49185B000230C68ED
S3150800CC9001279F4007EA040537EA040440F0B580F7
S3150800CCA04C6824F0100ABAF1020F16D14FEAD30ED7
S3150800CCB000EB8E0E03F0070BDEF820604FEA8B0BB5
S3150800CCC04FF00F0C0CFA0BFC26EA0C0C0E6906FA50
S3150800CCD00BF646EA0C06CEF82060D0F800B04FEA0C
S3150800CCE0430E4FF0030C0CFA0EFC6FEA0C062BEA07
S3150800CCF00C0B04F0030C0CFA0EFC0AF1FF3A4CEA92
S3150800CD000B0CBAF1010F0196C0F800C015D8D0F87F
S3150800CD1008C006EA0C0CCE6806FA0EFA4AEA0C0CAB
S3150800CD20C0F808C0D0F804C02CEA0707C4F3001CF2
S3150800CD300CFA03FC4CEA07074760C768019E3740B0
S3150800CD408E6806FA0EF63E43C660E6005DD54FF0DD
S3150800CD50000BCDF80CB0D8F84470364E47F480472F
S3150800CD60C8F84470D8F8447007F480470397039FBF
S3150800CD7023F0030707F1804707F59C3703F0030EF6
S3150800CD80D7F808A04FEA8E0E4FF00F0C0CFA0EFCDF
S3150800CD90B0422AEA0C0C3FD006F58066B0423DD078
S3150800CDA006F58066B0423BD006F58066B04239D0BB
S3150800CDB006F58066B04237D0484537D006F5006696
S3150800CDC0B0420CBF0626072606FA0EF646EA0C06F9
S3150800CDD0BE601668EF4314F4803F0CBF3E402E43F6
S3150800CDE01660566814F4003F0CBF3E402E4356604A
S3150800CDF0966814F4801F0CBF3E402E439660D66892
S3150800CE00A40254BF3E402E43D6600133102B7FF454
S3150800CE103EAF05B0BDE8F08F5E46D5E70126D3E7FD
S3150800CE200226D1E70326CFE70426CDE70526CBE77A
S3150800CE30003C014000000240003802400014024055
S3150800CE400369194214BF0120002070470AB18161A5
S3150800CE5070470904FBE74369594041617047000080
S3150800CE60044A5169014208B502D0506102F032FA0B
S3150800CE7008BD00BF003C01400368F7B50446D80763
S3150800CE803BD42368990700F1898023681E0700F1BF
S3150800CE90CA8023685D072AD5002301938B4B8C4DE6
S3150800CEA01A6C42F080521A641B6C03F0805301938B
S3150800CEB0019B2B6843F480732B60FDF719FE064629
S3150800CEC02B68DA0540F1D380A368804D012B40F02A
S3150800CED0D5802B6F43F001032B67FDF709FE7B4EC8
S3150800CEE0054641F28837336F9B0740F1E880A2690F
S3150800CEF0002A40F0F180002015E0744B9A6802F091
S3150800CF000C02042A07D09A6802F00C02082A0CD1EF
S3150800CF105A68520209D56D4B1B689B03B1D56368E5
S3150800CF20002BAED1012003B0F0BD6268B2F5803F98
S3150800CF3011D11A6842F480321A60FDF7D9FD634EA2
S3150800CF40054633689F039CD4FDF7D2FD401B642831
S3150800CF50F7D90320E7E75D4DB2F5A02F2B6807D177
S3150800CF6043F480232B602B6843F480332B60E4E77B
S3150800CF7023F480332B602B6823F480232B60002A4C
S3150800CF80DBD1FDF7B5FD06462B6898037FF579AF2B
S3150800CF90FDF7AEFD801B6428F6D9DAE74B4B9A6895
S3150800CFA012F00C0F07D09A6802F00C02082A17D163
S3150800CFB05B68590214D4454B1A68920702D5E26891
S3150800CFC0012AAFD11968236921F0F801F82292FAEB
S3150800CFD0A2F2B2FA82F293403C4A0B43136054E73A
S3150800CFE0E2683C4B82B101221A60FDF781FD374E9B
S3150800CFF0054633689B0701D53168E4E7FDF778FDF8
S3150800D000401B0228F5D9A4E71A60FDF771FD2F4EDB
S3150800D010054633689F077FF538AFFDF769FD401B66
S3150800D0200228F6D995E762692A4B82B10122C3F82C
S3150800D030802EFDF75DFD254E0546736F98073FF573
S3150800D04028AFFDF755FD401B0228F6D981E7C3F83E
S3150800D050802EFDF74DFD1D4E0546736F99077FF52A
S3150800D06018AFFDF745FD401B0228F6D971E7FDF715
S3150800D0703FFD801B02287FF623AF6AE7052B04D104
S3150800D0802B6F43F004032B6723E72A6F22F0010274
S3150800D0902A672A6F22F004022A67002B7FF41DAF45
S3150800D0A0FDF726FD41F2883706462B6F98077FF570
S3150800D0B01EAFFDF71DFD801BB842F6D949E7FDF7FF
S3150800D0C017FD401BB8427FF60EAF42E70038024014
S3150800D0D00070004000004742304DAB6803F00C0377
S3150800D0E0082B3FF41FAF2E4B022A4FF000021A6698
S3150800D0F046D1FDF7FDFC06462B6899013AD4D4E9DA
S3150800D100072147F6C0731143626A93FAA3F3B3FA89
S3150800D11083F39A40A36A5B080A43013B4FF4403104
S3150800D12091FAA1F1B1FA81F18B4013434FF0706186
S3150800D130E26A91FAA1F1B1FA81F18A401A434FF0F5
S3150800D140E041236B91FAA1F1B1FA81F18B40134DBD
S3150800D15013436B60124B01221A66FDF7C9FC04469D
S3150800D1602B689A013FF5C7AEFDF7C2FC001B0228E3
S3150800D170F6D9EEE6FDF7BCFC801B0228BCD9E8E62A
S3150800D180FDF7B6FC04462B689B017FF5B4AEFDF7A8
S3150800D190AFFC001B0228F6D9DBE600BF00380240C8
S3150800D1A0000047421C4A936803F00C03082B30D151
S3150800D1B05168536813F4800F01F03F0147F6C073B6
S3150800D1C01BD05068184093FAA3F3B3FA83F3D840F8
S3150800D1D0124B5843B0FBF1F080000F4B5B684FF4DD
S3150800D1E0403203F4403392FAA2F2B2FA82F2D34002
S3150800D1F001335B00B0FBF3F070470948B0FBF1F16F
S3150800D2005068184093FAA3F3B3FA83F3D840484317
S3150800D210E3E70348704700BF0038024000093D00B5
S3150800D2200024F400554B1A6802F00F028A422DE9D1
S3150800D230F04104460D462FD32268960736D4D00708
S3150800D2403CD44E4B1A6802F00F02AA4200F28680BE
S3150800D2502268510700F18A80130707D5484A2169D1
S3150800D260936823F4604343EAC1039360FFF79AFF88
S3150800D270434B9B68F02203F0F00392FAA2F2B2FA4B
S3150800D28082F2D3403F4AD35CD8403F4B18600F2008
S3150800D290FDF72CFC002007E0CAB21A701B6803F0E1
S3150800D2A00F038B42C8D00120BDE8F0813449A0683D
S3150800D2B08B6823F0F00303438B60C0E76268304B4A
S3150800D2C0012A1DD11B6813F4003FECD02C4EB3681D
S3150800D2D023F003031343B360FDF70AFC6368012BCD
S3150800D2E0074641F2883815D1B36803F00C03042BBE
S3150800D2F0A7D0FDF7FDFBC01B4045F5D90320D3E7B2
S3150800D300911E01291B6802D813F0007FDDE713F090
S3150800D310020FDAE7022B0AD1B36803F00C03082BD5
S3150800D3208FD0FDF7E5FBC01B4045F5D9E6E7032B93
S3150800D3300FD1B36803F00C030C2B82D0FDF7D8FB92
S3150800D340C01B4045F5D9D9E7FDF7D2FBC01B4045C0
S3150800D350D4D8B36813F00C0FF6D172E7EAB21A7094
S3150800D3601B6803F00F03AB429DD171E70449E068DF
S3150800D3708B6823F4E05303438B606DE7003C02405F
S3150800D38000380240B42C02084C000020014B1868F3
S3150800D390704700BF4C000020084B1868084B9B6874
S3150800D3A04FF4E05203F4E05392FAA2F2B2FA82F290
S3150800D3B0D340044AD35CD840704700BF4C000020D5
S3150800D3C000380240C42C0208084B1868084B9B68B2
S3150800D3D04FF4604203F4604392FAA2F2B2FA82F280
S3150800D3E0D340044AD35CD840704700BF4C000020A5
S3150800D3F000380240C42C02080168074B0B445B0145
S3150800D40000225A611A62054B0B445B011A602023FD
S3150800D41080F83A30704700BF0C0010C2140010C2E2
S3150800D4202DE9F8430368C1681A69044622F4405294
S3150800D4300A431A612569A268D968C0692A436569D9
S3150800D44021F416412A4321F00C0102430A43DA600B
S3150800D4505A69A16922F440720A43B0F5004F5A612D
S3150800D4608B4A40F08D8093420BD002F5806293423E
S3150800D47007D002F58062934203D002F58062934298
S3150800D48049D1FFF7A1FF63684FF019094FF0640807
S3150800D49009FB00F05B00B0FBF3F3B3FBF8F31F01E5
S3150800D4A0FFF792FF656809FB00F06D00B0FBF5F524
S3150800D4B0FFF78AFF666809FB00F07600B0FBF6F610
S3150800D4C0FFF782FFB6FBF8F608FB16566368F60008
S3150800D4D03236B6FBF8F6760009FB00F05B0006F478
S3150800D4E0F876B0FBF3F5FFF76FFF6368226809FB70
S3150800D4F000F05B00B0FBF3F3B3FBF8F308FB135340
S3150800D500DB003233B3FBF8F303F007033B44334441
